{
  "contractName": "ERC721WithData",
  "abi": [
    {
      "inputs": [
        {
          "internalType": "string",
          "name": "name",
          "type": "string"
        },
        {
          "internalType": "string",
          "name": "symbol",
          "type": "string"
        }
      ],
      "stateMutability": "nonpayable",
      "type": "constructor"
    },
    {
      "anonymous": false,
      "inputs": [
        {
          "indexed": true,
          "internalType": "address",
          "name": "owner",
          "type": "address"
        },
        {
          "indexed": true,
          "internalType": "address",
          "name": "approved",
          "type": "address"
        },
        {
          "indexed": true,
          "internalType": "uint256",
          "name": "tokenId",
          "type": "uint256"
        }
      ],
      "name": "Approval",
      "type": "event"
    },
    {
      "anonymous": false,
      "inputs": [
        {
          "indexed": true,
          "internalType": "address",
          "name": "owner",
          "type": "address"
        },
        {
          "indexed": true,
          "internalType": "address",
          "name": "operator",
          "type": "address"
        },
        {
          "indexed": false,
          "internalType": "bool",
          "name": "approved",
          "type": "bool"
        }
      ],
      "name": "ApprovalForAll",
      "type": "event"
    },
    {
      "anonymous": false,
      "inputs": [
        {
          "indexed": true,
          "internalType": "address",
          "name": "previousOwner",
          "type": "address"
        },
        {
          "indexed": true,
          "internalType": "address",
          "name": "newOwner",
          "type": "address"
        }
      ],
      "name": "OwnershipTransferred",
      "type": "event"
    },
    {
      "anonymous": false,
      "inputs": [
        {
          "indexed": true,
          "internalType": "address",
          "name": "from",
          "type": "address"
        },
        {
          "indexed": true,
          "internalType": "address",
          "name": "to",
          "type": "address"
        },
        {
          "indexed": true,
          "internalType": "uint256",
          "name": "tokenId",
          "type": "uint256"
        }
      ],
      "name": "Transfer",
      "type": "event"
    },
    {
      "inputs": [
        {
          "internalType": "address",
          "name": "to",
          "type": "address"
        },
        {
          "internalType": "uint256",
          "name": "tokenId",
          "type": "uint256"
        }
      ],
      "name": "approve",
      "outputs": [],
      "stateMutability": "nonpayable",
      "type": "function"
    },
    {
      "inputs": [
        {
          "internalType": "address",
          "name": "owner",
          "type": "address"
        }
      ],
      "name": "balanceOf",
      "outputs": [
        {
          "internalType": "uint256",
          "name": "",
          "type": "uint256"
        }
      ],
      "stateMutability": "view",
      "type": "function"
    },
    {
      "inputs": [
        {
          "internalType": "uint256",
          "name": "tokenId",
          "type": "uint256"
        }
      ],
      "name": "getApproved",
      "outputs": [
        {
          "internalType": "address",
          "name": "",
          "type": "address"
        }
      ],
      "stateMutability": "view",
      "type": "function"
    },
    {
      "inputs": [
        {
          "internalType": "address",
          "name": "owner",
          "type": "address"
        },
        {
          "internalType": "address",
          "name": "operator",
          "type": "address"
        }
      ],
      "name": "isApprovedForAll",
      "outputs": [
        {
          "internalType": "bool",
          "name": "",
          "type": "bool"
        }
      ],
      "stateMutability": "view",
      "type": "function"
    },
    {
      "inputs": [],
      "name": "name",
      "outputs": [
        {
          "internalType": "string",
          "name": "",
          "type": "string"
        }
      ],
      "stateMutability": "view",
      "type": "function"
    },
    {
      "inputs": [],
      "name": "owner",
      "outputs": [
        {
          "internalType": "address",
          "name": "",
          "type": "address"
        }
      ],
      "stateMutability": "view",
      "type": "function"
    },
    {
      "inputs": [
        {
          "internalType": "uint256",
          "name": "tokenId",
          "type": "uint256"
        }
      ],
      "name": "ownerOf",
      "outputs": [
        {
          "internalType": "address",
          "name": "",
          "type": "address"
        }
      ],
      "stateMutability": "view",
      "type": "function"
    },
    {
      "inputs": [],
      "name": "renounceOwnership",
      "outputs": [],
      "stateMutability": "nonpayable",
      "type": "function"
    },
    {
      "inputs": [
        {
          "internalType": "address",
          "name": "from",
          "type": "address"
        },
        {
          "internalType": "address",
          "name": "to",
          "type": "address"
        },
        {
          "internalType": "uint256",
          "name": "tokenId",
          "type": "uint256"
        }
      ],
      "name": "safeTransferFrom",
      "outputs": [],
      "stateMutability": "nonpayable",
      "type": "function"
    },
    {
      "inputs": [
        {
          "internalType": "address",
          "name": "from",
          "type": "address"
        },
        {
          "internalType": "address",
          "name": "to",
          "type": "address"
        },
        {
          "internalType": "uint256",
          "name": "tokenId",
          "type": "uint256"
        },
        {
          "internalType": "bytes",
          "name": "_data",
          "type": "bytes"
        }
      ],
      "name": "safeTransferFrom",
      "outputs": [],
      "stateMutability": "nonpayable",
      "type": "function"
    },
    {
      "inputs": [
        {
          "internalType": "address",
          "name": "operator",
          "type": "address"
        },
        {
          "internalType": "bool",
          "name": "approved",
          "type": "bool"
        }
      ],
      "name": "setApprovalForAll",
      "outputs": [],
      "stateMutability": "nonpayable",
      "type": "function"
    },
    {
      "inputs": [
        {
          "internalType": "bytes4",
          "name": "interfaceId",
          "type": "bytes4"
        }
      ],
      "name": "supportsInterface",
      "outputs": [
        {
          "internalType": "bool",
          "name": "",
          "type": "bool"
        }
      ],
      "stateMutability": "view",
      "type": "function"
    },
    {
      "inputs": [],
      "name": "symbol",
      "outputs": [
        {
          "internalType": "string",
          "name": "",
          "type": "string"
        }
      ],
      "stateMutability": "view",
      "type": "function"
    },
    {
      "inputs": [
        {
          "internalType": "uint256",
          "name": "tokenId",
          "type": "uint256"
        }
      ],
      "name": "tokenURI",
      "outputs": [
        {
          "internalType": "string",
          "name": "",
          "type": "string"
        }
      ],
      "stateMutability": "view",
      "type": "function"
    },
    {
      "inputs": [
        {
          "internalType": "address",
          "name": "from",
          "type": "address"
        },
        {
          "internalType": "address",
          "name": "to",
          "type": "address"
        },
        {
          "internalType": "uint256",
          "name": "tokenId",
          "type": "uint256"
        }
      ],
      "name": "transferFrom",
      "outputs": [],
      "stateMutability": "nonpayable",
      "type": "function"
    },
    {
      "inputs": [
        {
          "internalType": "address",
          "name": "newOwner",
          "type": "address"
        }
      ],
      "name": "transferOwnership",
      "outputs": [],
      "stateMutability": "nonpayable",
      "type": "function"
    },
    {
      "inputs": [
        {
          "internalType": "address",
          "name": "to",
          "type": "address"
        },
        {
          "internalType": "uint256",
          "name": "tokenId",
          "type": "uint256"
        },
        {
          "internalType": "bytes",
          "name": "data",
          "type": "bytes"
        }
      ],
      "name": "mintWithData",
      "outputs": [],
      "stateMutability": "nonpayable",
      "type": "function"
    },
    {
      "inputs": [
        {
          "internalType": "address",
          "name": "from",
          "type": "address"
        },
        {
          "internalType": "address",
          "name": "to",
          "type": "address"
        },
        {
          "internalType": "uint256",
          "name": "tokenId",
          "type": "uint256"
        },
        {
          "internalType": "bytes",
          "name": "data",
          "type": "bytes"
        }
      ],
      "name": "transferWithData",
      "outputs": [],
      "stateMutability": "nonpayable",
      "type": "function"
    },
    {
      "inputs": [
        {
          "internalType": "address",
          "name": "from",
          "type": "address"
        },
        {
          "internalType": "uint256",
          "name": "tokenId",
          "type": "uint256"
        },
        {
          "internalType": "bytes",
          "name": "data",
          "type": "bytes"
        }
      ],
      "name": "burnWithData",
      "outputs": [],
      "stateMutability": "nonpayable",
      "type": "function"
    }
  ],
  "bytecode": "0x60806040523480156200001157600080fd5b506040516200348e3803806200348e8339818101604052810190620000379190620003ae565b8181620000596200004d6200009560201b60201c565b6200009d60201b60201c565b81600190805190602001906200007192919062000161565b5080600290805190602001906200008a92919062000161565b505050505062000498565b600033905090565b60008060009054906101000a900473ffffffffffffffffffffffffffffffffffffffff169050816000806101000a81548173ffffffffffffffffffffffffffffffffffffffff021916908373ffffffffffffffffffffffffffffffffffffffff1602179055508173ffffffffffffffffffffffffffffffffffffffff168173ffffffffffffffffffffffffffffffffffffffff167f8be0079c531659141344cd1fd0a4f28419497f9722a3daafe3b4186f6b6457e060405160405180910390a35050565b8280546200016f9062000462565b90600052602060002090601f016020900481019282620001935760008555620001df565b82601f10620001ae57805160ff1916838001178555620001df565b82800160010185558215620001df579182015b82811115620001de578251825591602001919060010190620001c1565b5b509050620001ee9190620001f2565b5090565b5b808211156200020d576000816000905550600101620001f3565b5090565b6000604051905090565b600080fd5b600080fd5b600080fd5b600080fd5b6000601f19601f8301169050919050565b7f4e487b7100000000000000000000000000000000000000000000000000000000600052604160045260246000fd5b6200027a826200022f565b810181811067ffffffffffffffff821117156200029c576200029b62000240565b5b80604052505050565b6000620002b162000211565b9050620002bf82826200026f565b919050565b600067ffffffffffffffff821115620002e257620002e162000240565b5b620002ed826200022f565b9050602081019050919050565b60005b838110156200031a578082015181840152602081019050620002fd565b838111156200032a576000848401525b50505050565b6000620003476200034184620002c4565b620002a5565b9050828152602081018484840111156200036657620003656200022a565b5b62000373848285620002fa565b509392505050565b600082601f83011262000393576200039262000225565b5b8151620003a584826020860162000330565b91505092915050565b60008060408385031215620003c857620003c76200021b565b5b600083015167ffffffffffffffff811115620003e957620003e862000220565b5b620003f7858286016200037b565b925050602083015167ffffffffffffffff8111156200041b576200041a62000220565b5b62000429858286016200037b565b9150509250929050565b7f4e487b7100000000000000000000000000000000000000000000000000000000600052602260045260246000fd5b600060028204905060018216806200047b57607f821691505b6020821081141562000492576200049162000433565b5b50919050565b612fe680620004a86000396000f3fe608060405234801561001057600080fd5b50600436106101215760003560e01c806383e49c53116100ad578063b88d4fde11610071578063b88d4fde146102f2578063c0ea7a7a1461030e578063c87b56dd1461032a578063e985e9c51461035a578063f2fde38b1461038a57610121565b806383e49c53146102625780638da5cb5b1461027e57806395d89b411461029c57806396adfe42146102ba578063a22cb465146102d657610121565b806323b872dd116100f457806323b872dd146101c057806342842e0e146101dc5780636352211e146101f857806370a0823114610228578063715018a61461025857610121565b806301ffc9a71461012657806306fdde0314610156578063081812fc14610174578063095ea7b3146101a4575b600080fd5b610140600480360381019061013b9190611c7d565b6103a6565b60405161014d9190611cc5565b60405180910390f35b61015e610488565b60405161016b9190611d79565b60405180910390f35b61018e60048036038101906101899190611dd1565b61051a565b60405161019b9190611e3f565b60405180910390f35b6101be60048036038101906101b99190611e86565b61059f565b005b6101da60048036038101906101d59190611ec6565b6106b7565b005b6101f660048036038101906101f19190611ec6565b610717565b005b610212600480360381019061020d9190611dd1565b610737565b60405161021f9190611e3f565b60405180910390f35b610242600480360381019061023d9190611f19565b6107e9565b60405161024f9190611f55565b60405180910390f35b6102606108a1565b005b61027c60048036038101906102779190611fd5565b610929565b005b6102866109ad565b6040516102939190611e3f565b60405180910390f35b6102a46109d6565b6040516102b19190611d79565b60405180910390f35b6102d460048036038101906102cf9190611fd5565b610a68565b005b6102f060048036038101906102eb9190612075565b610b39565b005b61030c600480360381019061030791906121e5565b610b4f565b005b61032860048036038101906103239190612268565b610bb1565b005b610344600480360381019061033f9190611dd1565b610c08565b6040516103519190611d79565b60405180910390f35b610374600480360381019061036f91906122f0565b610caf565b6040516103819190611cc5565b60405180910390f35b6103a4600480360381019061039f9190611f19565b610d43565b005b60007f80ac58cd000000000000000000000000000000000000000000000000000000007bffffffffffffffffffffffffffffffffffffffffffffffffffffffff1916827bffffffffffffffffffffffffffffffffffffffffffffffffffffffff1916148061047157507f5b5e139f000000000000000000000000000000000000000000000000000000007bffffffffffffffffffffffffffffffffffffffffffffffffffffffff1916827bffffffffffffffffffffffffffffffffffffffffffffffffffffffff1916145b80610481575061048082610e3b565b5b9050919050565b6060600180546104979061235f565b80601f01602080910402602001604051908101604052809291908181526020018280546104c39061235f565b80156105105780601f106104e557610100808354040283529160200191610510565b820191906000526020600020905b8154815290600101906020018083116104f357829003601f168201915b5050505050905090565b600061052582610ea5565b610564576040517f08c379a000000000000000000000000000000000000000000000000000000000815260040161055b90612403565b60405180910390fd5b6005600083815260200190815260200160002060009054906101000a900473ffffffffffffffffffffffffffffffffffffffff169050919050565b60006105aa82610737565b90508073ffffffffffffffffffffffffffffffffffffffff168373ffffffffffffffffffffffffffffffffffffffff16141561061b576040517f08c379a000000000000000000000000000000000000000000000000000000000815260040161061290612495565b60405180910390fd5b8073ffffffffffffffffffffffffffffffffffffffff1661063a610f11565b73ffffffffffffffffffffffffffffffffffffffff161480610669575061066881610663610f11565b610caf565b5b6106a8576040517f08c379a000000000000000000000000000000000000000000000000000000000815260040161069f90612527565b60405180910390fd5b6106b28383610f19565b505050565b6106c86106c2610f11565b82610fd2565b610707576040517f08c379a00000000000000000000000000000000000000000000000000000000081526004016106fe906125b9565b60405180910390fd5b6107128383836110b0565b505050565b61073283838360405180602001604052806000815250610b4f565b505050565b6000806003600084815260200190815260200160002060009054906101000a900473ffffffffffffffffffffffffffffffffffffffff169050600073ffffffffffffffffffffffffffffffffffffffff168173ffffffffffffffffffffffffffffffffffffffff1614156107e0576040517f08c379a00000000000000000000000000000000000000000000000000000000081526004016107d79061264b565b60405180910390fd5b80915050919050565b60008073ffffffffffffffffffffffffffffffffffffffff168273ffffffffffffffffffffffffffffffffffffffff16141561085a576040517f08c379a0000000000000000000000000000000000000000000000000000000008152600401610851906126dd565b60405180910390fd5b600460008373ffffffffffffffffffffffffffffffffffffffff1673ffffffffffffffffffffffffffffffffffffffff168152602001908152602001600020549050919050565b6108a9610f11565b73ffffffffffffffffffffffffffffffffffffffff166108c76109ad565b73ffffffffffffffffffffffffffffffffffffffff161461091d576040517f08c379a000000000000000000000000000000000000000000000000000000000815260040161091490612749565b60405180910390fd5b610927600061130c565b565b610931610f11565b73ffffffffffffffffffffffffffffffffffffffff168473ffffffffffffffffffffffffffffffffffffffff161461099e576040517f08c379a0000000000000000000000000000000000000000000000000000000008152600401610995906127db565b60405180910390fd5b6109a7836113d0565b50505050565b60008060009054906101000a900473ffffffffffffffffffffffffffffffffffffffff16905090565b6060600280546109e59061235f565b80601f0160208091040260200160405190810160405280929190818152602001828054610a119061235f565b8015610a5e5780601f10610a3357610100808354040283529160200191610a5e565b820191906000526020600020905b815481529060010190602001808311610a4157829003601f168201915b5050505050905090565b610a70610f11565b73ffffffffffffffffffffffffffffffffffffffff16610a8e6109ad565b73ffffffffffffffffffffffffffffffffffffffff1614610ae4576040517f08c379a0000000000000000000000000000000000000000000000000000000008152600401610adb90612749565b60405180910390fd5b610b33848484848080601f016020809104026020016040519081016040528093929190818152602001838380828437600081840152601f19601f820116905080830192505050505050506114e1565b50505050565b610b4b610b44610f11565b838361153c565b5050565b610b60610b5a610f11565b83610fd2565b610b9f576040517f08c379a0000000000000000000000000000000000000000000000000000000008152600401610b96906125b9565b60405180910390fd5b610bab848484846116a9565b50505050565b610c0185858585858080601f016020809104026020016040519081016040528093929190818152602001838380828437600081840152601f19601f82011690508083019250505050505050610b4f565b5050505050565b6060610c1382610ea5565b610c52576040517f08c379a0000000000000000000000000000000000000000000000000000000008152600401610c499061286d565b60405180910390fd5b6000610c5c611705565b90506000815111610c7c5760405180602001604052806000815250610ca7565b80610c8684611742565b604051602001610c979291906128c9565b6040516020818303038152906040525b915050919050565b6000600660008473ffffffffffffffffffffffffffffffffffffffff1673ffffffffffffffffffffffffffffffffffffffff16815260200190815260200160002060008373ffffffffffffffffffffffffffffffffffffffff1673ffffffffffffffffffffffffffffffffffffffff16815260200190815260200160002060009054906101000a900460ff16905092915050565b610d4b610f11565b73ffffffffffffffffffffffffffffffffffffffff16610d696109ad565b73ffffffffffffffffffffffffffffffffffffffff1614610dbf576040517f08c379a0000000000000000000000000000000000000000000000000000000008152600401610db690612749565b60405180910390fd5b600073ffffffffffffffffffffffffffffffffffffffff168173ffffffffffffffffffffffffffffffffffffffff161415610e2f576040517f08c379a0000000000000000000000000000000000000000000000000000000008152600401610e269061295f565b60405180910390fd5b610e388161130c565b50565b60007f01ffc9a7000000000000000000000000000000000000000000000000000000007bffffffffffffffffffffffffffffffffffffffffffffffffffffffff1916827bffffffffffffffffffffffffffffffffffffffffffffffffffffffff1916149050919050565b60008073ffffffffffffffffffffffffffffffffffffffff166003600084815260200190815260200160002060009054906101000a900473ffffffffffffffffffffffffffffffffffffffff1673ffffffffffffffffffffffffffffffffffffffff1614159050919050565b600033905090565b816005600083815260200190815260200160002060006101000a81548173ffffffffffffffffffffffffffffffffffffffff021916908373ffffffffffffffffffffffffffffffffffffffff160217905550808273ffffffffffffffffffffffffffffffffffffffff16610f8c83610737565b73ffffffffffffffffffffffffffffffffffffffff167f8c5be1e5ebec7d5bd14f71427d1e84f3dd0314c0f7b2291e5b200ac8c7c3b92560405160405180910390a45050565b6000610fdd82610ea5565b61101c576040517f08c379a0000000000000000000000000000000000000000000000000000000008152600401611013906129f1565b60405180910390fd5b600061102783610737565b90508073ffffffffffffffffffffffffffffffffffffffff168473ffffffffffffffffffffffffffffffffffffffff16148061109657508373ffffffffffffffffffffffffffffffffffffffff1661107e8461051a565b73ffffffffffffffffffffffffffffffffffffffff16145b806110a757506110a68185610caf565b5b91505092915050565b8273ffffffffffffffffffffffffffffffffffffffff166110d082610737565b73ffffffffffffffffffffffffffffffffffffffff1614611126576040517f08c379a000000000000000000000000000000000000000000000000000000000815260040161111d90612a83565b60405180910390fd5b600073ffffffffffffffffffffffffffffffffffffffff168273ffffffffffffffffffffffffffffffffffffffff161415611196576040517f08c379a000000000000000000000000000000000000000000000000000000000815260040161118d90612b15565b60405180910390fd5b6111a18383836118a3565b6111ac600082610f19565b6001600460008573ffffffffffffffffffffffffffffffffffffffff1673ffffffffffffffffffffffffffffffffffffffff16815260200190815260200160002060008282546111fc9190612b64565b925050819055506001600460008473ffffffffffffffffffffffffffffffffffffffff1673ffffffffffffffffffffffffffffffffffffffff16815260200190815260200160002060008282546112539190612b98565b92505081905550816003600083815260200190815260200160002060006101000a81548173ffffffffffffffffffffffffffffffffffffffff021916908373ffffffffffffffffffffffffffffffffffffffff160217905550808273ffffffffffffffffffffffffffffffffffffffff168473ffffffffffffffffffffffffffffffffffffffff167fddf252ad1be2c89b69c2b068fc378daa952ba7f163c4a11628f55a4df523b3ef60405160405180910390a4505050565b60008060009054906101000a900473ffffffffffffffffffffffffffffffffffffffff169050816000806101000a81548173ffffffffffffffffffffffffffffffffffffffff021916908373ffffffffffffffffffffffffffffffffffffffff1602179055508173ffffffffffffffffffffffffffffffffffffffff168173ffffffffffffffffffffffffffffffffffffffff167f8be0079c531659141344cd1fd0a4f28419497f9722a3daafe3b4186f6b6457e060405160405180910390a35050565b60006113db82610737565b90506113e9816000846118a3565b6113f4600083610f19565b6001600460008373ffffffffffffffffffffffffffffffffffffffff1673ffffffffffffffffffffffffffffffffffffffff16815260200190815260200160002060008282546114449190612b64565b925050819055506003600083815260200190815260200160002060006101000a81549073ffffffffffffffffffffffffffffffffffffffff021916905581600073ffffffffffffffffffffffffffffffffffffffff168273ffffffffffffffffffffffffffffffffffffffff167fddf252ad1be2c89b69c2b068fc378daa952ba7f163c4a11628f55a4df523b3ef60405160405180910390a45050565b6114eb83836118a8565b6114f86000848484611a76565b611537576040517f08c379a000000000000000000000000000000000000000000000000000000000815260040161152e90612c60565b60405180910390fd5b505050565b8173ffffffffffffffffffffffffffffffffffffffff168373ffffffffffffffffffffffffffffffffffffffff1614156115ab576040517f08c379a00000000000000000000000000000000000000000000000000000000081526004016115a290612ccc565b60405180910390fd5b80600660008573ffffffffffffffffffffffffffffffffffffffff1673ffffffffffffffffffffffffffffffffffffffff16815260200190815260200160002060008473ffffffffffffffffffffffffffffffffffffffff1673ffffffffffffffffffffffffffffffffffffffff16815260200190815260200160002060006101000a81548160ff0219169083151502179055508173ffffffffffffffffffffffffffffffffffffffff168373ffffffffffffffffffffffffffffffffffffffff167f17307eab39ab6107e8899845ad3d59bd9653f200f220920489ca2b5937696c318360405161169c9190611cc5565b60405180910390a3505050565b6116b48484846110b0565b6116c084848484611a76565b6116ff576040517f08c379a00000000000000000000000000000000000000000000000000000000081526004016116f690612c60565b60405180910390fd5b50505050565b60606040518060400160405280601081526020017f66697265666c793a2f2f746f6b656e2f00000000000000000000000000000000815250905090565b6060600082141561178a576040518060400160405280600181526020017f3000000000000000000000000000000000000000000000000000000000000000815250905061189e565b600082905060005b600082146117bc5780806117a590612cec565b915050600a826117b59190612d64565b9150611792565b60008167ffffffffffffffff8111156117d8576117d76120ba565b5b6040519080825280601f01601f19166020018201604052801561180a5781602001600182028036833780820191505090505b5090505b60008514611897576001826118239190612b64565b9150600a856118329190612d95565b603061183e9190612b98565b60f81b81838151811061185457611853612dc6565b5b60200101907effffffffffffffffffffffffffffffffffffffffffffffffffffffffffffff1916908160001a905350600a856118909190612d64565b945061180e565b8093505050505b919050565b505050565b600073ffffffffffffffffffffffffffffffffffffffff168273ffffffffffffffffffffffffffffffffffffffff161415611918576040517f08c379a000000000000000000000000000000000000000000000000000000000815260040161190f90612e41565b60405180910390fd5b61192181610ea5565b15611961576040517f08c379a000000000000000000000000000000000000000000000000000000000815260040161195890612ead565b60405180910390fd5b61196d600083836118a3565b6001600460008473ffffffffffffffffffffffffffffffffffffffff1673ffffffffffffffffffffffffffffffffffffffff16815260200190815260200160002060008282546119bd9190612b98565b92505081905550816003600083815260200190815260200160002060006101000a81548173ffffffffffffffffffffffffffffffffffffffff021916908373ffffffffffffffffffffffffffffffffffffffff160217905550808273ffffffffffffffffffffffffffffffffffffffff16600073ffffffffffffffffffffffffffffffffffffffff167fddf252ad1be2c89b69c2b068fc378daa952ba7f163c4a11628f55a4df523b3ef60405160405180910390a45050565b6000611a978473ffffffffffffffffffffffffffffffffffffffff16611bfe565b15611bf1578373ffffffffffffffffffffffffffffffffffffffff1663150b7a02611ac0610f11565b8786866040518563ffffffff1660e01b8152600401611ae29493929190612f22565b6020604051808303816000875af1925050508015611b1e57506040513d601f19601f82011682018060405250810190611b1b9190612f83565b60015b611ba1573d8060008114611b4e576040519150601f19603f3d011682016040523d82523d6000602084013e611b53565b606091505b50600081511415611b99576040517f08c379a0000000000000000000000000000000000000000000000000000000008152600401611b9090612c60565b60405180910390fd5b805181602001fd5b63150b7a0260e01b7bffffffffffffffffffffffffffffffffffffffffffffffffffffffff1916817bffffffffffffffffffffffffffffffffffffffffffffffffffffffff191614915050611bf6565b600190505b949350505050565b600080823b905060008111915050919050565b6000604051905090565b600080fd5b600080fd5b60007fffffffff0000000000000000000000000000000000000000000000000000000082169050919050565b611c5a81611c25565b8114611c6557600080fd5b50565b600081359050611c7781611c51565b92915050565b600060208284031215611c9357611c92611c1b565b5b6000611ca184828501611c68565b91505092915050565b60008115159050919050565b611cbf81611caa565b82525050565b6000602082019050611cda6000830184611cb6565b92915050565b600081519050919050565b600082825260208201905092915050565b60005b83811015611d1a578082015181840152602081019050611cff565b83811115611d29576000848401525b50505050565b6000601f19601f8301169050919050565b6000611d4b82611ce0565b611d558185611ceb565b9350611d65818560208601611cfc565b611d6e81611d2f565b840191505092915050565b60006020820190508181036000830152611d938184611d40565b905092915050565b6000819050919050565b611dae81611d9b565b8114611db957600080fd5b50565b600081359050611dcb81611da5565b92915050565b600060208284031215611de757611de6611c1b565b5b6000611df584828501611dbc565b91505092915050565b600073ffffffffffffffffffffffffffffffffffffffff82169050919050565b6000611e2982611dfe565b9050919050565b611e3981611e1e565b82525050565b6000602082019050611e546000830184611e30565b92915050565b611e6381611e1e565b8114611e6e57600080fd5b50565b600081359050611e8081611e5a565b92915050565b60008060408385031215611e9d57611e9c611c1b565b5b6000611eab85828601611e71565b9250506020611ebc85828601611dbc565b9150509250929050565b600080600060608486031215611edf57611ede611c1b565b5b6000611eed86828701611e71565b9350506020611efe86828701611e71565b9250506040611f0f86828701611dbc565b9150509250925092565b600060208284031215611f2f57611f2e611c1b565b5b6000611f3d84828501611e71565b91505092915050565b611f4f81611d9b565b82525050565b6000602082019050611f6a6000830184611f46565b92915050565b600080fd5b600080fd5b600080fd5b60008083601f840112611f9557611f94611f70565b5b8235905067ffffffffffffffff811115611fb257611fb1611f75565b5b602083019150836001820283011115611fce57611fcd611f7a565b5b9250929050565b60008060008060608587031215611fef57611fee611c1b565b5b6000611ffd87828801611e71565b945050602061200e87828801611dbc565b935050604085013567ffffffffffffffff81111561202f5761202e611c20565b5b61203b87828801611f7f565b925092505092959194509250565b61205281611caa565b811461205d57600080fd5b50565b60008135905061206f81612049565b92915050565b6000806040838503121561208c5761208b611c1b565b5b600061209a85828601611e71565b92505060206120ab85828601612060565b9150509250929050565b600080fd5b7f4e487b7100000000000000000000000000000000000000000000000000000000600052604160045260246000fd5b6120f282611d2f565b810181811067ffffffffffffffff82111715612111576121106120ba565b5b80604052505050565b6000612124611c11565b905061213082826120e9565b919050565b600067ffffffffffffffff8211156121505761214f6120ba565b5b61215982611d2f565b9050602081019050919050565b82818337600083830152505050565b600061218861218384612135565b61211a565b9050828152602081018484840111156121a4576121a36120b5565b5b6121af848285612166565b509392505050565b600082601f8301126121cc576121cb611f70565b5b81356121dc848260208601612175565b91505092915050565b600080600080608085870312156121ff576121fe611c1b565b5b600061220d87828801611e71565b945050602061221e87828801611e71565b935050604061222f87828801611dbc565b925050606085013567ffffffffffffffff8111156122505761224f611c20565b5b61225c878288016121b7565b91505092959194509250565b60008060008060006080868803121561228457612283611c1b565b5b600061229288828901611e71565b95505060206122a388828901611e71565b94505060406122b488828901611dbc565b935050606086013567ffffffffffffffff8111156122d5576122d4611c20565b5b6122e188828901611f7f565b92509250509295509295909350565b6000806040838503121561230757612306611c1b565b5b600061231585828601611e71565b925050602061232685828601611e71565b9150509250929050565b7f4e487b7100000000000000000000000000000000000000000000000000000000600052602260045260246000fd5b6000600282049050600182168061237757607f821691505b6020821081141561238b5761238a612330565b5b50919050565b7f4552433732313a20617070726f76656420717565727920666f72206e6f6e657860008201527f697374656e7420746f6b656e0000000000000000000000000000000000000000602082015250565b60006123ed602c83611ceb565b91506123f882612391565b604082019050919050565b6000602082019050818103600083015261241c816123e0565b9050919050565b7f4552433732313a20617070726f76616c20746f2063757272656e74206f776e6560008201527f7200000000000000000000000000000000000000000000000000000000000000602082015250565b600061247f602183611ceb565b915061248a82612423565b604082019050919050565b600060208201905081810360008301526124ae81612472565b9050919050565b7f4552433732313a20617070726f76652063616c6c6572206973206e6f74206f7760008201527f6e6572206e6f7220617070726f76656420666f7220616c6c0000000000000000602082015250565b6000612511603883611ceb565b915061251c826124b5565b604082019050919050565b6000602082019050818103600083015261254081612504565b9050919050565b7f4552433732313a207472616e736665722063616c6c6572206973206e6f74206f60008201527f776e6572206e6f7220617070726f766564000000000000000000000000000000602082015250565b60006125a3603183611ceb565b91506125ae82612547565b604082019050919050565b600060208201905081810360008301526125d281612596565b9050919050565b7f4552433732313a206f776e657220717565727920666f72206e6f6e657869737460008201527f656e7420746f6b656e0000000000000000000000000000000000000000000000602082015250565b6000612635602983611ceb565b9150612640826125d9565b604082019050919050565b6000602082019050818103600083015261266481612628565b9050919050565b7f4552433732313a2062616c616e636520717565727920666f7220746865207a6560008201527f726f206164647265737300000000000000000000000000000000000000000000602082015250565b60006126c7602a83611ceb565b91506126d28261266b565b604082019050919050565b600060208201905081810360008301526126f6816126ba565b9050919050565b7f4f776e61626c653a2063616c6c6572206973206e6f7420746865206f776e6572600082015250565b6000612733602083611ceb565b915061273e826126fd565b602082019050919050565b6000602082019050818103600083015261276281612726565b9050919050565b7f45524337323157697468446174613a2063616c6c6572206973206e6f74206f7760008201527f6e65720000000000000000000000000000000000000000000000000000000000602082015250565b60006127c5602383611ceb565b91506127d082612769565b604082019050919050565b600060208201905081810360008301526127f4816127b8565b9050919050565b7f4552433732314d657461646174613a2055524920717565727920666f72206e6f60008201527f6e6578697374656e7420746f6b656e0000000000000000000000000000000000602082015250565b6000612857602f83611ceb565b9150612862826127fb565b604082019050919050565b600060208201905081810360008301526128868161284a565b9050919050565b600081905092915050565b60006128a382611ce0565b6128ad818561288d565b93506128bd818560208601611cfc565b80840191505092915050565b60006128d58285612898565b91506128e18284612898565b91508190509392505050565b7f4f776e61626c653a206e6577206f776e657220697320746865207a65726f206160008201527f6464726573730000000000000000000000000000000000000000000000000000602082015250565b6000612949602683611ceb565b9150612954826128ed565b604082019050919050565b600060208201905081810360008301526129788161293c565b9050919050565b7f4552433732313a206f70657261746f7220717565727920666f72206e6f6e657860008201527f697374656e7420746f6b656e0000000000000000000000000000000000000000602082015250565b60006129db602c83611ceb565b91506129e68261297f565b604082019050919050565b60006020820190508181036000830152612a0a816129ce565b9050919050565b7f4552433732313a207472616e73666572206f6620746f6b656e2074686174206960008201527f73206e6f74206f776e0000000000000000000000000000000000000000000000602082015250565b6000612a6d602983611ceb565b9150612a7882612a11565b604082019050919050565b60006020820190508181036000830152612a9c81612a60565b9050919050565b7f4552433732313a207472616e7366657220746f20746865207a65726f2061646460008201527f7265737300000000000000000000000000000000000000000000000000000000602082015250565b6000612aff602483611ceb565b9150612b0a82612aa3565b604082019050919050565b60006020820190508181036000830152612b2e81612af2565b9050919050565b7f4e487b7100000000000000000000000000000000000000000000000000000000600052601160045260246000fd5b6000612b6f82611d9b565b9150612b7a83611d9b565b925082821015612b8d57612b8c612b35565b5b828203905092915050565b6000612ba382611d9b565b9150612bae83611d9b565b9250827fffffffffffffffffffffffffffffffffffffffffffffffffffffffffffffffff03821115612be357612be2612b35565b5b828201905092915050565b7f4552433732313a207472616e7366657220746f206e6f6e20455243373231526560008201527f63656976657220696d706c656d656e7465720000000000000000000000000000602082015250565b6000612c4a603283611ceb565b9150612c5582612bee565b604082019050919050565b60006020820190508181036000830152612c7981612c3d565b9050919050565b7f4552433732313a20617070726f766520746f2063616c6c657200000000000000600082015250565b6000612cb6601983611ceb565b9150612cc182612c80565b602082019050919050565b60006020820190508181036000830152612ce581612ca9565b9050919050565b6000612cf782611d9b565b91507fffffffffffffffffffffffffffffffffffffffffffffffffffffffffffffffff821415612d2a57612d29612b35565b5b600182019050919050565b7f4e487b7100000000000000000000000000000000000000000000000000000000600052601260045260246000fd5b6000612d6f82611d9b565b9150612d7a83611d9b565b925082612d8a57612d89612d35565b5b828204905092915050565b6000612da082611d9b565b9150612dab83611d9b565b925082612dbb57612dba612d35565b5b828206905092915050565b7f4e487b7100000000000000000000000000000000000000000000000000000000600052603260045260246000fd5b7f4552433732313a206d696e7420746f20746865207a65726f2061646472657373600082015250565b6000612e2b602083611ceb565b9150612e3682612df5565b602082019050919050565b60006020820190508181036000830152612e5a81612e1e565b9050919050565b7f4552433732313a20746f6b656e20616c7265616479206d696e74656400000000600082015250565b6000612e97601c83611ceb565b9150612ea282612e61565b602082019050919050565b60006020820190508181036000830152612ec681612e8a565b9050919050565b600081519050919050565b600082825260208201905092915050565b6000612ef482612ecd565b612efe8185612ed8565b9350612f0e818560208601611cfc565b612f1781611d2f565b840191505092915050565b6000608082019050612f376000830187611e30565b612f446020830186611e30565b612f516040830185611f46565b8181036060830152612f638184612ee9565b905095945050505050565b600081519050612f7d81611c51565b92915050565b600060208284031215612f9957612f98611c1b565b5b6000612fa784828501612f6e565b9150509291505056fea26469706673582212207423647924fc405d9db9057b5e655214eae4a81fbc60eb4c278ce23d67f251d464736f6c634300080b0033",
  "immutableReferences": {},
  "source": "// SPDX-License-Identifier: Apache-2.0\n\npragma solidity ^0.8.0;\n\nimport '@openzeppelin/contracts/token/ERC721/ERC721.sol';\nimport '@openzeppelin/contracts/utils/Context.sol';\nimport '@openzeppelin/contracts/access/Ownable.sol';\n\n/**\n    @dev Mintable+burnable form of ERC721 with data event support.\n*/\ncontract ERC721WithData is Context, Ownable, ERC721 {\n    constructor(string memory name, string memory symbol) ERC721(name, symbol) {}\n\n    function mintWithData(\n        address to,\n        uint256 tokenId,\n        bytes calldata data\n    ) external onlyOwner {\n        _safeMint(to, tokenId, data);\n    }\n\n    function transferWithData(\n        address from,\n        address to,\n        uint256 tokenId,\n        bytes calldata data\n    ) external {\n        safeTransferFrom(from, to, tokenId, data);\n    }\n\n    function burnWithData(\n        address from,\n        uint256 tokenId,\n        bytes calldata data\n    ) external {\n        require(from == _msgSender(), 'ERC721WithData: caller is not owner');\n        _burn(tokenId);\n    }\n\n    function _baseURI() internal view virtual override returns (string memory) {\n        return 'firefly://token/';\n    }\n}\n",
  "sourcePath": "/Users/dech/dev/hl/firefly-tokens-erc20-erc721/solidity/contracts/ERC721WithData.sol",
  "compiler": {
    "name": "solc",
    "version": "0.8.11+commit.d7f03943.Emscripten.clang"
  },
  "schemaVersion": "3.4.4",
  "updatedAt": "2022-02-02T20:07:42.742Z",
  "devdoc": {
    "details": "Mintable+burnable form of ERC721 with data event support.",
    "kind": "dev",
    "methods": {
      "approve(address,uint256)": {
        "details": "See {IERC721-approve}."
      },
      "balanceOf(address)": {
        "details": "See {IERC721-balanceOf}."
      },
      "getApproved(uint256)": {
        "details": "See {IERC721-getApproved}."
      },
      "isApprovedForAll(address,address)": {
        "details": "See {IERC721-isApprovedForAll}."
      },
      "name()": {
        "details": "See {IERC721Metadata-name}."
      },
      "owner()": {
        "details": "Returns the address of the current owner."
      },
      "ownerOf(uint256)": {
        "details": "See {IERC721-ownerOf}."
      },
      "renounceOwnership()": {
        "details": "Leaves the contract without owner. It will not be possible to call `onlyOwner` functions anymore. Can only be called by the current owner. NOTE: Renouncing ownership will leave the contract without an owner, thereby removing any functionality that is only available to the owner."
      },
      "safeTransferFrom(address,address,uint256)": {
        "details": "See {IERC721-safeTransferFrom}."
      },
      "safeTransferFrom(address,address,uint256,bytes)": {
        "details": "See {IERC721-safeTransferFrom}."
      },
      "setApprovalForAll(address,bool)": {
        "details": "See {IERC721-setApprovalForAll}."
      },
      "supportsInterface(bytes4)": {
        "details": "See {IERC165-supportsInterface}."
      },
      "symbol()": {
        "details": "See {IERC721Metadata-symbol}."
      },
      "tokenURI(uint256)": {
        "details": "See {IERC721Metadata-tokenURI}."
      },
      "transferFrom(address,address,uint256)": {
        "details": "See {IERC721-transferFrom}."
      },
      "transferOwnership(address)": {
        "details": "Transfers ownership of the contract to a new account (`newOwner`). Can only be called by the current owner."
      }
    },
    "version": 1
  },
  "userdoc": {
    "kind": "user",
    "methods": {},
    "version": 1
  }
}