{
  "_format": "hh-sol-artifact-1",
  "contractName": "ERC20WithData",
  "sourceName": "contracts/ERC20WithData.sol",
  "abi": [
    {
      "inputs": [
        {
          "internalType": "string",
          "name": "name",
          "type": "string"
        },
        {
          "internalType": "string",
          "name": "symbol",
          "type": "string"
        }
      ],
      "stateMutability": "nonpayable",
      "type": "constructor"
    },
    {
      "anonymous": false,
      "inputs": [
        {
          "indexed": true,
          "internalType": "address",
          "name": "owner",
          "type": "address"
        },
        {
          "indexed": true,
          "internalType": "address",
          "name": "spender",
          "type": "address"
        },
        {
          "indexed": false,
          "internalType": "uint256",
          "name": "value",
          "type": "uint256"
        }
      ],
      "name": "Approval",
      "type": "event"
    },
    {
      "anonymous": false,
      "inputs": [
        {
          "indexed": true,
          "internalType": "address",
          "name": "previousOwner",
          "type": "address"
        },
        {
          "indexed": true,
          "internalType": "address",
          "name": "newOwner",
          "type": "address"
        }
      ],
      "name": "OwnershipTransferred",
      "type": "event"
    },
    {
      "anonymous": false,
      "inputs": [
        {
          "indexed": true,
          "internalType": "address",
          "name": "from",
          "type": "address"
        },
        {
          "indexed": true,
          "internalType": "address",
          "name": "to",
          "type": "address"
        },
        {
          "indexed": false,
          "internalType": "uint256",
          "name": "value",
          "type": "uint256"
        }
      ],
      "name": "Transfer",
      "type": "event"
    },
    {
      "inputs": [
        {
          "internalType": "address",
          "name": "owner",
          "type": "address"
        },
        {
          "internalType": "address",
          "name": "spender",
          "type": "address"
        }
      ],
      "name": "allowance",
      "outputs": [
        {
          "internalType": "uint256",
          "name": "",
          "type": "uint256"
        }
      ],
      "stateMutability": "view",
      "type": "function"
    },
    {
      "inputs": [
        {
          "internalType": "address",
          "name": "spender",
          "type": "address"
        },
        {
          "internalType": "uint256",
          "name": "amount",
          "type": "uint256"
        }
      ],
      "name": "approve",
      "outputs": [
        {
          "internalType": "bool",
          "name": "",
          "type": "bool"
        }
      ],
      "stateMutability": "nonpayable",
      "type": "function"
    },
    {
      "inputs": [
        {
          "internalType": "address",
          "name": "spender",
          "type": "address"
        },
        {
          "internalType": "uint256",
          "name": "amount",
          "type": "uint256"
        },
        {
          "internalType": "bytes",
          "name": "data",
          "type": "bytes"
        }
      ],
      "name": "approveWithData",
      "outputs": [
        {
          "internalType": "bool",
          "name": "",
          "type": "bool"
        }
      ],
      "stateMutability": "nonpayable",
      "type": "function"
    },
    {
      "inputs": [
        {
          "internalType": "address",
          "name": "account",
          "type": "address"
        }
      ],
      "name": "balanceOf",
      "outputs": [
        {
          "internalType": "uint256",
          "name": "",
          "type": "uint256"
        }
      ],
      "stateMutability": "view",
      "type": "function"
    },
    {
      "inputs": [
        {
          "internalType": "address",
          "name": "from",
          "type": "address"
        },
        {
          "internalType": "uint256",
          "name": "amount",
          "type": "uint256"
        },
        {
          "internalType": "bytes",
          "name": "data",
          "type": "bytes"
        }
      ],
      "name": "burnWithData",
      "outputs": [],
      "stateMutability": "nonpayable",
      "type": "function"
    },
    {
      "inputs": [],
      "name": "decimals",
      "outputs": [
        {
          "internalType": "uint8",
          "name": "",
          "type": "uint8"
        }
      ],
      "stateMutability": "view",
      "type": "function"
    },
    {
      "inputs": [
        {
          "internalType": "address",
          "name": "spender",
          "type": "address"
        },
        {
          "internalType": "uint256",
          "name": "subtractedValue",
          "type": "uint256"
        }
      ],
      "name": "decreaseAllowance",
      "outputs": [
        {
          "internalType": "bool",
          "name": "",
          "type": "bool"
        }
      ],
      "stateMutability": "nonpayable",
      "type": "function"
    },
    {
      "inputs": [
        {
          "internalType": "address",
          "name": "spender",
          "type": "address"
        },
        {
          "internalType": "uint256",
          "name": "addedValue",
          "type": "uint256"
        }
      ],
      "name": "increaseAllowance",
      "outputs": [
        {
          "internalType": "bool",
          "name": "",
          "type": "bool"
        }
      ],
      "stateMutability": "nonpayable",
      "type": "function"
    },
    {
      "inputs": [
        {
          "internalType": "address",
          "name": "to",
          "type": "address"
        },
        {
          "internalType": "uint256",
          "name": "amount",
          "type": "uint256"
        },
        {
          "internalType": "bytes",
          "name": "data",
          "type": "bytes"
        }
      ],
      "name": "mintWithData",
      "outputs": [],
      "stateMutability": "nonpayable",
      "type": "function"
    },
    {
      "inputs": [],
      "name": "name",
      "outputs": [
        {
          "internalType": "string",
          "name": "",
          "type": "string"
        }
      ],
      "stateMutability": "view",
      "type": "function"
    },
    {
      "inputs": [],
      "name": "owner",
      "outputs": [
        {
          "internalType": "address",
          "name": "",
          "type": "address"
        }
      ],
      "stateMutability": "view",
      "type": "function"
    },
    {
      "inputs": [],
      "name": "renounceOwnership",
      "outputs": [],
      "stateMutability": "nonpayable",
      "type": "function"
    },
    {
      "inputs": [
        {
          "internalType": "bytes4",
          "name": "interfaceId",
          "type": "bytes4"
        }
      ],
      "name": "supportsInterface",
      "outputs": [
        {
          "internalType": "bool",
          "name": "",
          "type": "bool"
        }
      ],
      "stateMutability": "view",
      "type": "function"
    },
    {
      "inputs": [],
      "name": "symbol",
      "outputs": [
        {
          "internalType": "string",
          "name": "",
          "type": "string"
        }
      ],
      "stateMutability": "view",
      "type": "function"
    },
    {
      "inputs": [],
      "name": "totalSupply",
      "outputs": [
        {
          "internalType": "uint256",
          "name": "",
          "type": "uint256"
        }
      ],
      "stateMutability": "view",
      "type": "function"
    },
    {
      "inputs": [
        {
          "internalType": "address",
          "name": "to",
          "type": "address"
        },
        {
          "internalType": "uint256",
          "name": "amount",
          "type": "uint256"
        }
      ],
      "name": "transfer",
      "outputs": [
        {
          "internalType": "bool",
          "name": "",
          "type": "bool"
        }
      ],
      "stateMutability": "nonpayable",
      "type": "function"
    },
    {
      "inputs": [
        {
          "internalType": "address",
          "name": "from",
          "type": "address"
        },
        {
          "internalType": "address",
          "name": "to",
          "type": "address"
        },
        {
          "internalType": "uint256",
          "name": "amount",
          "type": "uint256"
        }
      ],
      "name": "transferFrom",
      "outputs": [
        {
          "internalType": "bool",
          "name": "",
          "type": "bool"
        }
      ],
      "stateMutability": "nonpayable",
      "type": "function"
    },
    {
      "inputs": [
        {
          "internalType": "address",
          "name": "newOwner",
          "type": "address"
        }
      ],
      "name": "transferOwnership",
      "outputs": [],
      "stateMutability": "nonpayable",
      "type": "function"
    },
    {
      "inputs": [
        {
          "internalType": "address",
          "name": "from",
          "type": "address"
        },
        {
          "internalType": "address",
          "name": "to",
          "type": "address"
        },
        {
          "internalType": "uint256",
          "name": "amount",
          "type": "uint256"
        },
        {
          "internalType": "bytes",
          "name": "data",
          "type": "bytes"
        }
      ],
      "name": "transferWithData",
      "outputs": [],
      "stateMutability": "nonpayable",
      "type": "function"
    }
  ],
  "bytecode": "0x60806040523480156200001157600080fd5b50604051620014c9380380620014c9833981016040819052620000349162000220565b8181620000413362000077565b815162000056906004906020850190620000c7565b5080516200006c906005906020840190620000c7565b5050505050620002da565b600080546001600160a01b038381166001600160a01b0319831681178455604051919092169283917f8be0079c531659141344cd1fd0a4f28419497f9722a3daafe3b4186f6b6457e09190a35050565b828054620000d59062000287565b90600052602060002090601f016020900481019282620000f9576000855562000144565b82601f106200011457805160ff191683800117855562000144565b8280016001018555821562000144579182015b828111156200014457825182559160200191906001019062000127565b506200015292915062000156565b5090565b5b8082111562000152576000815560010162000157565b600082601f8301126200017e578081fd5b81516001600160401b03808211156200019b576200019b620002c4565b604051601f8301601f19908116603f01168101908282118183101715620001c657620001c6620002c4565b81604052838152602092508683858801011115620001e2578485fd5b8491505b83821015620002055785820183015181830184015290820190620001e6565b838211156200021657848385830101525b9695505050505050565b6000806040838503121562000233578182fd5b82516001600160401b03808211156200024a578384fd5b62000258868387016200016d565b935060208501519150808211156200026e578283fd5b506200027d858286016200016d565b9150509250929050565b600181811c908216806200029c57607f821691505b60208210811415620002be57634e487b7160e01b600052602260045260246000fd5b50919050565b634e487b7160e01b600052604160045260246000fd5b6111df80620002ea6000396000f3fe608060405234801561001057600080fd5b50600436106101515760003560e01c80637b5eb564116100cd578063a457c2d711610081578063c0ea7a7a11610066578063c0ea7a7a146102a2578063dd62ed3e146102b5578063f2fde38b146102ee57600080fd5b8063a457c2d71461027c578063a9059cbb1461028f57600080fd5b80638da5cb5b116100b25780638da5cb5b1461024657806395d89b411461026157806396adfe421461026957600080fd5b80637b5eb5641461022057806383e49c531461023357600080fd5b806323b872dd11610124578063395093511161010957806339509351146101da57806370a08231146101ed578063715018a61461021657600080fd5b806323b872dd146101b8578063313ce567146101cb57600080fd5b806301ffc9a71461015657806306fdde031461017e578063095ea7b31461019357806318160ddd146101a6575b600080fd5b610169610164366004611096565b610301565b60405190151581526020015b60405180910390f35b61018661039a565b60405161017591906110d6565b6101696101a1366004611015565b61042c565b6003545b604051908152602001610175565b6101696101c6366004610f6d565b610444565b60405160128152602001610175565b6101696101e8366004611015565b610468565b6101aa6101fb366004610f1a565b6001600160a01b031660009081526001602052604090205490565b61021e6104a7565b005b61016961022e36600461103e565b610512565b61021e61024136600461103e565b610527565b6000546040516001600160a01b039091168152602001610175565b6101866105b5565b61021e61027736600461103e565b6105c4565b61016961028a366004611015565b610628565b61016961029d366004611015565b6106d2565b61021e6102b0366004610fa8565b6106e0565b6101aa6102c3366004610f3b565b6001600160a01b03918216600090815260026020908152604080832093909416825291909152205490565b61021e6102fc366004610f1a565b610715565b60007fffffffff0000000000000000000000000000000000000000000000000000000082167faefdad0f00000000000000000000000000000000000000000000000000000000148061039457507f01ffc9a7000000000000000000000000000000000000000000000000000000007fffffffff000000000000000000000000000000000000000000000000000000008316145b92915050565b6060600480546103a990611158565b80601f01602080910402602001604051908101604052809291908181526020018280546103d590611158565b80156104225780601f106103f757610100808354040283529160200191610422565b820191906000526020600020905b81548152906001019060200180831161040557829003601f168201915b5050505050905090565b60003361043a8185856107f7565b5060019392505050565b600033610452858285610950565b61045d8585856109dc565b506001949350505050565b3360008181526002602090815260408083206001600160a01b038716845290915281205490919061043a90829086906104a2908790611129565b6107f7565b6000546001600160a01b031633146105065760405162461bcd60e51b815260206004820181905260248201527f4f776e61626c653a2063616c6c6572206973206e6f7420746865206f776e657260448201526064015b60405180910390fd5b6105106000610bf3565b565b600061051e858561042c565b95945050505050565b6001600160a01b03841633146105a55760405162461bcd60e51b815260206004820152602260248201527f455243323057697468446174613a2063616c6c6572206973206e6f74206f776e60448201527f657200000000000000000000000000000000000000000000000000000000000060648201526084016104fd565b6105af8484610c5b565b50505050565b6060600580546103a990611158565b6000546001600160a01b0316331461061e5760405162461bcd60e51b815260206004820181905260248201527f4f776e61626c653a2063616c6c6572206973206e6f7420746865206f776e657260448201526064016104fd565b6105af8484610dd8565b3360008181526002602090815260408083206001600160a01b0387168452909152812054909190838110156106c55760405162461bcd60e51b815260206004820152602560248201527f45524332303a2064656372656173656420616c6c6f77616e63652062656c6f7760448201527f207a65726f00000000000000000000000000000000000000000000000000000060648201526084016104fd565b61045d82868684036107f7565b60003361043a8185856109dc565b6001600160a01b038516331415610701576106fb84846106d2565b5061070e565b61070c858585610444565b505b5050505050565b6000546001600160a01b0316331461076f5760405162461bcd60e51b815260206004820181905260248201527f4f776e61626c653a2063616c6c6572206973206e6f7420746865206f776e657260448201526064016104fd565b6001600160a01b0381166107eb5760405162461bcd60e51b815260206004820152602660248201527f4f776e61626c653a206e6577206f776e657220697320746865207a65726f206160448201527f646472657373000000000000000000000000000000000000000000000000000060648201526084016104fd565b6107f481610bf3565b50565b6001600160a01b0383166108725760405162461bcd60e51b8152602060048201526024808201527f45524332303a20617070726f76652066726f6d20746865207a65726f2061646460448201527f726573730000000000000000000000000000000000000000000000000000000060648201526084016104fd565b6001600160a01b0382166108ee5760405162461bcd60e51b815260206004820152602260248201527f45524332303a20617070726f766520746f20746865207a65726f20616464726560448201527f737300000000000000000000000000000000000000000000000000000000000060648201526084016104fd565b6001600160a01b0383811660008181526002602090815260408083209487168084529482529182902085905590518481527f8c5be1e5ebec7d5bd14f71427d1e84f3dd0314c0f7b2291e5b200ac8c7c3b92591015b60405180910390a3505050565b6001600160a01b0383811660009081526002602090815260408083209386168352929052205460001981146105af57818110156109cf5760405162461bcd60e51b815260206004820152601d60248201527f45524332303a20696e73756666696369656e7420616c6c6f77616e636500000060448201526064016104fd565b6105af84848484036107f7565b6001600160a01b038316610a585760405162461bcd60e51b815260206004820152602560248201527f45524332303a207472616e736665722066726f6d20746865207a65726f20616460448201527f647265737300000000000000000000000000000000000000000000000000000060648201526084016104fd565b6001600160a01b038216610ad45760405162461bcd60e51b815260206004820152602360248201527f45524332303a207472616e7366657220746f20746865207a65726f206164647260448201527f657373000000000000000000000000000000000000000000000000000000000060648201526084016104fd565b6001600160a01b03831660009081526001602052604090205481811015610b635760405162461bcd60e51b815260206004820152602660248201527f45524332303a207472616e7366657220616d6f756e742065786365656473206260448201527f616c616e6365000000000000000000000000000000000000000000000000000060648201526084016104fd565b6001600160a01b03808516600090815260016020526040808220858503905591851681529081208054849290610b9a908490611129565b92505081905550826001600160a01b0316846001600160a01b03167fddf252ad1be2c89b69c2b068fc378daa952ba7f163c4a11628f55a4df523b3ef84604051610be691815260200190565b60405180910390a36105af565b600080546001600160a01b038381167fffffffffffffffffffffffff0000000000000000000000000000000000000000831681178455604051919092169283917f8be0079c531659141344cd1fd0a4f28419497f9722a3daafe3b4186f6b6457e09190a35050565b6001600160a01b038216610cd75760405162461bcd60e51b815260206004820152602160248201527f45524332303a206275726e2066726f6d20746865207a65726f2061646472657360448201527f730000000000000000000000000000000000000000000000000000000000000060648201526084016104fd565b6001600160a01b03821660009081526001602052604090205481811015610d665760405162461bcd60e51b815260206004820152602260248201527f45524332303a206275726e20616d6f756e7420657863656564732062616c616e60448201527f636500000000000000000000000000000000000000000000000000000000000060648201526084016104fd565b6001600160a01b0383166000908152600160205260408120838303905560038054849290610d95908490611141565b90915550506040518281526000906001600160a01b038516907fddf252ad1be2c89b69c2b068fc378daa952ba7f163c4a11628f55a4df523b3ef90602001610943565b6001600160a01b038216610e2e5760405162461bcd60e51b815260206004820152601f60248201527f45524332303a206d696e7420746f20746865207a65726f20616464726573730060448201526064016104fd565b8060036000828254610e409190611129565b90915550506001600160a01b03821660009081526001602052604081208054839290610e6d908490611129565b90915550506040518181526001600160a01b038316906000907fddf252ad1be2c89b69c2b068fc378daa952ba7f163c4a11628f55a4df523b3ef9060200160405180910390a35050565b80356001600160a01b0381168114610ece57600080fd5b919050565b60008083601f840112610ee4578182fd5b50813567ffffffffffffffff811115610efb578182fd5b602083019150836020828501011115610f1357600080fd5b9250929050565b600060208284031215610f2b578081fd5b610f3482610eb7565b9392505050565b60008060408385031215610f4d578081fd5b610f5683610eb7565b9150610f6460208401610eb7565b90509250929050565b600080600060608486031215610f81578081fd5b610f8a84610eb7565b9250610f9860208501610eb7565b9150604084013590509250925092565b600080600080600060808688031215610fbf578081fd5b610fc886610eb7565b9450610fd660208701610eb7565b935060408601359250606086013567ffffffffffffffff811115610ff8578182fd5b61100488828901610ed3565b969995985093965092949392505050565b60008060408385031215611027578182fd5b61103083610eb7565b946020939093013593505050565b60008060008060608587031215611053578384fd5b61105c85610eb7565b935060208501359250604085013567ffffffffffffffff81111561107e578283fd5b61108a87828801610ed3565b95989497509550505050565b6000602082840312156110a7578081fd5b81357fffffffff0000000000000000000000000000000000000000000000000000000081168114610f34578182fd5b6000602080835283518082850152825b81811015611102578581018301518582016040015282016110e6565b818111156111135783604083870101525b50601f01601f1916929092016040019392505050565b6000821982111561113c5761113c611193565b500190565b60008282101561115357611153611193565b500390565b600181811c9082168061116c57607f821691505b6020821081141561118d57634e487b7160e01b600052602260045260246000fd5b50919050565b634e487b7160e01b600052601160045260246000fdfea26469706673582212206544ad40ab24f5000dc0513aa71f56091e0ee540e3091f7fac071cfbfbf34a0764736f6c63430008040033",
  "linkReferences": {},
  "deployedLinkReferences": {}
}