{
  "_format": "hh-sol-artifact-1",
  "contractName": "ERC20WithData",
  "sourceName": "contracts/ERC20WithData.sol",
  "abi": [
    {
      "inputs": [
        {
          "internalType": "string",
          "name": "name",
          "type": "string"
        },
        {
          "internalType": "string",
          "name": "symbol",
          "type": "string"
        }
      ],
      "stateMutability": "nonpayable",
      "type": "constructor"
    },
    {
      "anonymous": false,
      "inputs": [
        {
          "indexed": true,
          "internalType": "address",
          "name": "owner",
          "type": "address"
        },
        {
          "indexed": true,
          "internalType": "address",
          "name": "spender",
          "type": "address"
        },
        {
          "indexed": false,
          "internalType": "uint256",
          "name": "value",
          "type": "uint256"
        }
      ],
      "name": "Approval",
      "type": "event"
    },
    {
      "anonymous": false,
      "inputs": [
        {
          "indexed": true,
          "internalType": "address",
          "name": "previousOwner",
          "type": "address"
        },
        {
          "indexed": true,
          "internalType": "address",
          "name": "newOwner",
          "type": "address"
        }
      ],
      "name": "OwnershipTransferred",
      "type": "event"
    },
    {
      "anonymous": false,
      "inputs": [
        {
          "indexed": true,
          "internalType": "address",
          "name": "from",
          "type": "address"
        },
        {
          "indexed": true,
          "internalType": "address",
          "name": "to",
          "type": "address"
        },
        {
          "indexed": false,
          "internalType": "uint256",
          "name": "value",
          "type": "uint256"
        }
      ],
      "name": "Transfer",
      "type": "event"
    },
    {
      "inputs": [
        {
          "internalType": "address",
          "name": "owner",
          "type": "address"
        },
        {
          "internalType": "address",
          "name": "spender",
          "type": "address"
        }
      ],
      "name": "allowance",
      "outputs": [
        {
          "internalType": "uint256",
          "name": "",
          "type": "uint256"
        }
      ],
      "stateMutability": "view",
      "type": "function"
    },
    {
      "inputs": [
        {
          "internalType": "address",
          "name": "spender",
          "type": "address"
        },
        {
          "internalType": "uint256",
          "name": "amount",
          "type": "uint256"
        }
      ],
      "name": "approve",
      "outputs": [
        {
          "internalType": "bool",
          "name": "",
          "type": "bool"
        }
      ],
      "stateMutability": "nonpayable",
      "type": "function"
    },
    {
      "inputs": [
        {
          "internalType": "address",
          "name": "account",
          "type": "address"
        }
      ],
      "name": "balanceOf",
      "outputs": [
        {
          "internalType": "uint256",
          "name": "",
          "type": "uint256"
        }
      ],
      "stateMutability": "view",
      "type": "function"
    },
    {
      "inputs": [
        {
          "internalType": "address",
          "name": "from",
          "type": "address"
        },
        {
          "internalType": "uint256",
          "name": "amount",
          "type": "uint256"
        },
        {
          "internalType": "bytes",
          "name": "data",
          "type": "bytes"
        }
      ],
      "name": "burnWithData",
      "outputs": [],
      "stateMutability": "nonpayable",
      "type": "function"
    },
    {
      "inputs": [],
      "name": "decimals",
      "outputs": [
        {
          "internalType": "uint8",
          "name": "",
          "type": "uint8"
        }
      ],
      "stateMutability": "view",
      "type": "function"
    },
    {
      "inputs": [
        {
          "internalType": "address",
          "name": "spender",
          "type": "address"
        },
        {
          "internalType": "uint256",
          "name": "subtractedValue",
          "type": "uint256"
        }
      ],
      "name": "decreaseAllowance",
      "outputs": [
        {
          "internalType": "bool",
          "name": "",
          "type": "bool"
        }
      ],
      "stateMutability": "nonpayable",
      "type": "function"
    },
    {
      "inputs": [
        {
          "internalType": "address",
          "name": "spender",
          "type": "address"
        },
        {
          "internalType": "uint256",
          "name": "addedValue",
          "type": "uint256"
        }
      ],
      "name": "increaseAllowance",
      "outputs": [
        {
          "internalType": "bool",
          "name": "",
          "type": "bool"
        }
      ],
      "stateMutability": "nonpayable",
      "type": "function"
    },
    {
      "inputs": [
        {
          "internalType": "address",
          "name": "to",
          "type": "address"
        },
        {
          "internalType": "uint256",
          "name": "amount",
          "type": "uint256"
        },
        {
          "internalType": "bytes",
          "name": "data",
          "type": "bytes"
        }
      ],
      "name": "mintWithData",
      "outputs": [],
      "stateMutability": "nonpayable",
      "type": "function"
    },
    {
      "inputs": [],
      "name": "name",
      "outputs": [
        {
          "internalType": "string",
          "name": "",
          "type": "string"
        }
      ],
      "stateMutability": "view",
      "type": "function"
    },
    {
      "inputs": [],
      "name": "owner",
      "outputs": [
        {
          "internalType": "address",
          "name": "",
          "type": "address"
        }
      ],
      "stateMutability": "view",
      "type": "function"
    },
    {
      "inputs": [],
      "name": "renounceOwnership",
      "outputs": [],
      "stateMutability": "nonpayable",
      "type": "function"
    },
    {
      "inputs": [],
      "name": "symbol",
      "outputs": [
        {
          "internalType": "string",
          "name": "",
          "type": "string"
        }
      ],
      "stateMutability": "view",
      "type": "function"
    },
    {
      "inputs": [],
      "name": "totalSupply",
      "outputs": [
        {
          "internalType": "uint256",
          "name": "",
          "type": "uint256"
        }
      ],
      "stateMutability": "view",
      "type": "function"
    },
    {
      "inputs": [
        {
          "internalType": "address",
          "name": "recipient",
          "type": "address"
        },
        {
          "internalType": "uint256",
          "name": "amount",
          "type": "uint256"
        }
      ],
      "name": "transfer",
      "outputs": [
        {
          "internalType": "bool",
          "name": "",
          "type": "bool"
        }
      ],
      "stateMutability": "nonpayable",
      "type": "function"
    },
    {
      "inputs": [
        {
          "internalType": "address",
          "name": "sender",
          "type": "address"
        },
        {
          "internalType": "address",
          "name": "recipient",
          "type": "address"
        },
        {
          "internalType": "uint256",
          "name": "amount",
          "type": "uint256"
        }
      ],
      "name": "transferFrom",
      "outputs": [
        {
          "internalType": "bool",
          "name": "",
          "type": "bool"
        }
      ],
      "stateMutability": "nonpayable",
      "type": "function"
    },
    {
      "inputs": [
        {
          "internalType": "address",
          "name": "newOwner",
          "type": "address"
        }
      ],
      "name": "transferOwnership",
      "outputs": [],
      "stateMutability": "nonpayable",
      "type": "function"
    },
    {
      "inputs": [
        {
          "internalType": "address",
          "name": "from",
          "type": "address"
        },
        {
          "internalType": "address",
          "name": "to",
          "type": "address"
        },
        {
          "internalType": "uint256",
          "name": "amount",
          "type": "uint256"
        },
        {
          "internalType": "bytes",
          "name": "data",
          "type": "bytes"
        }
      ],
      "name": "transferWithData",
      "outputs": [],
      "stateMutability": "nonpayable",
      "type": "function"
    }
  ],
  "bytecode": "0x60806040523480156200001157600080fd5b50604051620023f9380380620023f9833981810160405281019062000037919062000283565b8181620000596200004d6200009560201b60201c565b6200009d60201b60201c565b81600490805190602001906200007192919062000161565b5080600590805190602001906200008a92919062000161565b505050505062000427565b600033905090565b60008060009054906101000a900473ffffffffffffffffffffffffffffffffffffffff169050816000806101000a81548173ffffffffffffffffffffffffffffffffffffffff021916908373ffffffffffffffffffffffffffffffffffffffff1602179055508173ffffffffffffffffffffffffffffffffffffffff168173ffffffffffffffffffffffffffffffffffffffff167f8be0079c531659141344cd1fd0a4f28419497f9722a3daafe3b4186f6b6457e060405160405180910390a35050565b8280546200016f9062000393565b90600052602060002090601f016020900481019282620001935760008555620001df565b82601f10620001ae57805160ff1916838001178555620001df565b82800160010185558215620001df579182015b82811115620001de578251825591602001919060010190620001c1565b5b509050620001ee9190620001f2565b5090565b5b808211156200020d576000816000905550600101620001f3565b5090565b60006200022862000222846200032a565b620002f6565b9050828152602081018484840111156200024157600080fd5b6200024e8482856200035d565b509392505050565b600082601f8301126200026857600080fd5b81516200027a84826020860162000211565b91505092915050565b600080604083850312156200029757600080fd5b600083015167ffffffffffffffff811115620002b257600080fd5b620002c08582860162000256565b925050602083015167ffffffffffffffff811115620002de57600080fd5b620002ec8582860162000256565b9150509250929050565b6000604051905081810181811067ffffffffffffffff8211171562000320576200031f620003f8565b5b8060405250919050565b600067ffffffffffffffff821115620003485762000347620003f8565b5b601f19601f8301169050602081019050919050565b60005b838110156200037d57808201518184015260208101905062000360565b838111156200038d576000848401525b50505050565b60006002820490506001821680620003ac57607f821691505b60208210811415620003c357620003c2620003c9565b5b50919050565b7f4e487b7100000000000000000000000000000000000000000000000000000000600052602260045260246000fd5b7f4e487b7100000000000000000000000000000000000000000000000000000000600052604160045260246000fd5b611fc280620004376000396000f3fe608060405234801561001057600080fd5b506004361061010b5760003560e01c806383e49c53116100a2578063a457c2d711610071578063a457c2d7146102a8578063a9059cbb146102d8578063c0ea7a7a14610308578063dd62ed3e14610324578063f2fde38b146103545761010b565b806383e49c53146102345780638da5cb5b1461025057806395d89b411461026e57806396adfe421461028c5761010b565b8063313ce567116100de578063313ce567146101ac57806339509351146101ca57806370a08231146101fa578063715018a61461022a5761010b565b806306fdde0314610110578063095ea7b31461012e57806318160ddd1461015e57806323b872dd1461017c575b600080fd5b610118610370565b6040516101259190611b97565b60405180910390f35b61014860048036038101906101439190611562565b610402565b6040516101559190611b7c565b60405180910390f35b610166610420565b6040516101739190611d59565b60405180910390f35b61019660048036038101906101919190611493565b61042a565b6040516101a39190611b7c565b60405180910390f35b6101b4610522565b6040516101c19190611d74565b60405180910390f35b6101e460048036038101906101df9190611562565b61052b565b6040516101f19190611b7c565b60405180910390f35b610214600480360381019061020f919061142e565b6105d7565b6040516102219190611d59565b60405180910390f35b610232610620565b005b61024e6004803603810190610249919061159e565b6106a8565b005b61025861072d565b6040516102659190611b61565b60405180910390f35b610276610756565b6040516102839190611b97565b60405180910390f35b6102a660048036038101906102a1919061159e565b6107e8565b005b6102c260048036038101906102bd9190611562565b610874565b6040516102cf9190611b7c565b60405180910390f35b6102f260048036038101906102ed9190611562565b61095f565b6040516102ff9190611b7c565b60405180910390f35b610322600480360381019061031d91906114e2565b61097d565b005b61033e60048036038101906103399190611457565b6109dc565b60405161034b9190611d59565b60405180910390f35b61036e6004803603810190610369919061142e565b610a63565b005b60606004805461037f90611ebd565b80601f01602080910402602001604051908101604052809291908181526020018280546103ab90611ebd565b80156103f85780601f106103cd576101008083540402835291602001916103f8565b820191906000526020600020905b8154815290600101906020018083116103db57829003601f168201915b5050505050905090565b600061041661040f610b5b565b8484610b63565b6001905092915050565b6000600354905090565b6000610437848484610d2e565b6000600260008673ffffffffffffffffffffffffffffffffffffffff1673ffffffffffffffffffffffffffffffffffffffff1681526020019081526020016000206000610482610b5b565b73ffffffffffffffffffffffffffffffffffffffff1673ffffffffffffffffffffffffffffffffffffffff16815260200190815260200160002054905082811015610502576040517f08c379a00000000000000000000000000000000000000000000000000000000081526004016104f990611c79565b60405180910390fd5b6105168561050e610b5b565b858403610b63565b60019150509392505050565b60006012905090565b60006105cd610538610b5b565b848460026000610546610b5b565b73ffffffffffffffffffffffffffffffffffffffff1673ffffffffffffffffffffffffffffffffffffffff16815260200190815260200160002060008873ffffffffffffffffffffffffffffffffffffffff1673ffffffffffffffffffffffffffffffffffffffff168152602001908152602001600020546105c89190611dab565b610b63565b6001905092915050565b6000600160008373ffffffffffffffffffffffffffffffffffffffff1673ffffffffffffffffffffffffffffffffffffffff168152602001908152602001600020549050919050565b610628610b5b565b73ffffffffffffffffffffffffffffffffffffffff1661064661072d565b73ffffffffffffffffffffffffffffffffffffffff161461069c576040517f08c379a000000000000000000000000000000000000000000000000000000000815260040161069390611c99565b60405180910390fd5b6106a66000610fb2565b565b6106b0610b5b565b73ffffffffffffffffffffffffffffffffffffffff168473ffffffffffffffffffffffffffffffffffffffff161461071d576040517f08c379a000000000000000000000000000000000000000000000000000000000815260040161071490611c59565b60405180910390fd5b6107278484611076565b50505050565b60008060009054906101000a900473ffffffffffffffffffffffffffffffffffffffff16905090565b60606005805461076590611ebd565b80601f016020809104026020016040519081016040528092919081815260200182805461079190611ebd565b80156107de5780601f106107b3576101008083540402835291602001916107de565b820191906000526020600020905b8154815290600101906020018083116107c157829003601f168201915b5050505050905090565b6107f0610b5b565b73ffffffffffffffffffffffffffffffffffffffff1661080e61072d565b73ffffffffffffffffffffffffffffffffffffffff1614610864576040517f08c379a000000000000000000000000000000000000000000000000000000000815260040161085b90611c99565b60405180910390fd5b61086e848461124f565b50505050565b60008060026000610883610b5b565b73ffffffffffffffffffffffffffffffffffffffff1673ffffffffffffffffffffffffffffffffffffffff16815260200190815260200160002060008573ffffffffffffffffffffffffffffffffffffffff1673ffffffffffffffffffffffffffffffffffffffff16815260200190815260200160002054905082811015610940576040517f08c379a000000000000000000000000000000000000000000000000000000000815260040161093790611d19565b60405180910390fd5b61095461094b610b5b565b85858403610b63565b600191505092915050565b600061097361096c610b5b565b8484610d2e565b6001905092915050565b610985610b5b565b73ffffffffffffffffffffffffffffffffffffffff168573ffffffffffffffffffffffffffffffffffffffff1614156109c8576109c2848461095f565b506109d5565b6109d385858561042a565b505b5050505050565b6000600260008473ffffffffffffffffffffffffffffffffffffffff1673ffffffffffffffffffffffffffffffffffffffff16815260200190815260200160002060008373ffffffffffffffffffffffffffffffffffffffff1673ffffffffffffffffffffffffffffffffffffffff16815260200190815260200160002054905092915050565b610a6b610b5b565b73ffffffffffffffffffffffffffffffffffffffff16610a8961072d565b73ffffffffffffffffffffffffffffffffffffffff1614610adf576040517f08c379a0000000000000000000000000000000000000000000000000000000008152600401610ad690611c99565b60405180910390fd5b600073ffffffffffffffffffffffffffffffffffffffff168173ffffffffffffffffffffffffffffffffffffffff161415610b4f576040517f08c379a0000000000000000000000000000000000000000000000000000000008152600401610b4690611bf9565b60405180910390fd5b610b5881610fb2565b50565b600033905090565b600073ffffffffffffffffffffffffffffffffffffffff168373ffffffffffffffffffffffffffffffffffffffff161415610bd3576040517f08c379a0000000000000000000000000000000000000000000000000000000008152600401610bca90611cf9565b60405180910390fd5b600073ffffffffffffffffffffffffffffffffffffffff168273ffffffffffffffffffffffffffffffffffffffff161415610c43576040517f08c379a0000000000000000000000000000000000000000000000000000000008152600401610c3a90611c19565b60405180910390fd5b80600260008573ffffffffffffffffffffffffffffffffffffffff1673ffffffffffffffffffffffffffffffffffffffff16815260200190815260200160002060008473ffffffffffffffffffffffffffffffffffffffff1673ffffffffffffffffffffffffffffffffffffffff168152602001908152602001600020819055508173ffffffffffffffffffffffffffffffffffffffff168373ffffffffffffffffffffffffffffffffffffffff167f8c5be1e5ebec7d5bd14f71427d1e84f3dd0314c0f7b2291e5b200ac8c7c3b92583604051610d219190611d59565b60405180910390a3505050565b600073ffffffffffffffffffffffffffffffffffffffff168373ffffffffffffffffffffffffffffffffffffffff161415610d9e576040517f08c379a0000000000000000000000000000000000000000000000000000000008152600401610d9590611cd9565b60405180910390fd5b600073ffffffffffffffffffffffffffffffffffffffff168273ffffffffffffffffffffffffffffffffffffffff161415610e0e576040517f08c379a0000000000000000000000000000000000000000000000000000000008152600401610e0590611bb9565b60405180910390fd5b610e198383836113b0565b6000600160008573ffffffffffffffffffffffffffffffffffffffff1673ffffffffffffffffffffffffffffffffffffffff16815260200190815260200160002054905081811015610ea0576040517f08c379a0000000000000000000000000000000000000000000000000000000008152600401610e9790611c39565b60405180910390fd5b818103600160008673ffffffffffffffffffffffffffffffffffffffff1673ffffffffffffffffffffffffffffffffffffffff1681526020019081526020016000208190555081600160008573ffffffffffffffffffffffffffffffffffffffff1673ffffffffffffffffffffffffffffffffffffffff1681526020019081526020016000206000828254610f359190611dab565b925050819055508273ffffffffffffffffffffffffffffffffffffffff168473ffffffffffffffffffffffffffffffffffffffff167fddf252ad1be2c89b69c2b068fc378daa952ba7f163c4a11628f55a4df523b3ef84604051610f999190611d59565b60405180910390a3610fac8484846113b5565b50505050565b60008060009054906101000a900473ffffffffffffffffffffffffffffffffffffffff169050816000806101000a81548173ffffffffffffffffffffffffffffffffffffffff021916908373ffffffffffffffffffffffffffffffffffffffff1602179055508173ffffffffffffffffffffffffffffffffffffffff168173ffffffffffffffffffffffffffffffffffffffff167f8be0079c531659141344cd1fd0a4f28419497f9722a3daafe3b4186f6b6457e060405160405180910390a35050565b600073ffffffffffffffffffffffffffffffffffffffff168273ffffffffffffffffffffffffffffffffffffffff1614156110e6576040517f08c379a00000000000000000000000000000000000000000000000000000000081526004016110dd90611cb9565b60405180910390fd5b6110f2826000836113b0565b6000600160008473ffffffffffffffffffffffffffffffffffffffff1673ffffffffffffffffffffffffffffffffffffffff16815260200190815260200160002054905081811015611179576040517f08c379a000000000000000000000000000000000000000000000000000000000815260040161117090611bd9565b60405180910390fd5b818103600160008573ffffffffffffffffffffffffffffffffffffffff1673ffffffffffffffffffffffffffffffffffffffff1681526020019081526020016000208190555081600360008282546111d19190611e01565b92505081905550600073ffffffffffffffffffffffffffffffffffffffff168373ffffffffffffffffffffffffffffffffffffffff167fddf252ad1be2c89b69c2b068fc378daa952ba7f163c4a11628f55a4df523b3ef846040516112369190611d59565b60405180910390a361124a836000846113b5565b505050565b600073ffffffffffffffffffffffffffffffffffffffff168273ffffffffffffffffffffffffffffffffffffffff1614156112bf576040517f08c379a00000000000000000000000000000000000000000000000000000000081526004016112b690611d39565b60405180910390fd5b6112cb600083836113b0565b80600360008282546112dd9190611dab565b9250508190555080600160008473ffffffffffffffffffffffffffffffffffffffff1673ffffffffffffffffffffffffffffffffffffffff16815260200190815260200160002060008282546113339190611dab565b925050819055508173ffffffffffffffffffffffffffffffffffffffff16600073ffffffffffffffffffffffffffffffffffffffff167fddf252ad1be2c89b69c2b068fc378daa952ba7f163c4a11628f55a4df523b3ef836040516113989190611d59565b60405180910390a36113ac600083836113b5565b5050565b505050565b505050565b6000813590506113c981611f5e565b92915050565b60008083601f8401126113e157600080fd5b8235905067ffffffffffffffff8111156113fa57600080fd5b60208301915083600182028301111561141257600080fd5b9250929050565b60008135905061142881611f75565b92915050565b60006020828403121561144057600080fd5b600061144e848285016113ba565b91505092915050565b6000806040838503121561146a57600080fd5b6000611478858286016113ba565b9250506020611489858286016113ba565b9150509250929050565b6000806000606084860312156114a857600080fd5b60006114b6868287016113ba565b93505060206114c7868287016113ba565b92505060406114d886828701611419565b9150509250925092565b6000806000806000608086880312156114fa57600080fd5b6000611508888289016113ba565b9550506020611519888289016113ba565b945050604061152a88828901611419565b935050606086013567ffffffffffffffff81111561154757600080fd5b611553888289016113cf565b92509250509295509295909350565b6000806040838503121561157557600080fd5b6000611583858286016113ba565b925050602061159485828601611419565b9150509250929050565b600080600080606085870312156115b457600080fd5b60006115c2878288016113ba565b94505060206115d387828801611419565b935050604085013567ffffffffffffffff8111156115f057600080fd5b6115fc878288016113cf565b925092505092959194509250565b61161381611e35565b82525050565b61162281611e47565b82525050565b600061163382611d8f565b61163d8185611d9a565b935061164d818560208601611e8a565b61165681611f4d565b840191505092915050565b600061166e602383611d9a565b91507f45524332303a207472616e7366657220746f20746865207a65726f206164647260008301527f65737300000000000000000000000000000000000000000000000000000000006020830152604082019050919050565b60006116d4602283611d9a565b91507f45524332303a206275726e20616d6f756e7420657863656564732062616c616e60008301527f63650000000000000000000000000000000000000000000000000000000000006020830152604082019050919050565b600061173a602683611d9a565b91507f4f776e61626c653a206e6577206f776e657220697320746865207a65726f206160008301527f64647265737300000000000000000000000000000000000000000000000000006020830152604082019050919050565b60006117a0602283611d9a565b91507f45524332303a20617070726f766520746f20746865207a65726f20616464726560008301527f73730000000000000000000000000000000000000000000000000000000000006020830152604082019050919050565b6000611806602683611d9a565b91507f45524332303a207472616e7366657220616d6f756e742065786365656473206260008301527f616c616e636500000000000000000000000000000000000000000000000000006020830152604082019050919050565b600061186c602283611d9a565b91507f455243323057697468446174613a2063616c6c6572206973206e6f74206f776e60008301527f65720000000000000000000000000000000000000000000000000000000000006020830152604082019050919050565b60006118d2602883611d9a565b91507f45524332303a207472616e7366657220616d6f756e742065786365656473206160008301527f6c6c6f77616e63650000000000000000000000000000000000000000000000006020830152604082019050919050565b6000611938602083611d9a565b91507f4f776e61626c653a2063616c6c6572206973206e6f7420746865206f776e65726000830152602082019050919050565b6000611978602183611d9a565b91507f45524332303a206275726e2066726f6d20746865207a65726f2061646472657360008301527f73000000000000000000000000000000000000000000000000000000000000006020830152604082019050919050565b60006119de602583611d9a565b91507f45524332303a207472616e736665722066726f6d20746865207a65726f20616460008301527f64726573730000000000000000000000000000000000000000000000000000006020830152604082019050919050565b6000611a44602483611d9a565b91507f45524332303a20617070726f76652066726f6d20746865207a65726f2061646460008301527f72657373000000000000000000000000000000000000000000000000000000006020830152604082019050919050565b6000611aaa602583611d9a565b91507f45524332303a2064656372656173656420616c6c6f77616e63652062656c6f7760008301527f207a65726f0000000000000000000000000000000000000000000000000000006020830152604082019050919050565b6000611b10601f83611d9a565b91507f45524332303a206d696e7420746f20746865207a65726f2061646472657373006000830152602082019050919050565b611b4c81611e73565b82525050565b611b5b81611e7d565b82525050565b6000602082019050611b76600083018461160a565b92915050565b6000602082019050611b916000830184611619565b92915050565b60006020820190508181036000830152611bb18184611628565b905092915050565b60006020820190508181036000830152611bd281611661565b9050919050565b60006020820190508181036000830152611bf2816116c7565b9050919050565b60006020820190508181036000830152611c128161172d565b9050919050565b60006020820190508181036000830152611c3281611793565b9050919050565b60006020820190508181036000830152611c52816117f9565b9050919050565b60006020820190508181036000830152611c728161185f565b9050919050565b60006020820190508181036000830152611c92816118c5565b9050919050565b60006020820190508181036000830152611cb28161192b565b9050919050565b60006020820190508181036000830152611cd28161196b565b9050919050565b60006020820190508181036000830152611cf2816119d1565b9050919050565b60006020820190508181036000830152611d1281611a37565b9050919050565b60006020820190508181036000830152611d3281611a9d565b9050919050565b60006020820190508181036000830152611d5281611b03565b9050919050565b6000602082019050611d6e6000830184611b43565b92915050565b6000602082019050611d896000830184611b52565b92915050565b600081519050919050565b600082825260208201905092915050565b6000611db682611e73565b9150611dc183611e73565b9250827fffffffffffffffffffffffffffffffffffffffffffffffffffffffffffffffff03821115611df657611df5611eef565b5b828201905092915050565b6000611e0c82611e73565b9150611e1783611e73565b925082821015611e2a57611e29611eef565b5b828203905092915050565b6000611e4082611e53565b9050919050565b60008115159050919050565b600073ffffffffffffffffffffffffffffffffffffffff82169050919050565b6000819050919050565b600060ff82169050919050565b60005b83811015611ea8578082015181840152602081019050611e8d565b83811115611eb7576000848401525b50505050565b60006002820490506001821680611ed557607f821691505b60208210811415611ee957611ee8611f1e565b5b50919050565b7f4e487b7100000000000000000000000000000000000000000000000000000000600052601160045260246000fd5b7f4e487b7100000000000000000000000000000000000000000000000000000000600052602260045260246000fd5b6000601f19601f8301169050919050565b611f6781611e35565b8114611f7257600080fd5b50565b611f7e81611e73565b8114611f8957600080fd5b5056fea26469706673582212206f1838c14854c40ce8835627d65c1e8de74969963917df48dfbd8ac99cc7002f64736f6c63430008000033",
  "linkReferences": {},
  "deployedLinkReferences": {}
}