{
  "_format": "hh-sol-artifact-1",
  "contractName": "ERC721WithData",
  "sourceName": "contracts/ERC721WithData.sol",
  "abi": [
    {
      "inputs": [
        {
          "internalType": "string",
          "name": "name",
          "type": "string"
        },
        {
          "internalType": "string",
          "name": "symbol",
          "type": "string"
        }
      ],
      "stateMutability": "nonpayable",
      "type": "constructor"
    },
    {
      "anonymous": false,
      "inputs": [
        {
          "indexed": true,
          "internalType": "address",
          "name": "owner",
          "type": "address"
        },
        {
          "indexed": true,
          "internalType": "address",
          "name": "approved",
          "type": "address"
        },
        {
          "indexed": true,
          "internalType": "uint256",
          "name": "tokenId",
          "type": "uint256"
        }
      ],
      "name": "Approval",
      "type": "event"
    },
    {
      "anonymous": false,
      "inputs": [
        {
          "indexed": true,
          "internalType": "address",
          "name": "owner",
          "type": "address"
        },
        {
          "indexed": true,
          "internalType": "address",
          "name": "operator",
          "type": "address"
        },
        {
          "indexed": false,
          "internalType": "bool",
          "name": "approved",
          "type": "bool"
        }
      ],
      "name": "ApprovalForAll",
      "type": "event"
    },
    {
      "anonymous": false,
      "inputs": [
        {
          "indexed": true,
          "internalType": "address",
          "name": "previousOwner",
          "type": "address"
        },
        {
          "indexed": true,
          "internalType": "address",
          "name": "newOwner",
          "type": "address"
        }
      ],
      "name": "OwnershipTransferred",
      "type": "event"
    },
    {
      "anonymous": false,
      "inputs": [
        {
          "indexed": true,
          "internalType": "address",
          "name": "from",
          "type": "address"
        },
        {
          "indexed": true,
          "internalType": "address",
          "name": "to",
          "type": "address"
        },
        {
          "indexed": true,
          "internalType": "uint256",
          "name": "tokenId",
          "type": "uint256"
        }
      ],
      "name": "Transfer",
      "type": "event"
    },
    {
      "inputs": [
        {
          "internalType": "address",
          "name": "to",
          "type": "address"
        },
        {
          "internalType": "uint256",
          "name": "tokenId",
          "type": "uint256"
        }
      ],
      "name": "approve",
      "outputs": [],
      "stateMutability": "nonpayable",
      "type": "function"
    },
    {
      "inputs": [
        {
          "internalType": "address",
          "name": "to",
          "type": "address"
        },
        {
          "internalType": "uint256",
          "name": "tokenId",
          "type": "uint256"
        },
        {
          "internalType": "bytes",
          "name": "data",
          "type": "bytes"
        }
      ],
      "name": "approveWithData",
      "outputs": [],
      "stateMutability": "nonpayable",
      "type": "function"
    },
    {
      "inputs": [
        {
          "internalType": "address",
          "name": "owner",
          "type": "address"
        }
      ],
      "name": "balanceOf",
      "outputs": [
        {
          "internalType": "uint256",
          "name": "",
          "type": "uint256"
        }
      ],
      "stateMutability": "view",
      "type": "function"
    },
    {
      "inputs": [
        {
          "internalType": "address",
          "name": "from",
          "type": "address"
        },
        {
          "internalType": "uint256",
          "name": "tokenId",
          "type": "uint256"
        },
        {
          "internalType": "bytes",
          "name": "data",
          "type": "bytes"
        }
      ],
      "name": "burnWithData",
      "outputs": [],
      "stateMutability": "nonpayable",
      "type": "function"
    },
    {
      "inputs": [
        {
          "internalType": "uint256",
          "name": "tokenId",
          "type": "uint256"
        }
      ],
      "name": "getApproved",
      "outputs": [
        {
          "internalType": "address",
          "name": "",
          "type": "address"
        }
      ],
      "stateMutability": "view",
      "type": "function"
    },
    {
      "inputs": [
        {
          "internalType": "address",
          "name": "owner",
          "type": "address"
        },
        {
          "internalType": "address",
          "name": "operator",
          "type": "address"
        }
      ],
      "name": "isApprovedForAll",
      "outputs": [
        {
          "internalType": "bool",
          "name": "",
          "type": "bool"
        }
      ],
      "stateMutability": "view",
      "type": "function"
    },
    {
      "inputs": [
        {
          "internalType": "address",
          "name": "to",
          "type": "address"
        },
        {
          "internalType": "uint256",
          "name": "tokenId",
          "type": "uint256"
        },
        {
          "internalType": "bytes",
          "name": "data",
          "type": "bytes"
        }
      ],
      "name": "mintWithData",
      "outputs": [],
      "stateMutability": "nonpayable",
      "type": "function"
    },
    {
      "inputs": [],
      "name": "name",
      "outputs": [
        {
          "internalType": "string",
          "name": "",
          "type": "string"
        }
      ],
      "stateMutability": "view",
      "type": "function"
    },
    {
      "inputs": [],
      "name": "owner",
      "outputs": [
        {
          "internalType": "address",
          "name": "",
          "type": "address"
        }
      ],
      "stateMutability": "view",
      "type": "function"
    },
    {
      "inputs": [
        {
          "internalType": "uint256",
          "name": "tokenId",
          "type": "uint256"
        }
      ],
      "name": "ownerOf",
      "outputs": [
        {
          "internalType": "address",
          "name": "",
          "type": "address"
        }
      ],
      "stateMutability": "view",
      "type": "function"
    },
    {
      "inputs": [],
      "name": "renounceOwnership",
      "outputs": [],
      "stateMutability": "nonpayable",
      "type": "function"
    },
    {
      "inputs": [
        {
          "internalType": "address",
          "name": "from",
          "type": "address"
        },
        {
          "internalType": "address",
          "name": "to",
          "type": "address"
        },
        {
          "internalType": "uint256",
          "name": "tokenId",
          "type": "uint256"
        }
      ],
      "name": "safeTransferFrom",
      "outputs": [],
      "stateMutability": "nonpayable",
      "type": "function"
    },
    {
      "inputs": [
        {
          "internalType": "address",
          "name": "from",
          "type": "address"
        },
        {
          "internalType": "address",
          "name": "to",
          "type": "address"
        },
        {
          "internalType": "uint256",
          "name": "tokenId",
          "type": "uint256"
        },
        {
          "internalType": "bytes",
          "name": "_data",
          "type": "bytes"
        }
      ],
      "name": "safeTransferFrom",
      "outputs": [],
      "stateMutability": "nonpayable",
      "type": "function"
    },
    {
      "inputs": [
        {
          "internalType": "address",
          "name": "operator",
          "type": "address"
        },
        {
          "internalType": "bool",
          "name": "approved",
          "type": "bool"
        }
      ],
      "name": "setApprovalForAll",
      "outputs": [],
      "stateMutability": "nonpayable",
      "type": "function"
    },
    {
      "inputs": [
        {
          "internalType": "address",
          "name": "operator",
          "type": "address"
        },
        {
          "internalType": "bool",
          "name": "approved",
          "type": "bool"
        },
        {
          "internalType": "bytes",
          "name": "data",
          "type": "bytes"
        }
      ],
      "name": "setApprovalForAllWithData",
      "outputs": [],
      "stateMutability": "nonpayable",
      "type": "function"
    },
    {
      "inputs": [
        {
          "internalType": "bytes4",
          "name": "interfaceId",
          "type": "bytes4"
        }
      ],
      "name": "supportsInterface",
      "outputs": [
        {
          "internalType": "bool",
          "name": "",
          "type": "bool"
        }
      ],
      "stateMutability": "view",
      "type": "function"
    },
    {
      "inputs": [],
      "name": "symbol",
      "outputs": [
        {
          "internalType": "string",
          "name": "",
          "type": "string"
        }
      ],
      "stateMutability": "view",
      "type": "function"
    },
    {
      "inputs": [
        {
          "internalType": "uint256",
          "name": "tokenId",
          "type": "uint256"
        }
      ],
      "name": "tokenURI",
      "outputs": [
        {
          "internalType": "string",
          "name": "",
          "type": "string"
        }
      ],
      "stateMutability": "view",
      "type": "function"
    },
    {
      "inputs": [
        {
          "internalType": "address",
          "name": "from",
          "type": "address"
        },
        {
          "internalType": "address",
          "name": "to",
          "type": "address"
        },
        {
          "internalType": "uint256",
          "name": "tokenId",
          "type": "uint256"
        }
      ],
      "name": "transferFrom",
      "outputs": [],
      "stateMutability": "nonpayable",
      "type": "function"
    },
    {
      "inputs": [
        {
          "internalType": "address",
          "name": "newOwner",
          "type": "address"
        }
      ],
      "name": "transferOwnership",
      "outputs": [],
      "stateMutability": "nonpayable",
      "type": "function"
    },
    {
      "inputs": [
        {
          "internalType": "address",
          "name": "from",
          "type": "address"
        },
        {
          "internalType": "address",
          "name": "to",
          "type": "address"
        },
        {
          "internalType": "uint256",
          "name": "tokenId",
          "type": "uint256"
        },
        {
          "internalType": "bytes",
          "name": "data",
          "type": "bytes"
        }
      ],
      "name": "transferWithData",
      "outputs": [],
      "stateMutability": "nonpayable",
      "type": "function"
    }
  ],
  "bytecode": "0x60806040523480156200001157600080fd5b50604051620033c7380380620033c7833981810160405281019062000037919062000283565b8181620000596200004d6200009560201b60201c565b6200009d60201b60201c565b81600190805190602001906200007192919062000161565b5080600290805190602001906200008a92919062000161565b505050505062000427565b600033905090565b60008060009054906101000a900473ffffffffffffffffffffffffffffffffffffffff169050816000806101000a81548173ffffffffffffffffffffffffffffffffffffffff021916908373ffffffffffffffffffffffffffffffffffffffff1602179055508173ffffffffffffffffffffffffffffffffffffffff168173ffffffffffffffffffffffffffffffffffffffff167f8be0079c531659141344cd1fd0a4f28419497f9722a3daafe3b4186f6b6457e060405160405180910390a35050565b8280546200016f9062000393565b90600052602060002090601f016020900481019282620001935760008555620001df565b82601f10620001ae57805160ff1916838001178555620001df565b82800160010185558215620001df579182015b82811115620001de578251825591602001919060010190620001c1565b5b509050620001ee9190620001f2565b5090565b5b808211156200020d576000816000905550600101620001f3565b5090565b60006200022862000222846200032a565b620002f6565b9050828152602081018484840111156200024157600080fd5b6200024e8482856200035d565b509392505050565b600082601f8301126200026857600080fd5b81516200027a84826020860162000211565b91505092915050565b600080604083850312156200029757600080fd5b600083015167ffffffffffffffff811115620002b257600080fd5b620002c08582860162000256565b925050602083015167ffffffffffffffff811115620002de57600080fd5b620002ec8582860162000256565b9150509250929050565b6000604051905081810181811067ffffffffffffffff8211171562000320576200031f620003f8565b5b8060405250919050565b600067ffffffffffffffff821115620003485762000347620003f8565b5b601f19601f8301169050602081019050919050565b60005b838110156200037d57808201518184015260208101905062000360565b838111156200038d576000848401525b50505050565b60006002820490506001821680620003ac57607f821691505b60208210811415620003c357620003c2620003c9565b5b50919050565b7f4e487b7100000000000000000000000000000000000000000000000000000000600052602260045260246000fd5b7f4e487b7100000000000000000000000000000000000000000000000000000000600052604160045260246000fd5b612f9080620004376000396000f3fe608060405234801561001057600080fd5b50600436106101375760003560e01c80637b5eb564116100b8578063a22cb4651161007c578063a22cb46514610324578063b88d4fde14610340578063c0ea7a7a1461035c578063c87b56dd14610378578063e985e9c5146103a8578063f2fde38b146103d857610137565b80637b5eb5641461029457806383e49c53146102b05780638da5cb5b146102cc57806395d89b41146102ea57806396adfe421461030857610137565b806323b872dd116100ff57806323b872dd146101f257806342842e0e1461020e5780636352211e1461022a57806370a082311461025a578063715018a61461028a57610137565b806301ffc9a71461013c57806306fdde031461016c578063081812fc1461018a578063095ea7b3146101ba5780631cbf311d146101d6575b600080fd5b610156600480360381019061015191906120f4565b6103f4565b60405161016391906128f8565b60405180910390f35b6101746104d6565b6040516101819190612913565b60405180910390f35b6101a4600480360381019061019f9190612146565b610568565b6040516101b19190612891565b60405180910390f35b6101d460048036038101906101cf919061204c565b6105ed565b005b6101f060048036038101906101eb9190611fe0565b610705565b005b61020c60048036038101906102079190611e5a565b610715565b005b61022860048036038101906102239190611e5a565b610775565b005b610244600480360381019061023f9190612146565b610795565b6040516102519190612891565b60405180910390f35b610274600480360381019061026f9190611df5565b610847565b6040516102819190612b55565b60405180910390f35b6102926108ff565b005b6102ae60048036038101906102a99190612088565b610987565b005b6102ca60048036038101906102c59190612088565b610997565b005b6102d4610a1b565b6040516102e19190612891565b60405180910390f35b6102f2610a44565b6040516102ff9190612913565b60405180910390f35b610322600480360381019061031d9190612088565b610ad6565b005b61033e60048036038101906103399190611fa4565b610ba7565b005b61035a60048036038101906103559190611f29565b610bbd565b005b61037660048036038101906103719190611ea9565b610c1f565b005b610392600480360381019061038d9190612146565b610c76565b60405161039f9190612913565b60405180910390f35b6103c260048036038101906103bd9190611e1e565b610d1d565b6040516103cf91906128f8565b60405180910390f35b6103f260048036038101906103ed9190611df5565b610db1565b005b60007f80ac58cd000000000000000000000000000000000000000000000000000000007bffffffffffffffffffffffffffffffffffffffffffffffffffffffff1916827bffffffffffffffffffffffffffffffffffffffffffffffffffffffff191614806104bf57507f5b5e139f000000000000000000000000000000000000000000000000000000007bffffffffffffffffffffffffffffffffffffffffffffffffffffffff1916827bffffffffffffffffffffffffffffffffffffffffffffffffffffffff1916145b806104cf57506104ce82610ea9565b5b9050919050565b6060600180546104e590612d85565b80601f016020809104026020016040519081016040528092919081815260200182805461051190612d85565b801561055e5780601f106105335761010080835404028352916020019161055e565b820191906000526020600020905b81548152906001019060200180831161054157829003601f168201915b5050505050905090565b600061057382610f13565b6105b2576040517f08c379a00000000000000000000000000000000000000000000000000000000081526004016105a990612a75565b60405180910390fd5b6005600083815260200190815260200160002060009054906101000a900473ffffffffffffffffffffffffffffffffffffffff169050919050565b60006105f882610795565b90508073ffffffffffffffffffffffffffffffffffffffff168373ffffffffffffffffffffffffffffffffffffffff161415610669576040517f08c379a000000000000000000000000000000000000000000000000000000000815260040161066090612b15565b60405180910390fd5b8073ffffffffffffffffffffffffffffffffffffffff16610688610f7f565b73ffffffffffffffffffffffffffffffffffffffff1614806106b757506106b6816106b1610f7f565b610d1d565b5b6106f6576040517f08c379a00000000000000000000000000000000000000000000000000000000081526004016106ed906129f5565b60405180910390fd5b6107008383610f87565b505050565b61070f8484610ba7565b50505050565b610726610720610f7f565b82611040565b610765576040517f08c379a000000000000000000000000000000000000000000000000000000000815260040161075c90612b35565b60405180910390fd5b61077083838361111e565b505050565b61079083838360405180602001604052806000815250610bbd565b505050565b6000806003600084815260200190815260200160002060009054906101000a900473ffffffffffffffffffffffffffffffffffffffff169050600073ffffffffffffffffffffffffffffffffffffffff168173ffffffffffffffffffffffffffffffffffffffff16141561083e576040517f08c379a000000000000000000000000000000000000000000000000000000000815260040161083590612a35565b60405180910390fd5b80915050919050565b60008073ffffffffffffffffffffffffffffffffffffffff168273ffffffffffffffffffffffffffffffffffffffff1614156108b8576040517f08c379a00000000000000000000000000000000000000000000000000000000081526004016108af90612a15565b60405180910390fd5b600460008373ffffffffffffffffffffffffffffffffffffffff1673ffffffffffffffffffffffffffffffffffffffff168152602001908152602001600020549050919050565b610907610f7f565b73ffffffffffffffffffffffffffffffffffffffff16610925610a1b565b73ffffffffffffffffffffffffffffffffffffffff161461097b576040517f08c379a000000000000000000000000000000000000000000000000000000000815260040161097290612a95565b60405180910390fd5b610985600061137a565b565b61099184846105ed565b50505050565b61099f610f7f565b73ffffffffffffffffffffffffffffffffffffffff168473ffffffffffffffffffffffffffffffffffffffff1614610a0c576040517f08c379a0000000000000000000000000000000000000000000000000000000008152600401610a0390612ab5565b60405180910390fd5b610a158361143e565b50505050565b60008060009054906101000a900473ffffffffffffffffffffffffffffffffffffffff16905090565b606060028054610a5390612d85565b80601f0160208091040260200160405190810160405280929190818152602001828054610a7f90612d85565b8015610acc5780601f10610aa157610100808354040283529160200191610acc565b820191906000526020600020905b815481529060010190602001808311610aaf57829003601f168201915b5050505050905090565b610ade610f7f565b73ffffffffffffffffffffffffffffffffffffffff16610afc610a1b565b73ffffffffffffffffffffffffffffffffffffffff1614610b52576040517f08c379a0000000000000000000000000000000000000000000000000000000008152600401610b4990612a95565b60405180910390fd5b610ba1848484848080601f016020809104026020016040519081016040528093929190818152602001838380828437600081840152601f19601f8201169050808301925050505050505061154f565b50505050565b610bb9610bb2610f7f565b83836115aa565b5050565b610bce610bc8610f7f565b83611040565b610c0d576040517f08c379a0000000000000000000000000000000000000000000000000000000008152600401610c0490612b35565b60405180910390fd5b610c1984848484611717565b50505050565b610c6f85858585858080601f016020809104026020016040519081016040528093929190818152602001838380828437600081840152601f19601f82011690508083019250505050505050610bbd565b5050505050565b6060610c8182610f13565b610cc0576040517f08c379a0000000000000000000000000000000000000000000000000000000008152600401610cb790612af5565b60405180910390fd5b6000610cca611773565b90506000815111610cea5760405180602001604052806000815250610d15565b80610cf4846117b0565b604051602001610d0592919061286d565b6040516020818303038152906040525b915050919050565b6000600660008473ffffffffffffffffffffffffffffffffffffffff1673ffffffffffffffffffffffffffffffffffffffff16815260200190815260200160002060008373ffffffffffffffffffffffffffffffffffffffff1673ffffffffffffffffffffffffffffffffffffffff16815260200190815260200160002060009054906101000a900460ff16905092915050565b610db9610f7f565b73ffffffffffffffffffffffffffffffffffffffff16610dd7610a1b565b73ffffffffffffffffffffffffffffffffffffffff1614610e2d576040517f08c379a0000000000000000000000000000000000000000000000000000000008152600401610e2490612a95565b60405180910390fd5b600073ffffffffffffffffffffffffffffffffffffffff168173ffffffffffffffffffffffffffffffffffffffff161415610e9d576040517f08c379a0000000000000000000000000000000000000000000000000000000008152600401610e9490612955565b60405180910390fd5b610ea68161137a565b50565b60007f01ffc9a7000000000000000000000000000000000000000000000000000000007bffffffffffffffffffffffffffffffffffffffffffffffffffffffff1916827bffffffffffffffffffffffffffffffffffffffffffffffffffffffff1916149050919050565b60008073ffffffffffffffffffffffffffffffffffffffff166003600084815260200190815260200160002060009054906101000a900473ffffffffffffffffffffffffffffffffffffffff1673ffffffffffffffffffffffffffffffffffffffff1614159050919050565b600033905090565b816005600083815260200190815260200160002060006101000a81548173ffffffffffffffffffffffffffffffffffffffff021916908373ffffffffffffffffffffffffffffffffffffffff160217905550808273ffffffffffffffffffffffffffffffffffffffff16610ffa83610795565b73ffffffffffffffffffffffffffffffffffffffff167f8c5be1e5ebec7d5bd14f71427d1e84f3dd0314c0f7b2291e5b200ac8c7c3b92560405160405180910390a45050565b600061104b82610f13565b61108a576040517f08c379a0000000000000000000000000000000000000000000000000000000008152600401611081906129d5565b60405180910390fd5b600061109583610795565b90508073ffffffffffffffffffffffffffffffffffffffff168473ffffffffffffffffffffffffffffffffffffffff16148061110457508373ffffffffffffffffffffffffffffffffffffffff166110ec84610568565b73ffffffffffffffffffffffffffffffffffffffff16145b8061111557506111148185610d1d565b5b91505092915050565b8273ffffffffffffffffffffffffffffffffffffffff1661113e82610795565b73ffffffffffffffffffffffffffffffffffffffff1614611194576040517f08c379a000000000000000000000000000000000000000000000000000000000815260040161118b90612ad5565b60405180910390fd5b600073ffffffffffffffffffffffffffffffffffffffff168273ffffffffffffffffffffffffffffffffffffffff161415611204576040517f08c379a00000000000000000000000000000000000000000000000000000000081526004016111fb90612995565b60405180910390fd5b61120f83838361195d565b61121a600082610f87565b6001600460008573ffffffffffffffffffffffffffffffffffffffff1673ffffffffffffffffffffffffffffffffffffffff168152602001908152602001600020600082825461126a9190612c9b565b925050819055506001600460008473ffffffffffffffffffffffffffffffffffffffff1673ffffffffffffffffffffffffffffffffffffffff16815260200190815260200160002060008282546112c19190612c14565b92505081905550816003600083815260200190815260200160002060006101000a81548173ffffffffffffffffffffffffffffffffffffffff021916908373ffffffffffffffffffffffffffffffffffffffff160217905550808273ffffffffffffffffffffffffffffffffffffffff168473ffffffffffffffffffffffffffffffffffffffff167fddf252ad1be2c89b69c2b068fc378daa952ba7f163c4a11628f55a4df523b3ef60405160405180910390a4505050565b60008060009054906101000a900473ffffffffffffffffffffffffffffffffffffffff169050816000806101000a81548173ffffffffffffffffffffffffffffffffffffffff021916908373ffffffffffffffffffffffffffffffffffffffff1602179055508173ffffffffffffffffffffffffffffffffffffffff168173ffffffffffffffffffffffffffffffffffffffff167f8be0079c531659141344cd1fd0a4f28419497f9722a3daafe3b4186f6b6457e060405160405180910390a35050565b600061144982610795565b90506114578160008461195d565b611462600083610f87565b6001600460008373ffffffffffffffffffffffffffffffffffffffff1673ffffffffffffffffffffffffffffffffffffffff16815260200190815260200160002060008282546114b29190612c9b565b925050819055506003600083815260200190815260200160002060006101000a81549073ffffffffffffffffffffffffffffffffffffffff021916905581600073ffffffffffffffffffffffffffffffffffffffff168273ffffffffffffffffffffffffffffffffffffffff167fddf252ad1be2c89b69c2b068fc378daa952ba7f163c4a11628f55a4df523b3ef60405160405180910390a45050565b6115598383611962565b6115666000848484611b30565b6115a5576040517f08c379a000000000000000000000000000000000000000000000000000000000815260040161159c90612935565b60405180910390fd5b505050565b8173ffffffffffffffffffffffffffffffffffffffff168373ffffffffffffffffffffffffffffffffffffffff161415611619576040517f08c379a0000000000000000000000000000000000000000000000000000000008152600401611610906129b5565b60405180910390fd5b80600660008573ffffffffffffffffffffffffffffffffffffffff1673ffffffffffffffffffffffffffffffffffffffff16815260200190815260200160002060008473ffffffffffffffffffffffffffffffffffffffff1673ffffffffffffffffffffffffffffffffffffffff16815260200190815260200160002060006101000a81548160ff0219169083151502179055508173ffffffffffffffffffffffffffffffffffffffff168373ffffffffffffffffffffffffffffffffffffffff167f17307eab39ab6107e8899845ad3d59bd9653f200f220920489ca2b5937696c318360405161170a91906128f8565b60405180910390a3505050565b61172284848461111e565b61172e84848484611b30565b61176d576040517f08c379a000000000000000000000000000000000000000000000000000000000815260040161176490612935565b60405180910390fd5b50505050565b60606040518060400160405280601081526020017f66697265666c793a2f2f746f6b656e2f00000000000000000000000000000000815250905090565b606060008214156117f8576040518060400160405280600181526020017f30000000000000000000000000000000000000000000000000000000000000008152509050611958565b600082905060005b6000821461182a57808061181390612db7565b915050600a826118239190612c6a565b9150611800565b60008167ffffffffffffffff81111561186c577f4e487b7100000000000000000000000000000000000000000000000000000000600052604160045260246000fd5b6040519080825280601f01601f19166020018201604052801561189e5781602001600182028036833780820191505090505b5090505b60008514611951576001826118b79190612c9b565b9150600a856118c69190612e00565b60306118d29190612c14565b60f81b81838151811061190e577f4e487b7100000000000000000000000000000000000000000000000000000000600052603260045260246000fd5b60200101907effffffffffffffffffffffffffffffffffffffffffffffffffffffffffffff1916908160001a905350600a8561194a9190612c6a565b94506118a2565b8093505050505b919050565b505050565b600073ffffffffffffffffffffffffffffffffffffffff168273ffffffffffffffffffffffffffffffffffffffff1614156119d2576040517f08c379a00000000000000000000000000000000000000000000000000000000081526004016119c990612a55565b60405180910390fd5b6119db81610f13565b15611a1b576040517f08c379a0000000000000000000000000000000000000000000000000000000008152600401611a1290612975565b60405180910390fd5b611a276000838361195d565b6001600460008473ffffffffffffffffffffffffffffffffffffffff1673ffffffffffffffffffffffffffffffffffffffff1681526020019081526020016000206000828254611a779190612c14565b92505081905550816003600083815260200190815260200160002060006101000a81548173ffffffffffffffffffffffffffffffffffffffff021916908373ffffffffffffffffffffffffffffffffffffffff160217905550808273ffffffffffffffffffffffffffffffffffffffff16600073ffffffffffffffffffffffffffffffffffffffff167fddf252ad1be2c89b69c2b068fc378daa952ba7f163c4a11628f55a4df523b3ef60405160405180910390a45050565b6000611b518473ffffffffffffffffffffffffffffffffffffffff16611cc7565b15611cba578373ffffffffffffffffffffffffffffffffffffffff1663150b7a02611b7a610f7f565b8786866040518563ffffffff1660e01b8152600401611b9c94939291906128ac565b602060405180830381600087803b158015611bb657600080fd5b505af1925050508015611be757506040513d601f19601f82011682018060405250810190611be4919061211d565b60015b611c6a573d8060008114611c17576040519150601f19603f3d011682016040523d82523d6000602084013e611c1c565b606091505b50600081511415611c62576040517f08c379a0000000000000000000000000000000000000000000000000000000008152600401611c5990612935565b60405180910390fd5b805181602001fd5b63150b7a0260e01b7bffffffffffffffffffffffffffffffffffffffffffffffffffffffff1916817bffffffffffffffffffffffffffffffffffffffffffffffffffffffff191614915050611cbf565b600190505b949350505050565b600080823b905060008111915050919050565b6000611ced611ce884612ba1565b612b70565b905082815260208101848484011115611d0557600080fd5b611d10848285612d43565b509392505050565b600081359050611d2781612efe565b92915050565b600081359050611d3c81612f15565b92915050565b600081359050611d5181612f2c565b92915050565b600081519050611d6681612f2c565b92915050565b60008083601f840112611d7e57600080fd5b8235905067ffffffffffffffff811115611d9757600080fd5b602083019150836001820283011115611daf57600080fd5b9250929050565b600082601f830112611dc757600080fd5b8135611dd7848260208601611cda565b91505092915050565b600081359050611def81612f43565b92915050565b600060208284031215611e0757600080fd5b6000611e1584828501611d18565b91505092915050565b60008060408385031215611e3157600080fd5b6000611e3f85828601611d18565b9250506020611e5085828601611d18565b9150509250929050565b600080600060608486031215611e6f57600080fd5b6000611e7d86828701611d18565b9350506020611e8e86828701611d18565b9250506040611e9f86828701611de0565b9150509250925092565b600080600080600060808688031215611ec157600080fd5b6000611ecf88828901611d18565b9550506020611ee088828901611d18565b9450506040611ef188828901611de0565b935050606086013567ffffffffffffffff811115611f0e57600080fd5b611f1a88828901611d6c565b92509250509295509295909350565b60008060008060808587031215611f3f57600080fd5b6000611f4d87828801611d18565b9450506020611f5e87828801611d18565b9350506040611f6f87828801611de0565b925050606085013567ffffffffffffffff811115611f8c57600080fd5b611f9887828801611db6565b91505092959194509250565b60008060408385031215611fb757600080fd5b6000611fc585828601611d18565b9250506020611fd685828601611d2d565b9150509250929050565b60008060008060608587031215611ff657600080fd5b600061200487828801611d18565b945050602061201587828801611d2d565b935050604085013567ffffffffffffffff81111561203257600080fd5b61203e87828801611d6c565b925092505092959194509250565b6000806040838503121561205f57600080fd5b600061206d85828601611d18565b925050602061207e85828601611de0565b9150509250929050565b6000806000806060858703121561209e57600080fd5b60006120ac87828801611d18565b94505060206120bd87828801611de0565b935050604085013567ffffffffffffffff8111156120da57600080fd5b6120e687828801611d6c565b925092505092959194509250565b60006020828403121561210657600080fd5b600061211484828501611d42565b91505092915050565b60006020828403121561212f57600080fd5b600061213d84828501611d57565b91505092915050565b60006020828403121561215857600080fd5b600061216684828501611de0565b91505092915050565b61217881612ccf565b82525050565b61218781612ce1565b82525050565b600061219882612bd1565b6121a28185612be7565b93506121b2818560208601612d52565b6121bb81612eed565b840191505092915050565b60006121d182612bdc565b6121db8185612bf8565b93506121eb818560208601612d52565b6121f481612eed565b840191505092915050565b600061220a82612bdc565b6122148185612c09565b9350612224818560208601612d52565b80840191505092915050565b600061223d603283612bf8565b91507f4552433732313a207472616e7366657220746f206e6f6e20455243373231526560008301527f63656976657220696d706c656d656e74657200000000000000000000000000006020830152604082019050919050565b60006122a3602683612bf8565b91507f4f776e61626c653a206e6577206f776e657220697320746865207a65726f206160008301527f64647265737300000000000000000000000000000000000000000000000000006020830152604082019050919050565b6000612309601c83612bf8565b91507f4552433732313a20746f6b656e20616c7265616479206d696e746564000000006000830152602082019050919050565b6000612349602483612bf8565b91507f4552433732313a207472616e7366657220746f20746865207a65726f2061646460008301527f72657373000000000000000000000000000000000000000000000000000000006020830152604082019050919050565b60006123af601983612bf8565b91507f4552433732313a20617070726f766520746f2063616c6c6572000000000000006000830152602082019050919050565b60006123ef602c83612bf8565b91507f4552433732313a206f70657261746f7220717565727920666f72206e6f6e657860008301527f697374656e7420746f6b656e00000000000000000000000000000000000000006020830152604082019050919050565b6000612455603883612bf8565b91507f4552433732313a20617070726f76652063616c6c6572206973206e6f74206f7760008301527f6e6572206e6f7220617070726f76656420666f7220616c6c00000000000000006020830152604082019050919050565b60006124bb602a83612bf8565b91507f4552433732313a2062616c616e636520717565727920666f7220746865207a6560008301527f726f2061646472657373000000000000000000000000000000000000000000006020830152604082019050919050565b6000612521602983612bf8565b91507f4552433732313a206f776e657220717565727920666f72206e6f6e657869737460008301527f656e7420746f6b656e00000000000000000000000000000000000000000000006020830152604082019050919050565b6000612587602083612bf8565b91507f4552433732313a206d696e7420746f20746865207a65726f20616464726573736000830152602082019050919050565b60006125c7602c83612bf8565b91507f4552433732313a20617070726f76656420717565727920666f72206e6f6e657860008301527f697374656e7420746f6b656e00000000000000000000000000000000000000006020830152604082019050919050565b600061262d602083612bf8565b91507f4f776e61626c653a2063616c6c6572206973206e6f7420746865206f776e65726000830152602082019050919050565b600061266d602383612bf8565b91507f45524337323157697468446174613a2063616c6c6572206973206e6f74206f7760008301527f6e657200000000000000000000000000000000000000000000000000000000006020830152604082019050919050565b60006126d3602983612bf8565b91507f4552433732313a207472616e73666572206f6620746f6b656e2074686174206960008301527f73206e6f74206f776e00000000000000000000000000000000000000000000006020830152604082019050919050565b6000612739602f83612bf8565b91507f4552433732314d657461646174613a2055524920717565727920666f72206e6f60008301527f6e6578697374656e7420746f6b656e00000000000000000000000000000000006020830152604082019050919050565b600061279f602183612bf8565b91507f4552433732313a20617070726f76616c20746f2063757272656e74206f776e6560008301527f72000000000000000000000000000000000000000000000000000000000000006020830152604082019050919050565b6000612805603183612bf8565b91507f4552433732313a207472616e736665722063616c6c6572206973206e6f74206f60008301527f776e6572206e6f7220617070726f7665640000000000000000000000000000006020830152604082019050919050565b61286781612d39565b82525050565b600061287982856121ff565b915061288582846121ff565b91508190509392505050565b60006020820190506128a6600083018461216f565b92915050565b60006080820190506128c1600083018761216f565b6128ce602083018661216f565b6128db604083018561285e565b81810360608301526128ed818461218d565b905095945050505050565b600060208201905061290d600083018461217e565b92915050565b6000602082019050818103600083015261292d81846121c6565b905092915050565b6000602082019050818103600083015261294e81612230565b9050919050565b6000602082019050818103600083015261296e81612296565b9050919050565b6000602082019050818103600083015261298e816122fc565b9050919050565b600060208201905081810360008301526129ae8161233c565b9050919050565b600060208201905081810360008301526129ce816123a2565b9050919050565b600060208201905081810360008301526129ee816123e2565b9050919050565b60006020820190508181036000830152612a0e81612448565b9050919050565b60006020820190508181036000830152612a2e816124ae565b9050919050565b60006020820190508181036000830152612a4e81612514565b9050919050565b60006020820190508181036000830152612a6e8161257a565b9050919050565b60006020820190508181036000830152612a8e816125ba565b9050919050565b60006020820190508181036000830152612aae81612620565b9050919050565b60006020820190508181036000830152612ace81612660565b9050919050565b60006020820190508181036000830152612aee816126c6565b9050919050565b60006020820190508181036000830152612b0e8161272c565b9050919050565b60006020820190508181036000830152612b2e81612792565b9050919050565b60006020820190508181036000830152612b4e816127f8565b9050919050565b6000602082019050612b6a600083018461285e565b92915050565b6000604051905081810181811067ffffffffffffffff82111715612b9757612b96612ebe565b5b8060405250919050565b600067ffffffffffffffff821115612bbc57612bbb612ebe565b5b601f19601f8301169050602081019050919050565b600081519050919050565b600081519050919050565b600082825260208201905092915050565b600082825260208201905092915050565b600081905092915050565b6000612c1f82612d39565b9150612c2a83612d39565b9250827fffffffffffffffffffffffffffffffffffffffffffffffffffffffffffffffff03821115612c5f57612c5e612e31565b5b828201905092915050565b6000612c7582612d39565b9150612c8083612d39565b925082612c9057612c8f612e60565b5b828204905092915050565b6000612ca682612d39565b9150612cb183612d39565b925082821015612cc457612cc3612e31565b5b828203905092915050565b6000612cda82612d19565b9050919050565b60008115159050919050565b60007fffffffff0000000000000000000000000000000000000000000000000000000082169050919050565b600073ffffffffffffffffffffffffffffffffffffffff82169050919050565b6000819050919050565b82818337600083830152505050565b60005b83811015612d70578082015181840152602081019050612d55565b83811115612d7f576000848401525b50505050565b60006002820490506001821680612d9d57607f821691505b60208210811415612db157612db0612e8f565b5b50919050565b6000612dc282612d39565b91507fffffffffffffffffffffffffffffffffffffffffffffffffffffffffffffffff821415612df557612df4612e31565b5b600182019050919050565b6000612e0b82612d39565b9150612e1683612d39565b925082612e2657612e25612e60565b5b828206905092915050565b7f4e487b7100000000000000000000000000000000000000000000000000000000600052601160045260246000fd5b7f4e487b7100000000000000000000000000000000000000000000000000000000600052601260045260246000fd5b7f4e487b7100000000000000000000000000000000000000000000000000000000600052602260045260246000fd5b7f4e487b7100000000000000000000000000000000000000000000000000000000600052604160045260246000fd5b6000601f19601f8301169050919050565b612f0781612ccf565b8114612f1257600080fd5b50565b612f1e81612ce1565b8114612f2957600080fd5b50565b612f3581612ced565b8114612f4057600080fd5b50565b612f4c81612d39565b8114612f5757600080fd5b5056fea264697066735822122044a5a517dd58858b027eca39cbc9da978fbdb9fc71452bc6f1c81a9c1736f20c64736f6c63430008000033",
  "linkReferences": {},
  "deployedLinkReferences": {}
}