{
  "_format": "hh-sol-artifact-1",
  "contractName": "ERC721WithData",
  "sourceName": "contracts/ERC721WithData.sol",
  "abi": [
    {
      "inputs": [
        {
          "internalType": "string",
          "name": "name",
          "type": "string"
        },
        {
          "internalType": "string",
          "name": "symbol",
          "type": "string"
        }
      ],
      "stateMutability": "nonpayable",
      "type": "constructor"
    },
    {
      "anonymous": false,
      "inputs": [
        {
          "indexed": true,
          "internalType": "address",
          "name": "owner",
          "type": "address"
        },
        {
          "indexed": true,
          "internalType": "address",
          "name": "approved",
          "type": "address"
        },
        {
          "indexed": true,
          "internalType": "uint256",
          "name": "tokenId",
          "type": "uint256"
        }
      ],
      "name": "Approval",
      "type": "event"
    },
    {
      "anonymous": false,
      "inputs": [
        {
          "indexed": true,
          "internalType": "address",
          "name": "owner",
          "type": "address"
        },
        {
          "indexed": true,
          "internalType": "address",
          "name": "operator",
          "type": "address"
        },
        {
          "indexed": false,
          "internalType": "bool",
          "name": "approved",
          "type": "bool"
        }
      ],
      "name": "ApprovalForAll",
      "type": "event"
    },
    {
      "anonymous": false,
      "inputs": [
        {
          "indexed": true,
          "internalType": "address",
          "name": "previousOwner",
          "type": "address"
        },
        {
          "indexed": true,
          "internalType": "address",
          "name": "newOwner",
          "type": "address"
        }
      ],
      "name": "OwnershipTransferred",
      "type": "event"
    },
    {
      "anonymous": false,
      "inputs": [
        {
          "indexed": true,
          "internalType": "address",
          "name": "from",
          "type": "address"
        },
        {
          "indexed": true,
          "internalType": "address",
          "name": "to",
          "type": "address"
        },
        {
          "indexed": true,
          "internalType": "uint256",
          "name": "tokenId",
          "type": "uint256"
        }
      ],
      "name": "Transfer",
      "type": "event"
    },
    {
      "inputs": [
        {
          "internalType": "address",
          "name": "to",
          "type": "address"
        },
        {
          "internalType": "uint256",
          "name": "tokenId",
          "type": "uint256"
        }
      ],
      "name": "approve",
      "outputs": [],
      "stateMutability": "nonpayable",
      "type": "function"
    },
    {
      "inputs": [
        {
          "internalType": "address",
          "name": "owner",
          "type": "address"
        }
      ],
      "name": "balanceOf",
      "outputs": [
        {
          "internalType": "uint256",
          "name": "",
          "type": "uint256"
        }
      ],
      "stateMutability": "view",
      "type": "function"
    },
    {
      "inputs": [
        {
          "internalType": "address",
          "name": "from",
          "type": "address"
        },
        {
          "internalType": "uint256",
          "name": "tokenId",
          "type": "uint256"
        },
        {
          "internalType": "bytes",
          "name": "data",
          "type": "bytes"
        }
      ],
      "name": "burnWithData",
      "outputs": [],
      "stateMutability": "nonpayable",
      "type": "function"
    },
    {
      "inputs": [
        {
          "internalType": "uint256",
          "name": "tokenId",
          "type": "uint256"
        }
      ],
      "name": "getApproved",
      "outputs": [
        {
          "internalType": "address",
          "name": "",
          "type": "address"
        }
      ],
      "stateMutability": "view",
      "type": "function"
    },
    {
      "inputs": [
        {
          "internalType": "address",
          "name": "owner",
          "type": "address"
        },
        {
          "internalType": "address",
          "name": "operator",
          "type": "address"
        }
      ],
      "name": "isApprovedForAll",
      "outputs": [
        {
          "internalType": "bool",
          "name": "",
          "type": "bool"
        }
      ],
      "stateMutability": "view",
      "type": "function"
    },
    {
      "inputs": [
        {
          "internalType": "address",
          "name": "to",
          "type": "address"
        },
        {
          "internalType": "uint256",
          "name": "tokenId",
          "type": "uint256"
        },
        {
          "internalType": "bytes",
          "name": "data",
          "type": "bytes"
        }
      ],
      "name": "mintWithData",
      "outputs": [],
      "stateMutability": "nonpayable",
      "type": "function"
    },
    {
      "inputs": [],
      "name": "name",
      "outputs": [
        {
          "internalType": "string",
          "name": "",
          "type": "string"
        }
      ],
      "stateMutability": "view",
      "type": "function"
    },
    {
      "inputs": [],
      "name": "owner",
      "outputs": [
        {
          "internalType": "address",
          "name": "",
          "type": "address"
        }
      ],
      "stateMutability": "view",
      "type": "function"
    },
    {
      "inputs": [
        {
          "internalType": "uint256",
          "name": "tokenId",
          "type": "uint256"
        }
      ],
      "name": "ownerOf",
      "outputs": [
        {
          "internalType": "address",
          "name": "",
          "type": "address"
        }
      ],
      "stateMutability": "view",
      "type": "function"
    },
    {
      "inputs": [],
      "name": "renounceOwnership",
      "outputs": [],
      "stateMutability": "nonpayable",
      "type": "function"
    },
    {
      "inputs": [
        {
          "internalType": "address",
          "name": "from",
          "type": "address"
        },
        {
          "internalType": "address",
          "name": "to",
          "type": "address"
        },
        {
          "internalType": "uint256",
          "name": "tokenId",
          "type": "uint256"
        }
      ],
      "name": "safeTransferFrom",
      "outputs": [],
      "stateMutability": "nonpayable",
      "type": "function"
    },
    {
      "inputs": [
        {
          "internalType": "address",
          "name": "from",
          "type": "address"
        },
        {
          "internalType": "address",
          "name": "to",
          "type": "address"
        },
        {
          "internalType": "uint256",
          "name": "tokenId",
          "type": "uint256"
        },
        {
          "internalType": "bytes",
          "name": "_data",
          "type": "bytes"
        }
      ],
      "name": "safeTransferFrom",
      "outputs": [],
      "stateMutability": "nonpayable",
      "type": "function"
    },
    {
      "inputs": [
        {
          "internalType": "address",
          "name": "operator",
          "type": "address"
        },
        {
          "internalType": "bool",
          "name": "approved",
          "type": "bool"
        }
      ],
      "name": "setApprovalForAll",
      "outputs": [],
      "stateMutability": "nonpayable",
      "type": "function"
    },
    {
      "inputs": [
        {
          "internalType": "bytes4",
          "name": "interfaceId",
          "type": "bytes4"
        }
      ],
      "name": "supportsInterface",
      "outputs": [
        {
          "internalType": "bool",
          "name": "",
          "type": "bool"
        }
      ],
      "stateMutability": "view",
      "type": "function"
    },
    {
      "inputs": [],
      "name": "symbol",
      "outputs": [
        {
          "internalType": "string",
          "name": "",
          "type": "string"
        }
      ],
      "stateMutability": "view",
      "type": "function"
    },
    {
      "inputs": [
        {
          "internalType": "uint256",
          "name": "tokenId",
          "type": "uint256"
        }
      ],
      "name": "tokenURI",
      "outputs": [
        {
          "internalType": "string",
          "name": "",
          "type": "string"
        }
      ],
      "stateMutability": "view",
      "type": "function"
    },
    {
      "inputs": [
        {
          "internalType": "address",
          "name": "from",
          "type": "address"
        },
        {
          "internalType": "address",
          "name": "to",
          "type": "address"
        },
        {
          "internalType": "uint256",
          "name": "tokenId",
          "type": "uint256"
        }
      ],
      "name": "transferFrom",
      "outputs": [],
      "stateMutability": "nonpayable",
      "type": "function"
    },
    {
      "inputs": [
        {
          "internalType": "address",
          "name": "newOwner",
          "type": "address"
        }
      ],
      "name": "transferOwnership",
      "outputs": [],
      "stateMutability": "nonpayable",
      "type": "function"
    },
    {
      "inputs": [
        {
          "internalType": "address",
          "name": "from",
          "type": "address"
        },
        {
          "internalType": "address",
          "name": "to",
          "type": "address"
        },
        {
          "internalType": "uint256",
          "name": "tokenId",
          "type": "uint256"
        },
        {
          "internalType": "bytes",
          "name": "data",
          "type": "bytes"
        }
      ],
      "name": "transferWithData",
      "outputs": [],
      "stateMutability": "nonpayable",
      "type": "function"
    }
  ],
  "bytecode": "0x60806040523480156200001157600080fd5b50604051620032ed380380620032ed833981810160405281019062000037919062000283565b8181620000596200004d6200009560201b60201c565b6200009d60201b60201c565b81600190805190602001906200007192919062000161565b5080600290805190602001906200008a92919062000161565b505050505062000427565b600033905090565b60008060009054906101000a900473ffffffffffffffffffffffffffffffffffffffff169050816000806101000a81548173ffffffffffffffffffffffffffffffffffffffff021916908373ffffffffffffffffffffffffffffffffffffffff1602179055508173ffffffffffffffffffffffffffffffffffffffff168173ffffffffffffffffffffffffffffffffffffffff167f8be0079c531659141344cd1fd0a4f28419497f9722a3daafe3b4186f6b6457e060405160405180910390a35050565b8280546200016f9062000393565b90600052602060002090601f016020900481019282620001935760008555620001df565b82601f10620001ae57805160ff1916838001178555620001df565b82800160010185558215620001df579182015b82811115620001de578251825591602001919060010190620001c1565b5b509050620001ee9190620001f2565b5090565b5b808211156200020d576000816000905550600101620001f3565b5090565b60006200022862000222846200032a565b620002f6565b9050828152602081018484840111156200024157600080fd5b6200024e8482856200035d565b509392505050565b600082601f8301126200026857600080fd5b81516200027a84826020860162000211565b91505092915050565b600080604083850312156200029757600080fd5b600083015167ffffffffffffffff811115620002b257600080fd5b620002c08582860162000256565b925050602083015167ffffffffffffffff811115620002de57600080fd5b620002ec8582860162000256565b9150509250929050565b6000604051905081810181811067ffffffffffffffff8211171562000320576200031f620003f8565b5b8060405250919050565b600067ffffffffffffffff821115620003485762000347620003f8565b5b601f19601f8301169050602081019050919050565b60005b838110156200037d57808201518184015260208101905062000360565b838111156200038d576000848401525b50505050565b60006002820490506001821680620003ac57607f821691505b60208210811415620003c357620003c2620003c9565b5b50919050565b7f4e487b7100000000000000000000000000000000000000000000000000000000600052602260045260246000fd5b7f4e487b7100000000000000000000000000000000000000000000000000000000600052604160045260246000fd5b612eb680620004376000396000f3fe608060405234801561001057600080fd5b50600436106101215760003560e01c806383e49c53116100ad578063b88d4fde11610071578063b88d4fde146102f2578063c0ea7a7a1461030e578063c87b56dd1461032a578063e985e9c51461035a578063f2fde38b1461038a57610121565b806383e49c53146102625780638da5cb5b1461027e57806395d89b411461029c57806396adfe42146102ba578063a22cb465146102d657610121565b806323b872dd116100f457806323b872dd146101c057806342842e0e146101dc5780636352211e146101f857806370a0823114610228578063715018a61461025857610121565b806301ffc9a71461012657806306fdde0314610156578063081812fc14610174578063095ea7b3146101a4575b600080fd5b610140600480360381019061013b919061201a565b6103a6565b60405161014d919061281e565b60405180910390f35b61015e610488565b60405161016b9190612839565b60405180910390f35b61018e6004803603810190610189919061206c565b61051a565b60405161019b91906127b7565b60405180910390f35b6101be60048036038101906101b99190611f72565b61059f565b005b6101da60048036038101906101d59190611dec565b6106b7565b005b6101f660048036038101906101f19190611dec565b610717565b005b610212600480360381019061020d919061206c565b610737565b60405161021f91906127b7565b60405180910390f35b610242600480360381019061023d9190611d87565b6107e9565b60405161024f9190612a7b565b60405180910390f35b6102606108a1565b005b61027c60048036038101906102779190611fae565b610929565b005b6102866109ad565b60405161029391906127b7565b60405180910390f35b6102a46109d6565b6040516102b19190612839565b60405180910390f35b6102d460048036038101906102cf9190611fae565b610a68565b005b6102f060048036038101906102eb9190611f36565b610b39565b005b61030c60048036038101906103079190611ebb565b610b4f565b005b61032860048036038101906103239190611e3b565b610bb1565b005b610344600480360381019061033f919061206c565b610c08565b6040516103519190612839565b60405180910390f35b610374600480360381019061036f9190611db0565b610caf565b604051610381919061281e565b60405180910390f35b6103a4600480360381019061039f9190611d87565b610d43565b005b60007f80ac58cd000000000000000000000000000000000000000000000000000000007bffffffffffffffffffffffffffffffffffffffffffffffffffffffff1916827bffffffffffffffffffffffffffffffffffffffffffffffffffffffff1916148061047157507f5b5e139f000000000000000000000000000000000000000000000000000000007bffffffffffffffffffffffffffffffffffffffffffffffffffffffff1916827bffffffffffffffffffffffffffffffffffffffffffffffffffffffff1916145b80610481575061048082610e3b565b5b9050919050565b60606001805461049790612cab565b80601f01602080910402602001604051908101604052809291908181526020018280546104c390612cab565b80156105105780601f106104e557610100808354040283529160200191610510565b820191906000526020600020905b8154815290600101906020018083116104f357829003601f168201915b5050505050905090565b600061052582610ea5565b610564576040517f08c379a000000000000000000000000000000000000000000000000000000000815260040161055b9061299b565b60405180910390fd5b6005600083815260200190815260200160002060009054906101000a900473ffffffffffffffffffffffffffffffffffffffff169050919050565b60006105aa82610737565b90508073ffffffffffffffffffffffffffffffffffffffff168373ffffffffffffffffffffffffffffffffffffffff16141561061b576040517f08c379a000000000000000000000000000000000000000000000000000000000815260040161061290612a3b565b60405180910390fd5b8073ffffffffffffffffffffffffffffffffffffffff1661063a610f11565b73ffffffffffffffffffffffffffffffffffffffff161480610669575061066881610663610f11565b610caf565b5b6106a8576040517f08c379a000000000000000000000000000000000000000000000000000000000815260040161069f9061291b565b60405180910390fd5b6106b28383610f19565b505050565b6106c86106c2610f11565b82610fd2565b610707576040517f08c379a00000000000000000000000000000000000000000000000000000000081526004016106fe90612a5b565b60405180910390fd5b6107128383836110b0565b505050565b61073283838360405180602001604052806000815250610b4f565b505050565b6000806003600084815260200190815260200160002060009054906101000a900473ffffffffffffffffffffffffffffffffffffffff169050600073ffffffffffffffffffffffffffffffffffffffff168173ffffffffffffffffffffffffffffffffffffffff1614156107e0576040517f08c379a00000000000000000000000000000000000000000000000000000000081526004016107d79061295b565b60405180910390fd5b80915050919050565b60008073ffffffffffffffffffffffffffffffffffffffff168273ffffffffffffffffffffffffffffffffffffffff16141561085a576040517f08c379a00000000000000000000000000000000000000000000000000000000081526004016108519061293b565b60405180910390fd5b600460008373ffffffffffffffffffffffffffffffffffffffff1673ffffffffffffffffffffffffffffffffffffffff168152602001908152602001600020549050919050565b6108a9610f11565b73ffffffffffffffffffffffffffffffffffffffff166108c76109ad565b73ffffffffffffffffffffffffffffffffffffffff161461091d576040517f08c379a0000000000000000000000000000000000000000000000000000000008152600401610914906129bb565b60405180910390fd5b610927600061130c565b565b610931610f11565b73ffffffffffffffffffffffffffffffffffffffff168473ffffffffffffffffffffffffffffffffffffffff161461099e576040517f08c379a0000000000000000000000000000000000000000000000000000000008152600401610995906129db565b60405180910390fd5b6109a7836113d0565b50505050565b60008060009054906101000a900473ffffffffffffffffffffffffffffffffffffffff16905090565b6060600280546109e590612cab565b80601f0160208091040260200160405190810160405280929190818152602001828054610a1190612cab565b8015610a5e5780601f10610a3357610100808354040283529160200191610a5e565b820191906000526020600020905b815481529060010190602001808311610a4157829003601f168201915b5050505050905090565b610a70610f11565b73ffffffffffffffffffffffffffffffffffffffff16610a8e6109ad565b73ffffffffffffffffffffffffffffffffffffffff1614610ae4576040517f08c379a0000000000000000000000000000000000000000000000000000000008152600401610adb906129bb565b60405180910390fd5b610b33848484848080601f016020809104026020016040519081016040528093929190818152602001838380828437600081840152601f19601f820116905080830192505050505050506114e1565b50505050565b610b4b610b44610f11565b838361153c565b5050565b610b60610b5a610f11565b83610fd2565b610b9f576040517f08c379a0000000000000000000000000000000000000000000000000000000008152600401610b9690612a5b565b60405180910390fd5b610bab848484846116a9565b50505050565b610c0185858585858080601f016020809104026020016040519081016040528093929190818152602001838380828437600081840152601f19601f82011690508083019250505050505050610b4f565b5050505050565b6060610c1382610ea5565b610c52576040517f08c379a0000000000000000000000000000000000000000000000000000000008152600401610c4990612a1b565b60405180910390fd5b6000610c5c611705565b90506000815111610c7c5760405180602001604052806000815250610ca7565b80610c8684611742565b604051602001610c97929190612793565b6040516020818303038152906040525b915050919050565b6000600660008473ffffffffffffffffffffffffffffffffffffffff1673ffffffffffffffffffffffffffffffffffffffff16815260200190815260200160002060008373ffffffffffffffffffffffffffffffffffffffff1673ffffffffffffffffffffffffffffffffffffffff16815260200190815260200160002060009054906101000a900460ff16905092915050565b610d4b610f11565b73ffffffffffffffffffffffffffffffffffffffff16610d696109ad565b73ffffffffffffffffffffffffffffffffffffffff1614610dbf576040517f08c379a0000000000000000000000000000000000000000000000000000000008152600401610db6906129bb565b60405180910390fd5b600073ffffffffffffffffffffffffffffffffffffffff168173ffffffffffffffffffffffffffffffffffffffff161415610e2f576040517f08c379a0000000000000000000000000000000000000000000000000000000008152600401610e269061287b565b60405180910390fd5b610e388161130c565b50565b60007f01ffc9a7000000000000000000000000000000000000000000000000000000007bffffffffffffffffffffffffffffffffffffffffffffffffffffffff1916827bffffffffffffffffffffffffffffffffffffffffffffffffffffffff1916149050919050565b60008073ffffffffffffffffffffffffffffffffffffffff166003600084815260200190815260200160002060009054906101000a900473ffffffffffffffffffffffffffffffffffffffff1673ffffffffffffffffffffffffffffffffffffffff1614159050919050565b600033905090565b816005600083815260200190815260200160002060006101000a81548173ffffffffffffffffffffffffffffffffffffffff021916908373ffffffffffffffffffffffffffffffffffffffff160217905550808273ffffffffffffffffffffffffffffffffffffffff16610f8c83610737565b73ffffffffffffffffffffffffffffffffffffffff167f8c5be1e5ebec7d5bd14f71427d1e84f3dd0314c0f7b2291e5b200ac8c7c3b92560405160405180910390a45050565b6000610fdd82610ea5565b61101c576040517f08c379a0000000000000000000000000000000000000000000000000000000008152600401611013906128fb565b60405180910390fd5b600061102783610737565b90508073ffffffffffffffffffffffffffffffffffffffff168473ffffffffffffffffffffffffffffffffffffffff16148061109657508373ffffffffffffffffffffffffffffffffffffffff1661107e8461051a565b73ffffffffffffffffffffffffffffffffffffffff16145b806110a757506110a68185610caf565b5b91505092915050565b8273ffffffffffffffffffffffffffffffffffffffff166110d082610737565b73ffffffffffffffffffffffffffffffffffffffff1614611126576040517f08c379a000000000000000000000000000000000000000000000000000000000815260040161111d906129fb565b60405180910390fd5b600073ffffffffffffffffffffffffffffffffffffffff168273ffffffffffffffffffffffffffffffffffffffff161415611196576040517f08c379a000000000000000000000000000000000000000000000000000000000815260040161118d906128bb565b60405180910390fd5b6111a18383836118ef565b6111ac600082610f19565b6001600460008573ffffffffffffffffffffffffffffffffffffffff1673ffffffffffffffffffffffffffffffffffffffff16815260200190815260200160002060008282546111fc9190612bc1565b925050819055506001600460008473ffffffffffffffffffffffffffffffffffffffff1673ffffffffffffffffffffffffffffffffffffffff16815260200190815260200160002060008282546112539190612b3a565b92505081905550816003600083815260200190815260200160002060006101000a81548173ffffffffffffffffffffffffffffffffffffffff021916908373ffffffffffffffffffffffffffffffffffffffff160217905550808273ffffffffffffffffffffffffffffffffffffffff168473ffffffffffffffffffffffffffffffffffffffff167fddf252ad1be2c89b69c2b068fc378daa952ba7f163c4a11628f55a4df523b3ef60405160405180910390a4505050565b60008060009054906101000a900473ffffffffffffffffffffffffffffffffffffffff169050816000806101000a81548173ffffffffffffffffffffffffffffffffffffffff021916908373ffffffffffffffffffffffffffffffffffffffff1602179055508173ffffffffffffffffffffffffffffffffffffffff168173ffffffffffffffffffffffffffffffffffffffff167f8be0079c531659141344cd1fd0a4f28419497f9722a3daafe3b4186f6b6457e060405160405180910390a35050565b60006113db82610737565b90506113e9816000846118ef565b6113f4600083610f19565b6001600460008373ffffffffffffffffffffffffffffffffffffffff1673ffffffffffffffffffffffffffffffffffffffff16815260200190815260200160002060008282546114449190612bc1565b925050819055506003600083815260200190815260200160002060006101000a81549073ffffffffffffffffffffffffffffffffffffffff021916905581600073ffffffffffffffffffffffffffffffffffffffff168273ffffffffffffffffffffffffffffffffffffffff167fddf252ad1be2c89b69c2b068fc378daa952ba7f163c4a11628f55a4df523b3ef60405160405180910390a45050565b6114eb83836118f4565b6114f86000848484611ac2565b611537576040517f08c379a000000000000000000000000000000000000000000000000000000000815260040161152e9061285b565b60405180910390fd5b505050565b8173ffffffffffffffffffffffffffffffffffffffff168373ffffffffffffffffffffffffffffffffffffffff1614156115ab576040517f08c379a00000000000000000000000000000000000000000000000000000000081526004016115a2906128db565b60405180910390fd5b80600660008573ffffffffffffffffffffffffffffffffffffffff1673ffffffffffffffffffffffffffffffffffffffff16815260200190815260200160002060008473ffffffffffffffffffffffffffffffffffffffff1673ffffffffffffffffffffffffffffffffffffffff16815260200190815260200160002060006101000a81548160ff0219169083151502179055508173ffffffffffffffffffffffffffffffffffffffff168373ffffffffffffffffffffffffffffffffffffffff167f17307eab39ab6107e8899845ad3d59bd9653f200f220920489ca2b5937696c318360405161169c919061281e565b60405180910390a3505050565b6116b48484846110b0565b6116c084848484611ac2565b6116ff576040517f08c379a00000000000000000000000000000000000000000000000000000000081526004016116f69061285b565b60405180910390fd5b50505050565b60606040518060400160405280601081526020017f66697265666c793a2f2f746f6b656e2f00000000000000000000000000000000815250905090565b6060600082141561178a576040518060400160405280600181526020017f300000000000000000000000000000000000000000000000000000000000000081525090506118ea565b600082905060005b600082146117bc5780806117a590612cdd565b915050600a826117b59190612b90565b9150611792565b60008167ffffffffffffffff8111156117fe577f4e487b7100000000000000000000000000000000000000000000000000000000600052604160045260246000fd5b6040519080825280601f01601f1916602001820160405280156118305781602001600182028036833780820191505090505b5090505b600085146118e3576001826118499190612bc1565b9150600a856118589190612d26565b60306118649190612b3a565b60f81b8183815181106118a0577f4e487b7100000000000000000000000000000000000000000000000000000000600052603260045260246000fd5b60200101907effffffffffffffffffffffffffffffffffffffffffffffffffffffffffffff1916908160001a905350600a856118dc9190612b90565b9450611834565b8093505050505b919050565b505050565b600073ffffffffffffffffffffffffffffffffffffffff168273ffffffffffffffffffffffffffffffffffffffff161415611964576040517f08c379a000000000000000000000000000000000000000000000000000000000815260040161195b9061297b565b60405180910390fd5b61196d81610ea5565b156119ad576040517f08c379a00000000000000000000000000000000000000000000000000000000081526004016119a49061289b565b60405180910390fd5b6119b9600083836118ef565b6001600460008473ffffffffffffffffffffffffffffffffffffffff1673ffffffffffffffffffffffffffffffffffffffff1681526020019081526020016000206000828254611a099190612b3a565b92505081905550816003600083815260200190815260200160002060006101000a81548173ffffffffffffffffffffffffffffffffffffffff021916908373ffffffffffffffffffffffffffffffffffffffff160217905550808273ffffffffffffffffffffffffffffffffffffffff16600073ffffffffffffffffffffffffffffffffffffffff167fddf252ad1be2c89b69c2b068fc378daa952ba7f163c4a11628f55a4df523b3ef60405160405180910390a45050565b6000611ae38473ffffffffffffffffffffffffffffffffffffffff16611c59565b15611c4c578373ffffffffffffffffffffffffffffffffffffffff1663150b7a02611b0c610f11565b8786866040518563ffffffff1660e01b8152600401611b2e94939291906127d2565b602060405180830381600087803b158015611b4857600080fd5b505af1925050508015611b7957506040513d601f19601f82011682018060405250810190611b769190612043565b60015b611bfc573d8060008114611ba9576040519150601f19603f3d011682016040523d82523d6000602084013e611bae565b606091505b50600081511415611bf4576040517f08c379a0000000000000000000000000000000000000000000000000000000008152600401611beb9061285b565b60405180910390fd5b805181602001fd5b63150b7a0260e01b7bffffffffffffffffffffffffffffffffffffffffffffffffffffffff1916817bffffffffffffffffffffffffffffffffffffffffffffffffffffffff191614915050611c51565b600190505b949350505050565b600080823b905060008111915050919050565b6000611c7f611c7a84612ac7565b612a96565b905082815260208101848484011115611c9757600080fd5b611ca2848285612c69565b509392505050565b600081359050611cb981612e24565b92915050565b600081359050611cce81612e3b565b92915050565b600081359050611ce381612e52565b92915050565b600081519050611cf881612e52565b92915050565b60008083601f840112611d1057600080fd5b8235905067ffffffffffffffff811115611d2957600080fd5b602083019150836001820283011115611d4157600080fd5b9250929050565b600082601f830112611d5957600080fd5b8135611d69848260208601611c6c565b91505092915050565b600081359050611d8181612e69565b92915050565b600060208284031215611d9957600080fd5b6000611da784828501611caa565b91505092915050565b60008060408385031215611dc357600080fd5b6000611dd185828601611caa565b9250506020611de285828601611caa565b9150509250929050565b600080600060608486031215611e0157600080fd5b6000611e0f86828701611caa565b9350506020611e2086828701611caa565b9250506040611e3186828701611d72565b9150509250925092565b600080600080600060808688031215611e5357600080fd5b6000611e6188828901611caa565b9550506020611e7288828901611caa565b9450506040611e8388828901611d72565b935050606086013567ffffffffffffffff811115611ea057600080fd5b611eac88828901611cfe565b92509250509295509295909350565b60008060008060808587031215611ed157600080fd5b6000611edf87828801611caa565b9450506020611ef087828801611caa565b9350506040611f0187828801611d72565b925050606085013567ffffffffffffffff811115611f1e57600080fd5b611f2a87828801611d48565b91505092959194509250565b60008060408385031215611f4957600080fd5b6000611f5785828601611caa565b9250506020611f6885828601611cbf565b9150509250929050565b60008060408385031215611f8557600080fd5b6000611f9385828601611caa565b9250506020611fa485828601611d72565b9150509250929050565b60008060008060608587031215611fc457600080fd5b6000611fd287828801611caa565b9450506020611fe387828801611d72565b935050604085013567ffffffffffffffff81111561200057600080fd5b61200c87828801611cfe565b925092505092959194509250565b60006020828403121561202c57600080fd5b600061203a84828501611cd4565b91505092915050565b60006020828403121561205557600080fd5b600061206384828501611ce9565b91505092915050565b60006020828403121561207e57600080fd5b600061208c84828501611d72565b91505092915050565b61209e81612bf5565b82525050565b6120ad81612c07565b82525050565b60006120be82612af7565b6120c88185612b0d565b93506120d8818560208601612c78565b6120e181612e13565b840191505092915050565b60006120f782612b02565b6121018185612b1e565b9350612111818560208601612c78565b61211a81612e13565b840191505092915050565b600061213082612b02565b61213a8185612b2f565b935061214a818560208601612c78565b80840191505092915050565b6000612163603283612b1e565b91507f4552433732313a207472616e7366657220746f206e6f6e20455243373231526560008301527f63656976657220696d706c656d656e74657200000000000000000000000000006020830152604082019050919050565b60006121c9602683612b1e565b91507f4f776e61626c653a206e6577206f776e657220697320746865207a65726f206160008301527f64647265737300000000000000000000000000000000000000000000000000006020830152604082019050919050565b600061222f601c83612b1e565b91507f4552433732313a20746f6b656e20616c7265616479206d696e746564000000006000830152602082019050919050565b600061226f602483612b1e565b91507f4552433732313a207472616e7366657220746f20746865207a65726f2061646460008301527f72657373000000000000000000000000000000000000000000000000000000006020830152604082019050919050565b60006122d5601983612b1e565b91507f4552433732313a20617070726f766520746f2063616c6c6572000000000000006000830152602082019050919050565b6000612315602c83612b1e565b91507f4552433732313a206f70657261746f7220717565727920666f72206e6f6e657860008301527f697374656e7420746f6b656e00000000000000000000000000000000000000006020830152604082019050919050565b600061237b603883612b1e565b91507f4552433732313a20617070726f76652063616c6c6572206973206e6f74206f7760008301527f6e6572206e6f7220617070726f76656420666f7220616c6c00000000000000006020830152604082019050919050565b60006123e1602a83612b1e565b91507f4552433732313a2062616c616e636520717565727920666f7220746865207a6560008301527f726f2061646472657373000000000000000000000000000000000000000000006020830152604082019050919050565b6000612447602983612b1e565b91507f4552433732313a206f776e657220717565727920666f72206e6f6e657869737460008301527f656e7420746f6b656e00000000000000000000000000000000000000000000006020830152604082019050919050565b60006124ad602083612b1e565b91507f4552433732313a206d696e7420746f20746865207a65726f20616464726573736000830152602082019050919050565b60006124ed602c83612b1e565b91507f4552433732313a20617070726f76656420717565727920666f72206e6f6e657860008301527f697374656e7420746f6b656e00000000000000000000000000000000000000006020830152604082019050919050565b6000612553602083612b1e565b91507f4f776e61626c653a2063616c6c6572206973206e6f7420746865206f776e65726000830152602082019050919050565b6000612593602383612b1e565b91507f45524337323157697468446174613a2063616c6c6572206973206e6f74206f7760008301527f6e657200000000000000000000000000000000000000000000000000000000006020830152604082019050919050565b60006125f9602983612b1e565b91507f4552433732313a207472616e73666572206f6620746f6b656e2074686174206960008301527f73206e6f74206f776e00000000000000000000000000000000000000000000006020830152604082019050919050565b600061265f602f83612b1e565b91507f4552433732314d657461646174613a2055524920717565727920666f72206e6f60008301527f6e6578697374656e7420746f6b656e00000000000000000000000000000000006020830152604082019050919050565b60006126c5602183612b1e565b91507f4552433732313a20617070726f76616c20746f2063757272656e74206f776e6560008301527f72000000000000000000000000000000000000000000000000000000000000006020830152604082019050919050565b600061272b603183612b1e565b91507f4552433732313a207472616e736665722063616c6c6572206973206e6f74206f60008301527f776e6572206e6f7220617070726f7665640000000000000000000000000000006020830152604082019050919050565b61278d81612c5f565b82525050565b600061279f8285612125565b91506127ab8284612125565b91508190509392505050565b60006020820190506127cc6000830184612095565b92915050565b60006080820190506127e76000830187612095565b6127f46020830186612095565b6128016040830185612784565b818103606083015261281381846120b3565b905095945050505050565b600060208201905061283360008301846120a4565b92915050565b6000602082019050818103600083015261285381846120ec565b905092915050565b6000602082019050818103600083015261287481612156565b9050919050565b60006020820190508181036000830152612894816121bc565b9050919050565b600060208201905081810360008301526128b481612222565b9050919050565b600060208201905081810360008301526128d481612262565b9050919050565b600060208201905081810360008301526128f4816122c8565b9050919050565b6000602082019050818103600083015261291481612308565b9050919050565b600060208201905081810360008301526129348161236e565b9050919050565b60006020820190508181036000830152612954816123d4565b9050919050565b600060208201905081810360008301526129748161243a565b9050919050565b60006020820190508181036000830152612994816124a0565b9050919050565b600060208201905081810360008301526129b4816124e0565b9050919050565b600060208201905081810360008301526129d481612546565b9050919050565b600060208201905081810360008301526129f481612586565b9050919050565b60006020820190508181036000830152612a14816125ec565b9050919050565b60006020820190508181036000830152612a3481612652565b9050919050565b60006020820190508181036000830152612a54816126b8565b9050919050565b60006020820190508181036000830152612a748161271e565b9050919050565b6000602082019050612a906000830184612784565b92915050565b6000604051905081810181811067ffffffffffffffff82111715612abd57612abc612de4565b5b8060405250919050565b600067ffffffffffffffff821115612ae257612ae1612de4565b5b601f19601f8301169050602081019050919050565b600081519050919050565b600081519050919050565b600082825260208201905092915050565b600082825260208201905092915050565b600081905092915050565b6000612b4582612c5f565b9150612b5083612c5f565b9250827fffffffffffffffffffffffffffffffffffffffffffffffffffffffffffffffff03821115612b8557612b84612d57565b5b828201905092915050565b6000612b9b82612c5f565b9150612ba683612c5f565b925082612bb657612bb5612d86565b5b828204905092915050565b6000612bcc82612c5f565b9150612bd783612c5f565b925082821015612bea57612be9612d57565b5b828203905092915050565b6000612c0082612c3f565b9050919050565b60008115159050919050565b60007fffffffff0000000000000000000000000000000000000000000000000000000082169050919050565b600073ffffffffffffffffffffffffffffffffffffffff82169050919050565b6000819050919050565b82818337600083830152505050565b60005b83811015612c96578082015181840152602081019050612c7b565b83811115612ca5576000848401525b50505050565b60006002820490506001821680612cc357607f821691505b60208210811415612cd757612cd6612db5565b5b50919050565b6000612ce882612c5f565b91507fffffffffffffffffffffffffffffffffffffffffffffffffffffffffffffffff821415612d1b57612d1a612d57565b5b600182019050919050565b6000612d3182612c5f565b9150612d3c83612c5f565b925082612d4c57612d4b612d86565b5b828206905092915050565b7f4e487b7100000000000000000000000000000000000000000000000000000000600052601160045260246000fd5b7f4e487b7100000000000000000000000000000000000000000000000000000000600052601260045260246000fd5b7f4e487b7100000000000000000000000000000000000000000000000000000000600052602260045260246000fd5b7f4e487b7100000000000000000000000000000000000000000000000000000000600052604160045260246000fd5b6000601f19601f8301169050919050565b612e2d81612bf5565b8114612e3857600080fd5b50565b612e4481612c07565b8114612e4f57600080fd5b50565b612e5b81612c13565b8114612e6657600080fd5b50565b612e7281612c5f565b8114612e7d57600080fd5b5056fea2646970667358221220e2312edc133f3640c000fad748c117b9369ca9ea464b235cbd885e194e6a5bc964736f6c63430008000033",
  "linkReferences": {},
  "deployedLinkReferences": {}
}