{
  "_format": "hh-sol-artifact-1",
  "contractName": "ERC721WithData",
  "sourceName": "contracts/ERC721WithData.sol",
  "abi": [
    {
      "inputs": [
        {
          "internalType": "string",
          "name": "name",
          "type": "string"
        },
        {
          "internalType": "string",
          "name": "symbol",
          "type": "string"
        },
        {
          "internalType": "string",
          "name": "baseTokenURI",
          "type": "string"
        }
      ],
      "stateMutability": "nonpayable",
      "type": "constructor"
    },
    {
      "anonymous": false,
      "inputs": [
        {
          "indexed": true,
          "internalType": "address",
          "name": "owner",
          "type": "address"
        },
        {
          "indexed": true,
          "internalType": "address",
          "name": "approved",
          "type": "address"
        },
        {
          "indexed": true,
          "internalType": "uint256",
          "name": "tokenId",
          "type": "uint256"
        }
      ],
      "name": "Approval",
      "type": "event"
    },
    {
      "anonymous": false,
      "inputs": [
        {
          "indexed": true,
          "internalType": "address",
          "name": "owner",
          "type": "address"
        },
        {
          "indexed": true,
          "internalType": "address",
          "name": "operator",
          "type": "address"
        },
        {
          "indexed": false,
          "internalType": "bool",
          "name": "approved",
          "type": "bool"
        }
      ],
      "name": "ApprovalForAll",
      "type": "event"
    },
    {
      "anonymous": false,
      "inputs": [
        {
          "indexed": true,
          "internalType": "address",
          "name": "previousOwner",
          "type": "address"
        },
        {
          "indexed": true,
          "internalType": "address",
          "name": "newOwner",
          "type": "address"
        }
      ],
      "name": "OwnershipTransferred",
      "type": "event"
    },
    {
      "anonymous": false,
      "inputs": [
        {
          "indexed": true,
          "internalType": "address",
          "name": "from",
          "type": "address"
        },
        {
          "indexed": true,
          "internalType": "address",
          "name": "to",
          "type": "address"
        },
        {
          "indexed": true,
          "internalType": "uint256",
          "name": "tokenId",
          "type": "uint256"
        }
      ],
      "name": "Transfer",
      "type": "event"
    },
    {
      "inputs": [
        {
          "internalType": "address",
          "name": "to",
          "type": "address"
        },
        {
          "internalType": "uint256",
          "name": "tokenId",
          "type": "uint256"
        }
      ],
      "name": "approve",
      "outputs": [],
      "stateMutability": "nonpayable",
      "type": "function"
    },
    {
      "inputs": [
        {
          "internalType": "address",
          "name": "to",
          "type": "address"
        },
        {
          "internalType": "uint256",
          "name": "tokenId",
          "type": "uint256"
        },
        {
          "internalType": "bytes",
          "name": "data",
          "type": "bytes"
        }
      ],
      "name": "approveWithData",
      "outputs": [],
      "stateMutability": "nonpayable",
      "type": "function"
    },
    {
      "inputs": [
        {
          "internalType": "address",
          "name": "owner",
          "type": "address"
        }
      ],
      "name": "balanceOf",
      "outputs": [
        {
          "internalType": "uint256",
          "name": "",
          "type": "uint256"
        }
      ],
      "stateMutability": "view",
      "type": "function"
    },
    {
      "inputs": [
        {
          "internalType": "address",
          "name": "from",
          "type": "address"
        },
        {
          "internalType": "uint256",
          "name": "tokenId",
          "type": "uint256"
        },
        {
          "internalType": "bytes",
          "name": "data",
          "type": "bytes"
        }
      ],
      "name": "burnWithData",
      "outputs": [],
      "stateMutability": "nonpayable",
      "type": "function"
    },
    {
      "inputs": [
        {
          "internalType": "uint256",
          "name": "tokenId",
          "type": "uint256"
        }
      ],
      "name": "getApproved",
      "outputs": [
        {
          "internalType": "address",
          "name": "",
          "type": "address"
        }
      ],
      "stateMutability": "view",
      "type": "function"
    },
    {
      "inputs": [
        {
          "internalType": "address",
          "name": "owner",
          "type": "address"
        },
        {
          "internalType": "address",
          "name": "operator",
          "type": "address"
        }
      ],
      "name": "isApprovedForAll",
      "outputs": [
        {
          "internalType": "bool",
          "name": "",
          "type": "bool"
        }
      ],
      "stateMutability": "view",
      "type": "function"
    },
    {
      "inputs": [
        {
          "internalType": "address",
          "name": "to",
          "type": "address"
        },
        {
          "internalType": "uint256",
          "name": "tokenId",
          "type": "uint256"
        },
        {
          "internalType": "bytes",
          "name": "data",
          "type": "bytes"
        }
      ],
      "name": "mintWithData",
      "outputs": [],
      "stateMutability": "nonpayable",
      "type": "function"
    },
    {
      "inputs": [
        {
          "internalType": "address",
          "name": "to",
          "type": "address"
        },
        {
          "internalType": "uint256",
          "name": "tokenId",
          "type": "uint256"
        },
        {
          "internalType": "bytes",
          "name": "data",
          "type": "bytes"
        },
        {
          "internalType": "string",
          "name": "tokenURI_",
          "type": "string"
        }
      ],
      "name": "mintWithURI",
      "outputs": [],
      "stateMutability": "nonpayable",
      "type": "function"
    },
    {
      "inputs": [],
      "name": "name",
      "outputs": [
        {
          "internalType": "string",
          "name": "",
          "type": "string"
        }
      ],
      "stateMutability": "view",
      "type": "function"
    },
    {
      "inputs": [],
      "name": "owner",
      "outputs": [
        {
          "internalType": "address",
          "name": "",
          "type": "address"
        }
      ],
      "stateMutability": "view",
      "type": "function"
    },
    {
      "inputs": [
        {
          "internalType": "uint256",
          "name": "tokenId",
          "type": "uint256"
        }
      ],
      "name": "ownerOf",
      "outputs": [
        {
          "internalType": "address",
          "name": "",
          "type": "address"
        }
      ],
      "stateMutability": "view",
      "type": "function"
    },
    {
      "inputs": [],
      "name": "renounceOwnership",
      "outputs": [],
      "stateMutability": "nonpayable",
      "type": "function"
    },
    {
      "inputs": [
        {
          "internalType": "address",
          "name": "from",
          "type": "address"
        },
        {
          "internalType": "address",
          "name": "to",
          "type": "address"
        },
        {
          "internalType": "uint256",
          "name": "tokenId",
          "type": "uint256"
        }
      ],
      "name": "safeTransferFrom",
      "outputs": [],
      "stateMutability": "nonpayable",
      "type": "function"
    },
    {
      "inputs": [
        {
          "internalType": "address",
          "name": "from",
          "type": "address"
        },
        {
          "internalType": "address",
          "name": "to",
          "type": "address"
        },
        {
          "internalType": "uint256",
          "name": "tokenId",
          "type": "uint256"
        },
        {
          "internalType": "bytes",
          "name": "_data",
          "type": "bytes"
        }
      ],
      "name": "safeTransferFrom",
      "outputs": [],
      "stateMutability": "nonpayable",
      "type": "function"
    },
    {
      "inputs": [
        {
          "internalType": "address",
          "name": "operator",
          "type": "address"
        },
        {
          "internalType": "bool",
          "name": "approved",
          "type": "bool"
        }
      ],
      "name": "setApprovalForAll",
      "outputs": [],
      "stateMutability": "nonpayable",
      "type": "function"
    },
    {
      "inputs": [
        {
          "internalType": "address",
          "name": "operator",
          "type": "address"
        },
        {
          "internalType": "bool",
          "name": "approved",
          "type": "bool"
        },
        {
          "internalType": "bytes",
          "name": "data",
          "type": "bytes"
        }
      ],
      "name": "setApprovalForAllWithData",
      "outputs": [],
      "stateMutability": "nonpayable",
      "type": "function"
    },
    {
      "inputs": [
        {
          "internalType": "bytes4",
          "name": "interfaceId",
          "type": "bytes4"
        }
      ],
      "name": "supportsInterface",
      "outputs": [
        {
          "internalType": "bool",
          "name": "",
          "type": "bool"
        }
      ],
      "stateMutability": "view",
      "type": "function"
    },
    {
      "inputs": [],
      "name": "symbol",
      "outputs": [
        {
          "internalType": "string",
          "name": "",
          "type": "string"
        }
      ],
      "stateMutability": "view",
      "type": "function"
    },
    {
      "inputs": [
        {
          "internalType": "uint256",
          "name": "tokenId",
          "type": "uint256"
        }
      ],
      "name": "tokenURI",
      "outputs": [
        {
          "internalType": "string",
          "name": "",
          "type": "string"
        }
      ],
      "stateMutability": "view",
      "type": "function"
    },
    {
      "inputs": [
        {
          "internalType": "address",
          "name": "from",
          "type": "address"
        },
        {
          "internalType": "address",
          "name": "to",
          "type": "address"
        },
        {
          "internalType": "uint256",
          "name": "tokenId",
          "type": "uint256"
        }
      ],
      "name": "transferFrom",
      "outputs": [],
      "stateMutability": "nonpayable",
      "type": "function"
    },
    {
      "inputs": [
        {
          "internalType": "address",
          "name": "newOwner",
          "type": "address"
        }
      ],
      "name": "transferOwnership",
      "outputs": [],
      "stateMutability": "nonpayable",
      "type": "function"
    },
    {
      "inputs": [
        {
          "internalType": "address",
          "name": "from",
          "type": "address"
        },
        {
          "internalType": "address",
          "name": "to",
          "type": "address"
        },
        {
          "internalType": "uint256",
          "name": "tokenId",
          "type": "uint256"
        },
        {
          "internalType": "bytes",
          "name": "data",
          "type": "bytes"
        }
      ],
      "name": "transferWithData",
      "outputs": [],
      "stateMutability": "nonpayable",
      "type": "function"
    }
  ],
  "bytecode": "0x60806040523480156200001157600080fd5b506040516200242738038062002427833981016040819052620000349162000237565b828262000041336200008e565b815162000056906001906020850190620000de565b5080516200006c906002906020840190620000de565b505081516200008491506007906020840190620000de565b5050505062000317565b600080546001600160a01b038381166001600160a01b0319831681178455604051919092169283917f8be0079c531659141344cd1fd0a4f28419497f9722a3daafe3b4186f6b6457e09190a35050565b828054620000ec90620002c4565b90600052602060002090601f0160209004810192826200011057600085556200015b565b82601f106200012b57805160ff19168380011785556200015b565b828001600101855582156200015b579182015b828111156200015b5782518255916020019190600101906200013e565b50620001699291506200016d565b5090565b5b808211156200016957600081556001016200016e565b600082601f83011262000195578081fd5b81516001600160401b0380821115620001b257620001b262000301565b604051601f8301601f19908116603f01168101908282118183101715620001dd57620001dd62000301565b81604052838152602092508683858801011115620001f9578485fd5b8491505b838210156200021c5785820183015181830184015290820190620001fd565b838211156200022d57848385830101525b9695505050505050565b6000806000606084860312156200024c578283fd5b83516001600160401b038082111562000263578485fd5b620002718783880162000184565b9450602086015191508082111562000287578384fd5b620002958783880162000184565b93506040860151915080821115620002ab578283fd5b50620002ba8682870162000184565b9150509250925092565b600181811c90821680620002d957607f821691505b60208210811415620002fb57634e487b7160e01b600052602260045260246000fd5b50919050565b634e487b7160e01b600052604160045260246000fd5b61210080620003276000396000f3fe608060405234801561001057600080fd5b50600436106101825760003560e01c80637b5eb564116100d8578063a22cb4651161008c578063c87b56dd11610066578063c87b56dd14610317578063e985e9c51461032a578063f2fde38b1461036657600080fd5b8063a22cb465146102de578063b88d4fde146102f1578063c0ea7a7a1461030457600080fd5b80638da5cb5b116100bd5780638da5cb5b146102b257806395d89b41146102c357806396adfe42146102cb57600080fd5b80637b5eb5641461028c57806383e49c531461029f57600080fd5b806323b872dd1161013a5780636352211e116101145780636352211e1461025057806370a0823114610263578063715018a61461028457600080fd5b806323b872dd1461021757806342842e0e1461022a5780634f45edcd1461023d57600080fd5b8063081812fc1161016b578063081812fc146101c4578063095ea7b3146101ef5780631cbf311d1461020457600080fd5b806301ffc9a71461018757806306fdde03146101af575b600080fd5b61019a610195366004611e9f565b610379565b60405190151581526020015b60405180910390f35b6101b76103bd565b6040516101a69190611f86565b6101d76101d2366004611ed7565b61044f565b6040516001600160a01b0390911681526020016101a6565b6102026101fd366004611da2565b6104e9565b005b610202610212366004611d43565b61061b565b610202610225366004611bf9565b61062b565b610202610238366004611bf9565b6106b2565b61020261024b366004611e0b565b6106cd565b6101d761025e366004611ed7565b6107c1565b610276610271366004611ba6565b61084c565b6040519081526020016101a6565b6102026108e6565b61020261029a366004611dcb565b61094c565b6102026102ad366004611dcb565b610956565b6000546001600160a01b03166101d7565b6101b76109dd565b6102026102d9366004611dcb565b6109ec565b6102026102ec366004611d1a565b610a9c565b6102026102ff366004611ca1565b610aab565b610202610312366004611c34565b610b33565b6101b7610325366004611ed7565b610b7c565b61019a610338366004611bc7565b6001600160a01b03918216600090815260066020908152604080832093909416825291909152205460ff1690565b610202610374366004611ba6565b610c8e565b60006001600160e01b031982167ffd0771df0000000000000000000000000000000000000000000000000000000014806103b757506103b782610d70565b92915050565b6060600180546103cc90612008565b80601f01602080910402602001604051908101604052809291908181526020018280546103f890612008565b80156104455780601f1061041a57610100808354040283529160200191610445565b820191906000526020600020905b81548152906001019060200180831161042857829003601f168201915b5050505050905090565b6000818152600360205260408120546001600160a01b03166104cd5760405162461bcd60e51b815260206004820152602c60248201527f4552433732313a20617070726f76656420717565727920666f72206e6f6e657860448201526b34b9ba32b73a103a37b5b2b760a11b60648201526084015b60405180910390fd5b506000908152600560205260409020546001600160a01b031690565b60006104f4826107c1565b9050806001600160a01b0316836001600160a01b0316141561057e5760405162461bcd60e51b815260206004820152602160248201527f4552433732313a20617070726f76616c20746f2063757272656e74206f776e6560448201527f720000000000000000000000000000000000000000000000000000000000000060648201526084016104c4565b336001600160a01b038216148061059a575061059a8133610338565b61060c5760405162461bcd60e51b815260206004820152603860248201527f4552433732313a20617070726f76652063616c6c6572206973206e6f74206f7760448201527f6e6572206e6f7220617070726f76656420666f7220616c6c000000000000000060648201526084016104c4565b6106168383610e0b565b505050565b6106258484610a9c565b50505050565b6106353382610e79565b6106a75760405162461bcd60e51b815260206004820152603160248201527f4552433732313a207472616e736665722063616c6c6572206973206e6f74206f60448201527f776e6572206e6f7220617070726f76656400000000000000000000000000000060648201526084016104c4565b610616838383610f70565b61061683838360405180602001604052806000815250610aab565b6000546001600160a01b031633146107275760405162461bcd60e51b815260206004820181905260248201527f4f776e61626c653a2063616c6c6572206973206e6f7420746865206f776e657260448201526064016104c4565b610768858585858080601f01602080910402602001604051908101604052809392919081815260200183838082843760009201919091525061113d92505050565b805181906107af576107aa8561077c6111bb565b61078588611324565b604051602001610796929190611f1b565b604051602081830303815290604052611472565b6107b9565b6107b98583611472565b505050505050565b6000818152600360205260408120546001600160a01b0316806103b75760405162461bcd60e51b815260206004820152602960248201527f4552433732313a206f776e657220717565727920666f72206e6f6e657869737460448201527f656e7420746f6b656e000000000000000000000000000000000000000000000060648201526084016104c4565b60006001600160a01b0382166108ca5760405162461bcd60e51b815260206004820152602a60248201527f4552433732313a2062616c616e636520717565727920666f7220746865207a6560448201527f726f20616464726573730000000000000000000000000000000000000000000060648201526084016104c4565b506001600160a01b031660009081526004602052604090205490565b6000546001600160a01b031633146109405760405162461bcd60e51b815260206004820181905260248201527f4f776e61626c653a2063616c6c6572206973206e6f7420746865206f776e657260448201526064016104c4565b61094a600061155b565b565b61062584846104e9565b6001600160a01b03841633146109d45760405162461bcd60e51b815260206004820152602360248201527f45524337323157697468446174613a2063616c6c6572206973206e6f74206f7760448201527f6e6572000000000000000000000000000000000000000000000000000000000060648201526084016104c4565b610625836115ab565b6060600280546103cc90612008565b6000546001600160a01b03163314610a465760405162461bcd60e51b815260206004820181905260248201527f4f776e61626c653a2063616c6c6572206973206e6f7420746865206f776e657260448201526064016104c4565b610a87848484848080601f01602080910402602001604051908101604052809392919081815260200183838082843760009201919091525061113d92505050565b61062583610a936111bb565b61078586611324565b610aa7338383611646565b5050565b610ab53383610e79565b610b275760405162461bcd60e51b815260206004820152603160248201527f4552433732313a207472616e736665722063616c6c6572206973206e6f74206f60448201527f776e6572206e6f7220617070726f76656400000000000000000000000000000060648201526084016104c4565b61062584848484611715565b610b7585858585858080601f016020809104026020016040519081016040528093929190818152602001838380828437600092019190915250610aab92505050565b5050505050565b6000818152600360205260409020546060906001600160a01b0316610bef5760405162461bcd60e51b8152602060048201526024808201527f45524337323157697468446174613a20546f6b656e20646f6573206e6f7420656044820152631e1a5cdd60e21b60648201526084016104c4565b60008281526008602052604081208054610c0890612008565b80601f0160208091040260200160405190810160405280929190818152602001828054610c3490612008565b8015610c815780601f10610c5657610100808354040283529160200191610c81565b820191906000526020600020905b815481529060010190602001808311610c6457829003601f168201915b5093979650505050505050565b6000546001600160a01b03163314610ce85760405162461bcd60e51b815260206004820181905260248201527f4f776e61626c653a2063616c6c6572206973206e6f7420746865206f776e657260448201526064016104c4565b6001600160a01b038116610d645760405162461bcd60e51b815260206004820152602660248201527f4f776e61626c653a206e6577206f776e657220697320746865207a65726f206160448201527f646472657373000000000000000000000000000000000000000000000000000060648201526084016104c4565b610d6d8161155b565b50565b60006001600160e01b031982167f80ac58cd000000000000000000000000000000000000000000000000000000001480610dd357506001600160e01b031982167f5b5e139f00000000000000000000000000000000000000000000000000000000145b806103b757507f01ffc9a7000000000000000000000000000000000000000000000000000000006001600160e01b03198316146103b7565b600081815260056020526040902080546001600160a01b0319166001600160a01b0384169081179091558190610e40826107c1565b6001600160a01b03167f8c5be1e5ebec7d5bd14f71427d1e84f3dd0314c0f7b2291e5b200ac8c7c3b92560405160405180910390a45050565b6000818152600360205260408120546001600160a01b0316610ef25760405162461bcd60e51b815260206004820152602c60248201527f4552433732313a206f70657261746f7220717565727920666f72206e6f6e657860448201526b34b9ba32b73a103a37b5b2b760a11b60648201526084016104c4565b6000610efd836107c1565b9050806001600160a01b0316846001600160a01b03161480610f385750836001600160a01b0316610f2d8461044f565b6001600160a01b0316145b80610f6857506001600160a01b0380821660009081526006602090815260408083209388168352929052205460ff165b949350505050565b826001600160a01b0316610f83826107c1565b6001600160a01b031614610fff5760405162461bcd60e51b815260206004820152602560248201527f4552433732313a207472616e736665722066726f6d20696e636f72726563742060448201527f6f776e657200000000000000000000000000000000000000000000000000000060648201526084016104c4565b6001600160a01b03821661107a5760405162461bcd60e51b8152602060048201526024808201527f4552433732313a207472616e7366657220746f20746865207a65726f2061646460448201527f726573730000000000000000000000000000000000000000000000000000000060648201526084016104c4565b611085600082610e0b565b6001600160a01b03831660009081526004602052604081208054600192906110ae908490611fc5565b90915550506001600160a01b03821660009081526004602052604081208054600192906110dc908490611f99565b909155505060008181526003602052604080822080546001600160a01b0319166001600160a01b0386811691821790925591518493918716917fddf252ad1be2c89b69c2b068fc378daa952ba7f163c4a11628f55a4df523b3ef91a4505050565b6111478383611793565b61115460008484846118d5565b6106165760405162461bcd60e51b815260206004820152603260248201527f4552433732313a207472616e7366657220746f206e6f6e20455243373231526560448201527131b2b4bb32b91034b6b83632b6b2b73a32b960711b60648201526084016104c4565b60606000600780546111cc90612008565b80601f01602080910402602001604051908101604052809291908181526020018280546111f890612008565b80156112455780601f1061121a57610100808354040283529160200191611245565b820191906000526020600020905b81548152906001019060200180831161122857829003601f168201915b5050505050905080516000141561128f57505060408051808201909152601081527f66697265666c793a2f2f746f6b656e2f00000000000000000000000000000000602082015290565b6007805461129c90612008565b80601f01602080910402602001604051908101604052809291908181526020018280546112c890612008565b80156113155780601f106112ea57610100808354040283529160200191611315565b820191906000526020600020905b8154815290600101906020018083116112f857829003601f168201915b505050505091505090565b5090565b60608161136457505060408051808201909152600181527f3000000000000000000000000000000000000000000000000000000000000000602082015290565b8160005b811561138e578061137881612043565b91506113879050600a83611fb1565b9150611368565b60008167ffffffffffffffff8111156113b757634e487b7160e01b600052604160045260246000fd5b6040519080825280601f01601f1916602001820160405280156113e1576020820181803683370190505b5090505b8415610f68576113f6600183611fc5565b9150611403600a8661205e565b61140e906030611f99565b60f81b81838151811061143157634e487b7160e01b600052603260045260246000fd5b60200101907effffffffffffffffffffffffffffffffffffffffffffffffffffffffffffff1916908160001a90535061146b600a86611fb1565b94506113e5565b6000546001600160a01b031633146114cc5760405162461bcd60e51b815260206004820181905260248201527f4f776e61626c653a2063616c6c6572206973206e6f7420746865206f776e657260448201526064016104c4565b6000828152600360205260409020546001600160a01b031661153c5760405162461bcd60e51b8152602060048201526024808201527f45524337323157697468446174613a20546f6b656e20646f6573206e6f7420656044820152631e1a5cdd60e21b60648201526084016104c4565b6000828152600860209081526040909120825161061692840190611a2d565b600080546001600160a01b038381166001600160a01b0319831681178455604051919092169283917f8be0079c531659141344cd1fd0a4f28419497f9722a3daafe3b4186f6b6457e09190a35050565b60006115b6826107c1565b90506115c3600083610e0b565b6001600160a01b03811660009081526004602052604081208054600192906115ec908490611fc5565b909155505060008281526003602052604080822080546001600160a01b0319169055518391906001600160a01b038416907fddf252ad1be2c89b69c2b068fc378daa952ba7f163c4a11628f55a4df523b3ef908390a45050565b816001600160a01b0316836001600160a01b031614156116a85760405162461bcd60e51b815260206004820152601960248201527f4552433732313a20617070726f766520746f2063616c6c65720000000000000060448201526064016104c4565b6001600160a01b03838116600081815260066020908152604080832094871680845294825291829020805460ff191686151590811790915591519182527f17307eab39ab6107e8899845ad3d59bd9653f200f220920489ca2b5937696c31910160405180910390a3505050565b611720848484610f70565b61172c848484846118d5565b6106255760405162461bcd60e51b815260206004820152603260248201527f4552433732313a207472616e7366657220746f206e6f6e20455243373231526560448201527131b2b4bb32b91034b6b83632b6b2b73a32b960711b60648201526084016104c4565b6001600160a01b0382166117e95760405162461bcd60e51b815260206004820181905260248201527f4552433732313a206d696e7420746f20746865207a65726f206164647265737360448201526064016104c4565b6000818152600360205260409020546001600160a01b03161561184e5760405162461bcd60e51b815260206004820152601c60248201527f4552433732313a20746f6b656e20616c7265616479206d696e7465640000000060448201526064016104c4565b6001600160a01b0382166000908152600460205260408120805460019290611877908490611f99565b909155505060008181526003602052604080822080546001600160a01b0319166001600160a01b03861690811790915590518392907fddf252ad1be2c89b69c2b068fc378daa952ba7f163c4a11628f55a4df523b3ef908290a45050565b60006001600160a01b0384163b15611a2257604051630a85bd0160e11b81526001600160a01b0385169063150b7a0290611919903390899088908890600401611f4a565b602060405180830381600087803b15801561193357600080fd5b505af1925050508015611963575060408051601f3d908101601f1916820190925261196091810190611ebb565b60015b611a08573d808015611991576040519150601f19603f3d011682016040523d82523d6000602084013e611996565b606091505b508051611a005760405162461bcd60e51b815260206004820152603260248201527f4552433732313a207472616e7366657220746f206e6f6e20455243373231526560448201527131b2b4bb32b91034b6b83632b6b2b73a32b960711b60648201526084016104c4565b805181602001fd5b6001600160e01b031916630a85bd0160e11b149050610f68565b506001949350505050565b828054611a3990612008565b90600052602060002090601f016020900481019282611a5b5760008555611aa1565b82601f10611a7457805160ff1916838001178555611aa1565b82800160010185558215611aa1579182015b82811115611aa1578251825591602001919060010190611a86565b506113209291505b808211156113205760008155600101611aa9565b600067ffffffffffffffff80841115611ad857611ad861209e565b604051601f8501601f19908116603f01168101908282118183101715611b0057611b0061209e565b81604052809350858152868686011115611b1957600080fd5b858560208301376000602087830101525050509392505050565b80356001600160a01b0381168114611b4a57600080fd5b919050565b80358015158114611b4a57600080fd5b60008083601f840112611b70578182fd5b50813567ffffffffffffffff811115611b87578182fd5b602083019150836020828501011115611b9f57600080fd5b9250929050565b600060208284031215611bb7578081fd5b611bc082611b33565b9392505050565b60008060408385031215611bd9578081fd5b611be283611b33565b9150611bf060208401611b33565b90509250929050565b600080600060608486031215611c0d578081fd5b611c1684611b33565b9250611c2460208501611b33565b9150604084013590509250925092565b600080600080600060808688031215611c4b578081fd5b611c5486611b33565b9450611c6260208701611b33565b935060408601359250606086013567ffffffffffffffff811115611c84578182fd5b611c9088828901611b5f565b969995985093965092949392505050565b60008060008060808587031215611cb6578384fd5b611cbf85611b33565b9350611ccd60208601611b33565b925060408501359150606085013567ffffffffffffffff811115611cef578182fd5b8501601f81018713611cff578182fd5b611d0e87823560208401611abd565b91505092959194509250565b60008060408385031215611d2c578182fd5b611d3583611b33565b9150611bf060208401611b4f565b60008060008060608587031215611d58578384fd5b611d6185611b33565b9350611d6f60208601611b4f565b9250604085013567ffffffffffffffff811115611d8a578283fd5b611d9687828801611b5f565b95989497509550505050565b60008060408385031215611db4578182fd5b611dbd83611b33565b946020939093013593505050565b60008060008060608587031215611de0578384fd5b611de985611b33565b935060208501359250604085013567ffffffffffffffff811115611d8a578283fd5b600080600080600060808688031215611e22578081fd5b611e2b86611b33565b945060208601359350604086013567ffffffffffffffff80821115611e4e578283fd5b611e5a89838a01611b5f565b90955093506060880135915080821115611e72578283fd5b508601601f81018813611e83578182fd5b611e9288823560208401611abd565b9150509295509295909350565b600060208284031215611eb0578081fd5b8135611bc0816120b4565b600060208284031215611ecc578081fd5b8151611bc0816120b4565b600060208284031215611ee8578081fd5b5035919050565b60008151808452611f07816020860160208601611fdc565b601f01601f19169290920160200192915050565b60008351611f2d818460208801611fdc565b835190830190611f41818360208801611fdc565b01949350505050565b60006001600160a01b03808716835280861660208401525083604083015260806060830152611f7c6080830184611eef565b9695505050505050565b602081526000611bc06020830184611eef565b60008219821115611fac57611fac612072565b500190565b600082611fc057611fc0612088565b500490565b600082821015611fd757611fd7612072565b500390565b60005b83811015611ff7578181015183820152602001611fdf565b838111156106255750506000910152565b600181811c9082168061201c57607f821691505b6020821081141561203d57634e487b7160e01b600052602260045260246000fd5b50919050565b600060001982141561205757612057612072565b5060010190565b60008261206d5761206d612088565b500690565b634e487b7160e01b600052601160045260246000fd5b634e487b7160e01b600052601260045260246000fd5b634e487b7160e01b600052604160045260246000fd5b6001600160e01b031981168114610d6d57600080fdfea26469706673582212207f847bafa10e842cd8066ac410795e207e974226a88d1f6306170a525bdf79e464736f6c63430008040033",
  "linkReferences": {},
  "deployedLinkReferences": {}
}