{
  "_format": "hh-sol-artifact-1",
  "contractName": "ERC721NoData",
  "sourceName": "contracts/ERC721NoData.sol",
  "abi": [
    {
      "inputs": [
        {
          "internalType": "string",
          "name": "name",
          "type": "string"
        },
        {
          "internalType": "string",
          "name": "symbol",
          "type": "string"
        }
      ],
      "stateMutability": "nonpayable",
      "type": "constructor"
    },
    {
      "anonymous": false,
      "inputs": [
        {
          "indexed": true,
          "internalType": "address",
          "name": "owner",
          "type": "address"
        },
        {
          "indexed": true,
          "internalType": "address",
          "name": "approved",
          "type": "address"
        },
        {
          "indexed": true,
          "internalType": "uint256",
          "name": "tokenId",
          "type": "uint256"
        }
      ],
      "name": "Approval",
      "type": "event"
    },
    {
      "anonymous": false,
      "inputs": [
        {
          "indexed": true,
          "internalType": "address",
          "name": "owner",
          "type": "address"
        },
        {
          "indexed": true,
          "internalType": "address",
          "name": "operator",
          "type": "address"
        },
        {
          "indexed": false,
          "internalType": "bool",
          "name": "approved",
          "type": "bool"
        }
      ],
      "name": "ApprovalForAll",
      "type": "event"
    },
    {
      "anonymous": false,
      "inputs": [
        {
          "indexed": true,
          "internalType": "address",
          "name": "previousOwner",
          "type": "address"
        },
        {
          "indexed": true,
          "internalType": "address",
          "name": "newOwner",
          "type": "address"
        }
      ],
      "name": "OwnershipTransferred",
      "type": "event"
    },
    {
      "anonymous": false,
      "inputs": [
        {
          "indexed": true,
          "internalType": "address",
          "name": "from",
          "type": "address"
        },
        {
          "indexed": true,
          "internalType": "address",
          "name": "to",
          "type": "address"
        },
        {
          "indexed": true,
          "internalType": "uint256",
          "name": "tokenId",
          "type": "uint256"
        }
      ],
      "name": "Transfer",
      "type": "event"
    },
    {
      "inputs": [
        {
          "internalType": "address",
          "name": "to",
          "type": "address"
        },
        {
          "internalType": "uint256",
          "name": "tokenId",
          "type": "uint256"
        }
      ],
      "name": "approve",
      "outputs": [],
      "stateMutability": "nonpayable",
      "type": "function"
    },
    {
      "inputs": [
        {
          "internalType": "address",
          "name": "owner",
          "type": "address"
        }
      ],
      "name": "balanceOf",
      "outputs": [
        {
          "internalType": "uint256",
          "name": "",
          "type": "uint256"
        }
      ],
      "stateMutability": "view",
      "type": "function"
    },
    {
      "inputs": [
        {
          "internalType": "address",
          "name": "from",
          "type": "address"
        },
        {
          "internalType": "uint256",
          "name": "tokenId",
          "type": "uint256"
        }
      ],
      "name": "burn",
      "outputs": [],
      "stateMutability": "nonpayable",
      "type": "function"
    },
    {
      "inputs": [
        {
          "internalType": "uint256",
          "name": "tokenId",
          "type": "uint256"
        }
      ],
      "name": "getApproved",
      "outputs": [
        {
          "internalType": "address",
          "name": "",
          "type": "address"
        }
      ],
      "stateMutability": "view",
      "type": "function"
    },
    {
      "inputs": [
        {
          "internalType": "address",
          "name": "owner",
          "type": "address"
        },
        {
          "internalType": "address",
          "name": "operator",
          "type": "address"
        }
      ],
      "name": "isApprovedForAll",
      "outputs": [
        {
          "internalType": "bool",
          "name": "",
          "type": "bool"
        }
      ],
      "stateMutability": "view",
      "type": "function"
    },
    {
      "inputs": [
        {
          "internalType": "address",
          "name": "to",
          "type": "address"
        },
        {
          "internalType": "uint256",
          "name": "tokenId",
          "type": "uint256"
        }
      ],
      "name": "mint",
      "outputs": [],
      "stateMutability": "nonpayable",
      "type": "function"
    },
    {
      "inputs": [],
      "name": "name",
      "outputs": [
        {
          "internalType": "string",
          "name": "",
          "type": "string"
        }
      ],
      "stateMutability": "view",
      "type": "function"
    },
    {
      "inputs": [],
      "name": "owner",
      "outputs": [
        {
          "internalType": "address",
          "name": "",
          "type": "address"
        }
      ],
      "stateMutability": "view",
      "type": "function"
    },
    {
      "inputs": [
        {
          "internalType": "uint256",
          "name": "tokenId",
          "type": "uint256"
        }
      ],
      "name": "ownerOf",
      "outputs": [
        {
          "internalType": "address",
          "name": "",
          "type": "address"
        }
      ],
      "stateMutability": "view",
      "type": "function"
    },
    {
      "inputs": [],
      "name": "renounceOwnership",
      "outputs": [],
      "stateMutability": "nonpayable",
      "type": "function"
    },
    {
      "inputs": [
        {
          "internalType": "address",
          "name": "from",
          "type": "address"
        },
        {
          "internalType": "address",
          "name": "to",
          "type": "address"
        },
        {
          "internalType": "uint256",
          "name": "tokenId",
          "type": "uint256"
        }
      ],
      "name": "safeTransferFrom",
      "outputs": [],
      "stateMutability": "nonpayable",
      "type": "function"
    },
    {
      "inputs": [
        {
          "internalType": "address",
          "name": "from",
          "type": "address"
        },
        {
          "internalType": "address",
          "name": "to",
          "type": "address"
        },
        {
          "internalType": "uint256",
          "name": "tokenId",
          "type": "uint256"
        },
        {
          "internalType": "bytes",
          "name": "data",
          "type": "bytes"
        }
      ],
      "name": "safeTransferFrom",
      "outputs": [],
      "stateMutability": "nonpayable",
      "type": "function"
    },
    {
      "inputs": [
        {
          "internalType": "address",
          "name": "operator",
          "type": "address"
        },
        {
          "internalType": "bool",
          "name": "approved",
          "type": "bool"
        }
      ],
      "name": "setApprovalForAll",
      "outputs": [],
      "stateMutability": "nonpayable",
      "type": "function"
    },
    {
      "inputs": [
        {
          "internalType": "bytes4",
          "name": "interfaceId",
          "type": "bytes4"
        }
      ],
      "name": "supportsInterface",
      "outputs": [
        {
          "internalType": "bool",
          "name": "",
          "type": "bool"
        }
      ],
      "stateMutability": "view",
      "type": "function"
    },
    {
      "inputs": [],
      "name": "symbol",
      "outputs": [
        {
          "internalType": "string",
          "name": "",
          "type": "string"
        }
      ],
      "stateMutability": "view",
      "type": "function"
    },
    {
      "inputs": [
        {
          "internalType": "uint256",
          "name": "tokenId",
          "type": "uint256"
        }
      ],
      "name": "tokenURI",
      "outputs": [
        {
          "internalType": "string",
          "name": "",
          "type": "string"
        }
      ],
      "stateMutability": "view",
      "type": "function"
    },
    {
      "inputs": [
        {
          "internalType": "address",
          "name": "from",
          "type": "address"
        },
        {
          "internalType": "address",
          "name": "to",
          "type": "address"
        },
        {
          "internalType": "uint256",
          "name": "tokenId",
          "type": "uint256"
        }
      ],
      "name": "transferFrom",
      "outputs": [],
      "stateMutability": "nonpayable",
      "type": "function"
    },
    {
      "inputs": [
        {
          "internalType": "address",
          "name": "newOwner",
          "type": "address"
        }
      ],
      "name": "transferOwnership",
      "outputs": [],
      "stateMutability": "nonpayable",
      "type": "function"
    }
  ],
  "bytecode": "0x60806040523480156200001157600080fd5b5060405162001aaf38038062001aaf833981016040819052620000349162000220565b8181620000413362000077565b815162000056906001906020850190620000c7565b5080516200006c906002906020840190620000c7565b5050505050620002da565b600080546001600160a01b038381166001600160a01b0319831681178455604051919092169283917f8be0079c531659141344cd1fd0a4f28419497f9722a3daafe3b4186f6b6457e09190a35050565b828054620000d59062000287565b90600052602060002090601f016020900481019282620000f9576000855562000144565b82601f106200011457805160ff191683800117855562000144565b8280016001018555821562000144579182015b828111156200014457825182559160200191906001019062000127565b506200015292915062000156565b5090565b5b8082111562000152576000815560010162000157565b600082601f8301126200017e578081fd5b81516001600160401b03808211156200019b576200019b620002c4565b604051601f8301601f19908116603f01168101908282118183101715620001c657620001c6620002c4565b81604052838152602092508683858801011115620001e2578485fd5b8491505b83821015620002055785820183015181830184015290820190620001e6565b838211156200021657848385830101525b9695505050505050565b6000806040838503121562000233578182fd5b82516001600160401b03808211156200024a578384fd5b62000258868387016200016d565b935060208501519150808211156200026e578283fd5b506200027d858286016200016d565b9150509250929050565b600181811c908216806200029c57607f821691505b60208210811415620002be57634e487b7160e01b600052602260045260246000fd5b50919050565b634e487b7160e01b600052604160045260246000fd5b6117c580620002ea6000396000f3fe608060405234801561001057600080fd5b50600436106101365760003560e01c8063715018a6116100b2578063a22cb46511610081578063c87b56dd11610066578063c87b56dd1461027f578063e985e9c514610292578063f2fde38b146102ce57600080fd5b8063a22cb46514610259578063b88d4fde1461026c57600080fd5b8063715018a6146102255780638da5cb5b1461022d57806395d89b411461023e5780639dc29fac1461024657600080fd5b806323b872dd1161010957806342842e0e116100ee57806342842e0e146101de5780636352211e146101f157806370a082311461020457600080fd5b806323b872dd146101b857806340c10f19146101cb57600080fd5b806301ffc9a71461013b57806306fdde0314610163578063081812fc14610178578063095ea7b3146101a3575b600080fd5b61014e610149366004611564565b6102e1565b60405190151581526020015b60405180910390f35b61016b61037e565b60405161015a919061164b565b61018b61018636600461159c565b610410565b6040516001600160a01b03909116815260200161015a565b6101b66101b136600461153b565b610437565b005b6101b66101c63660046113f1565b610552565b6101b66101d936600461153b565b6105d9565b6101b66101ec3660046113f1565b6105ef565b61018b6101ff36600461159c565b61060a565b6102176102123660046113a5565b61066f565b60405190815260200161015a565b6101b6610709565b6000546001600160a01b031661018b565b61016b61071d565b6101b661025436600461153b565b61072c565b6101b6610267366004611501565b610797565b6101b661027a36600461142c565b6107a2565b61016b61028d36600461159c565b610830565b61014e6102a03660046113bf565b6001600160a01b03918216600090815260066020908152604080832093909416825291909152205460ff1690565b6101b66102dc3660046113a5565b6108c9565b60006001600160e01b031982167f80ac58cd00000000000000000000000000000000000000000000000000000000148061034457506001600160e01b031982167f5b5e139f00000000000000000000000000000000000000000000000000000000145b8061037857507f01ffc9a7000000000000000000000000000000000000000000000000000000006001600160e01b03198316145b92915050565b60606001805461038d906116cd565b80601f01602080910402602001604051908101604052809291908181526020018280546103b9906116cd565b80156104065780601f106103db57610100808354040283529160200191610406565b820191906000526020600020905b8154815290600101906020018083116103e957829003601f168201915b5050505050905090565b600061041b82610959565b506000908152600560205260409020546001600160a01b031690565b60006104428261060a565b9050806001600160a01b0316836001600160a01b031614156104b55760405162461bcd60e51b815260206004820152602160248201527f4552433732313a20617070726f76616c20746f2063757272656e74206f776e656044820152603960f91b60648201526084015b60405180910390fd5b336001600160a01b03821614806104d157506104d181336102a0565b6105435760405162461bcd60e51b815260206004820152603e60248201527f4552433732313a20617070726f76652063616c6c6572206973206e6f7420746f60448201527f6b656e206f776e6572206e6f7220617070726f76656420666f7220616c6c000060648201526084016104ac565b61054d83836109bd565b505050565b61055c3382610a2b565b6105ce5760405162461bcd60e51b815260206004820152602e60248201527f4552433732313a2063616c6c6572206973206e6f7420746f6b656e206f776e6560448201527f72206e6f7220617070726f76656400000000000000000000000000000000000060648201526084016104ac565b61054d838383610aaa565b6105e1610c77565b6105eb8282610cd1565b5050565b61054d838383604051806020016040528060008152506107a2565b6000818152600360205260408120546001600160a01b0316806103785760405162461bcd60e51b815260206004820152601860248201527f4552433732313a20696e76616c696420746f6b656e204944000000000000000060448201526064016104ac565b60006001600160a01b0382166106ed5760405162461bcd60e51b815260206004820152602960248201527f4552433732313a2061646472657373207a65726f206973206e6f74206120766160448201527f6c6964206f776e6572000000000000000000000000000000000000000000000060648201526084016104ac565b506001600160a01b031660009081526004602052604090205490565b610711610c77565b61071b6000610ceb565b565b60606002805461038d906116cd565b6001600160a01b038216331461078e5760405162461bcd60e51b815260206004820152602160248201527f4552433732314e6f446174613a2063616c6c6572206973206e6f74206f776e656044820152603960f91b60648201526084016104ac565b6105eb81610d3b565b6105eb338383610dd6565b6107ac3383610a2b565b61081e5760405162461bcd60e51b815260206004820152602e60248201527f4552433732313a2063616c6c6572206973206e6f7420746f6b656e206f776e6560448201527f72206e6f7220617070726f76656400000000000000000000000000000000000060648201526084016104ac565b61082a84848484610ea5565b50505050565b606061083b82610959565b600061087760408051808201909152601081527f66697265666c793a2f2f746f6b656e2f00000000000000000000000000000000602082015290565b9050600081511161089757604051806020016040528060008152506108c2565b806108a184610f23565b6040516020016108b29291906115e0565b6040516020818303038152906040525b9392505050565b6108d1610c77565b6001600160a01b03811661094d5760405162461bcd60e51b815260206004820152602660248201527f4f776e61626c653a206e6577206f776e657220697320746865207a65726f206160448201527f646472657373000000000000000000000000000000000000000000000000000060648201526084016104ac565b61095681610ceb565b50565b6000818152600360205260409020546001600160a01b03166109565760405162461bcd60e51b815260206004820152601860248201527f4552433732313a20696e76616c696420746f6b656e204944000000000000000060448201526064016104ac565b600081815260056020526040902080546001600160a01b0319166001600160a01b03841690811790915581906109f28261060a565b6001600160a01b03167f8c5be1e5ebec7d5bd14f71427d1e84f3dd0314c0f7b2291e5b200ac8c7c3b92560405160405180910390a45050565b600080610a378361060a565b9050806001600160a01b0316846001600160a01b03161480610a7e57506001600160a01b0380821660009081526006602090815260408083209388168352929052205460ff165b80610aa25750836001600160a01b0316610a9784610410565b6001600160a01b0316145b949350505050565b826001600160a01b0316610abd8261060a565b6001600160a01b031614610b395760405162461bcd60e51b815260206004820152602560248201527f4552433732313a207472616e736665722066726f6d20696e636f72726563742060448201527f6f776e657200000000000000000000000000000000000000000000000000000060648201526084016104ac565b6001600160a01b038216610bb45760405162461bcd60e51b8152602060048201526024808201527f4552433732313a207472616e7366657220746f20746865207a65726f2061646460448201527f726573730000000000000000000000000000000000000000000000000000000060648201526084016104ac565b610bbf6000826109bd565b6001600160a01b0383166000908152600460205260408120805460019290610be890849061168a565b90915550506001600160a01b0382166000908152600460205260408120805460019290610c1690849061165e565b909155505060008181526003602052604080822080546001600160a01b0319166001600160a01b0386811691821790925591518493918716917fddf252ad1be2c89b69c2b068fc378daa952ba7f163c4a11628f55a4df523b3ef91a4505050565b6000546001600160a01b0316331461071b5760405162461bcd60e51b815260206004820181905260248201527f4f776e61626c653a2063616c6c6572206973206e6f7420746865206f776e657260448201526064016104ac565b6105eb828260405180602001604052806000815250611071565b600080546001600160a01b038381166001600160a01b0319831681178455604051919092169283917f8be0079c531659141344cd1fd0a4f28419497f9722a3daafe3b4186f6b6457e09190a35050565b6000610d468261060a565b9050610d536000836109bd565b6001600160a01b0381166000908152600460205260408120805460019290610d7c90849061168a565b909155505060008281526003602052604080822080546001600160a01b0319169055518391906001600160a01b038416907fddf252ad1be2c89b69c2b068fc378daa952ba7f163c4a11628f55a4df523b3ef908390a45050565b816001600160a01b0316836001600160a01b03161415610e385760405162461bcd60e51b815260206004820152601960248201527f4552433732313a20617070726f766520746f2063616c6c65720000000000000060448201526064016104ac565b6001600160a01b03838116600081815260066020908152604080832094871680845294825291829020805460ff191686151590811790915591519182527f17307eab39ab6107e8899845ad3d59bd9653f200f220920489ca2b5937696c31910160405180910390a3505050565b610eb0848484610aaa565b610ebc848484846110ef565b61082a5760405162461bcd60e51b815260206004820152603260248201527f4552433732313a207472616e7366657220746f206e6f6e20455243373231526560448201527131b2b4bb32b91034b6b83632b6b2b73a32b960711b60648201526084016104ac565b606081610f6357505060408051808201909152600181527f3000000000000000000000000000000000000000000000000000000000000000602082015290565b8160005b8115610f8d5780610f7781611708565b9150610f869050600a83611676565b9150610f67565b60008167ffffffffffffffff811115610fb657634e487b7160e01b600052604160045260246000fd5b6040519080825280601f01601f191660200182016040528015610fe0576020820181803683370190505b5090505b8415610aa257610ff560018361168a565b9150611002600a86611723565b61100d90603061165e565b60f81b81838151811061103057634e487b7160e01b600052603260045260246000fd5b60200101907effffffffffffffffffffffffffffffffffffffffffffffffffffffffffffff1916908160001a90535061106a600a86611676565b9450610fe4565b61107b8383611247565b61108860008484846110ef565b61054d5760405162461bcd60e51b815260206004820152603260248201527f4552433732313a207472616e7366657220746f206e6f6e20455243373231526560448201527131b2b4bb32b91034b6b83632b6b2b73a32b960711b60648201526084016104ac565b60006001600160a01b0384163b1561123c57604051630a85bd0160e11b81526001600160a01b0385169063150b7a029061113390339089908890889060040161160f565b602060405180830381600087803b15801561114d57600080fd5b505af192505050801561117d575060408051601f3d908101601f1916820190925261117a91810190611580565b60015b611222573d8080156111ab576040519150601f19603f3d011682016040523d82523d6000602084013e6111b0565b606091505b50805161121a5760405162461bcd60e51b815260206004820152603260248201527f4552433732313a207472616e7366657220746f206e6f6e20455243373231526560448201527131b2b4bb32b91034b6b83632b6b2b73a32b960711b60648201526084016104ac565b805181602001fd5b6001600160e01b031916630a85bd0160e11b149050610aa2565b506001949350505050565b6001600160a01b03821661129d5760405162461bcd60e51b815260206004820181905260248201527f4552433732313a206d696e7420746f20746865207a65726f206164647265737360448201526064016104ac565b6000818152600360205260409020546001600160a01b0316156113025760405162461bcd60e51b815260206004820152601c60248201527f4552433732313a20746f6b656e20616c7265616479206d696e7465640000000060448201526064016104ac565b6001600160a01b038216600090815260046020526040812080546001929061132b90849061165e565b909155505060008181526003602052604080822080546001600160a01b0319166001600160a01b03861690811790915590518392907fddf252ad1be2c89b69c2b068fc378daa952ba7f163c4a11628f55a4df523b3ef908290a45050565b80356001600160a01b03811681146113a057600080fd5b919050565b6000602082840312156113b6578081fd5b6108c282611389565b600080604083850312156113d1578081fd5b6113da83611389565b91506113e860208401611389565b90509250929050565b600080600060608486031215611405578081fd5b61140e84611389565b925061141c60208501611389565b9150604084013590509250925092565b60008060008060808587031215611441578081fd5b61144a85611389565b935061145860208601611389565b925060408501359150606085013567ffffffffffffffff8082111561147b578283fd5b818701915087601f83011261148e578283fd5b8135818111156114a0576114a0611763565b604051601f8201601f19908116603f011681019083821181831017156114c8576114c8611763565b816040528281528a60208487010111156114e0578586fd5b82602086016020830137918201602001949094529598949750929550505050565b60008060408385031215611513578182fd5b61151c83611389565b915060208301358015158114611530578182fd5b809150509250929050565b6000806040838503121561154d578182fd5b61155683611389565b946020939093013593505050565b600060208284031215611575578081fd5b81356108c281611779565b600060208284031215611591578081fd5b81516108c281611779565b6000602082840312156115ad578081fd5b5035919050565b600081518084526115cc8160208601602086016116a1565b601f01601f19169290920160200192915050565b600083516115f28184602088016116a1565b8351908301906116068183602088016116a1565b01949350505050565b60006001600160a01b0380871683528086166020840152508360408301526080606083015261164160808301846115b4565b9695505050505050565b6020815260006108c260208301846115b4565b6000821982111561167157611671611737565b500190565b6000826116855761168561174d565b500490565b60008282101561169c5761169c611737565b500390565b60005b838110156116bc5781810151838201526020016116a4565b8381111561082a5750506000910152565b600181811c908216806116e157607f821691505b6020821081141561170257634e487b7160e01b600052602260045260246000fd5b50919050565b600060001982141561171c5761171c611737565b5060010190565b6000826117325761173261174d565b500690565b634e487b7160e01b600052601160045260246000fd5b634e487b7160e01b600052601260045260246000fd5b634e487b7160e01b600052604160045260246000fd5b6001600160e01b03198116811461095657600080fdfea26469706673582212207b7dd8883ca0493dce917f271655ffaa16eb43883cd6df148def083b886cfd1c64736f6c63430008040033",
  "linkReferences": {},
  "deployedLinkReferences": {}
}