{
  "_format": "hh-sol-artifact-1",
  "contractName": "ERC721WithData",
  "sourceName": "contracts/ERC721WithData.sol",
  "abi": [
    {
      "inputs": [
        {
          "internalType": "string",
          "name": "name",
          "type": "string"
        },
        {
          "internalType": "string",
          "name": "symbol",
          "type": "string"
        },
        {
          "internalType": "string",
          "name": "baseTokenURI",
          "type": "string"
        }
      ],
      "stateMutability": "nonpayable",
      "type": "constructor"
    },
    {
      "anonymous": false,
      "inputs": [
        {
          "indexed": true,
          "internalType": "address",
          "name": "owner",
          "type": "address"
        },
        {
          "indexed": true,
          "internalType": "address",
          "name": "approved",
          "type": "address"
        },
        {
          "indexed": true,
          "internalType": "uint256",
          "name": "tokenId",
          "type": "uint256"
        }
      ],
      "name": "Approval",
      "type": "event"
    },
    {
      "anonymous": false,
      "inputs": [
        {
          "indexed": true,
          "internalType": "address",
          "name": "owner",
          "type": "address"
        },
        {
          "indexed": true,
          "internalType": "address",
          "name": "operator",
          "type": "address"
        },
        {
          "indexed": false,
          "internalType": "bool",
          "name": "approved",
          "type": "bool"
        }
      ],
      "name": "ApprovalForAll",
      "type": "event"
    },
    {
      "anonymous": false,
      "inputs": [
        {
          "indexed": true,
          "internalType": "address",
          "name": "previousOwner",
          "type": "address"
        },
        {
          "indexed": true,
          "internalType": "address",
          "name": "newOwner",
          "type": "address"
        }
      ],
      "name": "OwnershipTransferred",
      "type": "event"
    },
    {
      "anonymous": false,
      "inputs": [
        {
          "indexed": true,
          "internalType": "address",
          "name": "from",
          "type": "address"
        },
        {
          "indexed": true,
          "internalType": "address",
          "name": "to",
          "type": "address"
        },
        {
          "indexed": true,
          "internalType": "uint256",
          "name": "tokenId",
          "type": "uint256"
        }
      ],
      "name": "Transfer",
      "type": "event"
    },
    {
      "inputs": [
        {
          "internalType": "address",
          "name": "to",
          "type": "address"
        },
        {
          "internalType": "uint256",
          "name": "tokenId",
          "type": "uint256"
        }
      ],
      "name": "approve",
      "outputs": [],
      "stateMutability": "nonpayable",
      "type": "function"
    },
    {
      "inputs": [
        {
          "internalType": "address",
          "name": "to",
          "type": "address"
        },
        {
          "internalType": "uint256",
          "name": "tokenId",
          "type": "uint256"
        },
        {
          "internalType": "bytes",
          "name": "data",
          "type": "bytes"
        }
      ],
      "name": "approveWithData",
      "outputs": [],
      "stateMutability": "nonpayable",
      "type": "function"
    },
    {
      "inputs": [
        {
          "internalType": "address",
          "name": "owner",
          "type": "address"
        }
      ],
      "name": "balanceOf",
      "outputs": [
        {
          "internalType": "uint256",
          "name": "",
          "type": "uint256"
        }
      ],
      "stateMutability": "view",
      "type": "function"
    },
    {
      "inputs": [],
      "name": "baseTokenUri",
      "outputs": [
        {
          "internalType": "string",
          "name": "",
          "type": "string"
        }
      ],
      "stateMutability": "view",
      "type": "function"
    },
    {
      "inputs": [
        {
          "internalType": "address",
          "name": "from",
          "type": "address"
        },
        {
          "internalType": "uint256",
          "name": "tokenId",
          "type": "uint256"
        },
        {
          "internalType": "bytes",
          "name": "data",
          "type": "bytes"
        }
      ],
      "name": "burnWithData",
      "outputs": [],
      "stateMutability": "nonpayable",
      "type": "function"
    },
    {
      "inputs": [
        {
          "internalType": "uint256",
          "name": "tokenId",
          "type": "uint256"
        }
      ],
      "name": "getApproved",
      "outputs": [
        {
          "internalType": "address",
          "name": "",
          "type": "address"
        }
      ],
      "stateMutability": "view",
      "type": "function"
    },
    {
      "inputs": [
        {
          "internalType": "address",
          "name": "owner",
          "type": "address"
        },
        {
          "internalType": "address",
          "name": "operator",
          "type": "address"
        }
      ],
      "name": "isApprovedForAll",
      "outputs": [
        {
          "internalType": "bool",
          "name": "",
          "type": "bool"
        }
      ],
      "stateMutability": "view",
      "type": "function"
    },
    {
      "inputs": [
        {
          "internalType": "address",
          "name": "to",
          "type": "address"
        },
        {
          "internalType": "uint256",
          "name": "tokenId",
          "type": "uint256"
        },
        {
          "internalType": "bytes",
          "name": "data",
          "type": "bytes"
        }
      ],
      "name": "mintWithData",
      "outputs": [],
      "stateMutability": "nonpayable",
      "type": "function"
    },
    {
      "inputs": [
        {
          "internalType": "address",
          "name": "to",
          "type": "address"
        },
        {
          "internalType": "uint256",
          "name": "tokenId",
          "type": "uint256"
        },
        {
          "internalType": "bytes",
          "name": "data",
          "type": "bytes"
        },
        {
          "internalType": "string",
          "name": "tokenURI_",
          "type": "string"
        }
      ],
      "name": "mintWithURI",
      "outputs": [],
      "stateMutability": "nonpayable",
      "type": "function"
    },
    {
      "inputs": [],
      "name": "name",
      "outputs": [
        {
          "internalType": "string",
          "name": "",
          "type": "string"
        }
      ],
      "stateMutability": "view",
      "type": "function"
    },
    {
      "inputs": [],
      "name": "owner",
      "outputs": [
        {
          "internalType": "address",
          "name": "",
          "type": "address"
        }
      ],
      "stateMutability": "view",
      "type": "function"
    },
    {
      "inputs": [
        {
          "internalType": "uint256",
          "name": "tokenId",
          "type": "uint256"
        }
      ],
      "name": "ownerOf",
      "outputs": [
        {
          "internalType": "address",
          "name": "",
          "type": "address"
        }
      ],
      "stateMutability": "view",
      "type": "function"
    },
    {
      "inputs": [],
      "name": "renounceOwnership",
      "outputs": [],
      "stateMutability": "nonpayable",
      "type": "function"
    },
    {
      "inputs": [
        {
          "internalType": "address",
          "name": "from",
          "type": "address"
        },
        {
          "internalType": "address",
          "name": "to",
          "type": "address"
        },
        {
          "internalType": "uint256",
          "name": "tokenId",
          "type": "uint256"
        }
      ],
      "name": "safeTransferFrom",
      "outputs": [],
      "stateMutability": "nonpayable",
      "type": "function"
    },
    {
      "inputs": [
        {
          "internalType": "address",
          "name": "from",
          "type": "address"
        },
        {
          "internalType": "address",
          "name": "to",
          "type": "address"
        },
        {
          "internalType": "uint256",
          "name": "tokenId",
          "type": "uint256"
        },
        {
          "internalType": "bytes",
          "name": "data",
          "type": "bytes"
        }
      ],
      "name": "safeTransferFrom",
      "outputs": [],
      "stateMutability": "nonpayable",
      "type": "function"
    },
    {
      "inputs": [
        {
          "internalType": "address",
          "name": "operator",
          "type": "address"
        },
        {
          "internalType": "bool",
          "name": "approved",
          "type": "bool"
        }
      ],
      "name": "setApprovalForAll",
      "outputs": [],
      "stateMutability": "nonpayable",
      "type": "function"
    },
    {
      "inputs": [
        {
          "internalType": "address",
          "name": "operator",
          "type": "address"
        },
        {
          "internalType": "bool",
          "name": "approved",
          "type": "bool"
        },
        {
          "internalType": "bytes",
          "name": "data",
          "type": "bytes"
        }
      ],
      "name": "setApprovalForAllWithData",
      "outputs": [],
      "stateMutability": "nonpayable",
      "type": "function"
    },
    {
      "inputs": [
        {
          "internalType": "bytes4",
          "name": "interfaceId",
          "type": "bytes4"
        }
      ],
      "name": "supportsInterface",
      "outputs": [
        {
          "internalType": "bool",
          "name": "",
          "type": "bool"
        }
      ],
      "stateMutability": "view",
      "type": "function"
    },
    {
      "inputs": [],
      "name": "symbol",
      "outputs": [
        {
          "internalType": "string",
          "name": "",
          "type": "string"
        }
      ],
      "stateMutability": "view",
      "type": "function"
    },
    {
      "inputs": [
        {
          "internalType": "uint256",
          "name": "tokenId",
          "type": "uint256"
        }
      ],
      "name": "tokenURI",
      "outputs": [
        {
          "internalType": "string",
          "name": "",
          "type": "string"
        }
      ],
      "stateMutability": "view",
      "type": "function"
    },
    {
      "inputs": [
        {
          "internalType": "address",
          "name": "from",
          "type": "address"
        },
        {
          "internalType": "address",
          "name": "to",
          "type": "address"
        },
        {
          "internalType": "uint256",
          "name": "tokenId",
          "type": "uint256"
        }
      ],
      "name": "transferFrom",
      "outputs": [],
      "stateMutability": "nonpayable",
      "type": "function"
    },
    {
      "inputs": [
        {
          "internalType": "address",
          "name": "newOwner",
          "type": "address"
        }
      ],
      "name": "transferOwnership",
      "outputs": [],
      "stateMutability": "nonpayable",
      "type": "function"
    },
    {
      "inputs": [
        {
          "internalType": "address",
          "name": "from",
          "type": "address"
        },
        {
          "internalType": "address",
          "name": "to",
          "type": "address"
        },
        {
          "internalType": "uint256",
          "name": "tokenId",
          "type": "uint256"
        },
        {
          "internalType": "bytes",
          "name": "data",
          "type": "bytes"
        }
      ],
      "name": "transferWithData",
      "outputs": [],
      "stateMutability": "nonpayable",
      "type": "function"
    }
  ],
  "bytecode": "0x60806040523480156200001157600080fd5b506040516200226138038062002261833981016040819052620000349162000237565b828262000041336200008e565b815162000056906001906020850190620000de565b5080516200006c906002906020840190620000de565b505081516200008491506007906020840190620000de565b5050505062000317565b600080546001600160a01b038381166001600160a01b0319831681178455604051919092169283917f8be0079c531659141344cd1fd0a4f28419497f9722a3daafe3b4186f6b6457e09190a35050565b828054620000ec90620002c4565b90600052602060002090601f0160209004810192826200011057600085556200015b565b82601f106200012b57805160ff19168380011785556200015b565b828001600101855582156200015b579182015b828111156200015b5782518255916020019190600101906200013e565b50620001699291506200016d565b5090565b5b808211156200016957600081556001016200016e565b600082601f83011262000195578081fd5b81516001600160401b0380821115620001b257620001b262000301565b604051601f8301601f19908116603f01168101908282118183101715620001dd57620001dd62000301565b81604052838152602092508683858801011115620001f9578485fd5b8491505b838210156200021c5785820183015181830184015290820190620001fd565b838211156200022d57848385830101525b9695505050505050565b6000806000606084860312156200024c578283fd5b83516001600160401b038082111562000263578485fd5b620002718783880162000184565b9450602086015191508082111562000287578384fd5b620002958783880162000184565b93506040860151915080821115620002ab578283fd5b50620002ba8682870162000184565b9150509250925092565b600181811c90821680620002d957607f821691505b60208210811415620002fb57634e487b7160e01b600052602260045260246000fd5b50919050565b634e487b7160e01b600052604160045260246000fd5b611f3a80620003276000396000f3fe608060405234801561001057600080fd5b506004361061018d5760003560e01c80637a0101a2116100e3578063a22cb4651161008c578063c87b56dd11610066578063c87b56dd1461032a578063e985e9c51461033d578063f2fde38b1461037957600080fd5b8063a22cb465146102f1578063b88d4fde14610304578063c0ea7a7a1461031757600080fd5b80638da5cb5b116100bd5780638da5cb5b146102c557806395d89b41146102d657806396adfe42146102de57600080fd5b80637a0101a2146102975780637b5eb5641461029f57806383e49c53146102b257600080fd5b806323b872dd116101455780636352211e1161011f5780636352211e1461025b57806370a082311461026e578063715018a61461028f57600080fd5b806323b872dd1461022257806342842e0e146102355780634f45edcd1461024857600080fd5b8063081812fc11610176578063081812fc146101cf578063095ea7b3146101fa5780631cbf311d1461020f57600080fd5b806301ffc9a71461019257806306fdde03146101ba575b600080fd5b6101a56101a0366004611cd9565b61038c565b60405190151581526020015b60405180910390f35b6101c26103d0565b6040516101b19190611dc0565b6101e26101dd366004611d11565b610462565b6040516001600160a01b0390911681526020016101b1565b61020d610208366004611bdc565b610489565b005b61020d61021d366004611b7d565b6105c0565b61020d610230366004611a33565b6105d0565b61020d610243366004611a33565b610657565b61020d610256366004611c45565b610672565b6101e2610269366004611d11565b610714565b61028161027c3660046119e0565b610779565b6040519081526020016101b1565b61020d610813565b6101c2610827565b61020d6102ad366004611c05565b610836565b61020d6102c0366004611c05565b610840565b6000546001600160a01b03166101e2565b6101c26108c7565b61020d6102ec366004611c05565b6108d6565b61020d6102ff366004611b54565b610934565b61020d610312366004611adb565b610943565b61020d610325366004611a6e565b6109cb565b6101c2610338366004611d11565b610a14565b6101a561034b366004611a01565b6001600160a01b03918216600090815260066020908152604080832093909416825291909152205460ff1690565b61020d6103873660046119e0565b610b26565b60006001600160e01b031982167f8706707d0000000000000000000000000000000000000000000000000000000014806103ca57506103ca82610bb6565b92915050565b6060600180546103df90611e42565b80601f016020809104026020016040519081016040528092919081815260200182805461040b90611e42565b80156104585780601f1061042d57610100808354040283529160200191610458565b820191906000526020600020905b81548152906001019060200180831161043b57829003601f168201915b5050505050905090565b600061046d82610c51565b506000908152600560205260409020546001600160a01b031690565b600061049482610714565b9050806001600160a01b0316836001600160a01b031614156105235760405162461bcd60e51b815260206004820152602160248201527f4552433732313a20617070726f76616c20746f2063757272656e74206f776e6560448201527f720000000000000000000000000000000000000000000000000000000000000060648201526084015b60405180910390fd5b336001600160a01b038216148061053f575061053f813361034b565b6105b15760405162461bcd60e51b815260206004820152603e60248201527f4552433732313a20617070726f76652063616c6c6572206973206e6f7420746f60448201527f6b656e206f776e6572206e6f7220617070726f76656420666f7220616c6c0000606482015260840161051a565b6105bb8383610cb5565b505050565b6105ca8484610934565b50505050565b6105da3382610d23565b61064c5760405162461bcd60e51b815260206004820152602e60248201527f4552433732313a2063616c6c6572206973206e6f7420746f6b656e206f776e6560448201527f72206e6f7220617070726f766564000000000000000000000000000000000000606482015260840161051a565b6105bb838383610da2565b6105bb83838360405180602001604052806000815250610943565b61067a610f6f565b6106bb858585858080601f016020809104026020016040519081016040528093929190818152602001838380828437600092019190915250610fc992505050565b80518190610702576106fd856106cf611047565b6106d8886111b0565b6040516020016106e9929190611d55565b6040516020818303038152906040526112fe565b61070c565b61070c85836112fe565b505050505050565b6000818152600360205260408120546001600160a01b0316806103ca5760405162461bcd60e51b815260206004820152601860248201527f4552433732313a20696e76616c696420746f6b656e2049440000000000000000604482015260640161051a565b60006001600160a01b0382166107f75760405162461bcd60e51b815260206004820152602960248201527f4552433732313a2061646472657373207a65726f206973206e6f74206120766160448201527f6c6964206f776e65720000000000000000000000000000000000000000000000606482015260840161051a565b506001600160a01b031660009081526004602052604090205490565b61081b610f6f565b6108256000611395565b565b6060610831611047565b905090565b6105ca8484610489565b6001600160a01b03841633146108be5760405162461bcd60e51b815260206004820152602360248201527f45524337323157697468446174613a2063616c6c6572206973206e6f74206f7760448201527f6e65720000000000000000000000000000000000000000000000000000000000606482015260840161051a565b6105ca836113e5565b6060600280546103df90611e42565b6108de610f6f565b61091f848484848080601f016020809104026020016040519081016040528093929190818152602001838380828437600092019190915250610fc992505050565b6105ca8361092b611047565b6106d8866111b0565b61093f338383611480565b5050565b61094d3383610d23565b6109bf5760405162461bcd60e51b815260206004820152602e60248201527f4552433732313a2063616c6c6572206973206e6f7420746f6b656e206f776e6560448201527f72206e6f7220617070726f766564000000000000000000000000000000000000606482015260840161051a565b6105ca8484848461154f565b610a0d85858585858080601f01602080910402602001604051908101604052809392919081815260200183838082843760009201919091525061094392505050565b5050505050565b6000818152600360205260409020546060906001600160a01b0316610a875760405162461bcd60e51b8152602060048201526024808201527f45524337323157697468446174613a20546f6b656e20646f6573206e6f7420656044820152631e1a5cdd60e21b606482015260840161051a565b60008281526008602052604081208054610aa090611e42565b80601f0160208091040260200160405190810160405280929190818152602001828054610acc90611e42565b8015610b195780601f10610aee57610100808354040283529160200191610b19565b820191906000526020600020905b815481529060010190602001808311610afc57829003601f168201915b5093979650505050505050565b610b2e610f6f565b6001600160a01b038116610baa5760405162461bcd60e51b815260206004820152602660248201527f4f776e61626c653a206e6577206f776e657220697320746865207a65726f206160448201527f6464726573730000000000000000000000000000000000000000000000000000606482015260840161051a565b610bb381611395565b50565b60006001600160e01b031982167f80ac58cd000000000000000000000000000000000000000000000000000000001480610c1957506001600160e01b031982167f5b5e139f00000000000000000000000000000000000000000000000000000000145b806103ca57507f01ffc9a7000000000000000000000000000000000000000000000000000000006001600160e01b03198316146103ca565b6000818152600360205260409020546001600160a01b0316610bb35760405162461bcd60e51b815260206004820152601860248201527f4552433732313a20696e76616c696420746f6b656e2049440000000000000000604482015260640161051a565b600081815260056020526040902080546001600160a01b0319166001600160a01b0384169081179091558190610cea82610714565b6001600160a01b03167f8c5be1e5ebec7d5bd14f71427d1e84f3dd0314c0f7b2291e5b200ac8c7c3b92560405160405180910390a45050565b600080610d2f83610714565b9050806001600160a01b0316846001600160a01b03161480610d7657506001600160a01b0380821660009081526006602090815260408083209388168352929052205460ff165b80610d9a5750836001600160a01b0316610d8f84610462565b6001600160a01b0316145b949350505050565b826001600160a01b0316610db582610714565b6001600160a01b031614610e315760405162461bcd60e51b815260206004820152602560248201527f4552433732313a207472616e736665722066726f6d20696e636f72726563742060448201527f6f776e6572000000000000000000000000000000000000000000000000000000606482015260840161051a565b6001600160a01b038216610eac5760405162461bcd60e51b8152602060048201526024808201527f4552433732313a207472616e7366657220746f20746865207a65726f2061646460448201527f7265737300000000000000000000000000000000000000000000000000000000606482015260840161051a565b610eb7600082610cb5565b6001600160a01b0383166000908152600460205260408120805460019290610ee0908490611dff565b90915550506001600160a01b0382166000908152600460205260408120805460019290610f0e908490611dd3565b909155505060008181526003602052604080822080546001600160a01b0319166001600160a01b0386811691821790925591518493918716917fddf252ad1be2c89b69c2b068fc378daa952ba7f163c4a11628f55a4df523b3ef91a4505050565b6000546001600160a01b031633146108255760405162461bcd60e51b815260206004820181905260248201527f4f776e61626c653a2063616c6c6572206973206e6f7420746865206f776e6572604482015260640161051a565b610fd383836115cd565b610fe0600084848461170f565b6105bb5760405162461bcd60e51b815260206004820152603260248201527f4552433732313a207472616e7366657220746f206e6f6e20455243373231526560448201527131b2b4bb32b91034b6b83632b6b2b73a32b960711b606482015260840161051a565b606060006007805461105890611e42565b80601f016020809104026020016040519081016040528092919081815260200182805461108490611e42565b80156110d15780601f106110a6576101008083540402835291602001916110d1565b820191906000526020600020905b8154815290600101906020018083116110b457829003601f168201915b5050505050905080516000141561111b57505060408051808201909152601081527f66697265666c793a2f2f746f6b656e2f00000000000000000000000000000000602082015290565b6007805461112890611e42565b80601f016020809104026020016040519081016040528092919081815260200182805461115490611e42565b80156111a15780601f10611176576101008083540402835291602001916111a1565b820191906000526020600020905b81548152906001019060200180831161118457829003601f168201915b505050505091505090565b5090565b6060816111f057505060408051808201909152600181527f3000000000000000000000000000000000000000000000000000000000000000602082015290565b8160005b811561121a578061120481611e7d565b91506112139050600a83611deb565b91506111f4565b60008167ffffffffffffffff81111561124357634e487b7160e01b600052604160045260246000fd5b6040519080825280601f01601f19166020018201604052801561126d576020820181803683370190505b5090505b8415610d9a57611282600183611dff565b915061128f600a86611e98565b61129a906030611dd3565b60f81b8183815181106112bd57634e487b7160e01b600052603260045260246000fd5b60200101907effffffffffffffffffffffffffffffffffffffffffffffffffffffffffffff1916908160001a9053506112f7600a86611deb565b9450611271565b611306610f6f565b6000828152600360205260409020546001600160a01b03166113765760405162461bcd60e51b8152602060048201526024808201527f45524337323157697468446174613a20546f6b656e20646f6573206e6f7420656044820152631e1a5cdd60e21b606482015260840161051a565b600082815260086020908152604090912082516105bb92840190611867565b600080546001600160a01b038381166001600160a01b0319831681178455604051919092169283917f8be0079c531659141344cd1fd0a4f28419497f9722a3daafe3b4186f6b6457e09190a35050565b60006113f082610714565b90506113fd600083610cb5565b6001600160a01b0381166000908152600460205260408120805460019290611426908490611dff565b909155505060008281526003602052604080822080546001600160a01b0319169055518391906001600160a01b038416907fddf252ad1be2c89b69c2b068fc378daa952ba7f163c4a11628f55a4df523b3ef908390a45050565b816001600160a01b0316836001600160a01b031614156114e25760405162461bcd60e51b815260206004820152601960248201527f4552433732313a20617070726f766520746f2063616c6c657200000000000000604482015260640161051a565b6001600160a01b03838116600081815260066020908152604080832094871680845294825291829020805460ff191686151590811790915591519182527f17307eab39ab6107e8899845ad3d59bd9653f200f220920489ca2b5937696c31910160405180910390a3505050565b61155a848484610da2565b6115668484848461170f565b6105ca5760405162461bcd60e51b815260206004820152603260248201527f4552433732313a207472616e7366657220746f206e6f6e20455243373231526560448201527131b2b4bb32b91034b6b83632b6b2b73a32b960711b606482015260840161051a565b6001600160a01b0382166116235760405162461bcd60e51b815260206004820181905260248201527f4552433732313a206d696e7420746f20746865207a65726f2061646472657373604482015260640161051a565b6000818152600360205260409020546001600160a01b0316156116885760405162461bcd60e51b815260206004820152601c60248201527f4552433732313a20746f6b656e20616c7265616479206d696e74656400000000604482015260640161051a565b6001600160a01b03821660009081526004602052604081208054600192906116b1908490611dd3565b909155505060008181526003602052604080822080546001600160a01b0319166001600160a01b03861690811790915590518392907fddf252ad1be2c89b69c2b068fc378daa952ba7f163c4a11628f55a4df523b3ef908290a45050565b60006001600160a01b0384163b1561185c57604051630a85bd0160e11b81526001600160a01b0385169063150b7a0290611753903390899088908890600401611d84565b602060405180830381600087803b15801561176d57600080fd5b505af192505050801561179d575060408051601f3d908101601f1916820190925261179a91810190611cf5565b60015b611842573d8080156117cb576040519150601f19603f3d011682016040523d82523d6000602084013e6117d0565b606091505b50805161183a5760405162461bcd60e51b815260206004820152603260248201527f4552433732313a207472616e7366657220746f206e6f6e20455243373231526560448201527131b2b4bb32b91034b6b83632b6b2b73a32b960711b606482015260840161051a565b805181602001fd5b6001600160e01b031916630a85bd0160e11b149050610d9a565b506001949350505050565b82805461187390611e42565b90600052602060002090601f01602090048101928261189557600085556118db565b82601f106118ae57805160ff19168380011785556118db565b828001600101855582156118db579182015b828111156118db5782518255916020019190600101906118c0565b506111ac9291505b808211156111ac57600081556001016118e3565b600067ffffffffffffffff8084111561191257611912611ed8565b604051601f8501601f19908116603f0116810190828211818310171561193a5761193a611ed8565b8160405280935085815286868601111561195357600080fd5b858560208301376000602087830101525050509392505050565b80356001600160a01b038116811461198457600080fd5b919050565b8035801515811461198457600080fd5b60008083601f8401126119aa578182fd5b50813567ffffffffffffffff8111156119c1578182fd5b6020830191508360208285010111156119d957600080fd5b9250929050565b6000602082840312156119f1578081fd5b6119fa8261196d565b9392505050565b60008060408385031215611a13578081fd5b611a1c8361196d565b9150611a2a6020840161196d565b90509250929050565b600080600060608486031215611a47578081fd5b611a508461196d565b9250611a5e6020850161196d565b9150604084013590509250925092565b600080600080600060808688031215611a85578081fd5b611a8e8661196d565b9450611a9c6020870161196d565b935060408601359250606086013567ffffffffffffffff811115611abe578182fd5b611aca88828901611999565b969995985093965092949392505050565b60008060008060808587031215611af0578384fd5b611af98561196d565b9350611b076020860161196d565b925060408501359150606085013567ffffffffffffffff811115611b29578182fd5b8501601f81018713611b39578182fd5b611b48878235602084016118f7565b91505092959194509250565b60008060408385031215611b66578182fd5b611b6f8361196d565b9150611a2a60208401611989565b60008060008060608587031215611b92578384fd5b611b9b8561196d565b9350611ba960208601611989565b9250604085013567ffffffffffffffff811115611bc4578283fd5b611bd087828801611999565b95989497509550505050565b60008060408385031215611bee578182fd5b611bf78361196d565b946020939093013593505050565b60008060008060608587031215611c1a578384fd5b611c238561196d565b935060208501359250604085013567ffffffffffffffff811115611bc4578283fd5b600080600080600060808688031215611c5c578081fd5b611c658661196d565b945060208601359350604086013567ffffffffffffffff80821115611c88578283fd5b611c9489838a01611999565b90955093506060880135915080821115611cac578283fd5b508601601f81018813611cbd578182fd5b611ccc888235602084016118f7565b9150509295509295909350565b600060208284031215611cea578081fd5b81356119fa81611eee565b600060208284031215611d06578081fd5b81516119fa81611eee565b600060208284031215611d22578081fd5b5035919050565b60008151808452611d41816020860160208601611e16565b601f01601f19169290920160200192915050565b60008351611d67818460208801611e16565b835190830190611d7b818360208801611e16565b01949350505050565b60006001600160a01b03808716835280861660208401525083604083015260806060830152611db66080830184611d29565b9695505050505050565b6020815260006119fa6020830184611d29565b60008219821115611de657611de6611eac565b500190565b600082611dfa57611dfa611ec2565b500490565b600082821015611e1157611e11611eac565b500390565b60005b83811015611e31578181015183820152602001611e19565b838111156105ca5750506000910152565b600181811c90821680611e5657607f821691505b60208210811415611e7757634e487b7160e01b600052602260045260246000fd5b50919050565b6000600019821415611e9157611e91611eac565b5060010190565b600082611ea757611ea7611ec2565b500690565b634e487b7160e01b600052601160045260246000fd5b634e487b7160e01b600052601260045260246000fd5b634e487b7160e01b600052604160045260246000fd5b6001600160e01b031981168114610bb357600080fdfea2646970667358221220a29ed52ab39db7742dfc3cb70285c067d51c4520cce59e3d6ba4460c4346879e64736f6c63430008040033",
  "linkReferences": {},
  "deployedLinkReferences": {}
}