{
  "_format": "hh-sol-artifact-1",
  "contractName": "ERC721WithData",
  "sourceName": "contracts/ERC721WithData.sol",
  "abi": [
    {
      "inputs": [
        {
          "internalType": "string",
          "name": "name",
          "type": "string"
        },
        {
          "internalType": "string",
          "name": "symbol",
          "type": "string"
        },
        {
          "internalType": "string",
          "name": "baseTokenURI",
          "type": "string"
        }
      ],
      "stateMutability": "nonpayable",
      "type": "constructor"
    },
    {
      "anonymous": false,
      "inputs": [
        {
          "indexed": true,
          "internalType": "address",
          "name": "owner",
          "type": "address"
        },
        {
          "indexed": true,
          "internalType": "address",
          "name": "approved",
          "type": "address"
        },
        {
          "indexed": true,
          "internalType": "uint256",
          "name": "tokenId",
          "type": "uint256"
        }
      ],
      "name": "Approval",
      "type": "event"
    },
    {
      "anonymous": false,
      "inputs": [
        {
          "indexed": true,
          "internalType": "address",
          "name": "owner",
          "type": "address"
        },
        {
          "indexed": true,
          "internalType": "address",
          "name": "operator",
          "type": "address"
        },
        {
          "indexed": false,
          "internalType": "bool",
          "name": "approved",
          "type": "bool"
        }
      ],
      "name": "ApprovalForAll",
      "type": "event"
    },
    {
      "anonymous": false,
      "inputs": [
        {
          "indexed": true,
          "internalType": "address",
          "name": "previousOwner",
          "type": "address"
        },
        {
          "indexed": true,
          "internalType": "address",
          "name": "newOwner",
          "type": "address"
        }
      ],
      "name": "OwnershipTransferred",
      "type": "event"
    },
    {
      "anonymous": false,
      "inputs": [
        {
          "indexed": true,
          "internalType": "address",
          "name": "from",
          "type": "address"
        },
        {
          "indexed": true,
          "internalType": "address",
          "name": "to",
          "type": "address"
        },
        {
          "indexed": true,
          "internalType": "uint256",
          "name": "tokenId",
          "type": "uint256"
        }
      ],
      "name": "Transfer",
      "type": "event"
    },
    {
      "inputs": [
        {
          "internalType": "address",
          "name": "to",
          "type": "address"
        },
        {
          "internalType": "uint256",
          "name": "tokenId",
          "type": "uint256"
        }
      ],
      "name": "approve",
      "outputs": [],
      "stateMutability": "nonpayable",
      "type": "function"
    },
    {
      "inputs": [
        {
          "internalType": "address",
          "name": "to",
          "type": "address"
        },
        {
          "internalType": "uint256",
          "name": "tokenId",
          "type": "uint256"
        },
        {
          "internalType": "bytes",
          "name": "data",
          "type": "bytes"
        }
      ],
      "name": "approveWithData",
      "outputs": [],
      "stateMutability": "nonpayable",
      "type": "function"
    },
    {
      "inputs": [
        {
          "internalType": "address",
          "name": "owner",
          "type": "address"
        }
      ],
      "name": "balanceOf",
      "outputs": [
        {
          "internalType": "uint256",
          "name": "",
          "type": "uint256"
        }
      ],
      "stateMutability": "view",
      "type": "function"
    },
    {
      "inputs": [],
      "name": "baseTokenUri",
      "outputs": [
        {
          "internalType": "string",
          "name": "",
          "type": "string"
        }
      ],
      "stateMutability": "view",
      "type": "function"
    },
    {
      "inputs": [
        {
          "internalType": "address",
          "name": "from",
          "type": "address"
        },
        {
          "internalType": "uint256",
          "name": "tokenId",
          "type": "uint256"
        },
        {
          "internalType": "bytes",
          "name": "data",
          "type": "bytes"
        }
      ],
      "name": "burnWithData",
      "outputs": [],
      "stateMutability": "nonpayable",
      "type": "function"
    },
    {
      "inputs": [
        {
          "internalType": "uint256",
          "name": "tokenId",
          "type": "uint256"
        }
      ],
      "name": "getApproved",
      "outputs": [
        {
          "internalType": "address",
          "name": "",
          "type": "address"
        }
      ],
      "stateMutability": "view",
      "type": "function"
    },
    {
      "inputs": [
        {
          "internalType": "address",
          "name": "owner",
          "type": "address"
        },
        {
          "internalType": "address",
          "name": "operator",
          "type": "address"
        }
      ],
      "name": "isApprovedForAll",
      "outputs": [
        {
          "internalType": "bool",
          "name": "",
          "type": "bool"
        }
      ],
      "stateMutability": "view",
      "type": "function"
    },
    {
      "inputs": [
        {
          "internalType": "address",
          "name": "to",
          "type": "address"
        },
        {
          "internalType": "uint256",
          "name": "tokenId",
          "type": "uint256"
        },
        {
          "internalType": "bytes",
          "name": "data",
          "type": "bytes"
        }
      ],
      "name": "mintWithData",
      "outputs": [],
      "stateMutability": "nonpayable",
      "type": "function"
    },
    {
      "inputs": [
        {
          "internalType": "address",
          "name": "to",
          "type": "address"
        },
        {
          "internalType": "uint256",
          "name": "tokenId",
          "type": "uint256"
        },
        {
          "internalType": "bytes",
          "name": "data",
          "type": "bytes"
        },
        {
          "internalType": "string",
          "name": "tokenURI_",
          "type": "string"
        }
      ],
      "name": "mintWithURI",
      "outputs": [],
      "stateMutability": "nonpayable",
      "type": "function"
    },
    {
      "inputs": [],
      "name": "name",
      "outputs": [
        {
          "internalType": "string",
          "name": "",
          "type": "string"
        }
      ],
      "stateMutability": "view",
      "type": "function"
    },
    {
      "inputs": [],
      "name": "owner",
      "outputs": [
        {
          "internalType": "address",
          "name": "",
          "type": "address"
        }
      ],
      "stateMutability": "view",
      "type": "function"
    },
    {
      "inputs": [
        {
          "internalType": "uint256",
          "name": "tokenId",
          "type": "uint256"
        }
      ],
      "name": "ownerOf",
      "outputs": [
        {
          "internalType": "address",
          "name": "",
          "type": "address"
        }
      ],
      "stateMutability": "view",
      "type": "function"
    },
    {
      "inputs": [],
      "name": "renounceOwnership",
      "outputs": [],
      "stateMutability": "nonpayable",
      "type": "function"
    },
    {
      "inputs": [
        {
          "internalType": "address",
          "name": "from",
          "type": "address"
        },
        {
          "internalType": "address",
          "name": "to",
          "type": "address"
        },
        {
          "internalType": "uint256",
          "name": "tokenId",
          "type": "uint256"
        }
      ],
      "name": "safeTransferFrom",
      "outputs": [],
      "stateMutability": "nonpayable",
      "type": "function"
    },
    {
      "inputs": [
        {
          "internalType": "address",
          "name": "from",
          "type": "address"
        },
        {
          "internalType": "address",
          "name": "to",
          "type": "address"
        },
        {
          "internalType": "uint256",
          "name": "tokenId",
          "type": "uint256"
        },
        {
          "internalType": "bytes",
          "name": "_data",
          "type": "bytes"
        }
      ],
      "name": "safeTransferFrom",
      "outputs": [],
      "stateMutability": "nonpayable",
      "type": "function"
    },
    {
      "inputs": [
        {
          "internalType": "address",
          "name": "operator",
          "type": "address"
        },
        {
          "internalType": "bool",
          "name": "approved",
          "type": "bool"
        }
      ],
      "name": "setApprovalForAll",
      "outputs": [],
      "stateMutability": "nonpayable",
      "type": "function"
    },
    {
      "inputs": [
        {
          "internalType": "address",
          "name": "operator",
          "type": "address"
        },
        {
          "internalType": "bool",
          "name": "approved",
          "type": "bool"
        },
        {
          "internalType": "bytes",
          "name": "data",
          "type": "bytes"
        }
      ],
      "name": "setApprovalForAllWithData",
      "outputs": [],
      "stateMutability": "nonpayable",
      "type": "function"
    },
    {
      "inputs": [
        {
          "internalType": "bytes4",
          "name": "interfaceId",
          "type": "bytes4"
        }
      ],
      "name": "supportsInterface",
      "outputs": [
        {
          "internalType": "bool",
          "name": "",
          "type": "bool"
        }
      ],
      "stateMutability": "view",
      "type": "function"
    },
    {
      "inputs": [],
      "name": "symbol",
      "outputs": [
        {
          "internalType": "string",
          "name": "",
          "type": "string"
        }
      ],
      "stateMutability": "view",
      "type": "function"
    },
    {
      "inputs": [
        {
          "internalType": "uint256",
          "name": "tokenId",
          "type": "uint256"
        }
      ],
      "name": "tokenURI",
      "outputs": [
        {
          "internalType": "string",
          "name": "",
          "type": "string"
        }
      ],
      "stateMutability": "view",
      "type": "function"
    },
    {
      "inputs": [
        {
          "internalType": "address",
          "name": "from",
          "type": "address"
        },
        {
          "internalType": "address",
          "name": "to",
          "type": "address"
        },
        {
          "internalType": "uint256",
          "name": "tokenId",
          "type": "uint256"
        }
      ],
      "name": "transferFrom",
      "outputs": [],
      "stateMutability": "nonpayable",
      "type": "function"
    },
    {
      "inputs": [
        {
          "internalType": "address",
          "name": "newOwner",
          "type": "address"
        }
      ],
      "name": "transferOwnership",
      "outputs": [],
      "stateMutability": "nonpayable",
      "type": "function"
    },
    {
      "inputs": [
        {
          "internalType": "address",
          "name": "from",
          "type": "address"
        },
        {
          "internalType": "address",
          "name": "to",
          "type": "address"
        },
        {
          "internalType": "uint256",
          "name": "tokenId",
          "type": "uint256"
        },
        {
          "internalType": "bytes",
          "name": "data",
          "type": "bytes"
        }
      ],
      "name": "transferWithData",
      "outputs": [],
      "stateMutability": "nonpayable",
      "type": "function"
    }
  ],
  "bytecode": "0x60806040523480156200001157600080fd5b506040516200244938038062002449833981016040819052620000349162000237565b828262000041336200008e565b815162000056906001906020850190620000de565b5080516200006c906002906020840190620000de565b505081516200008491506007906020840190620000de565b5050505062000317565b600080546001600160a01b038381166001600160a01b0319831681178455604051919092169283917f8be0079c531659141344cd1fd0a4f28419497f9722a3daafe3b4186f6b6457e09190a35050565b828054620000ec90620002c4565b90600052602060002090601f0160209004810192826200011057600085556200015b565b82601f106200012b57805160ff19168380011785556200015b565b828001600101855582156200015b579182015b828111156200015b5782518255916020019190600101906200013e565b50620001699291506200016d565b5090565b5b808211156200016957600081556001016200016e565b600082601f83011262000195578081fd5b81516001600160401b0380821115620001b257620001b262000301565b604051601f8301601f19908116603f01168101908282118183101715620001dd57620001dd62000301565b81604052838152602092508683858801011115620001f9578485fd5b8491505b838210156200021c5785820183015181830184015290820190620001fd565b838211156200022d57848385830101525b9695505050505050565b6000806000606084860312156200024c578283fd5b83516001600160401b038082111562000263578485fd5b620002718783880162000184565b9450602086015191508082111562000287578384fd5b620002958783880162000184565b93506040860151915080821115620002ab578283fd5b50620002ba8682870162000184565b9150509250925092565b600181811c90821680620002d957607f821691505b60208210811415620002fb57634e487b7160e01b600052602260045260246000fd5b50919050565b634e487b7160e01b600052604160045260246000fd5b61212280620003276000396000f3fe608060405234801561001057600080fd5b506004361061018d5760003560e01c80637a0101a2116100e3578063a22cb4651161008c578063c87b56dd11610066578063c87b56dd1461032a578063e985e9c51461033d578063f2fde38b1461037957600080fd5b8063a22cb465146102f1578063b88d4fde14610304578063c0ea7a7a1461031757600080fd5b80638da5cb5b116100bd5780638da5cb5b146102c557806395d89b41146102d657806396adfe42146102de57600080fd5b80637a0101a2146102975780637b5eb5641461029f57806383e49c53146102b257600080fd5b806323b872dd116101455780636352211e1161011f5780636352211e1461025b57806370a082311461026e578063715018a61461028f57600080fd5b806323b872dd1461022257806342842e0e146102355780634f45edcd1461024857600080fd5b8063081812fc11610176578063081812fc146101cf578063095ea7b3146101fa5780631cbf311d1461020f57600080fd5b806301ffc9a71461019257806306fdde03146101ba575b600080fd5b6101a56101a0366004611ec1565b61038c565b60405190151581526020015b60405180910390f35b6101c26103d0565b6040516101b19190611fa8565b6101e26101dd366004611ef9565b610462565b6040516001600160a01b0390911681526020016101b1565b61020d610208366004611dc4565b6104fc565b005b61020d61021d366004611d65565b61062e565b61020d610230366004611c1b565b61063e565b61020d610243366004611c1b565b6106c5565b61020d610256366004611e2d565b6106e0565b6101e2610269366004611ef9565b6107d4565b61028161027c366004611bc8565b61085f565b6040519081526020016101b1565b61020d6108f9565b6101c261095f565b61020d6102ad366004611ded565b61096e565b61020d6102c0366004611ded565b610978565b6000546001600160a01b03166101e2565b6101c26109ff565b61020d6102ec366004611ded565b610a0e565b61020d6102ff366004611d3c565b610abe565b61020d610312366004611cc3565b610acd565b61020d610325366004611c56565b610b55565b6101c2610338366004611ef9565b610b9e565b6101a561034b366004611be9565b6001600160a01b03918216600090815260066020908152604080832093909416825291909152205460ff1690565b61020d610387366004611bc8565b610cb0565b60006001600160e01b031982167f8706707d0000000000000000000000000000000000000000000000000000000014806103ca57506103ca82610d92565b92915050565b6060600180546103df9061202a565b80601f016020809104026020016040519081016040528092919081815260200182805461040b9061202a565b80156104585780601f1061042d57610100808354040283529160200191610458565b820191906000526020600020905b81548152906001019060200180831161043b57829003601f168201915b5050505050905090565b6000818152600360205260408120546001600160a01b03166104e05760405162461bcd60e51b815260206004820152602c60248201527f4552433732313a20617070726f76656420717565727920666f72206e6f6e657860448201526b34b9ba32b73a103a37b5b2b760a11b60648201526084015b60405180910390fd5b506000908152600560205260409020546001600160a01b031690565b6000610507826107d4565b9050806001600160a01b0316836001600160a01b031614156105915760405162461bcd60e51b815260206004820152602160248201527f4552433732313a20617070726f76616c20746f2063757272656e74206f776e6560448201527f720000000000000000000000000000000000000000000000000000000000000060648201526084016104d7565b336001600160a01b03821614806105ad57506105ad813361034b565b61061f5760405162461bcd60e51b815260206004820152603860248201527f4552433732313a20617070726f76652063616c6c6572206973206e6f74206f7760448201527f6e6572206e6f7220617070726f76656420666f7220616c6c000000000000000060648201526084016104d7565b6106298383610e2d565b505050565b6106388484610abe565b50505050565b6106483382610e9b565b6106ba5760405162461bcd60e51b815260206004820152603160248201527f4552433732313a207472616e736665722063616c6c6572206973206e6f74206f60448201527f776e6572206e6f7220617070726f76656400000000000000000000000000000060648201526084016104d7565b610629838383610f92565b61062983838360405180602001604052806000815250610acd565b6000546001600160a01b0316331461073a5760405162461bcd60e51b815260206004820181905260248201527f4f776e61626c653a2063616c6c6572206973206e6f7420746865206f776e657260448201526064016104d7565b61077b858585858080601f01602080910402602001604051908101604052809392919081815260200183838082843760009201919091525061115f92505050565b805181906107c2576107bd8561078f6111dd565b61079888611346565b6040516020016107a9929190611f3d565b604051602081830303815290604052611494565b6107cc565b6107cc8583611494565b505050505050565b6000818152600360205260408120546001600160a01b0316806103ca5760405162461bcd60e51b815260206004820152602960248201527f4552433732313a206f776e657220717565727920666f72206e6f6e657869737460448201527f656e7420746f6b656e000000000000000000000000000000000000000000000060648201526084016104d7565b60006001600160a01b0382166108dd5760405162461bcd60e51b815260206004820152602a60248201527f4552433732313a2062616c616e636520717565727920666f7220746865207a6560448201527f726f20616464726573730000000000000000000000000000000000000000000060648201526084016104d7565b506001600160a01b031660009081526004602052604090205490565b6000546001600160a01b031633146109535760405162461bcd60e51b815260206004820181905260248201527f4f776e61626c653a2063616c6c6572206973206e6f7420746865206f776e657260448201526064016104d7565b61095d600061157d565b565b60606109696111dd565b905090565b61063884846104fc565b6001600160a01b03841633146109f65760405162461bcd60e51b815260206004820152602360248201527f45524337323157697468446174613a2063616c6c6572206973206e6f74206f7760448201527f6e6572000000000000000000000000000000000000000000000000000000000060648201526084016104d7565b610638836115cd565b6060600280546103df9061202a565b6000546001600160a01b03163314610a685760405162461bcd60e51b815260206004820181905260248201527f4f776e61626c653a2063616c6c6572206973206e6f7420746865206f776e657260448201526064016104d7565b610aa9848484848080601f01602080910402602001604051908101604052809392919081815260200183838082843760009201919091525061115f92505050565b61063883610ab56111dd565b61079886611346565b610ac9338383611668565b5050565b610ad73383610e9b565b610b495760405162461bcd60e51b815260206004820152603160248201527f4552433732313a207472616e736665722063616c6c6572206973206e6f74206f60448201527f776e6572206e6f7220617070726f76656400000000000000000000000000000060648201526084016104d7565b61063884848484611737565b610b9785858585858080601f016020809104026020016040519081016040528093929190818152602001838380828437600092019190915250610acd92505050565b5050505050565b6000818152600360205260409020546060906001600160a01b0316610c115760405162461bcd60e51b8152602060048201526024808201527f45524337323157697468446174613a20546f6b656e20646f6573206e6f7420656044820152631e1a5cdd60e21b60648201526084016104d7565b60008281526008602052604081208054610c2a9061202a565b80601f0160208091040260200160405190810160405280929190818152602001828054610c569061202a565b8015610ca35780601f10610c7857610100808354040283529160200191610ca3565b820191906000526020600020905b815481529060010190602001808311610c8657829003601f168201915b5093979650505050505050565b6000546001600160a01b03163314610d0a5760405162461bcd60e51b815260206004820181905260248201527f4f776e61626c653a2063616c6c6572206973206e6f7420746865206f776e657260448201526064016104d7565b6001600160a01b038116610d865760405162461bcd60e51b815260206004820152602660248201527f4f776e61626c653a206e6577206f776e657220697320746865207a65726f206160448201527f646472657373000000000000000000000000000000000000000000000000000060648201526084016104d7565b610d8f8161157d565b50565b60006001600160e01b031982167f80ac58cd000000000000000000000000000000000000000000000000000000001480610df557506001600160e01b031982167f5b5e139f00000000000000000000000000000000000000000000000000000000145b806103ca57507f01ffc9a7000000000000000000000000000000000000000000000000000000006001600160e01b03198316146103ca565b600081815260056020526040902080546001600160a01b0319166001600160a01b0384169081179091558190610e62826107d4565b6001600160a01b03167f8c5be1e5ebec7d5bd14f71427d1e84f3dd0314c0f7b2291e5b200ac8c7c3b92560405160405180910390a45050565b6000818152600360205260408120546001600160a01b0316610f145760405162461bcd60e51b815260206004820152602c60248201527f4552433732313a206f70657261746f7220717565727920666f72206e6f6e657860448201526b34b9ba32b73a103a37b5b2b760a11b60648201526084016104d7565b6000610f1f836107d4565b9050806001600160a01b0316846001600160a01b03161480610f5a5750836001600160a01b0316610f4f84610462565b6001600160a01b0316145b80610f8a57506001600160a01b0380821660009081526006602090815260408083209388168352929052205460ff165b949350505050565b826001600160a01b0316610fa5826107d4565b6001600160a01b0316146110215760405162461bcd60e51b815260206004820152602560248201527f4552433732313a207472616e736665722066726f6d20696e636f72726563742060448201527f6f776e657200000000000000000000000000000000000000000000000000000060648201526084016104d7565b6001600160a01b03821661109c5760405162461bcd60e51b8152602060048201526024808201527f4552433732313a207472616e7366657220746f20746865207a65726f2061646460448201527f726573730000000000000000000000000000000000000000000000000000000060648201526084016104d7565b6110a7600082610e2d565b6001600160a01b03831660009081526004602052604081208054600192906110d0908490611fe7565b90915550506001600160a01b03821660009081526004602052604081208054600192906110fe908490611fbb565b909155505060008181526003602052604080822080546001600160a01b0319166001600160a01b0386811691821790925591518493918716917fddf252ad1be2c89b69c2b068fc378daa952ba7f163c4a11628f55a4df523b3ef91a4505050565b61116983836117b5565b61117660008484846118f7565b6106295760405162461bcd60e51b815260206004820152603260248201527f4552433732313a207472616e7366657220746f206e6f6e20455243373231526560448201527131b2b4bb32b91034b6b83632b6b2b73a32b960711b60648201526084016104d7565b60606000600780546111ee9061202a565b80601f016020809104026020016040519081016040528092919081815260200182805461121a9061202a565b80156112675780601f1061123c57610100808354040283529160200191611267565b820191906000526020600020905b81548152906001019060200180831161124a57829003601f168201915b505050505090508051600014156112b157505060408051808201909152601081527f66697265666c793a2f2f746f6b656e2f00000000000000000000000000000000602082015290565b600780546112be9061202a565b80601f01602080910402602001604051908101604052809291908181526020018280546112ea9061202a565b80156113375780601f1061130c57610100808354040283529160200191611337565b820191906000526020600020905b81548152906001019060200180831161131a57829003601f168201915b505050505091505090565b5090565b60608161138657505060408051808201909152600181527f3000000000000000000000000000000000000000000000000000000000000000602082015290565b8160005b81156113b0578061139a81612065565b91506113a99050600a83611fd3565b915061138a565b60008167ffffffffffffffff8111156113d957634e487b7160e01b600052604160045260246000fd5b6040519080825280601f01601f191660200182016040528015611403576020820181803683370190505b5090505b8415610f8a57611418600183611fe7565b9150611425600a86612080565b611430906030611fbb565b60f81b81838151811061145357634e487b7160e01b600052603260045260246000fd5b60200101907effffffffffffffffffffffffffffffffffffffffffffffffffffffffffffff1916908160001a90535061148d600a86611fd3565b9450611407565b6000546001600160a01b031633146114ee5760405162461bcd60e51b815260206004820181905260248201527f4f776e61626c653a2063616c6c6572206973206e6f7420746865206f776e657260448201526064016104d7565b6000828152600360205260409020546001600160a01b031661155e5760405162461bcd60e51b8152602060048201526024808201527f45524337323157697468446174613a20546f6b656e20646f6573206e6f7420656044820152631e1a5cdd60e21b60648201526084016104d7565b6000828152600860209081526040909120825161062992840190611a4f565b600080546001600160a01b038381166001600160a01b0319831681178455604051919092169283917f8be0079c531659141344cd1fd0a4f28419497f9722a3daafe3b4186f6b6457e09190a35050565b60006115d8826107d4565b90506115e5600083610e2d565b6001600160a01b038116600090815260046020526040812080546001929061160e908490611fe7565b909155505060008281526003602052604080822080546001600160a01b0319169055518391906001600160a01b038416907fddf252ad1be2c89b69c2b068fc378daa952ba7f163c4a11628f55a4df523b3ef908390a45050565b816001600160a01b0316836001600160a01b031614156116ca5760405162461bcd60e51b815260206004820152601960248201527f4552433732313a20617070726f766520746f2063616c6c65720000000000000060448201526064016104d7565b6001600160a01b03838116600081815260066020908152604080832094871680845294825291829020805460ff191686151590811790915591519182527f17307eab39ab6107e8899845ad3d59bd9653f200f220920489ca2b5937696c31910160405180910390a3505050565b611742848484610f92565b61174e848484846118f7565b6106385760405162461bcd60e51b815260206004820152603260248201527f4552433732313a207472616e7366657220746f206e6f6e20455243373231526560448201527131b2b4bb32b91034b6b83632b6b2b73a32b960711b60648201526084016104d7565b6001600160a01b03821661180b5760405162461bcd60e51b815260206004820181905260248201527f4552433732313a206d696e7420746f20746865207a65726f206164647265737360448201526064016104d7565b6000818152600360205260409020546001600160a01b0316156118705760405162461bcd60e51b815260206004820152601c60248201527f4552433732313a20746f6b656e20616c7265616479206d696e7465640000000060448201526064016104d7565b6001600160a01b0382166000908152600460205260408120805460019290611899908490611fbb565b909155505060008181526003602052604080822080546001600160a01b0319166001600160a01b03861690811790915590518392907fddf252ad1be2c89b69c2b068fc378daa952ba7f163c4a11628f55a4df523b3ef908290a45050565b60006001600160a01b0384163b15611a4457604051630a85bd0160e11b81526001600160a01b0385169063150b7a029061193b903390899088908890600401611f6c565b602060405180830381600087803b15801561195557600080fd5b505af1925050508015611985575060408051601f3d908101601f1916820190925261198291810190611edd565b60015b611a2a573d8080156119b3576040519150601f19603f3d011682016040523d82523d6000602084013e6119b8565b606091505b508051611a225760405162461bcd60e51b815260206004820152603260248201527f4552433732313a207472616e7366657220746f206e6f6e20455243373231526560448201527131b2b4bb32b91034b6b83632b6b2b73a32b960711b60648201526084016104d7565b805181602001fd5b6001600160e01b031916630a85bd0160e11b149050610f8a565b506001949350505050565b828054611a5b9061202a565b90600052602060002090601f016020900481019282611a7d5760008555611ac3565b82601f10611a9657805160ff1916838001178555611ac3565b82800160010185558215611ac3579182015b82811115611ac3578251825591602001919060010190611aa8565b506113429291505b808211156113425760008155600101611acb565b600067ffffffffffffffff80841115611afa57611afa6120c0565b604051601f8501601f19908116603f01168101908282118183101715611b2257611b226120c0565b81604052809350858152868686011115611b3b57600080fd5b858560208301376000602087830101525050509392505050565b80356001600160a01b0381168114611b6c57600080fd5b919050565b80358015158114611b6c57600080fd5b60008083601f840112611b92578182fd5b50813567ffffffffffffffff811115611ba9578182fd5b602083019150836020828501011115611bc157600080fd5b9250929050565b600060208284031215611bd9578081fd5b611be282611b55565b9392505050565b60008060408385031215611bfb578081fd5b611c0483611b55565b9150611c1260208401611b55565b90509250929050565b600080600060608486031215611c2f578081fd5b611c3884611b55565b9250611c4660208501611b55565b9150604084013590509250925092565b600080600080600060808688031215611c6d578081fd5b611c7686611b55565b9450611c8460208701611b55565b935060408601359250606086013567ffffffffffffffff811115611ca6578182fd5b611cb288828901611b81565b969995985093965092949392505050565b60008060008060808587031215611cd8578384fd5b611ce185611b55565b9350611cef60208601611b55565b925060408501359150606085013567ffffffffffffffff811115611d11578182fd5b8501601f81018713611d21578182fd5b611d3087823560208401611adf565b91505092959194509250565b60008060408385031215611d4e578182fd5b611d5783611b55565b9150611c1260208401611b71565b60008060008060608587031215611d7a578384fd5b611d8385611b55565b9350611d9160208601611b71565b9250604085013567ffffffffffffffff811115611dac578283fd5b611db887828801611b81565b95989497509550505050565b60008060408385031215611dd6578182fd5b611ddf83611b55565b946020939093013593505050565b60008060008060608587031215611e02578384fd5b611e0b85611b55565b935060208501359250604085013567ffffffffffffffff811115611dac578283fd5b600080600080600060808688031215611e44578081fd5b611e4d86611b55565b945060208601359350604086013567ffffffffffffffff80821115611e70578283fd5b611e7c89838a01611b81565b90955093506060880135915080821115611e94578283fd5b508601601f81018813611ea5578182fd5b611eb488823560208401611adf565b9150509295509295909350565b600060208284031215611ed2578081fd5b8135611be2816120d6565b600060208284031215611eee578081fd5b8151611be2816120d6565b600060208284031215611f0a578081fd5b5035919050565b60008151808452611f29816020860160208601611ffe565b601f01601f19169290920160200192915050565b60008351611f4f818460208801611ffe565b835190830190611f63818360208801611ffe565b01949350505050565b60006001600160a01b03808716835280861660208401525083604083015260806060830152611f9e6080830184611f11565b9695505050505050565b602081526000611be26020830184611f11565b60008219821115611fce57611fce612094565b500190565b600082611fe257611fe26120aa565b500490565b600082821015611ff957611ff9612094565b500390565b60005b83811015612019578181015183820152602001612001565b838111156106385750506000910152565b600181811c9082168061203e57607f821691505b6020821081141561205f57634e487b7160e01b600052602260045260246000fd5b50919050565b600060001982141561207957612079612094565b5060010190565b60008261208f5761208f6120aa565b500690565b634e487b7160e01b600052601160045260246000fd5b634e487b7160e01b600052601260045260246000fd5b634e487b7160e01b600052604160045260246000fd5b6001600160e01b031981168114610d8f57600080fdfea2646970667358221220dc01931d0d1228fb7829f8ac9cccfff520a04bb8f6ce1bf40bde9fa12c0a7e3264736f6c63430008040033",
  "linkReferences": {},
  "deployedLinkReferences": {}
}