{
  "_format": "hh-sol-artifact-1",
  "contractName": "ERC721NoData",
  "sourceName": "contracts/ERC721NoData.sol",
  "abi": [
    {
      "inputs": [
        {
          "internalType": "string",
          "name": "name",
          "type": "string"
        },
        {
          "internalType": "string",
          "name": "symbol",
          "type": "string"
        }
      ],
      "stateMutability": "nonpayable",
      "type": "constructor"
    },
    {
      "anonymous": false,
      "inputs": [
        {
          "indexed": true,
          "internalType": "address",
          "name": "owner",
          "type": "address"
        },
        {
          "indexed": true,
          "internalType": "address",
          "name": "approved",
          "type": "address"
        },
        {
          "indexed": true,
          "internalType": "uint256",
          "name": "tokenId",
          "type": "uint256"
        }
      ],
      "name": "Approval",
      "type": "event"
    },
    {
      "anonymous": false,
      "inputs": [
        {
          "indexed": true,
          "internalType": "address",
          "name": "owner",
          "type": "address"
        },
        {
          "indexed": true,
          "internalType": "address",
          "name": "operator",
          "type": "address"
        },
        {
          "indexed": false,
          "internalType": "bool",
          "name": "approved",
          "type": "bool"
        }
      ],
      "name": "ApprovalForAll",
      "type": "event"
    },
    {
      "anonymous": false,
      "inputs": [
        {
          "indexed": true,
          "internalType": "address",
          "name": "previousOwner",
          "type": "address"
        },
        {
          "indexed": true,
          "internalType": "address",
          "name": "newOwner",
          "type": "address"
        }
      ],
      "name": "OwnershipTransferred",
      "type": "event"
    },
    {
      "anonymous": false,
      "inputs": [
        {
          "indexed": true,
          "internalType": "address",
          "name": "from",
          "type": "address"
        },
        {
          "indexed": true,
          "internalType": "address",
          "name": "to",
          "type": "address"
        },
        {
          "indexed": true,
          "internalType": "uint256",
          "name": "tokenId",
          "type": "uint256"
        }
      ],
      "name": "Transfer",
      "type": "event"
    },
    {
      "inputs": [
        {
          "internalType": "address",
          "name": "to",
          "type": "address"
        },
        {
          "internalType": "uint256",
          "name": "tokenId",
          "type": "uint256"
        }
      ],
      "name": "approve",
      "outputs": [],
      "stateMutability": "nonpayable",
      "type": "function"
    },
    {
      "inputs": [
        {
          "internalType": "address",
          "name": "owner",
          "type": "address"
        }
      ],
      "name": "balanceOf",
      "outputs": [
        {
          "internalType": "uint256",
          "name": "",
          "type": "uint256"
        }
      ],
      "stateMutability": "view",
      "type": "function"
    },
    {
      "inputs": [
        {
          "internalType": "uint256",
          "name": "tokenId",
          "type": "uint256"
        }
      ],
      "name": "burn",
      "outputs": [],
      "stateMutability": "nonpayable",
      "type": "function"
    },
    {
      "inputs": [
        {
          "internalType": "uint256",
          "name": "tokenId",
          "type": "uint256"
        }
      ],
      "name": "getApproved",
      "outputs": [
        {
          "internalType": "address",
          "name": "",
          "type": "address"
        }
      ],
      "stateMutability": "view",
      "type": "function"
    },
    {
      "inputs": [
        {
          "internalType": "address",
          "name": "owner",
          "type": "address"
        },
        {
          "internalType": "address",
          "name": "operator",
          "type": "address"
        }
      ],
      "name": "isApprovedForAll",
      "outputs": [
        {
          "internalType": "bool",
          "name": "",
          "type": "bool"
        }
      ],
      "stateMutability": "view",
      "type": "function"
    },
    {
      "inputs": [],
      "name": "name",
      "outputs": [
        {
          "internalType": "string",
          "name": "",
          "type": "string"
        }
      ],
      "stateMutability": "view",
      "type": "function"
    },
    {
      "inputs": [],
      "name": "owner",
      "outputs": [
        {
          "internalType": "address",
          "name": "",
          "type": "address"
        }
      ],
      "stateMutability": "view",
      "type": "function"
    },
    {
      "inputs": [
        {
          "internalType": "uint256",
          "name": "tokenId",
          "type": "uint256"
        }
      ],
      "name": "ownerOf",
      "outputs": [
        {
          "internalType": "address",
          "name": "",
          "type": "address"
        }
      ],
      "stateMutability": "view",
      "type": "function"
    },
    {
      "inputs": [],
      "name": "renounceOwnership",
      "outputs": [],
      "stateMutability": "nonpayable",
      "type": "function"
    },
    {
      "inputs": [
        {
          "internalType": "address",
          "name": "to",
          "type": "address"
        }
      ],
      "name": "safeMint",
      "outputs": [],
      "stateMutability": "nonpayable",
      "type": "function"
    },
    {
      "inputs": [
        {
          "internalType": "address",
          "name": "from",
          "type": "address"
        },
        {
          "internalType": "address",
          "name": "to",
          "type": "address"
        },
        {
          "internalType": "uint256",
          "name": "tokenId",
          "type": "uint256"
        }
      ],
      "name": "safeTransferFrom",
      "outputs": [],
      "stateMutability": "nonpayable",
      "type": "function"
    },
    {
      "inputs": [
        {
          "internalType": "address",
          "name": "from",
          "type": "address"
        },
        {
          "internalType": "address",
          "name": "to",
          "type": "address"
        },
        {
          "internalType": "uint256",
          "name": "tokenId",
          "type": "uint256"
        },
        {
          "internalType": "bytes",
          "name": "data",
          "type": "bytes"
        }
      ],
      "name": "safeTransferFrom",
      "outputs": [],
      "stateMutability": "nonpayable",
      "type": "function"
    },
    {
      "inputs": [
        {
          "internalType": "address",
          "name": "operator",
          "type": "address"
        },
        {
          "internalType": "bool",
          "name": "approved",
          "type": "bool"
        }
      ],
      "name": "setApprovalForAll",
      "outputs": [],
      "stateMutability": "nonpayable",
      "type": "function"
    },
    {
      "inputs": [
        {
          "internalType": "bytes4",
          "name": "interfaceId",
          "type": "bytes4"
        }
      ],
      "name": "supportsInterface",
      "outputs": [
        {
          "internalType": "bool",
          "name": "",
          "type": "bool"
        }
      ],
      "stateMutability": "view",
      "type": "function"
    },
    {
      "inputs": [],
      "name": "symbol",
      "outputs": [
        {
          "internalType": "string",
          "name": "",
          "type": "string"
        }
      ],
      "stateMutability": "view",
      "type": "function"
    },
    {
      "inputs": [
        {
          "internalType": "uint256",
          "name": "tokenId",
          "type": "uint256"
        }
      ],
      "name": "tokenURI",
      "outputs": [
        {
          "internalType": "string",
          "name": "",
          "type": "string"
        }
      ],
      "stateMutability": "view",
      "type": "function"
    },
    {
      "inputs": [
        {
          "internalType": "address",
          "name": "from",
          "type": "address"
        },
        {
          "internalType": "address",
          "name": "to",
          "type": "address"
        },
        {
          "internalType": "uint256",
          "name": "tokenId",
          "type": "uint256"
        }
      ],
      "name": "transferFrom",
      "outputs": [],
      "stateMutability": "nonpayable",
      "type": "function"
    },
    {
      "inputs": [
        {
          "internalType": "address",
          "name": "newOwner",
          "type": "address"
        }
      ],
      "name": "transferOwnership",
      "outputs": [],
      "stateMutability": "nonpayable",
      "type": "function"
    }
  ],
  "bytecode": "0x60806040523480156200001157600080fd5b5060405162001ad338038062001ad3833981016040819052620000349162000220565b8181620000413362000077565b815162000056906001906020850190620000c7565b5080516200006c906002906020840190620000c7565b5050505050620002da565b600080546001600160a01b038381166001600160a01b0319831681178455604051919092169283917f8be0079c531659141344cd1fd0a4f28419497f9722a3daafe3b4186f6b6457e09190a35050565b828054620000d59062000287565b90600052602060002090601f016020900481019282620000f9576000855562000144565b82601f106200011457805160ff191683800117855562000144565b8280016001018555821562000144579182015b828111156200014457825182559160200191906001019062000127565b506200015292915062000156565b5090565b5b8082111562000152576000815560010162000157565b600082601f8301126200017e578081fd5b81516001600160401b03808211156200019b576200019b620002c4565b604051601f8301601f19908116603f01168101908282118183101715620001c657620001c6620002c4565b81604052838152602092508683858801011115620001e2578485fd5b8491505b83821015620002055785820183015181830184015290820190620001e6565b838211156200021657848385830101525b9695505050505050565b6000806040838503121562000233578182fd5b82516001600160401b03808211156200024a578384fd5b62000258868387016200016d565b935060208501519150808211156200026e578283fd5b506200027d858286016200016d565b9150509250929050565b600181811c908216806200029c57607f821691505b60208210811415620002be57634e487b7160e01b600052602260045260246000fd5b50919050565b634e487b7160e01b600052604160045260246000fd5b6117e980620002ea6000396000f3fe608060405234801561001057600080fd5b50600436106101365760003560e01c806370a08231116100b2578063a22cb46511610081578063c87b56dd11610066578063c87b56dd1461027f578063e985e9c514610292578063f2fde38b146102ce57600080fd5b8063a22cb46514610259578063b88d4fde1461026c57600080fd5b806370a0823114610217578063715018a6146102385780638da5cb5b1461024057806395d89b411461025157600080fd5b806323b872dd1161010957806342842e0e116100ee57806342842e0e146101de57806342966c68146101f15780636352211e1461020457600080fd5b806323b872dd146101b857806340d097c3146101cb57600080fd5b806301ffc9a71461013b57806306fdde0314610163578063081812fc14610178578063095ea7b3146101a3575b600080fd5b61014e610149366004611588565b6102e1565b60405190151581526020015b60405180910390f35b61016b61037e565b60405161015a919061166f565b61018b6101863660046115c0565b610410565b6040516001600160a01b03909116815260200161015a565b6101b66101b136600461155f565b610437565b005b6101b66101c6366004611415565b61056e565b6101b66101d93660046113c9565b6105e7565b6101b66101ec366004611415565b610618565b6101b66101ff3660046115c0565b610633565b61018b6102123660046115c0565b6106ab565b61022a6102253660046113c9565b610710565b60405190815260200161015a565b6101b66107aa565b6000546001600160a01b031661018b565b61016b6107be565b6101b6610267366004611525565b6107cd565b6101b661027a366004611450565b6107d8565b61016b61028d3660046115c0565b610857565b61014e6102a03660046113e3565b6001600160a01b03918216600090815260066020908152604080832093909416825291909152205460ff1690565b6101b66102dc3660046113c9565b6108f0565b60006001600160e01b031982167f80ac58cd00000000000000000000000000000000000000000000000000000000148061034457506001600160e01b031982167f5b5e139f00000000000000000000000000000000000000000000000000000000145b8061037857507f01ffc9a7000000000000000000000000000000000000000000000000000000006001600160e01b03198316145b92915050565b60606001805461038d906116f1565b80601f01602080910402602001604051908101604052809291908181526020018280546103b9906116f1565b80156104065780601f106103db57610100808354040283529160200191610406565b820191906000526020600020905b8154815290600101906020018083116103e957829003601f168201915b5050505050905090565b600061041b8261097d565b506000908152600560205260409020546001600160a01b031690565b6000610442826106ab565b9050806001600160a01b0316836001600160a01b031614156104d15760405162461bcd60e51b815260206004820152602160248201527f4552433732313a20617070726f76616c20746f2063757272656e74206f776e6560448201527f720000000000000000000000000000000000000000000000000000000000000060648201526084015b60405180910390fd5b336001600160a01b03821614806104ed57506104ed81336102a0565b61055f5760405162461bcd60e51b815260206004820152603e60248201527f4552433732313a20617070726f76652063616c6c6572206973206e6f7420746f60448201527f6b656e206f776e6572206e6f7220617070726f76656420666f7220616c6c000060648201526084016104c8565b61056983836109e1565b505050565b610579335b82610a4f565b6105dc5760405162461bcd60e51b815260206004820152602e60248201527f4552433732313a2063616c6c6572206973206e6f7420746f6b656e206f776e6560448201526d1c881b9bdc88185c1c1c9bdd995960921b60648201526084016104c8565b610569838383610ace565b6105ef610c9b565b60006105fa60075490565b905061060a600780546001019055565b6106148282610cf5565b5050565b610569838383604051806020016040528060008152506107d8565b61063c33610573565b61069f5760405162461bcd60e51b815260206004820152602e60248201527f4552433732313a2063616c6c6572206973206e6f7420746f6b656e206f776e6560448201526d1c881b9bdc88185c1c1c9bdd995960921b60648201526084016104c8565b6106a881610d0f565b50565b6000818152600360205260408120546001600160a01b0316806103785760405162461bcd60e51b815260206004820152601860248201527f4552433732313a20696e76616c696420746f6b656e204944000000000000000060448201526064016104c8565b60006001600160a01b03821661078e5760405162461bcd60e51b815260206004820152602960248201527f4552433732313a2061646472657373207a65726f206973206e6f74206120766160448201527f6c6964206f776e6572000000000000000000000000000000000000000000000060648201526084016104c8565b506001600160a01b031660009081526004602052604090205490565b6107b2610c9b565b6107bc6000610daa565b565b60606002805461038d906116f1565b610614338383610dfa565b6107e23383610a4f565b6108455760405162461bcd60e51b815260206004820152602e60248201527f4552433732313a2063616c6c6572206973206e6f7420746f6b656e206f776e6560448201526d1c881b9bdc88185c1c1c9bdd995960921b60648201526084016104c8565b61085184848484610ec9565b50505050565b60606108628261097d565b600061089e60408051808201909152601081527f66697265666c793a2f2f746f6b656e2f00000000000000000000000000000000602082015290565b905060008151116108be57604051806020016040528060008152506108e9565b806108c884610f47565b6040516020016108d9929190611604565b6040516020818303038152906040525b9392505050565b6108f8610c9b565b6001600160a01b0381166109745760405162461bcd60e51b815260206004820152602660248201527f4f776e61626c653a206e6577206f776e657220697320746865207a65726f206160448201527f646472657373000000000000000000000000000000000000000000000000000060648201526084016104c8565b6106a881610daa565b6000818152600360205260409020546001600160a01b03166106a85760405162461bcd60e51b815260206004820152601860248201527f4552433732313a20696e76616c696420746f6b656e204944000000000000000060448201526064016104c8565b600081815260056020526040902080546001600160a01b0319166001600160a01b0384169081179091558190610a16826106ab565b6001600160a01b03167f8c5be1e5ebec7d5bd14f71427d1e84f3dd0314c0f7b2291e5b200ac8c7c3b92560405160405180910390a45050565b600080610a5b836106ab565b9050806001600160a01b0316846001600160a01b03161480610aa257506001600160a01b0380821660009081526006602090815260408083209388168352929052205460ff165b80610ac65750836001600160a01b0316610abb84610410565b6001600160a01b0316145b949350505050565b826001600160a01b0316610ae1826106ab565b6001600160a01b031614610b5d5760405162461bcd60e51b815260206004820152602560248201527f4552433732313a207472616e736665722066726f6d20696e636f72726563742060448201527f6f776e657200000000000000000000000000000000000000000000000000000060648201526084016104c8565b6001600160a01b038216610bd85760405162461bcd60e51b8152602060048201526024808201527f4552433732313a207472616e7366657220746f20746865207a65726f2061646460448201527f726573730000000000000000000000000000000000000000000000000000000060648201526084016104c8565b610be36000826109e1565b6001600160a01b0383166000908152600460205260408120805460019290610c0c9084906116ae565b90915550506001600160a01b0382166000908152600460205260408120805460019290610c3a908490611682565b909155505060008181526003602052604080822080546001600160a01b0319166001600160a01b0386811691821790925591518493918716917fddf252ad1be2c89b69c2b068fc378daa952ba7f163c4a11628f55a4df523b3ef91a4505050565b6000546001600160a01b031633146107bc5760405162461bcd60e51b815260206004820181905260248201527f4f776e61626c653a2063616c6c6572206973206e6f7420746865206f776e657260448201526064016104c8565b610614828260405180602001604052806000815250611095565b6000610d1a826106ab565b9050610d276000836109e1565b6001600160a01b0381166000908152600460205260408120805460019290610d509084906116ae565b909155505060008281526003602052604080822080546001600160a01b0319169055518391906001600160a01b038416907fddf252ad1be2c89b69c2b068fc378daa952ba7f163c4a11628f55a4df523b3ef908390a45050565b600080546001600160a01b038381166001600160a01b0319831681178455604051919092169283917f8be0079c531659141344cd1fd0a4f28419497f9722a3daafe3b4186f6b6457e09190a35050565b816001600160a01b0316836001600160a01b03161415610e5c5760405162461bcd60e51b815260206004820152601960248201527f4552433732313a20617070726f766520746f2063616c6c65720000000000000060448201526064016104c8565b6001600160a01b03838116600081815260066020908152604080832094871680845294825291829020805460ff191686151590811790915591519182527f17307eab39ab6107e8899845ad3d59bd9653f200f220920489ca2b5937696c31910160405180910390a3505050565b610ed4848484610ace565b610ee084848484611113565b6108515760405162461bcd60e51b815260206004820152603260248201527f4552433732313a207472616e7366657220746f206e6f6e20455243373231526560448201527131b2b4bb32b91034b6b83632b6b2b73a32b960711b60648201526084016104c8565b606081610f8757505060408051808201909152600181527f3000000000000000000000000000000000000000000000000000000000000000602082015290565b8160005b8115610fb15780610f9b8161172c565b9150610faa9050600a8361169a565b9150610f8b565b60008167ffffffffffffffff811115610fda57634e487b7160e01b600052604160045260246000fd5b6040519080825280601f01601f191660200182016040528015611004576020820181803683370190505b5090505b8415610ac6576110196001836116ae565b9150611026600a86611747565b611031906030611682565b60f81b81838151811061105457634e487b7160e01b600052603260045260246000fd5b60200101907effffffffffffffffffffffffffffffffffffffffffffffffffffffffffffff1916908160001a90535061108e600a8661169a565b9450611008565b61109f838361126b565b6110ac6000848484611113565b6105695760405162461bcd60e51b815260206004820152603260248201527f4552433732313a207472616e7366657220746f206e6f6e20455243373231526560448201527131b2b4bb32b91034b6b83632b6b2b73a32b960711b60648201526084016104c8565b60006001600160a01b0384163b1561126057604051630a85bd0160e11b81526001600160a01b0385169063150b7a0290611157903390899088908890600401611633565b602060405180830381600087803b15801561117157600080fd5b505af19250505080156111a1575060408051601f3d908101601f1916820190925261119e918101906115a4565b60015b611246573d8080156111cf576040519150601f19603f3d011682016040523d82523d6000602084013e6111d4565b606091505b50805161123e5760405162461bcd60e51b815260206004820152603260248201527f4552433732313a207472616e7366657220746f206e6f6e20455243373231526560448201527131b2b4bb32b91034b6b83632b6b2b73a32b960711b60648201526084016104c8565b805181602001fd5b6001600160e01b031916630a85bd0160e11b149050610ac6565b506001949350505050565b6001600160a01b0382166112c15760405162461bcd60e51b815260206004820181905260248201527f4552433732313a206d696e7420746f20746865207a65726f206164647265737360448201526064016104c8565b6000818152600360205260409020546001600160a01b0316156113265760405162461bcd60e51b815260206004820152601c60248201527f4552433732313a20746f6b656e20616c7265616479206d696e7465640000000060448201526064016104c8565b6001600160a01b038216600090815260046020526040812080546001929061134f908490611682565b909155505060008181526003602052604080822080546001600160a01b0319166001600160a01b03861690811790915590518392907fddf252ad1be2c89b69c2b068fc378daa952ba7f163c4a11628f55a4df523b3ef908290a45050565b80356001600160a01b03811681146113c457600080fd5b919050565b6000602082840312156113da578081fd5b6108e9826113ad565b600080604083850312156113f5578081fd5b6113fe836113ad565b915061140c602084016113ad565b90509250929050565b600080600060608486031215611429578081fd5b611432846113ad565b9250611440602085016113ad565b9150604084013590509250925092565b60008060008060808587031215611465578081fd5b61146e856113ad565b935061147c602086016113ad565b925060408501359150606085013567ffffffffffffffff8082111561149f578283fd5b818701915087601f8301126114b2578283fd5b8135818111156114c4576114c4611787565b604051601f8201601f19908116603f011681019083821181831017156114ec576114ec611787565b816040528281528a6020848701011115611504578586fd5b82602086016020830137918201602001949094529598949750929550505050565b60008060408385031215611537578182fd5b611540836113ad565b915060208301358015158114611554578182fd5b809150509250929050565b60008060408385031215611571578182fd5b61157a836113ad565b946020939093013593505050565b600060208284031215611599578081fd5b81356108e98161179d565b6000602082840312156115b5578081fd5b81516108e98161179d565b6000602082840312156115d1578081fd5b5035919050565b600081518084526115f08160208601602086016116c5565b601f01601f19169290920160200192915050565b600083516116168184602088016116c5565b83519083019061162a8183602088016116c5565b01949350505050565b60006001600160a01b0380871683528086166020840152508360408301526080606083015261166560808301846115d8565b9695505050505050565b6020815260006108e960208301846115d8565b600082198211156116955761169561175b565b500190565b6000826116a9576116a9611771565b500490565b6000828210156116c0576116c061175b565b500390565b60005b838110156116e05781810151838201526020016116c8565b838111156108515750506000910152565b600181811c9082168061170557607f821691505b6020821081141561172657634e487b7160e01b600052602260045260246000fd5b50919050565b60006000198214156117405761174061175b565b5060010190565b60008261175657611756611771565b500690565b634e487b7160e01b600052601160045260246000fd5b634e487b7160e01b600052601260045260246000fd5b634e487b7160e01b600052604160045260246000fd5b6001600160e01b0319811681146106a857600080fdfea264697066735822122019e733086ff3d6bf967e71f02edcef33f8bb73fe84aa3a4454b8e1f69acffef564736f6c63430008040033",
  "linkReferences": {},
  "deployedLinkReferences": {}
}