{
  "_format": "hh-sol-artifact-1",
  "contractName": "ERC721NoData",
  "sourceName": "contracts/ERC721NoData.sol",
  "abi": [
    {
      "inputs": [
        {
          "internalType": "string",
          "name": "name",
          "type": "string"
        },
        {
          "internalType": "string",
          "name": "symbol",
          "type": "string"
        }
      ],
      "stateMutability": "nonpayable",
      "type": "constructor"
    },
    {
      "anonymous": false,
      "inputs": [
        {
          "indexed": true,
          "internalType": "address",
          "name": "owner",
          "type": "address"
        },
        {
          "indexed": true,
          "internalType": "address",
          "name": "approved",
          "type": "address"
        },
        {
          "indexed": true,
          "internalType": "uint256",
          "name": "tokenId",
          "type": "uint256"
        }
      ],
      "name": "Approval",
      "type": "event"
    },
    {
      "anonymous": false,
      "inputs": [
        {
          "indexed": true,
          "internalType": "address",
          "name": "owner",
          "type": "address"
        },
        {
          "indexed": true,
          "internalType": "address",
          "name": "operator",
          "type": "address"
        },
        {
          "indexed": false,
          "internalType": "bool",
          "name": "approved",
          "type": "bool"
        }
      ],
      "name": "ApprovalForAll",
      "type": "event"
    },
    {
      "anonymous": false,
      "inputs": [
        {
          "indexed": true,
          "internalType": "address",
          "name": "previousOwner",
          "type": "address"
        },
        {
          "indexed": true,
          "internalType": "address",
          "name": "newOwner",
          "type": "address"
        }
      ],
      "name": "OwnershipTransferred",
      "type": "event"
    },
    {
      "anonymous": false,
      "inputs": [
        {
          "indexed": true,
          "internalType": "address",
          "name": "from",
          "type": "address"
        },
        {
          "indexed": true,
          "internalType": "address",
          "name": "to",
          "type": "address"
        },
        {
          "indexed": true,
          "internalType": "uint256",
          "name": "tokenId",
          "type": "uint256"
        }
      ],
      "name": "Transfer",
      "type": "event"
    },
    {
      "inputs": [
        {
          "internalType": "address",
          "name": "to",
          "type": "address"
        },
        {
          "internalType": "uint256",
          "name": "tokenId",
          "type": "uint256"
        }
      ],
      "name": "approve",
      "outputs": [],
      "stateMutability": "nonpayable",
      "type": "function"
    },
    {
      "inputs": [
        {
          "internalType": "address",
          "name": "owner",
          "type": "address"
        }
      ],
      "name": "balanceOf",
      "outputs": [
        {
          "internalType": "uint256",
          "name": "",
          "type": "uint256"
        }
      ],
      "stateMutability": "view",
      "type": "function"
    },
    {
      "inputs": [
        {
          "internalType": "address",
          "name": "from",
          "type": "address"
        },
        {
          "internalType": "uint256",
          "name": "tokenId",
          "type": "uint256"
        }
      ],
      "name": "burn",
      "outputs": [],
      "stateMutability": "nonpayable",
      "type": "function"
    },
    {
      "inputs": [
        {
          "internalType": "uint256",
          "name": "tokenId",
          "type": "uint256"
        }
      ],
      "name": "getApproved",
      "outputs": [
        {
          "internalType": "address",
          "name": "",
          "type": "address"
        }
      ],
      "stateMutability": "view",
      "type": "function"
    },
    {
      "inputs": [
        {
          "internalType": "address",
          "name": "owner",
          "type": "address"
        },
        {
          "internalType": "address",
          "name": "operator",
          "type": "address"
        }
      ],
      "name": "isApprovedForAll",
      "outputs": [
        {
          "internalType": "bool",
          "name": "",
          "type": "bool"
        }
      ],
      "stateMutability": "view",
      "type": "function"
    },
    {
      "inputs": [
        {
          "internalType": "address",
          "name": "to",
          "type": "address"
        },
        {
          "internalType": "uint256",
          "name": "tokenId",
          "type": "uint256"
        }
      ],
      "name": "mint",
      "outputs": [],
      "stateMutability": "nonpayable",
      "type": "function"
    },
    {
      "inputs": [],
      "name": "name",
      "outputs": [
        {
          "internalType": "string",
          "name": "",
          "type": "string"
        }
      ],
      "stateMutability": "view",
      "type": "function"
    },
    {
      "inputs": [],
      "name": "owner",
      "outputs": [
        {
          "internalType": "address",
          "name": "",
          "type": "address"
        }
      ],
      "stateMutability": "view",
      "type": "function"
    },
    {
      "inputs": [
        {
          "internalType": "uint256",
          "name": "tokenId",
          "type": "uint256"
        }
      ],
      "name": "ownerOf",
      "outputs": [
        {
          "internalType": "address",
          "name": "",
          "type": "address"
        }
      ],
      "stateMutability": "view",
      "type": "function"
    },
    {
      "inputs": [],
      "name": "renounceOwnership",
      "outputs": [],
      "stateMutability": "nonpayable",
      "type": "function"
    },
    {
      "inputs": [
        {
          "internalType": "address",
          "name": "from",
          "type": "address"
        },
        {
          "internalType": "address",
          "name": "to",
          "type": "address"
        },
        {
          "internalType": "uint256",
          "name": "tokenId",
          "type": "uint256"
        }
      ],
      "name": "safeTransferFrom",
      "outputs": [],
      "stateMutability": "nonpayable",
      "type": "function"
    },
    {
      "inputs": [
        {
          "internalType": "address",
          "name": "from",
          "type": "address"
        },
        {
          "internalType": "address",
          "name": "to",
          "type": "address"
        },
        {
          "internalType": "uint256",
          "name": "tokenId",
          "type": "uint256"
        },
        {
          "internalType": "bytes",
          "name": "_data",
          "type": "bytes"
        }
      ],
      "name": "safeTransferFrom",
      "outputs": [],
      "stateMutability": "nonpayable",
      "type": "function"
    },
    {
      "inputs": [
        {
          "internalType": "address",
          "name": "operator",
          "type": "address"
        },
        {
          "internalType": "bool",
          "name": "approved",
          "type": "bool"
        }
      ],
      "name": "setApprovalForAll",
      "outputs": [],
      "stateMutability": "nonpayable",
      "type": "function"
    },
    {
      "inputs": [
        {
          "internalType": "bytes4",
          "name": "interfaceId",
          "type": "bytes4"
        }
      ],
      "name": "supportsInterface",
      "outputs": [
        {
          "internalType": "bool",
          "name": "",
          "type": "bool"
        }
      ],
      "stateMutability": "view",
      "type": "function"
    },
    {
      "inputs": [],
      "name": "symbol",
      "outputs": [
        {
          "internalType": "string",
          "name": "",
          "type": "string"
        }
      ],
      "stateMutability": "view",
      "type": "function"
    },
    {
      "inputs": [
        {
          "internalType": "uint256",
          "name": "tokenId",
          "type": "uint256"
        }
      ],
      "name": "tokenURI",
      "outputs": [
        {
          "internalType": "string",
          "name": "",
          "type": "string"
        }
      ],
      "stateMutability": "view",
      "type": "function"
    },
    {
      "inputs": [
        {
          "internalType": "address",
          "name": "from",
          "type": "address"
        },
        {
          "internalType": "address",
          "name": "to",
          "type": "address"
        },
        {
          "internalType": "uint256",
          "name": "tokenId",
          "type": "uint256"
        }
      ],
      "name": "transferFrom",
      "outputs": [],
      "stateMutability": "nonpayable",
      "type": "function"
    },
    {
      "inputs": [
        {
          "internalType": "address",
          "name": "newOwner",
          "type": "address"
        }
      ],
      "name": "transferOwnership",
      "outputs": [],
      "stateMutability": "nonpayable",
      "type": "function"
    }
  ],
  "bytecode": "0x60806040523480156200001157600080fd5b506040516200310e3803806200310e833981810160405281019062000037919062000283565b8181620000596200004d6200009560201b60201c565b6200009d60201b60201c565b81600190805190602001906200007192919062000161565b5080600290805190602001906200008a92919062000161565b505050505062000427565b600033905090565b60008060009054906101000a900473ffffffffffffffffffffffffffffffffffffffff169050816000806101000a81548173ffffffffffffffffffffffffffffffffffffffff021916908373ffffffffffffffffffffffffffffffffffffffff1602179055508173ffffffffffffffffffffffffffffffffffffffff168173ffffffffffffffffffffffffffffffffffffffff167f8be0079c531659141344cd1fd0a4f28419497f9722a3daafe3b4186f6b6457e060405160405180910390a35050565b8280546200016f9062000393565b90600052602060002090601f016020900481019282620001935760008555620001df565b82601f10620001ae57805160ff1916838001178555620001df565b82800160010185558215620001df579182015b82811115620001de578251825591602001919060010190620001c1565b5b509050620001ee9190620001f2565b5090565b5b808211156200020d576000816000905550600101620001f3565b5090565b60006200022862000222846200032a565b620002f6565b9050828152602081018484840111156200024157600080fd5b6200024e8482856200035d565b509392505050565b600082601f8301126200026857600080fd5b81516200027a84826020860162000211565b91505092915050565b600080604083850312156200029757600080fd5b600083015167ffffffffffffffff811115620002b257600080fd5b620002c08582860162000256565b925050602083015167ffffffffffffffff811115620002de57600080fd5b620002ec8582860162000256565b9150509250929050565b6000604051905081810181811067ffffffffffffffff8211171562000320576200031f620003f8565b5b8060405250919050565b600067ffffffffffffffff821115620003485762000347620003f8565b5b601f19601f8301169050602081019050919050565b60005b838110156200037d57808201518184015260208101905062000360565b838111156200038d576000848401525b50505050565b60006002820490506001821680620003ac57607f821691505b60208210811415620003c357620003c2620003c9565b5b50919050565b7f4e487b7100000000000000000000000000000000000000000000000000000000600052602260045260246000fd5b7f4e487b7100000000000000000000000000000000000000000000000000000000600052604160045260246000fd5b612cd780620004376000396000f3fe608060405234801561001057600080fd5b50600436106101165760003560e01c8063715018a6116100a2578063a22cb46511610071578063a22cb465146102cb578063b88d4fde146102e7578063c87b56dd14610303578063e985e9c514610333578063f2fde38b1461036357610116565b8063715018a6146102695780638da5cb5b1461027357806395d89b41146102915780639dc29fac146102af57610116565b806323b872dd116100e957806323b872dd146101b557806340c10f19146101d157806342842e0e146101ed5780636352211e1461020957806370a082311461023957610116565b806301ffc9a71461011b57806306fdde031461014b578063081812fc14610169578063095ea7b314610199575b600080fd5b61013560048036038101906101309190611e3b565b61037f565b604051610142919061263f565b60405180910390f35b610153610461565b604051610160919061265a565b60405180910390f35b610183600480360381019061017e9190611e8d565b6104f3565b60405161019091906125d8565b60405180910390f35b6101b360048036038101906101ae9190611dff565b610578565b005b6101cf60048036038101906101ca9190611cf9565b610690565b005b6101eb60048036038101906101e69190611dff565b6106f0565b005b61020760048036038101906102029190611cf9565b61077a565b005b610223600480360381019061021e9190611e8d565b61079a565b60405161023091906125d8565b60405180910390f35b610253600480360381019061024e9190611c94565b61084c565b604051610260919061289c565b60405180910390f35b610271610904565b005b61027b61098c565b60405161028891906125d8565b60405180910390f35b6102996109b5565b6040516102a6919061265a565b60405180910390f35b6102c960048036038101906102c49190611dff565b610a47565b005b6102e560048036038101906102e09190611dc3565b610ac9565b005b61030160048036038101906102fc9190611d48565b610adf565b005b61031d60048036038101906103189190611e8d565b610b41565b60405161032a919061265a565b60405180910390f35b61034d60048036038101906103489190611cbd565b610be8565b60405161035a919061263f565b60405180910390f35b61037d60048036038101906103789190611c94565b610c7c565b005b60007f80ac58cd000000000000000000000000000000000000000000000000000000007bffffffffffffffffffffffffffffffffffffffffffffffffffffffff1916827bffffffffffffffffffffffffffffffffffffffffffffffffffffffff1916148061044a57507f5b5e139f000000000000000000000000000000000000000000000000000000007bffffffffffffffffffffffffffffffffffffffffffffffffffffffff1916827bffffffffffffffffffffffffffffffffffffffffffffffffffffffff1916145b8061045a575061045982610d74565b5b9050919050565b60606001805461047090612acc565b80601f016020809104026020016040519081016040528092919081815260200182805461049c90612acc565b80156104e95780601f106104be576101008083540402835291602001916104e9565b820191906000526020600020905b8154815290600101906020018083116104cc57829003601f168201915b5050505050905090565b60006104fe82610dde565b61053d576040517f08c379a0000000000000000000000000000000000000000000000000000000008152600401610534906127bc565b60405180910390fd5b6005600083815260200190815260200160002060009054906101000a900473ffffffffffffffffffffffffffffffffffffffff169050919050565b60006105838261079a565b90508073ffffffffffffffffffffffffffffffffffffffff168373ffffffffffffffffffffffffffffffffffffffff1614156105f4576040517f08c379a00000000000000000000000000000000000000000000000000000000081526004016105eb9061283c565b60405180910390fd5b8073ffffffffffffffffffffffffffffffffffffffff16610613610e4a565b73ffffffffffffffffffffffffffffffffffffffff16148061064257506106418161063c610e4a565b610be8565b5b610681576040517f08c379a00000000000000000000000000000000000000000000000000000000081526004016106789061273c565b60405180910390fd5b61068b8383610e52565b505050565b6106a161069b610e4a565b82610f0b565b6106e0576040517f08c379a00000000000000000000000000000000000000000000000000000000081526004016106d79061285c565b60405180910390fd5b6106eb838383610fe9565b505050565b6106f8610e4a565b73ffffffffffffffffffffffffffffffffffffffff1661071661098c565b73ffffffffffffffffffffffffffffffffffffffff161461076c576040517f08c379a0000000000000000000000000000000000000000000000000000000008152600401610763906127dc565b60405180910390fd5b6107768282611245565b5050565b61079583838360405180602001604052806000815250610adf565b505050565b6000806003600084815260200190815260200160002060009054906101000a900473ffffffffffffffffffffffffffffffffffffffff169050600073ffffffffffffffffffffffffffffffffffffffff168173ffffffffffffffffffffffffffffffffffffffff161415610843576040517f08c379a000000000000000000000000000000000000000000000000000000000815260040161083a9061277c565b60405180910390fd5b80915050919050565b60008073ffffffffffffffffffffffffffffffffffffffff168273ffffffffffffffffffffffffffffffffffffffff1614156108bd576040517f08c379a00000000000000000000000000000000000000000000000000000000081526004016108b49061275c565b60405180910390fd5b600460008373ffffffffffffffffffffffffffffffffffffffff1673ffffffffffffffffffffffffffffffffffffffff168152602001908152602001600020549050919050565b61090c610e4a565b73ffffffffffffffffffffffffffffffffffffffff1661092a61098c565b73ffffffffffffffffffffffffffffffffffffffff1614610980576040517f08c379a0000000000000000000000000000000000000000000000000000000008152600401610977906127dc565b60405180910390fd5b61098a6000611263565b565b60008060009054906101000a900473ffffffffffffffffffffffffffffffffffffffff16905090565b6060600280546109c490612acc565b80601f01602080910402602001604051908101604052809291908181526020018280546109f090612acc565b8015610a3d5780601f10610a1257610100808354040283529160200191610a3d565b820191906000526020600020905b815481529060010190602001808311610a2057829003601f168201915b5050505050905090565b610a4f610e4a565b73ffffffffffffffffffffffffffffffffffffffff168273ffffffffffffffffffffffffffffffffffffffff1614610abc576040517f08c379a0000000000000000000000000000000000000000000000000000000008152600401610ab39061287c565b60405180910390fd5b610ac581611327565b5050565b610adb610ad4610e4a565b8383611438565b5050565b610af0610aea610e4a565b83610f0b565b610b2f576040517f08c379a0000000000000000000000000000000000000000000000000000000008152600401610b269061285c565b60405180910390fd5b610b3b848484846115a5565b50505050565b6060610b4c82610dde565b610b8b576040517f08c379a0000000000000000000000000000000000000000000000000000000008152600401610b829061281c565b60405180910390fd5b6000610b95611601565b90506000815111610bb55760405180602001604052806000815250610be0565b80610bbf8461163e565b604051602001610bd09291906125b4565b6040516020818303038152906040525b915050919050565b6000600660008473ffffffffffffffffffffffffffffffffffffffff1673ffffffffffffffffffffffffffffffffffffffff16815260200190815260200160002060008373ffffffffffffffffffffffffffffffffffffffff1673ffffffffffffffffffffffffffffffffffffffff16815260200190815260200160002060009054906101000a900460ff16905092915050565b610c84610e4a565b73ffffffffffffffffffffffffffffffffffffffff16610ca261098c565b73ffffffffffffffffffffffffffffffffffffffff1614610cf8576040517f08c379a0000000000000000000000000000000000000000000000000000000008152600401610cef906127dc565b60405180910390fd5b600073ffffffffffffffffffffffffffffffffffffffff168173ffffffffffffffffffffffffffffffffffffffff161415610d68576040517f08c379a0000000000000000000000000000000000000000000000000000000008152600401610d5f9061269c565b60405180910390fd5b610d7181611263565b50565b60007f01ffc9a7000000000000000000000000000000000000000000000000000000007bffffffffffffffffffffffffffffffffffffffffffffffffffffffff1916827bffffffffffffffffffffffffffffffffffffffffffffffffffffffff1916149050919050565b60008073ffffffffffffffffffffffffffffffffffffffff166003600084815260200190815260200160002060009054906101000a900473ffffffffffffffffffffffffffffffffffffffff1673ffffffffffffffffffffffffffffffffffffffff1614159050919050565b600033905090565b816005600083815260200190815260200160002060006101000a81548173ffffffffffffffffffffffffffffffffffffffff021916908373ffffffffffffffffffffffffffffffffffffffff160217905550808273ffffffffffffffffffffffffffffffffffffffff16610ec58361079a565b73ffffffffffffffffffffffffffffffffffffffff167f8c5be1e5ebec7d5bd14f71427d1e84f3dd0314c0f7b2291e5b200ac8c7c3b92560405160405180910390a45050565b6000610f1682610dde565b610f55576040517f08c379a0000000000000000000000000000000000000000000000000000000008152600401610f4c9061271c565b60405180910390fd5b6000610f608361079a565b90508073ffffffffffffffffffffffffffffffffffffffff168473ffffffffffffffffffffffffffffffffffffffff161480610fcf57508373ffffffffffffffffffffffffffffffffffffffff16610fb7846104f3565b73ffffffffffffffffffffffffffffffffffffffff16145b80610fe05750610fdf8185610be8565b5b91505092915050565b8273ffffffffffffffffffffffffffffffffffffffff166110098261079a565b73ffffffffffffffffffffffffffffffffffffffff161461105f576040517f08c379a0000000000000000000000000000000000000000000000000000000008152600401611056906127fc565b60405180910390fd5b600073ffffffffffffffffffffffffffffffffffffffff168273ffffffffffffffffffffffffffffffffffffffff1614156110cf576040517f08c379a00000000000000000000000000000000000000000000000000000000081526004016110c6906126dc565b60405180910390fd5b6110da8383836117eb565b6110e5600082610e52565b6001600460008573ffffffffffffffffffffffffffffffffffffffff1673ffffffffffffffffffffffffffffffffffffffff168152602001908152602001600020600082825461113591906129e2565b925050819055506001600460008473ffffffffffffffffffffffffffffffffffffffff1673ffffffffffffffffffffffffffffffffffffffff168152602001908152602001600020600082825461118c919061295b565b92505081905550816003600083815260200190815260200160002060006101000a81548173ffffffffffffffffffffffffffffffffffffffff021916908373ffffffffffffffffffffffffffffffffffffffff160217905550808273ffffffffffffffffffffffffffffffffffffffff168473ffffffffffffffffffffffffffffffffffffffff167fddf252ad1be2c89b69c2b068fc378daa952ba7f163c4a11628f55a4df523b3ef60405160405180910390a4505050565b61125f8282604051806020016040528060008152506117f0565b5050565b60008060009054906101000a900473ffffffffffffffffffffffffffffffffffffffff169050816000806101000a81548173ffffffffffffffffffffffffffffffffffffffff021916908373ffffffffffffffffffffffffffffffffffffffff1602179055508173ffffffffffffffffffffffffffffffffffffffff168173ffffffffffffffffffffffffffffffffffffffff167f8be0079c531659141344cd1fd0a4f28419497f9722a3daafe3b4186f6b6457e060405160405180910390a35050565b60006113328261079a565b9050611340816000846117eb565b61134b600083610e52565b6001600460008373ffffffffffffffffffffffffffffffffffffffff1673ffffffffffffffffffffffffffffffffffffffff168152602001908152602001600020600082825461139b91906129e2565b925050819055506003600083815260200190815260200160002060006101000a81549073ffffffffffffffffffffffffffffffffffffffff021916905581600073ffffffffffffffffffffffffffffffffffffffff168273ffffffffffffffffffffffffffffffffffffffff167fddf252ad1be2c89b69c2b068fc378daa952ba7f163c4a11628f55a4df523b3ef60405160405180910390a45050565b8173ffffffffffffffffffffffffffffffffffffffff168373ffffffffffffffffffffffffffffffffffffffff1614156114a7576040517f08c379a000000000000000000000000000000000000000000000000000000000815260040161149e906126fc565b60405180910390fd5b80600660008573ffffffffffffffffffffffffffffffffffffffff1673ffffffffffffffffffffffffffffffffffffffff16815260200190815260200160002060008473ffffffffffffffffffffffffffffffffffffffff1673ffffffffffffffffffffffffffffffffffffffff16815260200190815260200160002060006101000a81548160ff0219169083151502179055508173ffffffffffffffffffffffffffffffffffffffff168373ffffffffffffffffffffffffffffffffffffffff167f17307eab39ab6107e8899845ad3d59bd9653f200f220920489ca2b5937696c3183604051611598919061263f565b60405180910390a3505050565b6115b0848484610fe9565b6115bc8484848461184b565b6115fb576040517f08c379a00000000000000000000000000000000000000000000000000000000081526004016115f29061267c565b60405180910390fd5b50505050565b60606040518060400160405280601081526020017f66697265666c793a2f2f746f6b656e2f00000000000000000000000000000000815250905090565b60606000821415611686576040518060400160405280600181526020017f300000000000000000000000000000000000000000000000000000000000000081525090506117e6565b600082905060005b600082146116b85780806116a190612afe565b915050600a826116b191906129b1565b915061168e565b60008167ffffffffffffffff8111156116fa577f4e487b7100000000000000000000000000000000000000000000000000000000600052604160045260246000fd5b6040519080825280601f01601f19166020018201604052801561172c5781602001600182028036833780820191505090505b5090505b600085146117df5760018261174591906129e2565b9150600a856117549190612b47565b6030611760919061295b565b60f81b81838151811061179c577f4e487b7100000000000000000000000000000000000000000000000000000000600052603260045260246000fd5b60200101907effffffffffffffffffffffffffffffffffffffffffffffffffffffffffffff1916908160001a905350600a856117d891906129b1565b9450611730565b8093505050505b919050565b505050565b6117fa83836119e2565b611807600084848461184b565b611846576040517f08c379a000000000000000000000000000000000000000000000000000000000815260040161183d9061267c565b60405180910390fd5b505050565b600061186c8473ffffffffffffffffffffffffffffffffffffffff16611bb0565b156119d5578373ffffffffffffffffffffffffffffffffffffffff1663150b7a02611895610e4a565b8786866040518563ffffffff1660e01b81526004016118b794939291906125f3565b602060405180830381600087803b1580156118d157600080fd5b505af192505050801561190257506040513d601f19601f820116820180604052508101906118ff9190611e64565b60015b611985573d8060008114611932576040519150601f19603f3d011682016040523d82523d6000602084013e611937565b606091505b5060008151141561197d576040517f08c379a00000000000000000000000000000000000000000000000000000000081526004016119749061267c565b60405180910390fd5b805181602001fd5b63150b7a0260e01b7bffffffffffffffffffffffffffffffffffffffffffffffffffffffff1916817bffffffffffffffffffffffffffffffffffffffffffffffffffffffff1916149150506119da565b600190505b949350505050565b600073ffffffffffffffffffffffffffffffffffffffff168273ffffffffffffffffffffffffffffffffffffffff161415611a52576040517f08c379a0000000000000000000000000000000000000000000000000000000008152600401611a499061279c565b60405180910390fd5b611a5b81610dde565b15611a9b576040517f08c379a0000000000000000000000000000000000000000000000000000000008152600401611a92906126bc565b60405180910390fd5b611aa7600083836117eb565b6001600460008473ffffffffffffffffffffffffffffffffffffffff1673ffffffffffffffffffffffffffffffffffffffff1681526020019081526020016000206000828254611af7919061295b565b92505081905550816003600083815260200190815260200160002060006101000a81548173ffffffffffffffffffffffffffffffffffffffff021916908373ffffffffffffffffffffffffffffffffffffffff160217905550808273ffffffffffffffffffffffffffffffffffffffff16600073ffffffffffffffffffffffffffffffffffffffff167fddf252ad1be2c89b69c2b068fc378daa952ba7f163c4a11628f55a4df523b3ef60405160405180910390a45050565b600080823b905060008111915050919050565b6000611bd6611bd1846128e8565b6128b7565b905082815260208101848484011115611bee57600080fd5b611bf9848285612a8a565b509392505050565b600081359050611c1081612c45565b92915050565b600081359050611c2581612c5c565b92915050565b600081359050611c3a81612c73565b92915050565b600081519050611c4f81612c73565b92915050565b600082601f830112611c6657600080fd5b8135611c76848260208601611bc3565b91505092915050565b600081359050611c8e81612c8a565b92915050565b600060208284031215611ca657600080fd5b6000611cb484828501611c01565b91505092915050565b60008060408385031215611cd057600080fd5b6000611cde85828601611c01565b9250506020611cef85828601611c01565b9150509250929050565b600080600060608486031215611d0e57600080fd5b6000611d1c86828701611c01565b9350506020611d2d86828701611c01565b9250506040611d3e86828701611c7f565b9150509250925092565b60008060008060808587031215611d5e57600080fd5b6000611d6c87828801611c01565b9450506020611d7d87828801611c01565b9350506040611d8e87828801611c7f565b925050606085013567ffffffffffffffff811115611dab57600080fd5b611db787828801611c55565b91505092959194509250565b60008060408385031215611dd657600080fd5b6000611de485828601611c01565b9250506020611df585828601611c16565b9150509250929050565b60008060408385031215611e1257600080fd5b6000611e2085828601611c01565b9250506020611e3185828601611c7f565b9150509250929050565b600060208284031215611e4d57600080fd5b6000611e5b84828501611c2b565b91505092915050565b600060208284031215611e7657600080fd5b6000611e8484828501611c40565b91505092915050565b600060208284031215611e9f57600080fd5b6000611ead84828501611c7f565b91505092915050565b611ebf81612a16565b82525050565b611ece81612a28565b82525050565b6000611edf82612918565b611ee9818561292e565b9350611ef9818560208601612a99565b611f0281612c34565b840191505092915050565b6000611f1882612923565b611f22818561293f565b9350611f32818560208601612a99565b611f3b81612c34565b840191505092915050565b6000611f5182612923565b611f5b8185612950565b9350611f6b818560208601612a99565b80840191505092915050565b6000611f8460328361293f565b91507f4552433732313a207472616e7366657220746f206e6f6e20455243373231526560008301527f63656976657220696d706c656d656e74657200000000000000000000000000006020830152604082019050919050565b6000611fea60268361293f565b91507f4f776e61626c653a206e6577206f776e657220697320746865207a65726f206160008301527f64647265737300000000000000000000000000000000000000000000000000006020830152604082019050919050565b6000612050601c8361293f565b91507f4552433732313a20746f6b656e20616c7265616479206d696e746564000000006000830152602082019050919050565b600061209060248361293f565b91507f4552433732313a207472616e7366657220746f20746865207a65726f2061646460008301527f72657373000000000000000000000000000000000000000000000000000000006020830152604082019050919050565b60006120f660198361293f565b91507f4552433732313a20617070726f766520746f2063616c6c6572000000000000006000830152602082019050919050565b6000612136602c8361293f565b91507f4552433732313a206f70657261746f7220717565727920666f72206e6f6e657860008301527f697374656e7420746f6b656e00000000000000000000000000000000000000006020830152604082019050919050565b600061219c60388361293f565b91507f4552433732313a20617070726f76652063616c6c6572206973206e6f74206f7760008301527f6e6572206e6f7220617070726f76656420666f7220616c6c00000000000000006020830152604082019050919050565b6000612202602a8361293f565b91507f4552433732313a2062616c616e636520717565727920666f7220746865207a6560008301527f726f2061646472657373000000000000000000000000000000000000000000006020830152604082019050919050565b600061226860298361293f565b91507f4552433732313a206f776e657220717565727920666f72206e6f6e657869737460008301527f656e7420746f6b656e00000000000000000000000000000000000000000000006020830152604082019050919050565b60006122ce60208361293f565b91507f4552433732313a206d696e7420746f20746865207a65726f20616464726573736000830152602082019050919050565b600061230e602c8361293f565b91507f4552433732313a20617070726f76656420717565727920666f72206e6f6e657860008301527f697374656e7420746f6b656e00000000000000000000000000000000000000006020830152604082019050919050565b600061237460208361293f565b91507f4f776e61626c653a2063616c6c6572206973206e6f7420746865206f776e65726000830152602082019050919050565b60006123b460298361293f565b91507f4552433732313a207472616e73666572206f6620746f6b656e2074686174206960008301527f73206e6f74206f776e00000000000000000000000000000000000000000000006020830152604082019050919050565b600061241a602f8361293f565b91507f4552433732314d657461646174613a2055524920717565727920666f72206e6f60008301527f6e6578697374656e7420746f6b656e00000000000000000000000000000000006020830152604082019050919050565b600061248060218361293f565b91507f4552433732313a20617070726f76616c20746f2063757272656e74206f776e6560008301527f72000000000000000000000000000000000000000000000000000000000000006020830152604082019050919050565b60006124e660318361293f565b91507f4552433732313a207472616e736665722063616c6c6572206973206e6f74206f60008301527f776e6572206e6f7220617070726f7665640000000000000000000000000000006020830152604082019050919050565b600061254c60218361293f565b91507f4552433732314e6f446174613a2063616c6c6572206973206e6f74206f776e6560008301527f72000000000000000000000000000000000000000000000000000000000000006020830152604082019050919050565b6125ae81612a80565b82525050565b60006125c08285611f46565b91506125cc8284611f46565b91508190509392505050565b60006020820190506125ed6000830184611eb6565b92915050565b60006080820190506126086000830187611eb6565b6126156020830186611eb6565b61262260408301856125a5565b81810360608301526126348184611ed4565b905095945050505050565b60006020820190506126546000830184611ec5565b92915050565b600060208201905081810360008301526126748184611f0d565b905092915050565b6000602082019050818103600083015261269581611f77565b9050919050565b600060208201905081810360008301526126b581611fdd565b9050919050565b600060208201905081810360008301526126d581612043565b9050919050565b600060208201905081810360008301526126f581612083565b9050919050565b60006020820190508181036000830152612715816120e9565b9050919050565b6000602082019050818103600083015261273581612129565b9050919050565b600060208201905081810360008301526127558161218f565b9050919050565b60006020820190508181036000830152612775816121f5565b9050919050565b600060208201905081810360008301526127958161225b565b9050919050565b600060208201905081810360008301526127b5816122c1565b9050919050565b600060208201905081810360008301526127d581612301565b9050919050565b600060208201905081810360008301526127f581612367565b9050919050565b60006020820190508181036000830152612815816123a7565b9050919050565b600060208201905081810360008301526128358161240d565b9050919050565b6000602082019050818103600083015261285581612473565b9050919050565b60006020820190508181036000830152612875816124d9565b9050919050565b600060208201905081810360008301526128958161253f565b9050919050565b60006020820190506128b160008301846125a5565b92915050565b6000604051905081810181811067ffffffffffffffff821117156128de576128dd612c05565b5b8060405250919050565b600067ffffffffffffffff82111561290357612902612c05565b5b601f19601f8301169050602081019050919050565b600081519050919050565b600081519050919050565b600082825260208201905092915050565b600082825260208201905092915050565b600081905092915050565b600061296682612a80565b915061297183612a80565b9250827fffffffffffffffffffffffffffffffffffffffffffffffffffffffffffffffff038211156129a6576129a5612b78565b5b828201905092915050565b60006129bc82612a80565b91506129c783612a80565b9250826129d7576129d6612ba7565b5b828204905092915050565b60006129ed82612a80565b91506129f883612a80565b925082821015612a0b57612a0a612b78565b5b828203905092915050565b6000612a2182612a60565b9050919050565b60008115159050919050565b60007fffffffff0000000000000000000000000000000000000000000000000000000082169050919050565b600073ffffffffffffffffffffffffffffffffffffffff82169050919050565b6000819050919050565b82818337600083830152505050565b60005b83811015612ab7578082015181840152602081019050612a9c565b83811115612ac6576000848401525b50505050565b60006002820490506001821680612ae457607f821691505b60208210811415612af857612af7612bd6565b5b50919050565b6000612b0982612a80565b91507fffffffffffffffffffffffffffffffffffffffffffffffffffffffffffffffff821415612b3c57612b3b612b78565b5b600182019050919050565b6000612b5282612a80565b9150612b5d83612a80565b925082612b6d57612b6c612ba7565b5b828206905092915050565b7f4e487b7100000000000000000000000000000000000000000000000000000000600052601160045260246000fd5b7f4e487b7100000000000000000000000000000000000000000000000000000000600052601260045260246000fd5b7f4e487b7100000000000000000000000000000000000000000000000000000000600052602260045260246000fd5b7f4e487b7100000000000000000000000000000000000000000000000000000000600052604160045260246000fd5b6000601f19601f8301169050919050565b612c4e81612a16565b8114612c5957600080fd5b50565b612c6581612a28565b8114612c7057600080fd5b50565b612c7c81612a34565b8114612c8757600080fd5b50565b612c9381612a80565b8114612c9e57600080fd5b5056fea26469706673582212201b6d55e50c3b4a5c9de4ea3c0cbd99ae78bea8f09950d5ef3e95ab9d322afa4d64736f6c63430008000033",
  "linkReferences": {},
  "deployedLinkReferences": {}
}