{
  "_format": "hh-sol-artifact-1",
  "contractName": "ERC721WithData",
  "sourceName": "contracts/ERC721WithData.sol",
  "abi": [
    {
      "inputs": [
        {
          "internalType": "string",
          "name": "name",
          "type": "string"
        },
        {
          "internalType": "string",
          "name": "symbol",
          "type": "string"
        },
        {
          "internalType": "string",
          "name": "baseTokenURI",
          "type": "string"
        }
      ],
      "stateMutability": "nonpayable",
      "type": "constructor"
    },
    {
      "anonymous": false,
      "inputs": [
        {
          "indexed": true,
          "internalType": "address",
          "name": "owner",
          "type": "address"
        },
        {
          "indexed": true,
          "internalType": "address",
          "name": "approved",
          "type": "address"
        },
        {
          "indexed": true,
          "internalType": "uint256",
          "name": "tokenId",
          "type": "uint256"
        }
      ],
      "name": "Approval",
      "type": "event"
    },
    {
      "anonymous": false,
      "inputs": [
        {
          "indexed": true,
          "internalType": "address",
          "name": "owner",
          "type": "address"
        },
        {
          "indexed": true,
          "internalType": "address",
          "name": "operator",
          "type": "address"
        },
        {
          "indexed": false,
          "internalType": "bool",
          "name": "approved",
          "type": "bool"
        }
      ],
      "name": "ApprovalForAll",
      "type": "event"
    },
    {
      "anonymous": false,
      "inputs": [
        {
          "indexed": true,
          "internalType": "address",
          "name": "previousOwner",
          "type": "address"
        },
        {
          "indexed": true,
          "internalType": "address",
          "name": "newOwner",
          "type": "address"
        }
      ],
      "name": "OwnershipTransferred",
      "type": "event"
    },
    {
      "anonymous": false,
      "inputs": [
        {
          "indexed": true,
          "internalType": "address",
          "name": "from",
          "type": "address"
        },
        {
          "indexed": true,
          "internalType": "address",
          "name": "to",
          "type": "address"
        },
        {
          "indexed": true,
          "internalType": "uint256",
          "name": "tokenId",
          "type": "uint256"
        }
      ],
      "name": "Transfer",
      "type": "event"
    },
    {
      "inputs": [
        {
          "internalType": "address",
          "name": "to",
          "type": "address"
        },
        {
          "internalType": "uint256",
          "name": "tokenId",
          "type": "uint256"
        }
      ],
      "name": "approve",
      "outputs": [],
      "stateMutability": "nonpayable",
      "type": "function"
    },
    {
      "inputs": [
        {
          "internalType": "address",
          "name": "to",
          "type": "address"
        },
        {
          "internalType": "uint256",
          "name": "tokenId",
          "type": "uint256"
        },
        {
          "internalType": "bytes",
          "name": "data",
          "type": "bytes"
        }
      ],
      "name": "approveWithData",
      "outputs": [],
      "stateMutability": "nonpayable",
      "type": "function"
    },
    {
      "inputs": [
        {
          "internalType": "address",
          "name": "owner",
          "type": "address"
        }
      ],
      "name": "balanceOf",
      "outputs": [
        {
          "internalType": "uint256",
          "name": "",
          "type": "uint256"
        }
      ],
      "stateMutability": "view",
      "type": "function"
    },
    {
      "inputs": [],
      "name": "baseTokenUri",
      "outputs": [
        {
          "internalType": "string",
          "name": "",
          "type": "string"
        }
      ],
      "stateMutability": "view",
      "type": "function"
    },
    {
      "inputs": [
        {
          "internalType": "address",
          "name": "from",
          "type": "address"
        },
        {
          "internalType": "uint256",
          "name": "tokenId",
          "type": "uint256"
        },
        {
          "internalType": "bytes",
          "name": "data",
          "type": "bytes"
        }
      ],
      "name": "burnWithData",
      "outputs": [],
      "stateMutability": "nonpayable",
      "type": "function"
    },
    {
      "inputs": [
        {
          "internalType": "uint256",
          "name": "tokenId",
          "type": "uint256"
        }
      ],
      "name": "getApproved",
      "outputs": [
        {
          "internalType": "address",
          "name": "",
          "type": "address"
        }
      ],
      "stateMutability": "view",
      "type": "function"
    },
    {
      "inputs": [
        {
          "internalType": "address",
          "name": "owner",
          "type": "address"
        },
        {
          "internalType": "address",
          "name": "operator",
          "type": "address"
        }
      ],
      "name": "isApprovedForAll",
      "outputs": [
        {
          "internalType": "bool",
          "name": "",
          "type": "bool"
        }
      ],
      "stateMutability": "view",
      "type": "function"
    },
    {
      "inputs": [
        {
          "internalType": "address",
          "name": "to",
          "type": "address"
        },
        {
          "internalType": "bytes",
          "name": "data",
          "type": "bytes"
        }
      ],
      "name": "mintWithData",
      "outputs": [],
      "stateMutability": "nonpayable",
      "type": "function"
    },
    {
      "inputs": [
        {
          "internalType": "address",
          "name": "to",
          "type": "address"
        },
        {
          "internalType": "bytes",
          "name": "data",
          "type": "bytes"
        },
        {
          "internalType": "string",
          "name": "tokenURI_",
          "type": "string"
        }
      ],
      "name": "mintWithURI",
      "outputs": [],
      "stateMutability": "nonpayable",
      "type": "function"
    },
    {
      "inputs": [],
      "name": "name",
      "outputs": [
        {
          "internalType": "string",
          "name": "",
          "type": "string"
        }
      ],
      "stateMutability": "view",
      "type": "function"
    },
    {
      "inputs": [],
      "name": "owner",
      "outputs": [
        {
          "internalType": "address",
          "name": "",
          "type": "address"
        }
      ],
      "stateMutability": "view",
      "type": "function"
    },
    {
      "inputs": [
        {
          "internalType": "uint256",
          "name": "tokenId",
          "type": "uint256"
        }
      ],
      "name": "ownerOf",
      "outputs": [
        {
          "internalType": "address",
          "name": "",
          "type": "address"
        }
      ],
      "stateMutability": "view",
      "type": "function"
    },
    {
      "inputs": [],
      "name": "renounceOwnership",
      "outputs": [],
      "stateMutability": "nonpayable",
      "type": "function"
    },
    {
      "inputs": [
        {
          "internalType": "address",
          "name": "from",
          "type": "address"
        },
        {
          "internalType": "address",
          "name": "to",
          "type": "address"
        },
        {
          "internalType": "uint256",
          "name": "tokenId",
          "type": "uint256"
        }
      ],
      "name": "safeTransferFrom",
      "outputs": [],
      "stateMutability": "nonpayable",
      "type": "function"
    },
    {
      "inputs": [
        {
          "internalType": "address",
          "name": "from",
          "type": "address"
        },
        {
          "internalType": "address",
          "name": "to",
          "type": "address"
        },
        {
          "internalType": "uint256",
          "name": "tokenId",
          "type": "uint256"
        },
        {
          "internalType": "bytes",
          "name": "data",
          "type": "bytes"
        }
      ],
      "name": "safeTransferFrom",
      "outputs": [],
      "stateMutability": "nonpayable",
      "type": "function"
    },
    {
      "inputs": [
        {
          "internalType": "address",
          "name": "operator",
          "type": "address"
        },
        {
          "internalType": "bool",
          "name": "approved",
          "type": "bool"
        }
      ],
      "name": "setApprovalForAll",
      "outputs": [],
      "stateMutability": "nonpayable",
      "type": "function"
    },
    {
      "inputs": [
        {
          "internalType": "address",
          "name": "operator",
          "type": "address"
        },
        {
          "internalType": "bool",
          "name": "approved",
          "type": "bool"
        },
        {
          "internalType": "bytes",
          "name": "data",
          "type": "bytes"
        }
      ],
      "name": "setApprovalForAllWithData",
      "outputs": [],
      "stateMutability": "nonpayable",
      "type": "function"
    },
    {
      "inputs": [
        {
          "internalType": "bytes4",
          "name": "interfaceId",
          "type": "bytes4"
        }
      ],
      "name": "supportsInterface",
      "outputs": [
        {
          "internalType": "bool",
          "name": "",
          "type": "bool"
        }
      ],
      "stateMutability": "view",
      "type": "function"
    },
    {
      "inputs": [],
      "name": "symbol",
      "outputs": [
        {
          "internalType": "string",
          "name": "",
          "type": "string"
        }
      ],
      "stateMutability": "view",
      "type": "function"
    },
    {
      "inputs": [
        {
          "internalType": "uint256",
          "name": "tokenId",
          "type": "uint256"
        }
      ],
      "name": "tokenURI",
      "outputs": [
        {
          "internalType": "string",
          "name": "",
          "type": "string"
        }
      ],
      "stateMutability": "view",
      "type": "function"
    },
    {
      "inputs": [
        {
          "internalType": "address",
          "name": "from",
          "type": "address"
        },
        {
          "internalType": "address",
          "name": "to",
          "type": "address"
        },
        {
          "internalType": "uint256",
          "name": "tokenId",
          "type": "uint256"
        }
      ],
      "name": "transferFrom",
      "outputs": [],
      "stateMutability": "nonpayable",
      "type": "function"
    },
    {
      "inputs": [
        {
          "internalType": "address",
          "name": "newOwner",
          "type": "address"
        }
      ],
      "name": "transferOwnership",
      "outputs": [],
      "stateMutability": "nonpayable",
      "type": "function"
    },
    {
      "inputs": [
        {
          "internalType": "address",
          "name": "from",
          "type": "address"
        },
        {
          "internalType": "address",
          "name": "to",
          "type": "address"
        },
        {
          "internalType": "uint256",
          "name": "tokenId",
          "type": "uint256"
        },
        {
          "internalType": "bytes",
          "name": "data",
          "type": "bytes"
        }
      ],
      "name": "transferWithData",
      "outputs": [],
      "stateMutability": "nonpayable",
      "type": "function"
    }
  ],
  "bytecode": "0x60806040523480156200001157600080fd5b50604051620023c8380380620023c88339810160408190526200003491620001b0565b8282620000413362000092565b60016200004f8382620002d0565b5060026200005e8282620002d0565b50600891506200007190508282620002d0565b50620000896007620000e260201b62000c0c1760201c565b5050506200039c565b600080546001600160a01b038381166001600160a01b0319831681178455604051919092169283917f8be0079c531659141344cd1fd0a4f28419497f9722a3daafe3b4186f6b6457e09190a35050565b80546001019055565b634e487b7160e01b600052604160045260246000fd5b600082601f8301126200011357600080fd5b81516001600160401b0380821115620001305762000130620000eb565b604051601f8301601f19908116603f011681019082821181831017156200015b576200015b620000eb565b816040528381526020925086838588010111156200017857600080fd5b600091505b838210156200019c57858201830151818301840152908201906200017d565b600093810190920192909252949350505050565b600080600060608486031215620001c657600080fd5b83516001600160401b0380821115620001de57600080fd5b620001ec8783880162000101565b945060208601519150808211156200020357600080fd5b620002118783880162000101565b935060408601519150808211156200022857600080fd5b50620002378682870162000101565b9150509250925092565b600181811c908216806200025657607f821691505b6020821081036200027757634e487b7160e01b600052602260045260246000fd5b50919050565b601f821115620002cb57600081815260208120601f850160051c81016020861015620002a65750805b601f850160051c820191505b81811015620002c757828155600101620002b2565b5050505b505050565b81516001600160401b03811115620002ec57620002ec620000eb565b6200030481620002fd845462000241565b846200027d565b602080601f8311600181146200033c5760008415620003235750858301515b600019600386901b1c1916600185901b178555620002c7565b600085815260208120601f198616915b828110156200036d578886015182559484019460019091019084016200034c565b50858210156200038c5787850151600019600388901b60f8161c191681555b5050505050600190811b01905550565b61201c80620003ac6000396000f3fe608060405234801561001057600080fd5b506004361061018d5760003560e01c80637a0101a2116100e3578063b88d4fde1161008c578063d4f1804611610066578063d4f180461461032a578063e985e9c51461033d578063f2fde38b1461037957600080fd5b8063b88d4fde146102f1578063c0ea7a7a14610304578063c87b56dd1461031757600080fd5b80638da5cb5b116100bd5780638da5cb5b146102c557806395d89b41146102d6578063a22cb465146102de57600080fd5b80637a0101a2146102975780637b5eb5641461029f57806383e49c53146102b257600080fd5b806323b872dd116101455780636352211e1161011f5780636352211e1461025b57806370a082311461026e578063715018a61461028f57600080fd5b806323b872dd1461022257806324e18a0b1461023557806342842e0e1461024857600080fd5b8063081812fc11610176578063081812fc146101cf578063095ea7b3146101fa5780631cbf311d1461020f57600080fd5b806301ffc9a71461019257806306fdde03146101ba575b600080fd5b6101a56101a03660046118a2565b61038c565b60405190151581526020015b60405180910390f35b6101c26103d0565b6040516101b19190611916565b6101e26101dd366004611929565b610462565b6040516001600160a01b0390911681526020016101b1565b61020d61020836600461195e565b610489565b005b61020d61021d3660046119e1565b6105dd565b61020d610230366004611a42565b6105ed565b61020d610243366004611b0a565b610674565b61020d610256366004611a42565b610734565b6101e2610269366004611929565b61074f565b61028161027c366004611b98565b6107b4565b6040519081526020016101b1565b61020d61084e565b6101c2610862565b61020d6102ad366004611bb3565b610871565b61020d6102c0366004611bb3565b61087b565b6000546001600160a01b03166101e2565b6101c2610902565b61020d6102ec366004611bf5565b610911565b61020d6102ff366004611c28565b610920565b61020d610312366004611c89565b6109a8565b6101c2610325366004611929565b6109f1565b61020d610338366004611cf8565b610b03565b6101a561034b366004611d4b565b6001600160a01b03918216600090815260066020908152604080832093909416825291909152205460ff1690565b61020d610387366004611b98565b610b7c565b60006001600160e01b031982167faefe69bf0000000000000000000000000000000000000000000000000000000014806103ca57506103ca82610c15565b92915050565b6060600180546103df90611d75565b80601f016020809104026020016040519081016040528092919081815260200182805461040b90611d75565b80156104585780601f1061042d57610100808354040283529160200191610458565b820191906000526020600020905b81548152906001019060200180831161043b57829003601f168201915b5050505050905090565b600061046d82610cb0565b506000908152600560205260409020546001600160a01b031690565b60006104948261074f565b9050806001600160a01b0316836001600160a01b0316036105225760405162461bcd60e51b815260206004820152602160248201527f4552433732313a20617070726f76616c20746f2063757272656e74206f776e6560448201527f720000000000000000000000000000000000000000000000000000000000000060648201526084015b60405180910390fd5b336001600160a01b038216148061055c57506001600160a01b038116600090815260066020908152604080832033845290915290205460ff165b6105ce5760405162461bcd60e51b815260206004820152603e60248201527f4552433732313a20617070726f76652063616c6c6572206973206e6f7420746f60448201527f6b656e206f776e6572206e6f7220617070726f76656420666f7220616c6c00006064820152608401610519565b6105d88383610d14565b505050565b6105e78484610911565b50505050565b6105f73382610d82565b6106695760405162461bcd60e51b815260206004820152602e60248201527f4552433732313a2063616c6c6572206973206e6f7420746f6b656e206f776e6560448201527f72206e6f7220617070726f7665640000000000000000000000000000000000006064820152608401610519565b6105d8838383610e01565b61067c610fce565b600061068760075490565b9050610697600780546001019055565b6106d8858286868080601f01602080910402602001604051908101604052809392919081815260200183838082843760009201919091525061102892505050565b815182906000036107225761071d826106ef6110a6565b6106f88561120a565b604051602001610709929190611daf565b60405160208183030381529060405261133f565b61072c565b61072c828461133f565b505050505050565b6105d883838360405180602001604052806000815250610920565b6000818152600360205260408120546001600160a01b0316806103ca5760405162461bcd60e51b815260206004820152601860248201527f4552433732313a20696e76616c696420746f6b656e20494400000000000000006044820152606401610519565b60006001600160a01b0382166108325760405162461bcd60e51b815260206004820152602960248201527f4552433732313a2061646472657373207a65726f206973206e6f74206120766160448201527f6c6964206f776e657200000000000000000000000000000000000000000000006064820152608401610519565b506001600160a01b031660009081526004602052604090205490565b610856610fce565b61086060006113c7565b565b606061086c6110a6565b905090565b6105e78484610489565b6001600160a01b03841633146108f95760405162461bcd60e51b815260206004820152602360248201527f45524337323157697468446174613a2063616c6c6572206973206e6f74206f7760448201527f6e657200000000000000000000000000000000000000000000000000000000006064820152608401610519565b6105e783611417565b6060600280546103df90611d75565b61091c3383836114b2565b5050565b61092a3383610d82565b61099c5760405162461bcd60e51b815260206004820152602e60248201527f4552433732313a2063616c6c6572206973206e6f7420746f6b656e206f776e6560448201527f72206e6f7220617070726f7665640000000000000000000000000000000000006064820152608401610519565b6105e784848484611580565b6109ea85858585858080601f01602080910402602001604051908101604052809392919081815260200183838082843760009201919091525061092092505050565b5050505050565b6000818152600360205260409020546060906001600160a01b0316610a645760405162461bcd60e51b8152602060048201526024808201527f45524337323157697468446174613a20546f6b656e20646f6573206e6f7420656044820152631e1a5cdd60e21b6064820152608401610519565b60008281526009602052604081208054610a7d90611d75565b80601f0160208091040260200160405190810160405280929190818152602001828054610aa990611d75565b8015610af65780601f10610acb57610100808354040283529160200191610af6565b820191906000526020600020905b815481529060010190602001808311610ad957829003601f168201915b5093979650505050505050565b610b0b610fce565b6000610b1660075490565b9050610b26600780546001019055565b610b67848285858080601f01602080910402602001604051908101604052809392919081815260200183838082843760009201919091525061102892505050565b6105e781610b736110a6565b6106f88461120a565b610b84610fce565b6001600160a01b038116610c005760405162461bcd60e51b815260206004820152602660248201527f4f776e61626c653a206e6577206f776e657220697320746865207a65726f206160448201527f64647265737300000000000000000000000000000000000000000000000000006064820152608401610519565b610c09816113c7565b50565b80546001019055565b60006001600160e01b031982167f80ac58cd000000000000000000000000000000000000000000000000000000001480610c7857506001600160e01b031982167f5b5e139f00000000000000000000000000000000000000000000000000000000145b806103ca57507f01ffc9a7000000000000000000000000000000000000000000000000000000006001600160e01b03198316146103ca565b6000818152600360205260409020546001600160a01b0316610c095760405162461bcd60e51b815260206004820152601860248201527f4552433732313a20696e76616c696420746f6b656e20494400000000000000006044820152606401610519565b600081815260056020526040902080546001600160a01b0319166001600160a01b0384169081179091558190610d498261074f565b6001600160a01b03167f8c5be1e5ebec7d5bd14f71427d1e84f3dd0314c0f7b2291e5b200ac8c7c3b92560405160405180910390a45050565b600080610d8e8361074f565b9050806001600160a01b0316846001600160a01b03161480610dd557506001600160a01b0380821660009081526006602090815260408083209388168352929052205460ff165b80610df95750836001600160a01b0316610dee84610462565b6001600160a01b0316145b949350505050565b826001600160a01b0316610e148261074f565b6001600160a01b031614610e905760405162461bcd60e51b815260206004820152602560248201527f4552433732313a207472616e736665722066726f6d20696e636f72726563742060448201527f6f776e65720000000000000000000000000000000000000000000000000000006064820152608401610519565b6001600160a01b038216610f0b5760405162461bcd60e51b8152602060048201526024808201527f4552433732313a207472616e7366657220746f20746865207a65726f2061646460448201527f72657373000000000000000000000000000000000000000000000000000000006064820152608401610519565b610f16600082610d14565b6001600160a01b0383166000908152600460205260408120805460019290610f3f908490611df4565b90915550506001600160a01b0382166000908152600460205260408120805460019290610f6d908490611e07565b909155505060008181526003602052604080822080546001600160a01b0319166001600160a01b0386811691821790925591518493918716917fddf252ad1be2c89b69c2b068fc378daa952ba7f163c4a11628f55a4df523b3ef91a4505050565b6000546001600160a01b031633146108605760405162461bcd60e51b815260206004820181905260248201527f4f776e61626c653a2063616c6c6572206973206e6f7420746865206f776e65726044820152606401610519565b61103283836115fe565b61103f6000848484611740565b6105d85760405162461bcd60e51b815260206004820152603260248201527f4552433732313a207472616e7366657220746f206e6f6e20455243373231526560448201527131b2b4bb32b91034b6b83632b6b2b73a32b960711b6064820152608401610519565b60606000600880546110b790611d75565b80601f01602080910402602001604051908101604052809291908181526020018280546110e390611d75565b80156111305780601f1061110557610100808354040283529160200191611130565b820191906000526020600020905b81548152906001019060200180831161111357829003601f168201915b50505050509050805160000361117957505060408051808201909152601081527f66697265666c793a2f2f746f6b656e2f00000000000000000000000000000000602082015290565b6008805461118690611d75565b80601f01602080910402602001604051908101604052809291908181526020018280546111b290611d75565b80156111ff5780601f106111d4576101008083540402835291602001916111ff565b820191906000526020600020905b8154815290600101906020018083116111e257829003601f168201915b505050505091505090565b60608160000361124d57505060408051808201909152600181527f3000000000000000000000000000000000000000000000000000000000000000602082015290565b8160005b8115611277578061126181611e1a565b91506112709050600a83611e49565b9150611251565b60008167ffffffffffffffff81111561129257611292611a7e565b6040519080825280601f01601f1916602001820160405280156112bc576020820181803683370190505b5090505b8415610df9576112d1600183611df4565b91506112de600a86611e5d565b6112e9906030611e07565b60f81b8183815181106112fe576112fe611e71565b60200101907effffffffffffffffffffffffffffffffffffffffffffffffffffffffffffff1916908160001a905350611338600a86611e49565b94506112c0565b6000828152600360205260409020546001600160a01b03166113af5760405162461bcd60e51b8152602060048201526024808201527f45524337323157697468446174613a20546f6b656e20646f6573206e6f7420656044820152631e1a5cdd60e21b6064820152608401610519565b60008281526009602052604090206105d88282611ecd565b600080546001600160a01b038381166001600160a01b0319831681178455604051919092169283917f8be0079c531659141344cd1fd0a4f28419497f9722a3daafe3b4186f6b6457e09190a35050565b60006114228261074f565b905061142f600083610d14565b6001600160a01b0381166000908152600460205260408120805460019290611458908490611df4565b909155505060008281526003602052604080822080546001600160a01b0319169055518391906001600160a01b038416907fddf252ad1be2c89b69c2b068fc378daa952ba7f163c4a11628f55a4df523b3ef908390a45050565b816001600160a01b0316836001600160a01b0316036115135760405162461bcd60e51b815260206004820152601960248201527f4552433732313a20617070726f766520746f2063616c6c6572000000000000006044820152606401610519565b6001600160a01b03838116600081815260066020908152604080832094871680845294825291829020805460ff191686151590811790915591519182527f17307eab39ab6107e8899845ad3d59bd9653f200f220920489ca2b5937696c31910160405180910390a3505050565b61158b848484610e01565b61159784848484611740565b6105e75760405162461bcd60e51b815260206004820152603260248201527f4552433732313a207472616e7366657220746f206e6f6e20455243373231526560448201527131b2b4bb32b91034b6b83632b6b2b73a32b960711b6064820152608401610519565b6001600160a01b0382166116545760405162461bcd60e51b815260206004820181905260248201527f4552433732313a206d696e7420746f20746865207a65726f20616464726573736044820152606401610519565b6000818152600360205260409020546001600160a01b0316156116b95760405162461bcd60e51b815260206004820152601c60248201527f4552433732313a20746f6b656e20616c7265616479206d696e746564000000006044820152606401610519565b6001600160a01b03821660009081526004602052604081208054600192906116e2908490611e07565b909155505060008181526003602052604080822080546001600160a01b0319166001600160a01b03861690811790915590518392907fddf252ad1be2c89b69c2b068fc378daa952ba7f163c4a11628f55a4df523b3ef908290a45050565b60006001600160a01b0384163b1561188157604051630a85bd0160e11b81526001600160a01b0385169063150b7a0290611784903390899088908890600401611f8d565b6020604051808303816000875af19250505080156117bf575060408051601f3d908101601f191682019092526117bc91810190611fc9565b60015b611867573d8080156117ed576040519150601f19603f3d011682016040523d82523d6000602084013e6117f2565b606091505b50805160000361185f5760405162461bcd60e51b815260206004820152603260248201527f4552433732313a207472616e7366657220746f206e6f6e20455243373231526560448201527131b2b4bb32b91034b6b83632b6b2b73a32b960711b6064820152608401610519565b805181602001fd5b6001600160e01b031916630a85bd0160e11b149050610df9565b506001949350505050565b6001600160e01b031981168114610c0957600080fd5b6000602082840312156118b457600080fd5b81356118bf8161188c565b9392505050565b60005b838110156118e15781810151838201526020016118c9565b50506000910152565b600081518084526119028160208601602086016118c6565b601f01601f19169290920160200192915050565b6020815260006118bf60208301846118ea565b60006020828403121561193b57600080fd5b5035919050565b80356001600160a01b038116811461195957600080fd5b919050565b6000806040838503121561197157600080fd5b61197a83611942565b946020939093013593505050565b8035801515811461195957600080fd5b60008083601f8401126119aa57600080fd5b50813567ffffffffffffffff8111156119c257600080fd5b6020830191508360208285010111156119da57600080fd5b9250929050565b600080600080606085870312156119f757600080fd5b611a0085611942565b9350611a0e60208601611988565b9250604085013567ffffffffffffffff811115611a2a57600080fd5b611a3687828801611998565b95989497509550505050565b600080600060608486031215611a5757600080fd5b611a6084611942565b9250611a6e60208501611942565b9150604084013590509250925092565b634e487b7160e01b600052604160045260246000fd5b600067ffffffffffffffff80841115611aaf57611aaf611a7e565b604051601f8501601f19908116603f01168101908282118183101715611ad757611ad7611a7e565b81604052809350858152868686011115611af057600080fd5b858560208301376000602087830101525050509392505050565b60008060008060608587031215611b2057600080fd5b611b2985611942565b9350602085013567ffffffffffffffff80821115611b4657600080fd5b611b5288838901611998565b90955093506040870135915080821115611b6b57600080fd5b508501601f81018713611b7d57600080fd5b611b8c87823560208401611a94565b91505092959194509250565b600060208284031215611baa57600080fd5b6118bf82611942565b60008060008060608587031215611bc957600080fd5b611bd285611942565b935060208501359250604085013567ffffffffffffffff811115611a2a57600080fd5b60008060408385031215611c0857600080fd5b611c1183611942565b9150611c1f60208401611988565b90509250929050565b60008060008060808587031215611c3e57600080fd5b611c4785611942565b9350611c5560208601611942565b925060408501359150606085013567ffffffffffffffff811115611c7857600080fd5b8501601f81018713611b7d57600080fd5b600080600080600060808688031215611ca157600080fd5b611caa86611942565b9450611cb860208701611942565b935060408601359250606086013567ffffffffffffffff811115611cdb57600080fd5b611ce788828901611998565b969995985093965092949392505050565b600080600060408486031215611d0d57600080fd5b611d1684611942565b9250602084013567ffffffffffffffff811115611d3257600080fd5b611d3e86828701611998565b9497909650939450505050565b60008060408385031215611d5e57600080fd5b611d6783611942565b9150611c1f60208401611942565b600181811c90821680611d8957607f821691505b602082108103611da957634e487b7160e01b600052602260045260246000fd5b50919050565b60008351611dc18184602088016118c6565b835190830190611dd58183602088016118c6565b01949350505050565b634e487b7160e01b600052601160045260246000fd5b818103818111156103ca576103ca611dde565b808201808211156103ca576103ca611dde565b600060018201611e2c57611e2c611dde565b5060010190565b634e487b7160e01b600052601260045260246000fd5b600082611e5857611e58611e33565b500490565b600082611e6c57611e6c611e33565b500690565b634e487b7160e01b600052603260045260246000fd5b601f8211156105d857600081815260208120601f850160051c81016020861015611eae5750805b601f850160051c820191505b8181101561072c57828155600101611eba565b815167ffffffffffffffff811115611ee757611ee7611a7e565b611efb81611ef58454611d75565b84611e87565b602080601f831160018114611f305760008415611f185750858301515b600019600386901b1c1916600185901b17855561072c565b600085815260208120601f198616915b82811015611f5f57888601518255948401946001909101908401611f40565b5085821015611f7d5787850151600019600388901b60f8161c191681555b5050505050600190811b01905550565b60006001600160a01b03808716835280861660208401525083604083015260806060830152611fbf60808301846118ea565b9695505050505050565b600060208284031215611fdb57600080fd5b81516118bf8161188c56fea26469706673582212200e5ca8af4350c2f247ed2d417a7df52ae16ff05f7573e74ac398907e7d65e46964736f6c63430008110033",
  "linkReferences": {},
  "deployedLinkReferences": {}
}