{
  "_format": "hh-sol-artifact-1",
  "contractName": "InterfaceCheck",
  "sourceName": "contracts/InterfaceCheck.sol",
  "abi": [
    {
      "inputs": [],
      "name": "erc20WithData",
      "outputs": [
        {
          "internalType": "bytes4",
          "name": "",
          "type": "bytes4"
        }
      ],
      "stateMutability": "view",
      "type": "function"
    },
    {
      "inputs": [],
      "name": "erc721WithData",
      "outputs": [
        {
          "internalType": "bytes4",
          "name": "",
          "type": "bytes4"
        }
      ],
      "stateMutability": "view",
      "type": "function"
    },
    {
      "inputs": [],
      "name": "tokenfactory",
      "outputs": [
        {
          "internalType": "bytes4",
          "name": "",
          "type": "bytes4"
        }
      ],
      "stateMutability": "view",
      "type": "function"
    }
  ],
  "bytecode": "0x608060405234801561001057600080fd5b50610118806100206000396000f3fe6080604052348015600f57600080fd5b5060043610603c5760003560e01c80637a40160e1460415780638f48f171146098578063c7f1b08f1460bd575b600080fd5b7faefdad0f000000000000000000000000000000000000000000000000000000005b6040517fffffffff00000000000000000000000000000000000000000000000000000000909116815260200160405180910390f35b7f83a74a0c000000000000000000000000000000000000000000000000000000006063565b7faefe69bf00000000000000000000000000000000000000000000000000000000606356fea264697066735822122043922eb5e7ed24b7a2bbcc06f5579955451888dfbbde46aa6d89fc5678bc9caa64736f6c63430008040033",
  "linkReferences": {},
  "deployedLinkReferences": {}
}