{
  "_format": "hh-sol-artifact-1",
  "contractName": "TokenFactory",
  "sourceName": "contracts/TokenFactory.sol",
  "abi": [
    {
      "anonymous": false,
      "inputs": [
        {
          "indexed": true,
          "internalType": "address",
          "name": "contract_address",
          "type": "address"
        },
        {
          "indexed": false,
          "internalType": "string",
          "name": "name",
          "type": "string"
        },
        {
          "indexed": false,
          "internalType": "string",
          "name": "symbol",
          "type": "string"
        },
        {
          "indexed": false,
          "internalType": "bool",
          "name": "is_fungible",
          "type": "bool"
        },
        {
          "indexed": false,
          "internalType": "bytes",
          "name": "data",
          "type": "bytes"
        }
      ],
      "name": "TokenPoolCreation",
      "type": "event"
    },
    {
      "inputs": [
        {
          "internalType": "string",
          "name": "name",
          "type": "string"
        },
        {
          "internalType": "string",
          "name": "symbol",
          "type": "string"
        },
        {
          "internalType": "bool",
          "name": "is_fungible",
          "type": "bool"
        },
        {
          "internalType": "bytes",
          "name": "data",
          "type": "bytes"
        }
      ],
      "name": "create",
      "outputs": [],
      "stateMutability": "nonpayable",
      "type": "function"
    }
  ],
  "bytecode": "0x608060405234801561001057600080fd5b50616162806100206000396000f3fe60806040523480156200001157600080fd5b50600436106200002e5760003560e01c8063fdd9b5d51462000033575b600080fd5b6200005160048036038101906200004b919062000384565b62000053565b005b82156200017157600085856040516200006c9062000292565b62000079929190620004f3565b604051809103906000f08015801562000096573d6000803e3d6000fd5b5090508073ffffffffffffffffffffffffffffffffffffffff1663f2fde38b620000bf6200028a565b6040518263ffffffff1660e01b8152600401620000dd9190620004d6565b600060405180830381600087803b158015620000f857600080fd5b505af11580156200010d573d6000803e3d6000fd5b505050508073ffffffffffffffffffffffffffffffffffffffff167fca8fb21c1d554712c6778c5f566f410954f08d7eba66fd8e740581f9d93e1306878760018787604051620001629594939291906200052e565b60405180910390a25062000283565b600085856040516200018390620002a0565b62000190929190620004f3565b604051809103906000f080158015620001ad573d6000803e3d6000fd5b5090508073ffffffffffffffffffffffffffffffffffffffff1663f2fde38b620001d66200028a565b6040518263ffffffff1660e01b8152600401620001f49190620004d6565b600060405180830381600087803b1580156200020f57600080fd5b505af115801562000224573d6000803e3d6000fd5b505050508073ffffffffffffffffffffffffffffffffffffffff167fca8fb21c1d554712c6778c5f566f410954f08d7eba66fd8e740581f9d93e1306878760008787604051620002799594939291906200052e565b60405180910390a2505b5050505050565b600033905090565b6124c9806200073483390190565b6135308062002bfd83390190565b6000620002c5620002bf84620005bb565b62000592565b905082815260208101848484011115620002de57600080fd5b620002eb8482856200065e565b509392505050565b600081359050620003048162000719565b92915050565b60008083601f8401126200031d57600080fd5b8235905067ffffffffffffffff8111156200033757600080fd5b6020830191508360018202830111156200035057600080fd5b9250929050565b600082601f8301126200036957600080fd5b81356200037b848260208601620002ae565b91505092915050565b6000806000806000608086880312156200039d57600080fd5b600086013567ffffffffffffffff811115620003b857600080fd5b620003c68882890162000357565b955050602086013567ffffffffffffffff811115620003e457600080fd5b620003f28882890162000357565b94505060406200040588828901620002f3565b935050606086013567ffffffffffffffff8111156200042357600080fd5b62000431888289016200030a565b92509250509295509295909350565b6200044b816200061e565b82525050565b6200045c8162000632565b82525050565b6000620004708385620005fc565b93506200047f8385846200065e565b6200048a8362000708565b840190509392505050565b6000620004a282620005f1565b620004ae81856200060d565b9350620004c08185602086016200066d565b620004cb8162000708565b840191505092915050565b6000602082019050620004ed600083018462000440565b92915050565b600060408201905081810360008301526200050f818562000495565b9050818103602083015262000525818462000495565b90509392505050565b600060808201905081810360008301526200054a818862000495565b9050818103602083015262000560818762000495565b905062000571604083018662000451565b81810360608301526200058681848662000462565b90509695505050505050565b60006200059e620005b1565b9050620005ac8282620006a3565b919050565b6000604051905090565b600067ffffffffffffffff821115620005d957620005d8620006d9565b5b620005e48262000708565b9050602081019050919050565b600081519050919050565b600082825260208201905092915050565b600082825260208201905092915050565b60006200062b826200063e565b9050919050565b60008115159050919050565b600073ffffffffffffffffffffffffffffffffffffffff82169050919050565b82818337600083830152505050565b60005b838110156200068d57808201518184015260208101905062000670565b838111156200069d576000848401525b50505050565b620006ae8262000708565b810181811067ffffffffffffffff82111715620006d057620006cf620006d9565b5b80604052505050565b7f4e487b7100000000000000000000000000000000000000000000000000000000600052604160045260246000fd5b6000601f19601f8301169050919050565b620007248162000632565b81146200073057600080fd5b5056fe60806040523480156200001157600080fd5b50604051620024c9380380620024c9833981810160405281019062000037919062000283565b8181620000596200004d6200009560201b60201c565b6200009d60201b60201c565b81600490805190602001906200007192919062000161565b5080600590805190602001906200008a92919062000161565b505050505062000466565b600033905090565b60008060009054906101000a900473ffffffffffffffffffffffffffffffffffffffff169050816000806101000a81548173ffffffffffffffffffffffffffffffffffffffff021916908373ffffffffffffffffffffffffffffffffffffffff1602179055508173ffffffffffffffffffffffffffffffffffffffff168173ffffffffffffffffffffffffffffffffffffffff167f8be0079c531659141344cd1fd0a4f28419497f9722a3daafe3b4186f6b6457e060405160405180910390a35050565b8280546200016f906200038b565b90600052602060002090601f016020900481019282620001935760008555620001df565b82601f10620001ae57805160ff1916838001178555620001df565b82800160010185558215620001df579182015b82811115620001de578251825591602001919060010190620001c1565b5b509050620001ee9190620001f2565b5090565b5b808211156200020d576000816000905550600101620001f3565b5090565b60006200022862000222846200031f565b620002f6565b9050828152602081018484840111156200024157600080fd5b6200024e84828562000355565b509392505050565b600082601f8301126200026857600080fd5b81516200027a84826020860162000211565b91505092915050565b600080604083850312156200029757600080fd5b600083015167ffffffffffffffff811115620002b257600080fd5b620002c08582860162000256565b925050602083015167ffffffffffffffff811115620002de57600080fd5b620002ec8582860162000256565b9150509250929050565b60006200030262000315565b9050620003108282620003c1565b919050565b6000604051905090565b600067ffffffffffffffff8211156200033d576200033c62000426565b5b620003488262000455565b9050602081019050919050565b60005b838110156200037557808201518184015260208101905062000358565b8381111562000385576000848401525b50505050565b60006002820490506001821680620003a457607f821691505b60208210811415620003bb57620003ba620003f7565b5b50919050565b620003cc8262000455565b810181811067ffffffffffffffff82111715620003ee57620003ed62000426565b5b80604052505050565b7f4e487b7100000000000000000000000000000000000000000000000000000000600052602260045260246000fd5b7f4e487b7100000000000000000000000000000000000000000000000000000000600052604160045260246000fd5b6000601f19601f8301169050919050565b61205380620004766000396000f3fe608060405234801561001057600080fd5b50600436106101165760003560e01c806383e49c53116100a2578063a457c2d711610071578063a457c2d7146102e3578063a9059cbb14610313578063c0ea7a7a14610343578063dd62ed3e1461035f578063f2fde38b1461038f57610116565b806383e49c531461026f5780638da5cb5b1461028b57806395d89b41146102a957806396adfe42146102c757610116565b8063313ce567116100e9578063313ce567146101b757806339509351146101d557806370a0823114610205578063715018a6146102355780637b5eb5641461023f57610116565b806306fdde031461011b578063095ea7b31461013957806318160ddd1461016957806323b872dd14610187575b600080fd5b6101236103ab565b6040516101309190611897565b60405180910390f35b610153600480360381019061014e919061157d565b61043d565b604051610160919061187c565b60405180910390f35b610171610460565b60405161017e9190611a59565b60405180910390f35b6101a1600480360381019061019c91906114ae565b61046a565b6040516101ae919061187c565b60405180910390f35b6101bf610499565b6040516101cc9190611a74565b60405180910390f35b6101ef60048036038101906101ea919061157d565b6104a2565b6040516101fc919061187c565b60405180910390f35b61021f600480360381019061021a9190611449565b61054c565b60405161022c9190611a59565b60405180910390f35b61023d610595565b005b610259600480360381019061025491906115b9565b61061d565b604051610266919061187c565b60405180910390f35b610289600480360381019061028491906115b9565b610633565b005b6102936106b8565b6040516102a09190611861565b60405180910390f35b6102b16106e1565b6040516102be9190611897565b60405180910390f35b6102e160048036038101906102dc91906115b9565b610773565b005b6102fd60048036038101906102f8919061157d565b6107ff565b60405161030a919061187c565b60405180910390f35b61032d6004803603810190610328919061157d565b6108e9565b60405161033a919061187c565b60405180910390f35b61035d600480360381019061035891906114fd565b61090c565b005b61037960048036038101906103749190611472565b61096b565b6040516103869190611a59565b60405180910390f35b6103a960048036038101906103a49190611449565b6109f2565b005b6060600480546103ba90611bbd565b80601f01602080910402602001604051908101604052809291908181526020018280546103e690611bbd565b80156104335780601f1061040857610100808354040283529160200191610433565b820191906000526020600020905b81548152906001019060200180831161041657829003601f168201915b5050505050905090565b600080610448610aea565b9050610455818585610af2565b600191505092915050565b6000600354905090565b600080610475610aea565b9050610482858285610cbd565b61048d858585610d49565b60019150509392505050565b60006012905090565b6000806104ad610aea565b9050610541818585600260008673ffffffffffffffffffffffffffffffffffffffff1673ffffffffffffffffffffffffffffffffffffffff16815260200190815260200160002060008973ffffffffffffffffffffffffffffffffffffffff1673ffffffffffffffffffffffffffffffffffffffff1681526020019081526020016000205461053c9190611aab565b610af2565b600191505092915050565b6000600160008373ffffffffffffffffffffffffffffffffffffffff1673ffffffffffffffffffffffffffffffffffffffff168152602001908152602001600020549050919050565b61059d610aea565b73ffffffffffffffffffffffffffffffffffffffff166105bb6106b8565b73ffffffffffffffffffffffffffffffffffffffff1614610611576040517f08c379a000000000000000000000000000000000000000000000000000000000815260040161060890611999565b60405180910390fd5b61061b6000610fcd565b565b6000610629858561043d565b9050949350505050565b61063b610aea565b73ffffffffffffffffffffffffffffffffffffffff168473ffffffffffffffffffffffffffffffffffffffff16146106a8576040517f08c379a000000000000000000000000000000000000000000000000000000000815260040161069f90611979565b60405180910390fd5b6106b28484611091565b50505050565b60008060009054906101000a900473ffffffffffffffffffffffffffffffffffffffff16905090565b6060600580546106f090611bbd565b80601f016020809104026020016040519081016040528092919081815260200182805461071c90611bbd565b80156107695780601f1061073e57610100808354040283529160200191610769565b820191906000526020600020905b81548152906001019060200180831161074c57829003601f168201915b5050505050905090565b61077b610aea565b73ffffffffffffffffffffffffffffffffffffffff166107996106b8565b73ffffffffffffffffffffffffffffffffffffffff16146107ef576040517f08c379a00000000000000000000000000000000000000000000000000000000081526004016107e690611999565b60405180910390fd5b6107f9848461126a565b50505050565b60008061080a610aea565b90506000600260008373ffffffffffffffffffffffffffffffffffffffff1673ffffffffffffffffffffffffffffffffffffffff16815260200190815260200160002060008673ffffffffffffffffffffffffffffffffffffffff1673ffffffffffffffffffffffffffffffffffffffff168152602001908152602001600020549050838110156108d0576040517f08c379a00000000000000000000000000000000000000000000000000000000081526004016108c790611a19565b60405180910390fd5b6108dd8286868403610af2565b60019250505092915050565b6000806108f4610aea565b9050610901818585610d49565b600191505092915050565b610914610aea565b73ffffffffffffffffffffffffffffffffffffffff168573ffffffffffffffffffffffffffffffffffffffff1614156109575761095184846108e9565b50610964565b61096285858561046a565b505b5050505050565b6000600260008473ffffffffffffffffffffffffffffffffffffffff1673ffffffffffffffffffffffffffffffffffffffff16815260200190815260200160002060008373ffffffffffffffffffffffffffffffffffffffff1673ffffffffffffffffffffffffffffffffffffffff16815260200190815260200160002054905092915050565b6109fa610aea565b73ffffffffffffffffffffffffffffffffffffffff16610a186106b8565b73ffffffffffffffffffffffffffffffffffffffff1614610a6e576040517f08c379a0000000000000000000000000000000000000000000000000000000008152600401610a6590611999565b60405180910390fd5b600073ffffffffffffffffffffffffffffffffffffffff168173ffffffffffffffffffffffffffffffffffffffff161415610ade576040517f08c379a0000000000000000000000000000000000000000000000000000000008152600401610ad5906118f9565b60405180910390fd5b610ae781610fcd565b50565b600033905090565b600073ffffffffffffffffffffffffffffffffffffffff168373ffffffffffffffffffffffffffffffffffffffff161415610b62576040517f08c379a0000000000000000000000000000000000000000000000000000000008152600401610b59906119f9565b60405180910390fd5b600073ffffffffffffffffffffffffffffffffffffffff168273ffffffffffffffffffffffffffffffffffffffff161415610bd2576040517f08c379a0000000000000000000000000000000000000000000000000000000008152600401610bc990611919565b60405180910390fd5b80600260008573ffffffffffffffffffffffffffffffffffffffff1673ffffffffffffffffffffffffffffffffffffffff16815260200190815260200160002060008473ffffffffffffffffffffffffffffffffffffffff1673ffffffffffffffffffffffffffffffffffffffff168152602001908152602001600020819055508173ffffffffffffffffffffffffffffffffffffffff168373ffffffffffffffffffffffffffffffffffffffff167f8c5be1e5ebec7d5bd14f71427d1e84f3dd0314c0f7b2291e5b200ac8c7c3b92583604051610cb09190611a59565b60405180910390a3505050565b6000610cc9848461096b565b90507fffffffffffffffffffffffffffffffffffffffffffffffffffffffffffffffff8114610d435781811015610d35576040517f08c379a0000000000000000000000000000000000000000000000000000000008152600401610d2c90611939565b60405180910390fd5b610d428484848403610af2565b5b50505050565b600073ffffffffffffffffffffffffffffffffffffffff168373ffffffffffffffffffffffffffffffffffffffff161415610db9576040517f08c379a0000000000000000000000000000000000000000000000000000000008152600401610db0906119d9565b60405180910390fd5b600073ffffffffffffffffffffffffffffffffffffffff168273ffffffffffffffffffffffffffffffffffffffff161415610e29576040517f08c379a0000000000000000000000000000000000000000000000000000000008152600401610e20906118b9565b60405180910390fd5b610e348383836113cb565b6000600160008573ffffffffffffffffffffffffffffffffffffffff1673ffffffffffffffffffffffffffffffffffffffff16815260200190815260200160002054905081811015610ebb576040517f08c379a0000000000000000000000000000000000000000000000000000000008152600401610eb290611959565b60405180910390fd5b818103600160008673ffffffffffffffffffffffffffffffffffffffff1673ffffffffffffffffffffffffffffffffffffffff1681526020019081526020016000208190555081600160008573ffffffffffffffffffffffffffffffffffffffff1673ffffffffffffffffffffffffffffffffffffffff1681526020019081526020016000206000828254610f509190611aab565b925050819055508273ffffffffffffffffffffffffffffffffffffffff168473ffffffffffffffffffffffffffffffffffffffff167fddf252ad1be2c89b69c2b068fc378daa952ba7f163c4a11628f55a4df523b3ef84604051610fb49190611a59565b60405180910390a3610fc78484846113d0565b50505050565b60008060009054906101000a900473ffffffffffffffffffffffffffffffffffffffff169050816000806101000a81548173ffffffffffffffffffffffffffffffffffffffff021916908373ffffffffffffffffffffffffffffffffffffffff1602179055508173ffffffffffffffffffffffffffffffffffffffff168173ffffffffffffffffffffffffffffffffffffffff167f8be0079c531659141344cd1fd0a4f28419497f9722a3daafe3b4186f6b6457e060405160405180910390a35050565b600073ffffffffffffffffffffffffffffffffffffffff168273ffffffffffffffffffffffffffffffffffffffff161415611101576040517f08c379a00000000000000000000000000000000000000000000000000000000081526004016110f8906119b9565b60405180910390fd5b61110d826000836113cb565b6000600160008473ffffffffffffffffffffffffffffffffffffffff1673ffffffffffffffffffffffffffffffffffffffff16815260200190815260200160002054905081811015611194576040517f08c379a000000000000000000000000000000000000000000000000000000000815260040161118b906118d9565b60405180910390fd5b818103600160008573ffffffffffffffffffffffffffffffffffffffff1673ffffffffffffffffffffffffffffffffffffffff1681526020019081526020016000208190555081600360008282546111ec9190611b01565b92505081905550600073ffffffffffffffffffffffffffffffffffffffff168373ffffffffffffffffffffffffffffffffffffffff167fddf252ad1be2c89b69c2b068fc378daa952ba7f163c4a11628f55a4df523b3ef846040516112519190611a59565b60405180910390a3611265836000846113d0565b505050565b600073ffffffffffffffffffffffffffffffffffffffff168273ffffffffffffffffffffffffffffffffffffffff1614156112da576040517f08c379a00000000000000000000000000000000000000000000000000000000081526004016112d190611a39565b60405180910390fd5b6112e6600083836113cb565b80600360008282546112f89190611aab565b9250508190555080600160008473ffffffffffffffffffffffffffffffffffffffff1673ffffffffffffffffffffffffffffffffffffffff168152602001908152602001600020600082825461134e9190611aab565b925050819055508173ffffffffffffffffffffffffffffffffffffffff16600073ffffffffffffffffffffffffffffffffffffffff167fddf252ad1be2c89b69c2b068fc378daa952ba7f163c4a11628f55a4df523b3ef836040516113b39190611a59565b60405180910390a36113c7600083836113d0565b5050565b505050565b505050565b6000813590506113e481611fef565b92915050565b60008083601f8401126113fc57600080fd5b8235905067ffffffffffffffff81111561141557600080fd5b60208301915083600182028301111561142d57600080fd5b9250929050565b60008135905061144381612006565b92915050565b60006020828403121561145b57600080fd5b6000611469848285016113d5565b91505092915050565b6000806040838503121561148557600080fd5b6000611493858286016113d5565b92505060206114a4858286016113d5565b9150509250929050565b6000806000606084860312156114c357600080fd5b60006114d1868287016113d5565b93505060206114e2868287016113d5565b92505060406114f386828701611434565b9150509250925092565b60008060008060006080868803121561151557600080fd5b6000611523888289016113d5565b9550506020611534888289016113d5565b945050604061154588828901611434565b935050606086013567ffffffffffffffff81111561156257600080fd5b61156e888289016113ea565b92509250509295509295909350565b6000806040838503121561159057600080fd5b600061159e858286016113d5565b92505060206115af85828601611434565b9150509250929050565b600080600080606085870312156115cf57600080fd5b60006115dd878288016113d5565b94505060206115ee87828801611434565b935050604085013567ffffffffffffffff81111561160b57600080fd5b611617878288016113ea565b925092505092959194509250565b61162e81611b35565b82525050565b61163d81611b47565b82525050565b600061164e82611a8f565b6116588185611a9a565b9350611668818560208601611b8a565b61167181611c4d565b840191505092915050565b6000611689602383611a9a565b915061169482611c5e565b604082019050919050565b60006116ac602283611a9a565b91506116b782611cad565b604082019050919050565b60006116cf602683611a9a565b91506116da82611cfc565b604082019050919050565b60006116f2602283611a9a565b91506116fd82611d4b565b604082019050919050565b6000611715601d83611a9a565b915061172082611d9a565b602082019050919050565b6000611738602683611a9a565b915061174382611dc3565b604082019050919050565b600061175b602283611a9a565b915061176682611e12565b604082019050919050565b600061177e602083611a9a565b915061178982611e61565b602082019050919050565b60006117a1602183611a9a565b91506117ac82611e8a565b604082019050919050565b60006117c4602583611a9a565b91506117cf82611ed9565b604082019050919050565b60006117e7602483611a9a565b91506117f282611f28565b604082019050919050565b600061180a602583611a9a565b915061181582611f77565b604082019050919050565b600061182d601f83611a9a565b915061183882611fc6565b602082019050919050565b61184c81611b73565b82525050565b61185b81611b7d565b82525050565b60006020820190506118766000830184611625565b92915050565b60006020820190506118916000830184611634565b92915050565b600060208201905081810360008301526118b18184611643565b905092915050565b600060208201905081810360008301526118d28161167c565b9050919050565b600060208201905081810360008301526118f28161169f565b9050919050565b60006020820190508181036000830152611912816116c2565b9050919050565b60006020820190508181036000830152611932816116e5565b9050919050565b6000602082019050818103600083015261195281611708565b9050919050565b600060208201905081810360008301526119728161172b565b9050919050565b600060208201905081810360008301526119928161174e565b9050919050565b600060208201905081810360008301526119b281611771565b9050919050565b600060208201905081810360008301526119d281611794565b9050919050565b600060208201905081810360008301526119f2816117b7565b9050919050565b60006020820190508181036000830152611a12816117da565b9050919050565b60006020820190508181036000830152611a32816117fd565b9050919050565b60006020820190508181036000830152611a5281611820565b9050919050565b6000602082019050611a6e6000830184611843565b92915050565b6000602082019050611a896000830184611852565b92915050565b600081519050919050565b600082825260208201905092915050565b6000611ab682611b73565b9150611ac183611b73565b9250827fffffffffffffffffffffffffffffffffffffffffffffffffffffffffffffffff03821115611af657611af5611bef565b5b828201905092915050565b6000611b0c82611b73565b9150611b1783611b73565b925082821015611b2a57611b29611bef565b5b828203905092915050565b6000611b4082611b53565b9050919050565b60008115159050919050565b600073ffffffffffffffffffffffffffffffffffffffff82169050919050565b6000819050919050565b600060ff82169050919050565b60005b83811015611ba8578082015181840152602081019050611b8d565b83811115611bb7576000848401525b50505050565b60006002820490506001821680611bd557607f821691505b60208210811415611be957611be8611c1e565b5b50919050565b7f4e487b7100000000000000000000000000000000000000000000000000000000600052601160045260246000fd5b7f4e487b7100000000000000000000000000000000000000000000000000000000600052602260045260246000fd5b6000601f19601f8301169050919050565b7f45524332303a207472616e7366657220746f20746865207a65726f206164647260008201527f6573730000000000000000000000000000000000000000000000000000000000602082015250565b7f45524332303a206275726e20616d6f756e7420657863656564732062616c616e60008201527f6365000000000000000000000000000000000000000000000000000000000000602082015250565b7f4f776e61626c653a206e6577206f776e657220697320746865207a65726f206160008201527f6464726573730000000000000000000000000000000000000000000000000000602082015250565b7f45524332303a20617070726f766520746f20746865207a65726f20616464726560008201527f7373000000000000000000000000000000000000000000000000000000000000602082015250565b7f45524332303a20696e73756666696369656e7420616c6c6f77616e6365000000600082015250565b7f45524332303a207472616e7366657220616d6f756e742065786365656473206260008201527f616c616e63650000000000000000000000000000000000000000000000000000602082015250565b7f455243323057697468446174613a2063616c6c6572206973206e6f74206f776e60008201527f6572000000000000000000000000000000000000000000000000000000000000602082015250565b7f4f776e61626c653a2063616c6c6572206973206e6f7420746865206f776e6572600082015250565b7f45524332303a206275726e2066726f6d20746865207a65726f2061646472657360008201527f7300000000000000000000000000000000000000000000000000000000000000602082015250565b7f45524332303a207472616e736665722066726f6d20746865207a65726f20616460008201527f6472657373000000000000000000000000000000000000000000000000000000602082015250565b7f45524332303a20617070726f76652066726f6d20746865207a65726f2061646460008201527f7265737300000000000000000000000000000000000000000000000000000000602082015250565b7f45524332303a2064656372656173656420616c6c6f77616e63652062656c6f7760008201527f207a65726f000000000000000000000000000000000000000000000000000000602082015250565b7f45524332303a206d696e7420746f20746865207a65726f206164647265737300600082015250565b611ff881611b35565b811461200357600080fd5b50565b61200f81611b73565b811461201a57600080fd5b5056fea264697066735822122018923511bb795662c2e03444be6d2b2cab5e0f6b5918df57dad8c55dbdd8321664736f6c6343000804003360806040523480156200001157600080fd5b506040516200353038038062003530833981810160405281019062000037919062000283565b8181620000596200004d6200009560201b60201c565b6200009d60201b60201c565b81600190805190602001906200007192919062000161565b5080600290805190602001906200008a92919062000161565b505050505062000466565b600033905090565b60008060009054906101000a900473ffffffffffffffffffffffffffffffffffffffff169050816000806101000a81548173ffffffffffffffffffffffffffffffffffffffff021916908373ffffffffffffffffffffffffffffffffffffffff1602179055508173ffffffffffffffffffffffffffffffffffffffff168173ffffffffffffffffffffffffffffffffffffffff167f8be0079c531659141344cd1fd0a4f28419497f9722a3daafe3b4186f6b6457e060405160405180910390a35050565b8280546200016f906200038b565b90600052602060002090601f016020900481019282620001935760008555620001df565b82601f10620001ae57805160ff1916838001178555620001df565b82800160010185558215620001df579182015b82811115620001de578251825591602001919060010190620001c1565b5b509050620001ee9190620001f2565b5090565b5b808211156200020d576000816000905550600101620001f3565b5090565b60006200022862000222846200031f565b620002f6565b9050828152602081018484840111156200024157600080fd5b6200024e84828562000355565b509392505050565b600082601f8301126200026857600080fd5b81516200027a84826020860162000211565b91505092915050565b600080604083850312156200029757600080fd5b600083015167ffffffffffffffff811115620002b257600080fd5b620002c08582860162000256565b925050602083015167ffffffffffffffff811115620002de57600080fd5b620002ec8582860162000256565b9150509250929050565b60006200030262000315565b9050620003108282620003c1565b919050565b6000604051905090565b600067ffffffffffffffff8211156200033d576200033c62000426565b5b620003488262000455565b9050602081019050919050565b60005b838110156200037557808201518184015260208101905062000358565b8381111562000385576000848401525b50505050565b60006002820490506001821680620003a457607f821691505b60208210811415620003bb57620003ba620003f7565b5b50919050565b620003cc8262000455565b810181811067ffffffffffffffff82111715620003ee57620003ed62000426565b5b80604052505050565b7f4e487b7100000000000000000000000000000000000000000000000000000000600052602260045260246000fd5b7f4e487b7100000000000000000000000000000000000000000000000000000000600052604160045260246000fd5b6000601f19601f8301169050919050565b6130ba80620004766000396000f3fe608060405234801561001057600080fd5b50600436106101375760003560e01c80637b5eb564116100b8578063a22cb4651161007c578063a22cb46514610324578063b88d4fde14610340578063c0ea7a7a1461035c578063c87b56dd14610378578063e985e9c5146103a8578063f2fde38b146103d857610137565b80637b5eb5641461029457806383e49c53146102b05780638da5cb5b146102cc57806395d89b41146102ea57806396adfe421461030857610137565b806323b872dd116100ff57806323b872dd146101f257806342842e0e1461020e5780636352211e1461022a57806370a082311461025a578063715018a61461028a57610137565b806301ffc9a71461013c57806306fdde031461016c578063081812fc1461018a578063095ea7b3146101ba5780631cbf311d146101d6575b600080fd5b6101566004803603810190610151919061212c565b6103f4565b6040516101639190612555565b60405180910390f35b6101746104d6565b6040516101819190612570565b60405180910390f35b6101a4600480360381019061019f919061217e565b610568565b6040516101b191906124ee565b60405180910390f35b6101d460048036038101906101cf9190612084565b6105ed565b005b6101f060048036038101906101eb9190612018565b610705565b005b61020c60048036038101906102079190611e92565b610715565b005b61022860048036038101906102239190611e92565b610775565b005b610244600480360381019061023f919061217e565b610795565b60405161025191906124ee565b60405180910390f35b610274600480360381019061026f9190611e2d565b610847565b60405161028191906127b2565b60405180910390f35b6102926108ff565b005b6102ae60048036038101906102a991906120c0565b610987565b005b6102ca60048036038101906102c591906120c0565b610997565b005b6102d4610a1b565b6040516102e191906124ee565b60405180910390f35b6102f2610a44565b6040516102ff9190612570565b60405180910390f35b610322600480360381019061031d91906120c0565b610ad6565b005b61033e60048036038101906103399190611fdc565b610ba7565b005b61035a60048036038101906103559190611f61565b610bbd565b005b61037660048036038101906103719190611ee1565b610c1f565b005b610392600480360381019061038d919061217e565b610c76565b60405161039f9190612570565b60405180910390f35b6103c260048036038101906103bd9190611e56565b610d1d565b6040516103cf9190612555565b60405180910390f35b6103f260048036038101906103ed9190611e2d565b610db1565b005b60007f80ac58cd000000000000000000000000000000000000000000000000000000007bffffffffffffffffffffffffffffffffffffffffffffffffffffffff1916827bffffffffffffffffffffffffffffffffffffffffffffffffffffffff191614806104bf57507f5b5e139f000000000000000000000000000000000000000000000000000000007bffffffffffffffffffffffffffffffffffffffffffffffffffffffff1916827bffffffffffffffffffffffffffffffffffffffffffffffffffffffff1916145b806104cf57506104ce82610ea9565b5b9050919050565b6060600180546104e5906129d7565b80601f0160208091040260200160405190810160405280929190818152602001828054610511906129d7565b801561055e5780601f106105335761010080835404028352916020019161055e565b820191906000526020600020905b81548152906001019060200180831161054157829003601f168201915b5050505050905090565b600061057382610f13565b6105b2576040517f08c379a00000000000000000000000000000000000000000000000000000000081526004016105a9906126f2565b60405180910390fd5b6005600083815260200190815260200160002060009054906101000a900473ffffffffffffffffffffffffffffffffffffffff169050919050565b60006105f882610795565b90508073ffffffffffffffffffffffffffffffffffffffff168373ffffffffffffffffffffffffffffffffffffffff161415610669576040517f08c379a000000000000000000000000000000000000000000000000000000000815260040161066090612772565b60405180910390fd5b8073ffffffffffffffffffffffffffffffffffffffff16610688610f7f565b73ffffffffffffffffffffffffffffffffffffffff1614806106b757506106b6816106b1610f7f565b610d1d565b5b6106f6576040517f08c379a00000000000000000000000000000000000000000000000000000000081526004016106ed90612672565b60405180910390fd5b6107008383610f87565b505050565b61070f8484610ba7565b50505050565b610726610720610f7f565b82611040565b610765576040517f08c379a000000000000000000000000000000000000000000000000000000000815260040161075c90612792565b60405180910390fd5b61077083838361111e565b505050565b61079083838360405180602001604052806000815250610bbd565b505050565b6000806003600084815260200190815260200160002060009054906101000a900473ffffffffffffffffffffffffffffffffffffffff169050600073ffffffffffffffffffffffffffffffffffffffff168173ffffffffffffffffffffffffffffffffffffffff16141561083e576040517f08c379a0000000000000000000000000000000000000000000000000000000008152600401610835906126b2565b60405180910390fd5b80915050919050565b60008073ffffffffffffffffffffffffffffffffffffffff168273ffffffffffffffffffffffffffffffffffffffff1614156108b8576040517f08c379a00000000000000000000000000000000000000000000000000000000081526004016108af90612692565b60405180910390fd5b600460008373ffffffffffffffffffffffffffffffffffffffff1673ffffffffffffffffffffffffffffffffffffffff168152602001908152602001600020549050919050565b610907610f7f565b73ffffffffffffffffffffffffffffffffffffffff16610925610a1b565b73ffffffffffffffffffffffffffffffffffffffff161461097b576040517f08c379a000000000000000000000000000000000000000000000000000000000815260040161097290612712565b60405180910390fd5b6109856000611385565b565b61099184846105ed565b50505050565b61099f610f7f565b73ffffffffffffffffffffffffffffffffffffffff168473ffffffffffffffffffffffffffffffffffffffff1614610a0c576040517f08c379a0000000000000000000000000000000000000000000000000000000008152600401610a0390612732565b60405180910390fd5b610a1583611449565b50505050565b60008060009054906101000a900473ffffffffffffffffffffffffffffffffffffffff16905090565b606060028054610a53906129d7565b80601f0160208091040260200160405190810160405280929190818152602001828054610a7f906129d7565b8015610acc5780601f10610aa157610100808354040283529160200191610acc565b820191906000526020600020905b815481529060010190602001808311610aaf57829003601f168201915b5050505050905090565b610ade610f7f565b73ffffffffffffffffffffffffffffffffffffffff16610afc610a1b565b73ffffffffffffffffffffffffffffffffffffffff1614610b52576040517f08c379a0000000000000000000000000000000000000000000000000000000008152600401610b4990612712565b60405180910390fd5b610ba1848484848080601f016020809104026020016040519081016040528093929190818152602001838380828437600081840152601f19601f82011690508083019250505050505050611566565b50505050565b610bb9610bb2610f7f565b83836115c1565b5050565b610bce610bc8610f7f565b83611040565b610c0d576040517f08c379a0000000000000000000000000000000000000000000000000000000008152600401610c0490612792565b60405180910390fd5b610c198484848461172e565b50505050565b610c6f85858585858080601f016020809104026020016040519081016040528093929190818152602001838380828437600081840152601f19601f82011690508083019250505050505050610bbd565b5050505050565b6060610c8182610f13565b610cc0576040517f08c379a0000000000000000000000000000000000000000000000000000000008152600401610cb790612752565b60405180910390fd5b6000610cca61178a565b90506000815111610cea5760405180602001604052806000815250610d15565b80610cf4846117c7565b604051602001610d059291906124ca565b6040516020818303038152906040525b915050919050565b6000600660008473ffffffffffffffffffffffffffffffffffffffff1673ffffffffffffffffffffffffffffffffffffffff16815260200190815260200160002060008373ffffffffffffffffffffffffffffffffffffffff1673ffffffffffffffffffffffffffffffffffffffff16815260200190815260200160002060009054906101000a900460ff16905092915050565b610db9610f7f565b73ffffffffffffffffffffffffffffffffffffffff16610dd7610a1b565b73ffffffffffffffffffffffffffffffffffffffff1614610e2d576040517f08c379a0000000000000000000000000000000000000000000000000000000008152600401610e2490612712565b60405180910390fd5b600073ffffffffffffffffffffffffffffffffffffffff168173ffffffffffffffffffffffffffffffffffffffff161415610e9d576040517f08c379a0000000000000000000000000000000000000000000000000000000008152600401610e94906125b2565b60405180910390fd5b610ea681611385565b50565b60007f01ffc9a7000000000000000000000000000000000000000000000000000000007bffffffffffffffffffffffffffffffffffffffffffffffffffffffff1916827bffffffffffffffffffffffffffffffffffffffffffffffffffffffff1916149050919050565b60008073ffffffffffffffffffffffffffffffffffffffff166003600084815260200190815260200160002060009054906101000a900473ffffffffffffffffffffffffffffffffffffffff1673ffffffffffffffffffffffffffffffffffffffff1614159050919050565b600033905090565b816005600083815260200190815260200160002060006101000a81548173ffffffffffffffffffffffffffffffffffffffff021916908373ffffffffffffffffffffffffffffffffffffffff160217905550808273ffffffffffffffffffffffffffffffffffffffff16610ffa83610795565b73ffffffffffffffffffffffffffffffffffffffff167f8c5be1e5ebec7d5bd14f71427d1e84f3dd0314c0f7b2291e5b200ac8c7c3b92560405160405180910390a45050565b600061104b82610f13565b61108a576040517f08c379a000000000000000000000000000000000000000000000000000000000815260040161108190612652565b60405180910390fd5b600061109583610795565b90508073ffffffffffffffffffffffffffffffffffffffff168473ffffffffffffffffffffffffffffffffffffffff16148061110457508373ffffffffffffffffffffffffffffffffffffffff166110ec84610568565b73ffffffffffffffffffffffffffffffffffffffff16145b8061111557506111148185610d1d565b5b91505092915050565b8273ffffffffffffffffffffffffffffffffffffffff1661113e82610795565b73ffffffffffffffffffffffffffffffffffffffff1614611194576040517f08c379a000000000000000000000000000000000000000000000000000000000815260040161118b906125d2565b60405180910390fd5b600073ffffffffffffffffffffffffffffffffffffffff168273ffffffffffffffffffffffffffffffffffffffff161415611204576040517f08c379a00000000000000000000000000000000000000000000000000000000081526004016111fb90612612565b60405180910390fd5b61120f838383611974565b61121a600082610f87565b6001600460008573ffffffffffffffffffffffffffffffffffffffff1673ffffffffffffffffffffffffffffffffffffffff168152602001908152602001600020600082825461126a91906128ed565b925050819055506001600460008473ffffffffffffffffffffffffffffffffffffffff1673ffffffffffffffffffffffffffffffffffffffff16815260200190815260200160002060008282546112c19190612866565b92505081905550816003600083815260200190815260200160002060006101000a81548173ffffffffffffffffffffffffffffffffffffffff021916908373ffffffffffffffffffffffffffffffffffffffff160217905550808273ffffffffffffffffffffffffffffffffffffffff168473ffffffffffffffffffffffffffffffffffffffff167fddf252ad1be2c89b69c2b068fc378daa952ba7f163c4a11628f55a4df523b3ef60405160405180910390a4611380838383611979565b505050565b60008060009054906101000a900473ffffffffffffffffffffffffffffffffffffffff169050816000806101000a81548173ffffffffffffffffffffffffffffffffffffffff021916908373ffffffffffffffffffffffffffffffffffffffff1602179055508173ffffffffffffffffffffffffffffffffffffffff168173ffffffffffffffffffffffffffffffffffffffff167f8be0079c531659141344cd1fd0a4f28419497f9722a3daafe3b4186f6b6457e060405160405180910390a35050565b600061145482610795565b905061146281600084611974565b61146d600083610f87565b6001600460008373ffffffffffffffffffffffffffffffffffffffff1673ffffffffffffffffffffffffffffffffffffffff16815260200190815260200160002060008282546114bd91906128ed565b925050819055506003600083815260200190815260200160002060006101000a81549073ffffffffffffffffffffffffffffffffffffffff021916905581600073ffffffffffffffffffffffffffffffffffffffff168273ffffffffffffffffffffffffffffffffffffffff167fddf252ad1be2c89b69c2b068fc378daa952ba7f163c4a11628f55a4df523b3ef60405160405180910390a461156281600084611979565b5050565b611570838361197e565b61157d6000848484611b58565b6115bc576040517f08c379a00000000000000000000000000000000000000000000000000000000081526004016115b390612592565b60405180910390fd5b505050565b8173ffffffffffffffffffffffffffffffffffffffff168373ffffffffffffffffffffffffffffffffffffffff161415611630576040517f08c379a000000000000000000000000000000000000000000000000000000000815260040161162790612632565b60405180910390fd5b80600660008573ffffffffffffffffffffffffffffffffffffffff1673ffffffffffffffffffffffffffffffffffffffff16815260200190815260200160002060008473ffffffffffffffffffffffffffffffffffffffff1673ffffffffffffffffffffffffffffffffffffffff16815260200190815260200160002060006101000a81548160ff0219169083151502179055508173ffffffffffffffffffffffffffffffffffffffff168373ffffffffffffffffffffffffffffffffffffffff167f17307eab39ab6107e8899845ad3d59bd9653f200f220920489ca2b5937696c31836040516117219190612555565b60405180910390a3505050565b61173984848461111e565b61174584848484611b58565b611784576040517f08c379a000000000000000000000000000000000000000000000000000000000815260040161177b90612592565b60405180910390fd5b50505050565b60606040518060400160405280601081526020017f66697265666c793a2f2f746f6b656e2f00000000000000000000000000000000815250905090565b6060600082141561180f576040518060400160405280600181526020017f3000000000000000000000000000000000000000000000000000000000000000815250905061196f565b600082905060005b6000821461184157808061182a90612a3a565b915050600a8261183a91906128bc565b9150611817565b60008167ffffffffffffffff811115611883577f4e487b7100000000000000000000000000000000000000000000000000000000600052604160045260246000fd5b6040519080825280601f01601f1916602001820160405280156118b55781602001600182028036833780820191505090505b5090505b60008514611968576001826118ce91906128ed565b9150600a856118dd9190612a83565b60306118e99190612866565b60f81b818381518110611925577f4e487b7100000000000000000000000000000000000000000000000000000000600052603260045260246000fd5b60200101907effffffffffffffffffffffffffffffffffffffffffffffffffffffffffffff1916908160001a905350600a8561196191906128bc565b94506118b9565b8093505050505b919050565b505050565b505050565b600073ffffffffffffffffffffffffffffffffffffffff168273ffffffffffffffffffffffffffffffffffffffff1614156119ee576040517f08c379a00000000000000000000000000000000000000000000000000000000081526004016119e5906126d2565b60405180910390fd5b6119f781610f13565b15611a37576040517f08c379a0000000000000000000000000000000000000000000000000000000008152600401611a2e906125f2565b60405180910390fd5b611a4360008383611974565b6001600460008473ffffffffffffffffffffffffffffffffffffffff1673ffffffffffffffffffffffffffffffffffffffff1681526020019081526020016000206000828254611a939190612866565b92505081905550816003600083815260200190815260200160002060006101000a81548173ffffffffffffffffffffffffffffffffffffffff021916908373ffffffffffffffffffffffffffffffffffffffff160217905550808273ffffffffffffffffffffffffffffffffffffffff16600073ffffffffffffffffffffffffffffffffffffffff167fddf252ad1be2c89b69c2b068fc378daa952ba7f163c4a11628f55a4df523b3ef60405160405180910390a4611b5460008383611979565b5050565b6000611b798473ffffffffffffffffffffffffffffffffffffffff16611cef565b15611ce2578373ffffffffffffffffffffffffffffffffffffffff1663150b7a02611ba2610f7f565b8786866040518563ffffffff1660e01b8152600401611bc49493929190612509565b602060405180830381600087803b158015611bde57600080fd5b505af1925050508015611c0f57506040513d601f19601f82011682018060405250810190611c0c9190612155565b60015b611c92573d8060008114611c3f576040519150601f19603f3d011682016040523d82523d6000602084013e611c44565b606091505b50600081511415611c8a576040517f08c379a0000000000000000000000000000000000000000000000000000000008152600401611c8190612592565b60405180910390fd5b805181602001fd5b63150b7a0260e01b7bffffffffffffffffffffffffffffffffffffffffffffffffffffffff1916817bffffffffffffffffffffffffffffffffffffffffffffffffffffffff191614915050611ce7565b600190505b949350505050565b6000808273ffffffffffffffffffffffffffffffffffffffff163b119050919050565b6000611d25611d20846127f2565b6127cd565b905082815260208101848484011115611d3d57600080fd5b611d48848285612995565b509392505050565b600081359050611d5f81613028565b92915050565b600081359050611d748161303f565b92915050565b600081359050611d8981613056565b92915050565b600081519050611d9e81613056565b92915050565b60008083601f840112611db657600080fd5b8235905067ffffffffffffffff811115611dcf57600080fd5b602083019150836001820283011115611de757600080fd5b9250929050565b600082601f830112611dff57600080fd5b8135611e0f848260208601611d12565b91505092915050565b600081359050611e278161306d565b92915050565b600060208284031215611e3f57600080fd5b6000611e4d84828501611d50565b91505092915050565b60008060408385031215611e6957600080fd5b6000611e7785828601611d50565b9250506020611e8885828601611d50565b9150509250929050565b600080600060608486031215611ea757600080fd5b6000611eb586828701611d50565b9350506020611ec686828701611d50565b9250506040611ed786828701611e18565b9150509250925092565b600080600080600060808688031215611ef957600080fd5b6000611f0788828901611d50565b9550506020611f1888828901611d50565b9450506040611f2988828901611e18565b935050606086013567ffffffffffffffff811115611f4657600080fd5b611f5288828901611da4565b92509250509295509295909350565b60008060008060808587031215611f7757600080fd5b6000611f8587828801611d50565b9450506020611f9687828801611d50565b9350506040611fa787828801611e18565b925050606085013567ffffffffffffffff811115611fc457600080fd5b611fd087828801611dee565b91505092959194509250565b60008060408385031215611fef57600080fd5b6000611ffd85828601611d50565b925050602061200e85828601611d65565b9150509250929050565b6000806000806060858703121561202e57600080fd5b600061203c87828801611d50565b945050602061204d87828801611d65565b935050604085013567ffffffffffffffff81111561206a57600080fd5b61207687828801611da4565b925092505092959194509250565b6000806040838503121561209757600080fd5b60006120a585828601611d50565b92505060206120b685828601611e18565b9150509250929050565b600080600080606085870312156120d657600080fd5b60006120e487828801611d50565b94505060206120f587828801611e18565b935050604085013567ffffffffffffffff81111561211257600080fd5b61211e87828801611da4565b925092505092959194509250565b60006020828403121561213e57600080fd5b600061214c84828501611d7a565b91505092915050565b60006020828403121561216757600080fd5b600061217584828501611d8f565b91505092915050565b60006020828403121561219057600080fd5b600061219e84828501611e18565b91505092915050565b6121b081612921565b82525050565b6121bf81612933565b82525050565b60006121d082612823565b6121da8185612839565b93506121ea8185602086016129a4565b6121f381612b70565b840191505092915050565b60006122098261282e565b612213818561284a565b93506122238185602086016129a4565b61222c81612b70565b840191505092915050565b60006122428261282e565b61224c818561285b565b935061225c8185602086016129a4565b80840191505092915050565b600061227560328361284a565b915061228082612b81565b604082019050919050565b600061229860268361284a565b91506122a382612bd0565b604082019050919050565b60006122bb60258361284a565b91506122c682612c1f565b604082019050919050565b60006122de601c8361284a565b91506122e982612c6e565b602082019050919050565b600061230160248361284a565b915061230c82612c97565b604082019050919050565b600061232460198361284a565b915061232f82612ce6565b602082019050919050565b6000612347602c8361284a565b915061235282612d0f565b604082019050919050565b600061236a60388361284a565b915061237582612d5e565b604082019050919050565b600061238d602a8361284a565b915061239882612dad565b604082019050919050565b60006123b060298361284a565b91506123bb82612dfc565b604082019050919050565b60006123d360208361284a565b91506123de82612e4b565b602082019050919050565b60006123f6602c8361284a565b915061240182612e74565b604082019050919050565b600061241960208361284a565b915061242482612ec3565b602082019050919050565b600061243c60238361284a565b915061244782612eec565b604082019050919050565b600061245f602f8361284a565b915061246a82612f3b565b604082019050919050565b600061248260218361284a565b915061248d82612f8a565b604082019050919050565b60006124a560318361284a565b91506124b082612fd9565b604082019050919050565b6124c48161298b565b82525050565b60006124d68285612237565b91506124e28284612237565b91508190509392505050565b600060208201905061250360008301846121a7565b92915050565b600060808201905061251e60008301876121a7565b61252b60208301866121a7565b61253860408301856124bb565b818103606083015261254a81846121c5565b905095945050505050565b600060208201905061256a60008301846121b6565b92915050565b6000602082019050818103600083015261258a81846121fe565b905092915050565b600060208201905081810360008301526125ab81612268565b9050919050565b600060208201905081810360008301526125cb8161228b565b9050919050565b600060208201905081810360008301526125eb816122ae565b9050919050565b6000602082019050818103600083015261260b816122d1565b9050919050565b6000602082019050818103600083015261262b816122f4565b9050919050565b6000602082019050818103600083015261264b81612317565b9050919050565b6000602082019050818103600083015261266b8161233a565b9050919050565b6000602082019050818103600083015261268b8161235d565b9050919050565b600060208201905081810360008301526126ab81612380565b9050919050565b600060208201905081810360008301526126cb816123a3565b9050919050565b600060208201905081810360008301526126eb816123c6565b9050919050565b6000602082019050818103600083015261270b816123e9565b9050919050565b6000602082019050818103600083015261272b8161240c565b9050919050565b6000602082019050818103600083015261274b8161242f565b9050919050565b6000602082019050818103600083015261276b81612452565b9050919050565b6000602082019050818103600083015261278b81612475565b9050919050565b600060208201905081810360008301526127ab81612498565b9050919050565b60006020820190506127c760008301846124bb565b92915050565b60006127d76127e8565b90506127e38282612a09565b919050565b6000604051905090565b600067ffffffffffffffff82111561280d5761280c612b41565b5b61281682612b70565b9050602081019050919050565b600081519050919050565b600081519050919050565b600082825260208201905092915050565b600082825260208201905092915050565b600081905092915050565b60006128718261298b565b915061287c8361298b565b9250827fffffffffffffffffffffffffffffffffffffffffffffffffffffffffffffffff038211156128b1576128b0612ab4565b5b828201905092915050565b60006128c78261298b565b91506128d28361298b565b9250826128e2576128e1612ae3565b5b828204905092915050565b60006128f88261298b565b91506129038361298b565b92508282101561291657612915612ab4565b5b828203905092915050565b600061292c8261296b565b9050919050565b60008115159050919050565b60007fffffffff0000000000000000000000000000000000000000000000000000000082169050919050565b600073ffffffffffffffffffffffffffffffffffffffff82169050919050565b6000819050919050565b82818337600083830152505050565b60005b838110156129c25780820151818401526020810190506129a7565b838111156129d1576000848401525b50505050565b600060028204905060018216806129ef57607f821691505b60208210811415612a0357612a02612b12565b5b50919050565b612a1282612b70565b810181811067ffffffffffffffff82111715612a3157612a30612b41565b5b80604052505050565b6000612a458261298b565b91507fffffffffffffffffffffffffffffffffffffffffffffffffffffffffffffffff821415612a7857612a77612ab4565b5b600182019050919050565b6000612a8e8261298b565b9150612a998361298b565b925082612aa957612aa8612ae3565b5b828206905092915050565b7f4e487b7100000000000000000000000000000000000000000000000000000000600052601160045260246000fd5b7f4e487b7100000000000000000000000000000000000000000000000000000000600052601260045260246000fd5b7f4e487b7100000000000000000000000000000000000000000000000000000000600052602260045260246000fd5b7f4e487b7100000000000000000000000000000000000000000000000000000000600052604160045260246000fd5b6000601f19601f8301169050919050565b7f4552433732313a207472616e7366657220746f206e6f6e20455243373231526560008201527f63656976657220696d706c656d656e7465720000000000000000000000000000602082015250565b7f4f776e61626c653a206e6577206f776e657220697320746865207a65726f206160008201527f6464726573730000000000000000000000000000000000000000000000000000602082015250565b7f4552433732313a207472616e736665722066726f6d20696e636f72726563742060008201527f6f776e6572000000000000000000000000000000000000000000000000000000602082015250565b7f4552433732313a20746f6b656e20616c7265616479206d696e74656400000000600082015250565b7f4552433732313a207472616e7366657220746f20746865207a65726f2061646460008201527f7265737300000000000000000000000000000000000000000000000000000000602082015250565b7f4552433732313a20617070726f766520746f2063616c6c657200000000000000600082015250565b7f4552433732313a206f70657261746f7220717565727920666f72206e6f6e657860008201527f697374656e7420746f6b656e0000000000000000000000000000000000000000602082015250565b7f4552433732313a20617070726f76652063616c6c6572206973206e6f74206f7760008201527f6e6572206e6f7220617070726f76656420666f7220616c6c0000000000000000602082015250565b7f4552433732313a2062616c616e636520717565727920666f7220746865207a6560008201527f726f206164647265737300000000000000000000000000000000000000000000602082015250565b7f4552433732313a206f776e657220717565727920666f72206e6f6e657869737460008201527f656e7420746f6b656e0000000000000000000000000000000000000000000000602082015250565b7f4552433732313a206d696e7420746f20746865207a65726f2061646472657373600082015250565b7f4552433732313a20617070726f76656420717565727920666f72206e6f6e657860008201527f697374656e7420746f6b656e0000000000000000000000000000000000000000602082015250565b7f4f776e61626c653a2063616c6c6572206973206e6f7420746865206f776e6572600082015250565b7f45524337323157697468446174613a2063616c6c6572206973206e6f74206f7760008201527f6e65720000000000000000000000000000000000000000000000000000000000602082015250565b7f4552433732314d657461646174613a2055524920717565727920666f72206e6f60008201527f6e6578697374656e7420746f6b656e0000000000000000000000000000000000602082015250565b7f4552433732313a20617070726f76616c20746f2063757272656e74206f776e6560008201527f7200000000000000000000000000000000000000000000000000000000000000602082015250565b7f4552433732313a207472616e736665722063616c6c6572206973206e6f74206f60008201527f776e6572206e6f7220617070726f766564000000000000000000000000000000602082015250565b61303181612921565b811461303c57600080fd5b50565b61304881612933565b811461305357600080fd5b50565b61305f8161293f565b811461306a57600080fd5b50565b6130768161298b565b811461308157600080fd5b5056fea26469706673582212206cc6951e7ed1a76d4f84cffa18873366a6901dd15c92fc06a57c06448c3c083364736f6c63430008040033a2646970667358221220371d48fc408b4c19224aea9cea53b201e0673420328b0e6cc941c3d696b37dbd64736f6c63430008040033",
  "linkReferences": {},
  "deployedLinkReferences": {}
}