{
  "_format": "hh-sol-artifact-1",
  "contractName": "TokenFactory",
  "sourceName": "contracts/TokenFactory.sol",
  "abi": [
    {
      "anonymous": false,
      "inputs": [
        {
          "indexed": true,
          "internalType": "address",
          "name": "contract_address",
          "type": "address"
        },
        {
          "indexed": false,
          "internalType": "string",
          "name": "name",
          "type": "string"
        },
        {
          "indexed": false,
          "internalType": "string",
          "name": "symbol",
          "type": "string"
        },
        {
          "indexed": false,
          "internalType": "bool",
          "name": "is_fungible",
          "type": "bool"
        },
        {
          "indexed": false,
          "internalType": "bytes",
          "name": "data",
          "type": "bytes"
        }
      ],
      "name": "TokenPoolCreation",
      "type": "event"
    },
    {
      "inputs": [
        {
          "internalType": "string",
          "name": "name",
          "type": "string"
        },
        {
          "internalType": "string",
          "name": "symbol",
          "type": "string"
        },
        {
          "internalType": "bool",
          "name": "is_fungible",
          "type": "bool"
        },
        {
          "internalType": "bytes",
          "name": "data",
          "type": "bytes"
        },
        {
          "internalType": "string",
          "name": "uri",
          "type": "string"
        }
      ],
      "name": "create",
      "outputs": [],
      "stateMutability": "nonpayable",
      "type": "function"
    },
    {
      "inputs": [
        {
          "internalType": "bytes4",
          "name": "interfaceId",
          "type": "bytes4"
        }
      ],
      "name": "supportsInterface",
      "outputs": [
        {
          "internalType": "bool",
          "name": "",
          "type": "bool"
        }
      ],
      "stateMutability": "view",
      "type": "function"
    }
  ],
  "bytecode": "0x608060405234801561001057600080fd5b50613ee5806100206000396000f3fe608060405234801561001057600080fd5b50600436106100365760003560e01c806301ffc9a71461003b57806383a74a0c1461008c575b600080fd5b61007861004936600461037d565b6001600160e01b0319167f83a74a0c000000000000000000000000000000000000000000000000000000001490565b604051901515815260200160405180910390f35b61009f61009a3660046103ac565b6100a1565b005b831561019a57600086866040516100b790610293565b6100c29291906104bc565b604051809103906000f0801580156100de573d6000803e3d6000fd5b5090506001600160a01b03811663f2fde38b336040516001600160e01b031960e084901b1681526001600160a01b039091166004820152602401600060405180830381600087803b15801561013257600080fd5b505af1158015610146573d6000803e3d6000fd5b50505050806001600160a01b03167fca8fb21c1d554712c6778c5f566f410954f08d7eba66fd8e740581f9d93e130688886001888860405161018c9594939291906104ea565b60405180910390a25061028b565b60008686836040516101ab906102a1565b6101b79392919061054d565b604051809103906000f0801580156101d3573d6000803e3d6000fd5b5090506001600160a01b03811663f2fde38b336040516001600160e01b031960e084901b1681526001600160a01b039091166004820152602401600060405180830381600087803b15801561022757600080fd5b505af115801561023b573d6000803e3d6000fd5b50505050806001600160a01b03167fca8fb21c1d554712c6778c5f566f410954f08d7eba66fd8e740581f9d93e13068888600088886040516102819594939291906104ea565b60405180910390a2505b505050505050565b6114c980620005c083390190565b6124278062001a8983390190565b60008083601f8401126102c0578081fd5b50813567ffffffffffffffff8111156102d7578182fd5b6020830191508360208285010111156102ef57600080fd5b9250929050565b600082601f830112610306578081fd5b813567ffffffffffffffff8082111561032157610321610590565b604051601f8301601f19908116603f0116810190828211818310171561034957610349610590565b81604052838152866020858801011115610361578485fd5b8360208701602083013792830160200193909352509392505050565b60006020828403121561038e578081fd5b81356001600160e01b0319811681146103a5578182fd5b9392505050565b60008060008060008060a087890312156103c4578182fd5b863567ffffffffffffffff808211156103db578384fd5b6103e78a838b016102f6565b975060208901359150808211156103fc578384fd5b6104088a838b016102f6565b965060408901359150811515821461041e578384fd5b90945060608801359080821115610433578384fd5b61043f8a838b016102af565b90955093506080890135915080821115610457578283fd5b5061046489828a016102f6565b9150509295509295509295565b60008151808452815b818110156104965760208185018101518683018201520161047a565b818111156104a75782602083870101525b50601f01601f19169290920160200192915050565b6040815260006104cf6040830185610471565b82810360208401526104e18185610471565b95945050505050565b6080815260006104fd6080830188610471565b828103602084015261050f8188610471565b9050851515604084015282810360608401528381528385602083013781602085830101526020601f19601f8601168201019150509695505050505050565b6060815260006105606060830186610471565b82810360208401526105728186610471565b905082810360408401526105868185610471565b9695505050505050565b7f4e487b7100000000000000000000000000000000000000000000000000000000600052604160045260246000fdfe60806040523480156200001157600080fd5b50604051620014c9380380620014c9833981016040819052620000349162000220565b8181620000413362000077565b815162000056906004906020850190620000c7565b5080516200006c906005906020840190620000c7565b5050505050620002da565b600080546001600160a01b038381166001600160a01b0319831681178455604051919092169283917f8be0079c531659141344cd1fd0a4f28419497f9722a3daafe3b4186f6b6457e09190a35050565b828054620000d59062000287565b90600052602060002090601f016020900481019282620000f9576000855562000144565b82601f106200011457805160ff191683800117855562000144565b8280016001018555821562000144579182015b828111156200014457825182559160200191906001019062000127565b506200015292915062000156565b5090565b5b8082111562000152576000815560010162000157565b600082601f8301126200017e578081fd5b81516001600160401b03808211156200019b576200019b620002c4565b604051601f8301601f19908116603f01168101908282118183101715620001c657620001c6620002c4565b81604052838152602092508683858801011115620001e2578485fd5b8491505b83821015620002055785820183015181830184015290820190620001e6565b838211156200021657848385830101525b9695505050505050565b6000806040838503121562000233578182fd5b82516001600160401b03808211156200024a578384fd5b62000258868387016200016d565b935060208501519150808211156200026e578283fd5b506200027d858286016200016d565b9150509250929050565b600181811c908216806200029c57607f821691505b60208210811415620002be57634e487b7160e01b600052602260045260246000fd5b50919050565b634e487b7160e01b600052604160045260246000fd5b6111df80620002ea6000396000f3fe608060405234801561001057600080fd5b50600436106101515760003560e01c80637b5eb564116100cd578063a457c2d711610081578063c0ea7a7a11610066578063c0ea7a7a146102a2578063dd62ed3e146102b5578063f2fde38b146102ee57600080fd5b8063a457c2d71461027c578063a9059cbb1461028f57600080fd5b80638da5cb5b116100b25780638da5cb5b1461024657806395d89b411461026157806396adfe421461026957600080fd5b80637b5eb5641461022057806383e49c531461023357600080fd5b806323b872dd11610124578063395093511161010957806339509351146101da57806370a08231146101ed578063715018a61461021657600080fd5b806323b872dd146101b8578063313ce567146101cb57600080fd5b806301ffc9a71461015657806306fdde031461017e578063095ea7b31461019357806318160ddd146101a6575b600080fd5b610169610164366004611096565b610301565b60405190151581526020015b60405180910390f35b61018661039a565b60405161017591906110d6565b6101696101a1366004611015565b61042c565b6003545b604051908152602001610175565b6101696101c6366004610f6d565b610444565b60405160128152602001610175565b6101696101e8366004611015565b610468565b6101aa6101fb366004610f1a565b6001600160a01b031660009081526001602052604090205490565b61021e6104a7565b005b61016961022e36600461103e565b610512565b61021e61024136600461103e565b610527565b6000546040516001600160a01b039091168152602001610175565b6101866105b5565b61021e61027736600461103e565b6105c4565b61016961028a366004611015565b610628565b61016961029d366004611015565b6106d2565b61021e6102b0366004610fa8565b6106e0565b6101aa6102c3366004610f3b565b6001600160a01b03918216600090815260026020908152604080832093909416825291909152205490565b61021e6102fc366004610f1a565b610715565b60007fffffffff0000000000000000000000000000000000000000000000000000000082167faefdad0f00000000000000000000000000000000000000000000000000000000148061039457507f01ffc9a7000000000000000000000000000000000000000000000000000000007fffffffff000000000000000000000000000000000000000000000000000000008316145b92915050565b6060600480546103a990611158565b80601f01602080910402602001604051908101604052809291908181526020018280546103d590611158565b80156104225780601f106103f757610100808354040283529160200191610422565b820191906000526020600020905b81548152906001019060200180831161040557829003601f168201915b5050505050905090565b60003361043a8185856107f7565b5060019392505050565b600033610452858285610950565b61045d8585856109dc565b506001949350505050565b3360008181526002602090815260408083206001600160a01b038716845290915281205490919061043a90829086906104a2908790611129565b6107f7565b6000546001600160a01b031633146105065760405162461bcd60e51b815260206004820181905260248201527f4f776e61626c653a2063616c6c6572206973206e6f7420746865206f776e657260448201526064015b60405180910390fd5b6105106000610bf3565b565b600061051e858561042c565b95945050505050565b6001600160a01b03841633146105a55760405162461bcd60e51b815260206004820152602260248201527f455243323057697468446174613a2063616c6c6572206973206e6f74206f776e60448201527f657200000000000000000000000000000000000000000000000000000000000060648201526084016104fd565b6105af8484610c5b565b50505050565b6060600580546103a990611158565b6000546001600160a01b0316331461061e5760405162461bcd60e51b815260206004820181905260248201527f4f776e61626c653a2063616c6c6572206973206e6f7420746865206f776e657260448201526064016104fd565b6105af8484610dd8565b3360008181526002602090815260408083206001600160a01b0387168452909152812054909190838110156106c55760405162461bcd60e51b815260206004820152602560248201527f45524332303a2064656372656173656420616c6c6f77616e63652062656c6f7760448201527f207a65726f00000000000000000000000000000000000000000000000000000060648201526084016104fd565b61045d82868684036107f7565b60003361043a8185856109dc565b6001600160a01b038516331415610701576106fb84846106d2565b5061070e565b61070c858585610444565b505b5050505050565b6000546001600160a01b0316331461076f5760405162461bcd60e51b815260206004820181905260248201527f4f776e61626c653a2063616c6c6572206973206e6f7420746865206f776e657260448201526064016104fd565b6001600160a01b0381166107eb5760405162461bcd60e51b815260206004820152602660248201527f4f776e61626c653a206e6577206f776e657220697320746865207a65726f206160448201527f646472657373000000000000000000000000000000000000000000000000000060648201526084016104fd565b6107f481610bf3565b50565b6001600160a01b0383166108725760405162461bcd60e51b8152602060048201526024808201527f45524332303a20617070726f76652066726f6d20746865207a65726f2061646460448201527f726573730000000000000000000000000000000000000000000000000000000060648201526084016104fd565b6001600160a01b0382166108ee5760405162461bcd60e51b815260206004820152602260248201527f45524332303a20617070726f766520746f20746865207a65726f20616464726560448201527f737300000000000000000000000000000000000000000000000000000000000060648201526084016104fd565b6001600160a01b0383811660008181526002602090815260408083209487168084529482529182902085905590518481527f8c5be1e5ebec7d5bd14f71427d1e84f3dd0314c0f7b2291e5b200ac8c7c3b92591015b60405180910390a3505050565b6001600160a01b0383811660009081526002602090815260408083209386168352929052205460001981146105af57818110156109cf5760405162461bcd60e51b815260206004820152601d60248201527f45524332303a20696e73756666696369656e7420616c6c6f77616e636500000060448201526064016104fd565b6105af84848484036107f7565b6001600160a01b038316610a585760405162461bcd60e51b815260206004820152602560248201527f45524332303a207472616e736665722066726f6d20746865207a65726f20616460448201527f647265737300000000000000000000000000000000000000000000000000000060648201526084016104fd565b6001600160a01b038216610ad45760405162461bcd60e51b815260206004820152602360248201527f45524332303a207472616e7366657220746f20746865207a65726f206164647260448201527f657373000000000000000000000000000000000000000000000000000000000060648201526084016104fd565b6001600160a01b03831660009081526001602052604090205481811015610b635760405162461bcd60e51b815260206004820152602660248201527f45524332303a207472616e7366657220616d6f756e742065786365656473206260448201527f616c616e6365000000000000000000000000000000000000000000000000000060648201526084016104fd565b6001600160a01b03808516600090815260016020526040808220858503905591851681529081208054849290610b9a908490611129565b92505081905550826001600160a01b0316846001600160a01b03167fddf252ad1be2c89b69c2b068fc378daa952ba7f163c4a11628f55a4df523b3ef84604051610be691815260200190565b60405180910390a36105af565b600080546001600160a01b038381167fffffffffffffffffffffffff0000000000000000000000000000000000000000831681178455604051919092169283917f8be0079c531659141344cd1fd0a4f28419497f9722a3daafe3b4186f6b6457e09190a35050565b6001600160a01b038216610cd75760405162461bcd60e51b815260206004820152602160248201527f45524332303a206275726e2066726f6d20746865207a65726f2061646472657360448201527f730000000000000000000000000000000000000000000000000000000000000060648201526084016104fd565b6001600160a01b03821660009081526001602052604090205481811015610d665760405162461bcd60e51b815260206004820152602260248201527f45524332303a206275726e20616d6f756e7420657863656564732062616c616e60448201527f636500000000000000000000000000000000000000000000000000000000000060648201526084016104fd565b6001600160a01b0383166000908152600160205260408120838303905560038054849290610d95908490611141565b90915550506040518281526000906001600160a01b038516907fddf252ad1be2c89b69c2b068fc378daa952ba7f163c4a11628f55a4df523b3ef90602001610943565b6001600160a01b038216610e2e5760405162461bcd60e51b815260206004820152601f60248201527f45524332303a206d696e7420746f20746865207a65726f20616464726573730060448201526064016104fd565b8060036000828254610e409190611129565b90915550506001600160a01b03821660009081526001602052604081208054839290610e6d908490611129565b90915550506040518181526001600160a01b038316906000907fddf252ad1be2c89b69c2b068fc378daa952ba7f163c4a11628f55a4df523b3ef9060200160405180910390a35050565b80356001600160a01b0381168114610ece57600080fd5b919050565b60008083601f840112610ee4578182fd5b50813567ffffffffffffffff811115610efb578182fd5b602083019150836020828501011115610f1357600080fd5b9250929050565b600060208284031215610f2b578081fd5b610f3482610eb7565b9392505050565b60008060408385031215610f4d578081fd5b610f5683610eb7565b9150610f6460208401610eb7565b90509250929050565b600080600060608486031215610f81578081fd5b610f8a84610eb7565b9250610f9860208501610eb7565b9150604084013590509250925092565b600080600080600060808688031215610fbf578081fd5b610fc886610eb7565b9450610fd660208701610eb7565b935060408601359250606086013567ffffffffffffffff811115610ff8578182fd5b61100488828901610ed3565b969995985093965092949392505050565b60008060408385031215611027578182fd5b61103083610eb7565b946020939093013593505050565b60008060008060608587031215611053578384fd5b61105c85610eb7565b935060208501359250604085013567ffffffffffffffff81111561107e578283fd5b61108a87828801610ed3565b95989497509550505050565b6000602082840312156110a7578081fd5b81357fffffffff0000000000000000000000000000000000000000000000000000000081168114610f34578182fd5b6000602080835283518082850152825b81811015611102578581018301518582016040015282016110e6565b818111156111135783604083870101525b50601f01601f1916929092016040019392505050565b6000821982111561113c5761113c611193565b500190565b60008282101561115357611153611193565b500390565b600181811c9082168061116c57607f821691505b6020821081141561118d57634e487b7160e01b600052602260045260246000fd5b50919050565b634e487b7160e01b600052601160045260246000fdfea26469706673582212206544ad40ab24f5000dc0513aa71f56091e0ee540e3091f7fac071cfbfbf34a0764736f6c6343000804003360806040523480156200001157600080fd5b506040516200242738038062002427833981016040819052620000349162000237565b828262000041336200008e565b815162000056906001906020850190620000de565b5080516200006c906002906020840190620000de565b505081516200008491506007906020840190620000de565b5050505062000317565b600080546001600160a01b038381166001600160a01b0319831681178455604051919092169283917f8be0079c531659141344cd1fd0a4f28419497f9722a3daafe3b4186f6b6457e09190a35050565b828054620000ec90620002c4565b90600052602060002090601f0160209004810192826200011057600085556200015b565b82601f106200012b57805160ff19168380011785556200015b565b828001600101855582156200015b579182015b828111156200015b5782518255916020019190600101906200013e565b50620001699291506200016d565b5090565b5b808211156200016957600081556001016200016e565b600082601f83011262000195578081fd5b81516001600160401b0380821115620001b257620001b262000301565b604051601f8301601f19908116603f01168101908282118183101715620001dd57620001dd62000301565b81604052838152602092508683858801011115620001f9578485fd5b8491505b838210156200021c5785820183015181830184015290820190620001fd565b838211156200022d57848385830101525b9695505050505050565b6000806000606084860312156200024c578283fd5b83516001600160401b038082111562000263578485fd5b620002718783880162000184565b9450602086015191508082111562000287578384fd5b620002958783880162000184565b93506040860151915080821115620002ab578283fd5b50620002ba8682870162000184565b9150509250925092565b600181811c90821680620002d957607f821691505b60208210811415620002fb57634e487b7160e01b600052602260045260246000fd5b50919050565b634e487b7160e01b600052604160045260246000fd5b61210080620003276000396000f3fe608060405234801561001057600080fd5b50600436106101825760003560e01c80637b5eb564116100d8578063a22cb4651161008c578063c87b56dd11610066578063c87b56dd14610317578063e985e9c51461032a578063f2fde38b1461036657600080fd5b8063a22cb465146102de578063b88d4fde146102f1578063c0ea7a7a1461030457600080fd5b80638da5cb5b116100bd5780638da5cb5b146102b257806395d89b41146102c357806396adfe42146102cb57600080fd5b80637b5eb5641461028c57806383e49c531461029f57600080fd5b806323b872dd1161013a5780636352211e116101145780636352211e1461025057806370a0823114610263578063715018a61461028457600080fd5b806323b872dd1461021757806342842e0e1461022a5780634f45edcd1461023d57600080fd5b8063081812fc1161016b578063081812fc146101c4578063095ea7b3146101ef5780631cbf311d1461020457600080fd5b806301ffc9a71461018757806306fdde03146101af575b600080fd5b61019a610195366004611e9f565b610379565b60405190151581526020015b60405180910390f35b6101b76103bd565b6040516101a69190611f86565b6101d76101d2366004611ed7565b61044f565b6040516001600160a01b0390911681526020016101a6565b6102026101fd366004611da2565b6104e9565b005b610202610212366004611d43565b61061b565b610202610225366004611bf9565b61062b565b610202610238366004611bf9565b6106b2565b61020261024b366004611e0b565b6106cd565b6101d761025e366004611ed7565b6107c1565b610276610271366004611ba6565b61084c565b6040519081526020016101a6565b6102026108e6565b61020261029a366004611dcb565b61094c565b6102026102ad366004611dcb565b610956565b6000546001600160a01b03166101d7565b6101b76109dd565b6102026102d9366004611dcb565b6109ec565b6102026102ec366004611d1a565b610a9c565b6102026102ff366004611ca1565b610aab565b610202610312366004611c34565b610b33565b6101b7610325366004611ed7565b610b7c565b61019a610338366004611bc7565b6001600160a01b03918216600090815260066020908152604080832093909416825291909152205460ff1690565b610202610374366004611ba6565b610c8e565b60006001600160e01b031982167ffd0771df0000000000000000000000000000000000000000000000000000000014806103b757506103b782610d70565b92915050565b6060600180546103cc90612008565b80601f01602080910402602001604051908101604052809291908181526020018280546103f890612008565b80156104455780601f1061041a57610100808354040283529160200191610445565b820191906000526020600020905b81548152906001019060200180831161042857829003601f168201915b5050505050905090565b6000818152600360205260408120546001600160a01b03166104cd5760405162461bcd60e51b815260206004820152602c60248201527f4552433732313a20617070726f76656420717565727920666f72206e6f6e657860448201526b34b9ba32b73a103a37b5b2b760a11b60648201526084015b60405180910390fd5b506000908152600560205260409020546001600160a01b031690565b60006104f4826107c1565b9050806001600160a01b0316836001600160a01b0316141561057e5760405162461bcd60e51b815260206004820152602160248201527f4552433732313a20617070726f76616c20746f2063757272656e74206f776e6560448201527f720000000000000000000000000000000000000000000000000000000000000060648201526084016104c4565b336001600160a01b038216148061059a575061059a8133610338565b61060c5760405162461bcd60e51b815260206004820152603860248201527f4552433732313a20617070726f76652063616c6c6572206973206e6f74206f7760448201527f6e6572206e6f7220617070726f76656420666f7220616c6c000000000000000060648201526084016104c4565b6106168383610e0b565b505050565b6106258484610a9c565b50505050565b6106353382610e79565b6106a75760405162461bcd60e51b815260206004820152603160248201527f4552433732313a207472616e736665722063616c6c6572206973206e6f74206f60448201527f776e6572206e6f7220617070726f76656400000000000000000000000000000060648201526084016104c4565b610616838383610f70565b61061683838360405180602001604052806000815250610aab565b6000546001600160a01b031633146107275760405162461bcd60e51b815260206004820181905260248201527f4f776e61626c653a2063616c6c6572206973206e6f7420746865206f776e657260448201526064016104c4565b610768858585858080601f01602080910402602001604051908101604052809392919081815260200183838082843760009201919091525061113d92505050565b805181906107af576107aa8561077c6111bb565b61078588611324565b604051602001610796929190611f1b565b604051602081830303815290604052611472565b6107b9565b6107b98583611472565b505050505050565b6000818152600360205260408120546001600160a01b0316806103b75760405162461bcd60e51b815260206004820152602960248201527f4552433732313a206f776e657220717565727920666f72206e6f6e657869737460448201527f656e7420746f6b656e000000000000000000000000000000000000000000000060648201526084016104c4565b60006001600160a01b0382166108ca5760405162461bcd60e51b815260206004820152602a60248201527f4552433732313a2062616c616e636520717565727920666f7220746865207a6560448201527f726f20616464726573730000000000000000000000000000000000000000000060648201526084016104c4565b506001600160a01b031660009081526004602052604090205490565b6000546001600160a01b031633146109405760405162461bcd60e51b815260206004820181905260248201527f4f776e61626c653a2063616c6c6572206973206e6f7420746865206f776e657260448201526064016104c4565b61094a600061155b565b565b61062584846104e9565b6001600160a01b03841633146109d45760405162461bcd60e51b815260206004820152602360248201527f45524337323157697468446174613a2063616c6c6572206973206e6f74206f7760448201527f6e6572000000000000000000000000000000000000000000000000000000000060648201526084016104c4565b610625836115ab565b6060600280546103cc90612008565b6000546001600160a01b03163314610a465760405162461bcd60e51b815260206004820181905260248201527f4f776e61626c653a2063616c6c6572206973206e6f7420746865206f776e657260448201526064016104c4565b610a87848484848080601f01602080910402602001604051908101604052809392919081815260200183838082843760009201919091525061113d92505050565b61062583610a936111bb565b61078586611324565b610aa7338383611646565b5050565b610ab53383610e79565b610b275760405162461bcd60e51b815260206004820152603160248201527f4552433732313a207472616e736665722063616c6c6572206973206e6f74206f60448201527f776e6572206e6f7220617070726f76656400000000000000000000000000000060648201526084016104c4565b61062584848484611715565b610b7585858585858080601f016020809104026020016040519081016040528093929190818152602001838380828437600092019190915250610aab92505050565b5050505050565b6000818152600360205260409020546060906001600160a01b0316610bef5760405162461bcd60e51b8152602060048201526024808201527f45524337323157697468446174613a20546f6b656e20646f6573206e6f7420656044820152631e1a5cdd60e21b60648201526084016104c4565b60008281526008602052604081208054610c0890612008565b80601f0160208091040260200160405190810160405280929190818152602001828054610c3490612008565b8015610c815780601f10610c5657610100808354040283529160200191610c81565b820191906000526020600020905b815481529060010190602001808311610c6457829003601f168201915b5093979650505050505050565b6000546001600160a01b03163314610ce85760405162461bcd60e51b815260206004820181905260248201527f4f776e61626c653a2063616c6c6572206973206e6f7420746865206f776e657260448201526064016104c4565b6001600160a01b038116610d645760405162461bcd60e51b815260206004820152602660248201527f4f776e61626c653a206e6577206f776e657220697320746865207a65726f206160448201527f646472657373000000000000000000000000000000000000000000000000000060648201526084016104c4565b610d6d8161155b565b50565b60006001600160e01b031982167f80ac58cd000000000000000000000000000000000000000000000000000000001480610dd357506001600160e01b031982167f5b5e139f00000000000000000000000000000000000000000000000000000000145b806103b757507f01ffc9a7000000000000000000000000000000000000000000000000000000006001600160e01b03198316146103b7565b600081815260056020526040902080546001600160a01b0319166001600160a01b0384169081179091558190610e40826107c1565b6001600160a01b03167f8c5be1e5ebec7d5bd14f71427d1e84f3dd0314c0f7b2291e5b200ac8c7c3b92560405160405180910390a45050565b6000818152600360205260408120546001600160a01b0316610ef25760405162461bcd60e51b815260206004820152602c60248201527f4552433732313a206f70657261746f7220717565727920666f72206e6f6e657860448201526b34b9ba32b73a103a37b5b2b760a11b60648201526084016104c4565b6000610efd836107c1565b9050806001600160a01b0316846001600160a01b03161480610f385750836001600160a01b0316610f2d8461044f565b6001600160a01b0316145b80610f6857506001600160a01b0380821660009081526006602090815260408083209388168352929052205460ff165b949350505050565b826001600160a01b0316610f83826107c1565b6001600160a01b031614610fff5760405162461bcd60e51b815260206004820152602560248201527f4552433732313a207472616e736665722066726f6d20696e636f72726563742060448201527f6f776e657200000000000000000000000000000000000000000000000000000060648201526084016104c4565b6001600160a01b03821661107a5760405162461bcd60e51b8152602060048201526024808201527f4552433732313a207472616e7366657220746f20746865207a65726f2061646460448201527f726573730000000000000000000000000000000000000000000000000000000060648201526084016104c4565b611085600082610e0b565b6001600160a01b03831660009081526004602052604081208054600192906110ae908490611fc5565b90915550506001600160a01b03821660009081526004602052604081208054600192906110dc908490611f99565b909155505060008181526003602052604080822080546001600160a01b0319166001600160a01b0386811691821790925591518493918716917fddf252ad1be2c89b69c2b068fc378daa952ba7f163c4a11628f55a4df523b3ef91a4505050565b6111478383611793565b61115460008484846118d5565b6106165760405162461bcd60e51b815260206004820152603260248201527f4552433732313a207472616e7366657220746f206e6f6e20455243373231526560448201527131b2b4bb32b91034b6b83632b6b2b73a32b960711b60648201526084016104c4565b60606000600780546111cc90612008565b80601f01602080910402602001604051908101604052809291908181526020018280546111f890612008565b80156112455780601f1061121a57610100808354040283529160200191611245565b820191906000526020600020905b81548152906001019060200180831161122857829003601f168201915b5050505050905080516000141561128f57505060408051808201909152601081527f66697265666c793a2f2f746f6b656e2f00000000000000000000000000000000602082015290565b6007805461129c90612008565b80601f01602080910402602001604051908101604052809291908181526020018280546112c890612008565b80156113155780601f106112ea57610100808354040283529160200191611315565b820191906000526020600020905b8154815290600101906020018083116112f857829003601f168201915b505050505091505090565b5090565b60608161136457505060408051808201909152600181527f3000000000000000000000000000000000000000000000000000000000000000602082015290565b8160005b811561138e578061137881612043565b91506113879050600a83611fb1565b9150611368565b60008167ffffffffffffffff8111156113b757634e487b7160e01b600052604160045260246000fd5b6040519080825280601f01601f1916602001820160405280156113e1576020820181803683370190505b5090505b8415610f68576113f6600183611fc5565b9150611403600a8661205e565b61140e906030611f99565b60f81b81838151811061143157634e487b7160e01b600052603260045260246000fd5b60200101907effffffffffffffffffffffffffffffffffffffffffffffffffffffffffffff1916908160001a90535061146b600a86611fb1565b94506113e5565b6000546001600160a01b031633146114cc5760405162461bcd60e51b815260206004820181905260248201527f4f776e61626c653a2063616c6c6572206973206e6f7420746865206f776e657260448201526064016104c4565b6000828152600360205260409020546001600160a01b031661153c5760405162461bcd60e51b8152602060048201526024808201527f45524337323157697468446174613a20546f6b656e20646f6573206e6f7420656044820152631e1a5cdd60e21b60648201526084016104c4565b6000828152600860209081526040909120825161061692840190611a2d565b600080546001600160a01b038381166001600160a01b0319831681178455604051919092169283917f8be0079c531659141344cd1fd0a4f28419497f9722a3daafe3b4186f6b6457e09190a35050565b60006115b6826107c1565b90506115c3600083610e0b565b6001600160a01b03811660009081526004602052604081208054600192906115ec908490611fc5565b909155505060008281526003602052604080822080546001600160a01b0319169055518391906001600160a01b038416907fddf252ad1be2c89b69c2b068fc378daa952ba7f163c4a11628f55a4df523b3ef908390a45050565b816001600160a01b0316836001600160a01b031614156116a85760405162461bcd60e51b815260206004820152601960248201527f4552433732313a20617070726f766520746f2063616c6c65720000000000000060448201526064016104c4565b6001600160a01b03838116600081815260066020908152604080832094871680845294825291829020805460ff191686151590811790915591519182527f17307eab39ab6107e8899845ad3d59bd9653f200f220920489ca2b5937696c31910160405180910390a3505050565b611720848484610f70565b61172c848484846118d5565b6106255760405162461bcd60e51b815260206004820152603260248201527f4552433732313a207472616e7366657220746f206e6f6e20455243373231526560448201527131b2b4bb32b91034b6b83632b6b2b73a32b960711b60648201526084016104c4565b6001600160a01b0382166117e95760405162461bcd60e51b815260206004820181905260248201527f4552433732313a206d696e7420746f20746865207a65726f206164647265737360448201526064016104c4565b6000818152600360205260409020546001600160a01b03161561184e5760405162461bcd60e51b815260206004820152601c60248201527f4552433732313a20746f6b656e20616c7265616479206d696e7465640000000060448201526064016104c4565b6001600160a01b0382166000908152600460205260408120805460019290611877908490611f99565b909155505060008181526003602052604080822080546001600160a01b0319166001600160a01b03861690811790915590518392907fddf252ad1be2c89b69c2b068fc378daa952ba7f163c4a11628f55a4df523b3ef908290a45050565b60006001600160a01b0384163b15611a2257604051630a85bd0160e11b81526001600160a01b0385169063150b7a0290611919903390899088908890600401611f4a565b602060405180830381600087803b15801561193357600080fd5b505af1925050508015611963575060408051601f3d908101601f1916820190925261196091810190611ebb565b60015b611a08573d808015611991576040519150601f19603f3d011682016040523d82523d6000602084013e611996565b606091505b508051611a005760405162461bcd60e51b815260206004820152603260248201527f4552433732313a207472616e7366657220746f206e6f6e20455243373231526560448201527131b2b4bb32b91034b6b83632b6b2b73a32b960711b60648201526084016104c4565b805181602001fd5b6001600160e01b031916630a85bd0160e11b149050610f68565b506001949350505050565b828054611a3990612008565b90600052602060002090601f016020900481019282611a5b5760008555611aa1565b82601f10611a7457805160ff1916838001178555611aa1565b82800160010185558215611aa1579182015b82811115611aa1578251825591602001919060010190611a86565b506113209291505b808211156113205760008155600101611aa9565b600067ffffffffffffffff80841115611ad857611ad861209e565b604051601f8501601f19908116603f01168101908282118183101715611b0057611b0061209e565b81604052809350858152868686011115611b1957600080fd5b858560208301376000602087830101525050509392505050565b80356001600160a01b0381168114611b4a57600080fd5b919050565b80358015158114611b4a57600080fd5b60008083601f840112611b70578182fd5b50813567ffffffffffffffff811115611b87578182fd5b602083019150836020828501011115611b9f57600080fd5b9250929050565b600060208284031215611bb7578081fd5b611bc082611b33565b9392505050565b60008060408385031215611bd9578081fd5b611be283611b33565b9150611bf060208401611b33565b90509250929050565b600080600060608486031215611c0d578081fd5b611c1684611b33565b9250611c2460208501611b33565b9150604084013590509250925092565b600080600080600060808688031215611c4b578081fd5b611c5486611b33565b9450611c6260208701611b33565b935060408601359250606086013567ffffffffffffffff811115611c84578182fd5b611c9088828901611b5f565b969995985093965092949392505050565b60008060008060808587031215611cb6578384fd5b611cbf85611b33565b9350611ccd60208601611b33565b925060408501359150606085013567ffffffffffffffff811115611cef578182fd5b8501601f81018713611cff578182fd5b611d0e87823560208401611abd565b91505092959194509250565b60008060408385031215611d2c578182fd5b611d3583611b33565b9150611bf060208401611b4f565b60008060008060608587031215611d58578384fd5b611d6185611b33565b9350611d6f60208601611b4f565b9250604085013567ffffffffffffffff811115611d8a578283fd5b611d9687828801611b5f565b95989497509550505050565b60008060408385031215611db4578182fd5b611dbd83611b33565b946020939093013593505050565b60008060008060608587031215611de0578384fd5b611de985611b33565b935060208501359250604085013567ffffffffffffffff811115611d8a578283fd5b600080600080600060808688031215611e22578081fd5b611e2b86611b33565b945060208601359350604086013567ffffffffffffffff80821115611e4e578283fd5b611e5a89838a01611b5f565b90955093506060880135915080821115611e72578283fd5b508601601f81018813611e83578182fd5b611e9288823560208401611abd565b9150509295509295909350565b600060208284031215611eb0578081fd5b8135611bc0816120b4565b600060208284031215611ecc578081fd5b8151611bc0816120b4565b600060208284031215611ee8578081fd5b5035919050565b60008151808452611f07816020860160208601611fdc565b601f01601f19169290920160200192915050565b60008351611f2d818460208801611fdc565b835190830190611f41818360208801611fdc565b01949350505050565b60006001600160a01b03808716835280861660208401525083604083015260806060830152611f7c6080830184611eef565b9695505050505050565b602081526000611bc06020830184611eef565b60008219821115611fac57611fac612072565b500190565b600082611fc057611fc0612088565b500490565b600082821015611fd757611fd7612072565b500390565b60005b83811015611ff7578181015183820152602001611fdf565b838111156106255750506000910152565b600181811c9082168061201c57607f821691505b6020821081141561203d57634e487b7160e01b600052602260045260246000fd5b50919050565b600060001982141561205757612057612072565b5060010190565b60008261206d5761206d612088565b500690565b634e487b7160e01b600052601160045260246000fd5b634e487b7160e01b600052601260045260246000fd5b634e487b7160e01b600052604160045260246000fd5b6001600160e01b031981168114610d6d57600080fdfea26469706673582212207f847bafa10e842cd8066ac410795e207e974226a88d1f6306170a525bdf79e464736f6c63430008040033a26469706673582212202ff375d8175895082ea83d76661df188c7073ae2156f3a16bbdebd500b5aae2f64736f6c63430008040033",
  "linkReferences": {},
  "deployedLinkReferences": {}
}