{
  "_format": "hh-sol-artifact-1",
  "contractName": "TokenFactory",
  "sourceName": "contracts/TokenFactory.sol",
  "abi": [
    {
      "anonymous": false,
      "inputs": [
        {
          "indexed": true,
          "internalType": "address",
          "name": "contract_address",
          "type": "address"
        },
        {
          "indexed": false,
          "internalType": "string",
          "name": "name",
          "type": "string"
        },
        {
          "indexed": false,
          "internalType": "string",
          "name": "symbol",
          "type": "string"
        },
        {
          "indexed": false,
          "internalType": "bool",
          "name": "is_fungible",
          "type": "bool"
        },
        {
          "indexed": false,
          "internalType": "bytes",
          "name": "data",
          "type": "bytes"
        }
      ],
      "name": "TokenPoolCreation",
      "type": "event"
    },
    {
      "inputs": [
        {
          "internalType": "string",
          "name": "name",
          "type": "string"
        },
        {
          "internalType": "string",
          "name": "symbol",
          "type": "string"
        },
        {
          "internalType": "bool",
          "name": "is_fungible",
          "type": "bool"
        },
        {
          "internalType": "bytes",
          "name": "data",
          "type": "bytes"
        },
        {
          "internalType": "string",
          "name": "uri",
          "type": "string"
        }
      ],
      "name": "create",
      "outputs": [],
      "stateMutability": "nonpayable",
      "type": "function"
    },
    {
      "inputs": [
        {
          "internalType": "bytes4",
          "name": "interfaceId",
          "type": "bytes4"
        }
      ],
      "name": "supportsInterface",
      "outputs": [
        {
          "internalType": "bool",
          "name": "",
          "type": "bool"
        }
      ],
      "stateMutability": "view",
      "type": "function"
    }
  ],
  "bytecode": "0x608060405234801561001057600080fd5b50613ce5806100206000396000f3fe608060405234801561001057600080fd5b50600436106100365760003560e01c806301ffc9a71461003b57806383a74a0c1461008c575b600080fd5b61007861004936600461037d565b6001600160e01b0319167f83a74a0c000000000000000000000000000000000000000000000000000000001490565b604051901515815260200160405180910390f35b61009f61009a3660046103ac565b6100a1565b005b831561019a57600086866040516100b790610293565b6100c29291906104bc565b604051809103906000f0801580156100de573d6000803e3d6000fd5b5090506001600160a01b03811663f2fde38b336040516001600160e01b031960e084901b1681526001600160a01b039091166004820152602401600060405180830381600087803b15801561013257600080fd5b505af1158015610146573d6000803e3d6000fd5b50505050806001600160a01b03167fca8fb21c1d554712c6778c5f566f410954f08d7eba66fd8e740581f9d93e130688886001888860405161018c9594939291906104ea565b60405180910390a25061028b565b60008686836040516101ab906102a1565b6101b79392919061054d565b604051809103906000f0801580156101d3573d6000803e3d6000fd5b5090506001600160a01b03811663f2fde38b336040516001600160e01b031960e084901b1681526001600160a01b039091166004820152602401600060405180830381600087803b15801561022757600080fd5b505af115801561023b573d6000803e3d6000fd5b50505050806001600160a01b03167fca8fb21c1d554712c6778c5f566f410954f08d7eba66fd8e740581f9d93e13068888600088886040516102819594939291906104ea565b60405180910390a2505b505050505050565b61142d80620005c083390190565b6122c380620019ed83390190565b60008083601f8401126102c0578081fd5b50813567ffffffffffffffff8111156102d7578182fd5b6020830191508360208285010111156102ef57600080fd5b9250929050565b600082601f830112610306578081fd5b813567ffffffffffffffff8082111561032157610321610590565b604051601f8301601f19908116603f0116810190828211818310171561034957610349610590565b81604052838152866020858801011115610361578485fd5b8360208701602083013792830160200193909352509392505050565b60006020828403121561038e578081fd5b81356001600160e01b0319811681146103a5578182fd5b9392505050565b60008060008060008060a087890312156103c4578182fd5b863567ffffffffffffffff808211156103db578384fd5b6103e78a838b016102f6565b975060208901359150808211156103fc578384fd5b6104088a838b016102f6565b965060408901359150811515821461041e578384fd5b90945060608801359080821115610433578384fd5b61043f8a838b016102af565b90955093506080890135915080821115610457578283fd5b5061046489828a016102f6565b9150509295509295509295565b60008151808452815b818110156104965760208185018101518683018201520161047a565b818111156104a75782602083870101525b50601f01601f19169290920160200192915050565b6040815260006104cf6040830185610471565b82810360208401526104e18185610471565b95945050505050565b6080815260006104fd6080830188610471565b828103602084015261050f8188610471565b9050851515604084015282810360608401528381528385602083013781602085830101526020601f19601f8601168201019150509695505050505050565b6060815260006105606060830186610471565b82810360208401526105728186610471565b905082810360408401526105868185610471565b9695505050505050565b7f4e487b7100000000000000000000000000000000000000000000000000000000600052604160045260246000fdfe60806040523480156200001157600080fd5b506040516200142d3803806200142d833981016040819052620000349162000220565b8181620000413362000077565b815162000056906004906020850190620000c7565b5080516200006c906005906020840190620000c7565b5050505050620002da565b600080546001600160a01b038381166001600160a01b0319831681178455604051919092169283917f8be0079c531659141344cd1fd0a4f28419497f9722a3daafe3b4186f6b6457e09190a35050565b828054620000d59062000287565b90600052602060002090601f016020900481019282620000f9576000855562000144565b82601f106200011457805160ff191683800117855562000144565b8280016001018555821562000144579182015b828111156200014457825182559160200191906001019062000127565b506200015292915062000156565b5090565b5b8082111562000152576000815560010162000157565b600082601f8301126200017e578081fd5b81516001600160401b03808211156200019b576200019b620002c4565b604051601f8301601f19908116603f01168101908282118183101715620001c657620001c6620002c4565b81604052838152602092508683858801011115620001e2578485fd5b8491505b83821015620002055785820183015181830184015290820190620001e6565b838211156200021657848385830101525b9695505050505050565b6000806040838503121562000233578182fd5b82516001600160401b03808211156200024a578384fd5b62000258868387016200016d565b935060208501519150808211156200026e578283fd5b506200027d858286016200016d565b9150509250929050565b600181811c908216806200029c57607f821691505b60208210811415620002be57634e487b7160e01b600052602260045260246000fd5b50919050565b634e487b7160e01b600052604160045260246000fd5b61114380620002ea6000396000f3fe608060405234801561001057600080fd5b50600436106101515760003560e01c80637b5eb564116100cd578063a457c2d711610081578063c0ea7a7a11610066578063c0ea7a7a146102a2578063dd62ed3e146102b5578063f2fde38b146102ee57600080fd5b8063a457c2d71461027c578063a9059cbb1461028f57600080fd5b80638da5cb5b116100b25780638da5cb5b1461024657806395d89b411461026157806396adfe421461026957600080fd5b80637b5eb5641461022057806383e49c531461023357600080fd5b806323b872dd11610124578063395093511161010957806339509351146101da57806370a08231146101ed578063715018a61461021657600080fd5b806323b872dd146101b8578063313ce567146101cb57600080fd5b806301ffc9a71461015657806306fdde031461017e578063095ea7b31461019357806318160ddd146101a6575b600080fd5b610169610164366004610ffa565b610301565b60405190151581526020015b60405180910390f35b61018661039a565b604051610175919061103a565b6101696101a1366004610f79565b61042c565b6003545b604051908152602001610175565b6101696101c6366004610ed1565b610444565b60405160128152602001610175565b6101696101e8366004610f79565b610468565b6101aa6101fb366004610e7e565b6001600160a01b031660009081526001602052604090205490565b61021e6104a7565b005b61016961022e366004610fa2565b6104bb565b61021e610241366004610fa2565b6104d0565b6000546040516001600160a01b039091168152602001610175565b610186610563565b61021e610277366004610fa2565b610572565b61016961028a366004610f79565b610584565b61016961029d366004610f79565b61062e565b61021e6102b0366004610f0c565b61063c565b6101aa6102c3366004610e9f565b6001600160a01b03918216600090815260026020908152604080832093909416825291909152205490565b61021e6102fc366004610e7e565b610671565b60007fffffffff0000000000000000000000000000000000000000000000000000000082167faefdad0f00000000000000000000000000000000000000000000000000000000148061039457507f01ffc9a7000000000000000000000000000000000000000000000000000000007fffffffff000000000000000000000000000000000000000000000000000000008316145b92915050565b6060600480546103a9906110bc565b80601f01602080910402602001604051908101604052809291908181526020018280546103d5906110bc565b80156104225780601f106103f757610100808354040283529160200191610422565b820191906000526020600020905b81548152906001019060200180831161040557829003601f168201915b5050505050905090565b60003361043a818585610701565b5060019392505050565b60003361045285828561085a565b61045d8585856108e6565b506001949350505050565b3360008181526002602090815260408083206001600160a01b038716845290915281205490919061043a90829086906104a290879061108d565b610701565b6104af610afd565b6104b96000610b57565b565b60006104c7858561042c565b95945050505050565b6001600160a01b03841633146105535760405162461bcd60e51b815260206004820152602260248201527f455243323057697468446174613a2063616c6c6572206973206e6f74206f776e60448201527f657200000000000000000000000000000000000000000000000000000000000060648201526084015b60405180910390fd5b61055d8484610bbf565b50505050565b6060600580546103a9906110bc565b61057a610afd565b61055d8484610d3c565b3360008181526002602090815260408083206001600160a01b0387168452909152812054909190838110156106215760405162461bcd60e51b815260206004820152602560248201527f45524332303a2064656372656173656420616c6c6f77616e63652062656c6f7760448201527f207a65726f000000000000000000000000000000000000000000000000000000606482015260840161054a565b61045d8286868403610701565b60003361043a8185856108e6565b6001600160a01b03851633141561065d57610657848461062e565b5061066a565b610668858585610444565b505b5050505050565b610679610afd565b6001600160a01b0381166106f55760405162461bcd60e51b815260206004820152602660248201527f4f776e61626c653a206e6577206f776e657220697320746865207a65726f206160448201527f6464726573730000000000000000000000000000000000000000000000000000606482015260840161054a565b6106fe81610b57565b50565b6001600160a01b03831661077c5760405162461bcd60e51b8152602060048201526024808201527f45524332303a20617070726f76652066726f6d20746865207a65726f2061646460448201527f7265737300000000000000000000000000000000000000000000000000000000606482015260840161054a565b6001600160a01b0382166107f85760405162461bcd60e51b815260206004820152602260248201527f45524332303a20617070726f766520746f20746865207a65726f20616464726560448201527f7373000000000000000000000000000000000000000000000000000000000000606482015260840161054a565b6001600160a01b0383811660008181526002602090815260408083209487168084529482529182902085905590518481527f8c5be1e5ebec7d5bd14f71427d1e84f3dd0314c0f7b2291e5b200ac8c7c3b92591015b60405180910390a3505050565b6001600160a01b03838116600090815260026020908152604080832093861683529290522054600019811461055d57818110156108d95760405162461bcd60e51b815260206004820152601d60248201527f45524332303a20696e73756666696369656e7420616c6c6f77616e6365000000604482015260640161054a565b61055d8484848403610701565b6001600160a01b0383166109625760405162461bcd60e51b815260206004820152602560248201527f45524332303a207472616e736665722066726f6d20746865207a65726f20616460448201527f6472657373000000000000000000000000000000000000000000000000000000606482015260840161054a565b6001600160a01b0382166109de5760405162461bcd60e51b815260206004820152602360248201527f45524332303a207472616e7366657220746f20746865207a65726f206164647260448201527f6573730000000000000000000000000000000000000000000000000000000000606482015260840161054a565b6001600160a01b03831660009081526001602052604090205481811015610a6d5760405162461bcd60e51b815260206004820152602660248201527f45524332303a207472616e7366657220616d6f756e742065786365656473206260448201527f616c616e63650000000000000000000000000000000000000000000000000000606482015260840161054a565b6001600160a01b03808516600090815260016020526040808220858503905591851681529081208054849290610aa490849061108d565b92505081905550826001600160a01b0316846001600160a01b03167fddf252ad1be2c89b69c2b068fc378daa952ba7f163c4a11628f55a4df523b3ef84604051610af091815260200190565b60405180910390a361055d565b6000546001600160a01b031633146104b95760405162461bcd60e51b815260206004820181905260248201527f4f776e61626c653a2063616c6c6572206973206e6f7420746865206f776e6572604482015260640161054a565b600080546001600160a01b038381167fffffffffffffffffffffffff0000000000000000000000000000000000000000831681178455604051919092169283917f8be0079c531659141344cd1fd0a4f28419497f9722a3daafe3b4186f6b6457e09190a35050565b6001600160a01b038216610c3b5760405162461bcd60e51b815260206004820152602160248201527f45524332303a206275726e2066726f6d20746865207a65726f2061646472657360448201527f7300000000000000000000000000000000000000000000000000000000000000606482015260840161054a565b6001600160a01b03821660009081526001602052604090205481811015610cca5760405162461bcd60e51b815260206004820152602260248201527f45524332303a206275726e20616d6f756e7420657863656564732062616c616e60448201527f6365000000000000000000000000000000000000000000000000000000000000606482015260840161054a565b6001600160a01b0383166000908152600160205260408120838303905560038054849290610cf99084906110a5565b90915550506040518281526000906001600160a01b038516907fddf252ad1be2c89b69c2b068fc378daa952ba7f163c4a11628f55a4df523b3ef9060200161084d565b6001600160a01b038216610d925760405162461bcd60e51b815260206004820152601f60248201527f45524332303a206d696e7420746f20746865207a65726f206164647265737300604482015260640161054a565b8060036000828254610da4919061108d565b90915550506001600160a01b03821660009081526001602052604081208054839290610dd190849061108d565b90915550506040518181526001600160a01b038316906000907fddf252ad1be2c89b69c2b068fc378daa952ba7f163c4a11628f55a4df523b3ef9060200160405180910390a35050565b80356001600160a01b0381168114610e3257600080fd5b919050565b60008083601f840112610e48578182fd5b50813567ffffffffffffffff811115610e5f578182fd5b602083019150836020828501011115610e7757600080fd5b9250929050565b600060208284031215610e8f578081fd5b610e9882610e1b565b9392505050565b60008060408385031215610eb1578081fd5b610eba83610e1b565b9150610ec860208401610e1b565b90509250929050565b600080600060608486031215610ee5578081fd5b610eee84610e1b565b9250610efc60208501610e1b565b9150604084013590509250925092565b600080600080600060808688031215610f23578081fd5b610f2c86610e1b565b9450610f3a60208701610e1b565b935060408601359250606086013567ffffffffffffffff811115610f5c578182fd5b610f6888828901610e37565b969995985093965092949392505050565b60008060408385031215610f8b578182fd5b610f9483610e1b565b946020939093013593505050565b60008060008060608587031215610fb7578384fd5b610fc085610e1b565b935060208501359250604085013567ffffffffffffffff811115610fe2578283fd5b610fee87828801610e37565b95989497509550505050565b60006020828403121561100b578081fd5b81357fffffffff0000000000000000000000000000000000000000000000000000000081168114610e98578182fd5b6000602080835283518082850152825b818110156110665785810183015185820160400152820161104a565b818111156110775783604083870101525b50601f01601f1916929092016040019392505050565b600082198211156110a0576110a06110f7565b500190565b6000828210156110b7576110b76110f7565b500390565b600181811c908216806110d057607f821691505b602082108114156110f157634e487b7160e01b600052602260045260246000fd5b50919050565b634e487b7160e01b600052601160045260246000fdfea26469706673582212206dfce5d713e5cea79f1985732d257a191870105f550fe71f71dc3d215d59655b64736f6c6343000804003360806040523480156200001157600080fd5b50604051620022c3380380620022c3833981016040819052620000349162000237565b828262000041336200008e565b815162000056906001906020850190620000de565b5080516200006c906002906020840190620000de565b505081516200008491506008906020840190620000de565b5050505062000317565b600080546001600160a01b038381166001600160a01b0319831681178455604051919092169283917f8be0079c531659141344cd1fd0a4f28419497f9722a3daafe3b4186f6b6457e09190a35050565b828054620000ec90620002c4565b90600052602060002090601f0160209004810192826200011057600085556200015b565b82601f106200012b57805160ff19168380011785556200015b565b828001600101855582156200015b579182015b828111156200015b5782518255916020019190600101906200013e565b50620001699291506200016d565b5090565b5b808211156200016957600081556001016200016e565b600082601f83011262000195578081fd5b81516001600160401b0380821115620001b257620001b262000301565b604051601f8301601f19908116603f01168101908282118183101715620001dd57620001dd62000301565b81604052838152602092508683858801011115620001f9578485fd5b8491505b838210156200021c5785820183015181830184015290820190620001fd565b838211156200022d57848385830101525b9695505050505050565b6000806000606084860312156200024c578283fd5b83516001600160401b038082111562000263578485fd5b620002718783880162000184565b9450602086015191508082111562000287578384fd5b620002958783880162000184565b93506040860151915080821115620002ab578283fd5b50620002ba8682870162000184565b9150509250925092565b600181811c90821680620002d957607f821691505b60208210811415620002fb57634e487b7160e01b600052602260045260246000fd5b50919050565b634e487b7160e01b600052604160045260246000fd5b611f9c80620003276000396000f3fe608060405234801561001057600080fd5b506004361061018d5760003560e01c80637a0101a2116100e3578063b88d4fde1161008c578063d4f1804611610066578063d4f180461461032a578063e985e9c51461033d578063f2fde38b1461037957600080fd5b8063b88d4fde146102f1578063c0ea7a7a14610304578063c87b56dd1461031757600080fd5b80638da5cb5b116100bd5780638da5cb5b146102c557806395d89b41146102d6578063a22cb465146102de57600080fd5b80637a0101a2146102975780637b5eb5641461029f57806383e49c53146102b257600080fd5b806323b872dd116101455780636352211e1161011f5780636352211e1461025b57806370a082311461026e578063715018a61461028f57600080fd5b806323b872dd1461022257806324e18a0b1461023557806342842e0e1461024857600080fd5b8063081812fc11610176578063081812fc146101cf578063095ea7b3146101fa5780631cbf311d1461020f57600080fd5b806301ffc9a71461019257806306fdde03146101ba575b600080fd5b6101a56101a0366004611d3b565b61038c565b60405190151581526020015b60405180910390f35b6101c26103d0565b6040516101b19190611e22565b6101e26101dd366004611d73565b610462565b6040516001600160a01b0390911681526020016101b1565b61020d610208366004611cd2565b610489565b005b61020d61021d366004611bb3565b6105c0565b61020d610230366004611a69565b6105d0565b61020d610243366004611c63565b610657565b61020d610256366004611a69565b610714565b6101e2610269366004611d73565b61072f565b61028161027c366004611a16565b610794565b6040519081526020016101b1565b61020d61082e565b6101c2610842565b61020d6102ad366004611cfb565b610851565b61020d6102c0366004611cfb565b61085b565b6000546001600160a01b03166101e2565b6101c26108e2565b61020d6102ec366004611b8a565b6108f1565b61020d6102ff366004611b11565b610900565b61020d610312366004611aa4565b610988565b6101c2610325366004611d73565b6109d1565b61020d610338366004611c12565b610ae3565b6101a561034b366004611a37565b6001600160a01b03918216600090815260066020908152604080832093909416825291909152205460ff1690565b61020d610387366004611a16565b610b5c565b60006001600160e01b031982167faefe69bf0000000000000000000000000000000000000000000000000000000014806103ca57506103ca82610bec565b92915050565b6060600180546103df90611ea4565b80601f016020809104026020016040519081016040528092919081815260200182805461040b90611ea4565b80156104585780601f1061042d57610100808354040283529160200191610458565b820191906000526020600020905b81548152906001019060200180831161043b57829003601f168201915b5050505050905090565b600061046d82610c87565b506000908152600560205260409020546001600160a01b031690565b60006104948261072f565b9050806001600160a01b0316836001600160a01b031614156105235760405162461bcd60e51b815260206004820152602160248201527f4552433732313a20617070726f76616c20746f2063757272656e74206f776e6560448201527f720000000000000000000000000000000000000000000000000000000000000060648201526084015b60405180910390fd5b336001600160a01b038216148061053f575061053f813361034b565b6105b15760405162461bcd60e51b815260206004820152603e60248201527f4552433732313a20617070726f76652063616c6c6572206973206e6f7420746f60448201527f6b656e206f776e6572206e6f7220617070726f76656420666f7220616c6c0000606482015260840161051a565b6105bb8383610ceb565b505050565b6105ca84846108f1565b50505050565b6105da3382610d59565b61064c5760405162461bcd60e51b815260206004820152602e60248201527f4552433732313a2063616c6c6572206973206e6f7420746f6b656e206f776e6560448201527f72206e6f7220617070726f766564000000000000000000000000000000000000606482015260840161051a565b6105bb838383610dd8565b61065f610fa5565b600061066a60075490565b905061067a600780546001019055565b6106bb858286868080601f016020809104026020016040519081016040528093929190818152602001838380828437600092019190915250610fff92505050565b81518290610702576106fd826106cf61107d565b6106d8856111e6565b6040516020016106e9929190611db7565b604051602081830303815290604052611334565b61070c565b61070c8284611334565b505050505050565b6105bb83838360405180602001604052806000815250610900565b6000818152600360205260408120546001600160a01b0316806103ca5760405162461bcd60e51b815260206004820152601860248201527f4552433732313a20696e76616c696420746f6b656e2049440000000000000000604482015260640161051a565b60006001600160a01b0382166108125760405162461bcd60e51b815260206004820152602960248201527f4552433732313a2061646472657373207a65726f206973206e6f74206120766160448201527f6c6964206f776e65720000000000000000000000000000000000000000000000606482015260840161051a565b506001600160a01b031660009081526004602052604090205490565b610836610fa5565b61084060006113cb565b565b606061084c61107d565b905090565b6105ca8484610489565b6001600160a01b03841633146108d95760405162461bcd60e51b815260206004820152602360248201527f45524337323157697468446174613a2063616c6c6572206973206e6f74206f7760448201527f6e65720000000000000000000000000000000000000000000000000000000000606482015260840161051a565b6105ca8361141b565b6060600280546103df90611ea4565b6108fc3383836114b6565b5050565b61090a3383610d59565b61097c5760405162461bcd60e51b815260206004820152602e60248201527f4552433732313a2063616c6c6572206973206e6f7420746f6b656e206f776e6560448201527f72206e6f7220617070726f766564000000000000000000000000000000000000606482015260840161051a565b6105ca84848484611585565b6109ca85858585858080601f01602080910402602001604051908101604052809392919081815260200183838082843760009201919091525061090092505050565b5050505050565b6000818152600360205260409020546060906001600160a01b0316610a445760405162461bcd60e51b8152602060048201526024808201527f45524337323157697468446174613a20546f6b656e20646f6573206e6f7420656044820152631e1a5cdd60e21b606482015260840161051a565b60008281526009602052604081208054610a5d90611ea4565b80601f0160208091040260200160405190810160405280929190818152602001828054610a8990611ea4565b8015610ad65780601f10610aab57610100808354040283529160200191610ad6565b820191906000526020600020905b815481529060010190602001808311610ab957829003601f168201915b5093979650505050505050565b610aeb610fa5565b6000610af660075490565b9050610b06600780546001019055565b610b47848285858080601f016020809104026020016040519081016040528093929190818152602001838380828437600092019190915250610fff92505050565b6105ca81610b5361107d565b6106d8846111e6565b610b64610fa5565b6001600160a01b038116610be05760405162461bcd60e51b815260206004820152602660248201527f4f776e61626c653a206e6577206f776e657220697320746865207a65726f206160448201527f6464726573730000000000000000000000000000000000000000000000000000606482015260840161051a565b610be9816113cb565b50565b60006001600160e01b031982167f80ac58cd000000000000000000000000000000000000000000000000000000001480610c4f57506001600160e01b031982167f5b5e139f00000000000000000000000000000000000000000000000000000000145b806103ca57507f01ffc9a7000000000000000000000000000000000000000000000000000000006001600160e01b03198316146103ca565b6000818152600360205260409020546001600160a01b0316610be95760405162461bcd60e51b815260206004820152601860248201527f4552433732313a20696e76616c696420746f6b656e2049440000000000000000604482015260640161051a565b600081815260056020526040902080546001600160a01b0319166001600160a01b0384169081179091558190610d208261072f565b6001600160a01b03167f8c5be1e5ebec7d5bd14f71427d1e84f3dd0314c0f7b2291e5b200ac8c7c3b92560405160405180910390a45050565b600080610d658361072f565b9050806001600160a01b0316846001600160a01b03161480610dac57506001600160a01b0380821660009081526006602090815260408083209388168352929052205460ff165b80610dd05750836001600160a01b0316610dc584610462565b6001600160a01b0316145b949350505050565b826001600160a01b0316610deb8261072f565b6001600160a01b031614610e675760405162461bcd60e51b815260206004820152602560248201527f4552433732313a207472616e736665722066726f6d20696e636f72726563742060448201527f6f776e6572000000000000000000000000000000000000000000000000000000606482015260840161051a565b6001600160a01b038216610ee25760405162461bcd60e51b8152602060048201526024808201527f4552433732313a207472616e7366657220746f20746865207a65726f2061646460448201527f7265737300000000000000000000000000000000000000000000000000000000606482015260840161051a565b610eed600082610ceb565b6001600160a01b0383166000908152600460205260408120805460019290610f16908490611e61565b90915550506001600160a01b0382166000908152600460205260408120805460019290610f44908490611e35565b909155505060008181526003602052604080822080546001600160a01b0319166001600160a01b0386811691821790925591518493918716917fddf252ad1be2c89b69c2b068fc378daa952ba7f163c4a11628f55a4df523b3ef91a4505050565b6000546001600160a01b031633146108405760405162461bcd60e51b815260206004820181905260248201527f4f776e61626c653a2063616c6c6572206973206e6f7420746865206f776e6572604482015260640161051a565b6110098383611603565b6110166000848484611745565b6105bb5760405162461bcd60e51b815260206004820152603260248201527f4552433732313a207472616e7366657220746f206e6f6e20455243373231526560448201527131b2b4bb32b91034b6b83632b6b2b73a32b960711b606482015260840161051a565b606060006008805461108e90611ea4565b80601f01602080910402602001604051908101604052809291908181526020018280546110ba90611ea4565b80156111075780601f106110dc57610100808354040283529160200191611107565b820191906000526020600020905b8154815290600101906020018083116110ea57829003601f168201915b5050505050905080516000141561115157505060408051808201909152601081527f66697265666c793a2f2f746f6b656e2f00000000000000000000000000000000602082015290565b6008805461115e90611ea4565b80601f016020809104026020016040519081016040528092919081815260200182805461118a90611ea4565b80156111d75780601f106111ac576101008083540402835291602001916111d7565b820191906000526020600020905b8154815290600101906020018083116111ba57829003601f168201915b505050505091505090565b5090565b60608161122657505060408051808201909152600181527f3000000000000000000000000000000000000000000000000000000000000000602082015290565b8160005b8115611250578061123a81611edf565b91506112499050600a83611e4d565b915061122a565b60008167ffffffffffffffff81111561127957634e487b7160e01b600052604160045260246000fd5b6040519080825280601f01601f1916602001820160405280156112a3576020820181803683370190505b5090505b8415610dd0576112b8600183611e61565b91506112c5600a86611efa565b6112d0906030611e35565b60f81b8183815181106112f357634e487b7160e01b600052603260045260246000fd5b60200101907effffffffffffffffffffffffffffffffffffffffffffffffffffffffffffff1916908160001a90535061132d600a86611e4d565b94506112a7565b61133c610fa5565b6000828152600360205260409020546001600160a01b03166113ac5760405162461bcd60e51b8152602060048201526024808201527f45524337323157697468446174613a20546f6b656e20646f6573206e6f7420656044820152631e1a5cdd60e21b606482015260840161051a565b600082815260096020908152604090912082516105bb9284019061189d565b600080546001600160a01b038381166001600160a01b0319831681178455604051919092169283917f8be0079c531659141344cd1fd0a4f28419497f9722a3daafe3b4186f6b6457e09190a35050565b60006114268261072f565b9050611433600083610ceb565b6001600160a01b038116600090815260046020526040812080546001929061145c908490611e61565b909155505060008281526003602052604080822080546001600160a01b0319169055518391906001600160a01b038416907fddf252ad1be2c89b69c2b068fc378daa952ba7f163c4a11628f55a4df523b3ef908390a45050565b816001600160a01b0316836001600160a01b031614156115185760405162461bcd60e51b815260206004820152601960248201527f4552433732313a20617070726f766520746f2063616c6c657200000000000000604482015260640161051a565b6001600160a01b03838116600081815260066020908152604080832094871680845294825291829020805460ff191686151590811790915591519182527f17307eab39ab6107e8899845ad3d59bd9653f200f220920489ca2b5937696c31910160405180910390a3505050565b611590848484610dd8565b61159c84848484611745565b6105ca5760405162461bcd60e51b815260206004820152603260248201527f4552433732313a207472616e7366657220746f206e6f6e20455243373231526560448201527131b2b4bb32b91034b6b83632b6b2b73a32b960711b606482015260840161051a565b6001600160a01b0382166116595760405162461bcd60e51b815260206004820181905260248201527f4552433732313a206d696e7420746f20746865207a65726f2061646472657373604482015260640161051a565b6000818152600360205260409020546001600160a01b0316156116be5760405162461bcd60e51b815260206004820152601c60248201527f4552433732313a20746f6b656e20616c7265616479206d696e74656400000000604482015260640161051a565b6001600160a01b03821660009081526004602052604081208054600192906116e7908490611e35565b909155505060008181526003602052604080822080546001600160a01b0319166001600160a01b03861690811790915590518392907fddf252ad1be2c89b69c2b068fc378daa952ba7f163c4a11628f55a4df523b3ef908290a45050565b60006001600160a01b0384163b1561189257604051630a85bd0160e11b81526001600160a01b0385169063150b7a0290611789903390899088908890600401611de6565b602060405180830381600087803b1580156117a357600080fd5b505af19250505080156117d3575060408051601f3d908101601f191682019092526117d091810190611d57565b60015b611878573d808015611801576040519150601f19603f3d011682016040523d82523d6000602084013e611806565b606091505b5080516118705760405162461bcd60e51b815260206004820152603260248201527f4552433732313a207472616e7366657220746f206e6f6e20455243373231526560448201527131b2b4bb32b91034b6b83632b6b2b73a32b960711b606482015260840161051a565b805181602001fd5b6001600160e01b031916630a85bd0160e11b149050610dd0565b506001949350505050565b8280546118a990611ea4565b90600052602060002090601f0160209004810192826118cb5760008555611911565b82601f106118e457805160ff1916838001178555611911565b82800160010185558215611911579182015b828111156119115782518255916020019190600101906118f6565b506111e29291505b808211156111e25760008155600101611919565b600067ffffffffffffffff8084111561194857611948611f3a565b604051601f8501601f19908116603f0116810190828211818310171561197057611970611f3a565b8160405280935085815286868601111561198957600080fd5b858560208301376000602087830101525050509392505050565b80356001600160a01b03811681146119ba57600080fd5b919050565b803580151581146119ba57600080fd5b60008083601f8401126119e0578182fd5b50813567ffffffffffffffff8111156119f7578182fd5b602083019150836020828501011115611a0f57600080fd5b9250929050565b600060208284031215611a27578081fd5b611a30826119a3565b9392505050565b60008060408385031215611a49578081fd5b611a52836119a3565b9150611a60602084016119a3565b90509250929050565b600080600060608486031215611a7d578081fd5b611a86846119a3565b9250611a94602085016119a3565b9150604084013590509250925092565b600080600080600060808688031215611abb578081fd5b611ac4866119a3565b9450611ad2602087016119a3565b935060408601359250606086013567ffffffffffffffff811115611af4578182fd5b611b00888289016119cf565b969995985093965092949392505050565b60008060008060808587031215611b26578384fd5b611b2f856119a3565b9350611b3d602086016119a3565b925060408501359150606085013567ffffffffffffffff811115611b5f578182fd5b8501601f81018713611b6f578182fd5b611b7e8782356020840161192d565b91505092959194509250565b60008060408385031215611b9c578182fd5b611ba5836119a3565b9150611a60602084016119bf565b60008060008060608587031215611bc8578384fd5b611bd1856119a3565b9350611bdf602086016119bf565b9250604085013567ffffffffffffffff811115611bfa578283fd5b611c06878288016119cf565b95989497509550505050565b600080600060408486031215611c26578283fd5b611c2f846119a3565b9250602084013567ffffffffffffffff811115611c4a578283fd5b611c56868287016119cf565b9497909650939450505050565b60008060008060608587031215611c78578384fd5b611c81856119a3565b9350602085013567ffffffffffffffff80821115611c9d578485fd5b611ca9888389016119cf565b90955093506040870135915080821115611cc1578283fd5b508501601f81018713611b6f578182fd5b60008060408385031215611ce4578182fd5b611ced836119a3565b946020939093013593505050565b60008060008060608587031215611d10578182fd5b611d19856119a3565b935060208501359250604085013567ffffffffffffffff811115611bfa578283fd5b600060208284031215611d4c578081fd5b8135611a3081611f50565b600060208284031215611d68578081fd5b8151611a3081611f50565b600060208284031215611d84578081fd5b5035919050565b60008151808452611da3816020860160208601611e78565b601f01601f19169290920160200192915050565b60008351611dc9818460208801611e78565b835190830190611ddd818360208801611e78565b01949350505050565b60006001600160a01b03808716835280861660208401525083604083015260806060830152611e186080830184611d8b565b9695505050505050565b602081526000611a306020830184611d8b565b60008219821115611e4857611e48611f0e565b500190565b600082611e5c57611e5c611f24565b500490565b600082821015611e7357611e73611f0e565b500390565b60005b83811015611e93578181015183820152602001611e7b565b838111156105ca5750506000910152565b600181811c90821680611eb857607f821691505b60208210811415611ed957634e487b7160e01b600052602260045260246000fd5b50919050565b6000600019821415611ef357611ef3611f0e565b5060010190565b600082611f0957611f09611f24565b500690565b634e487b7160e01b600052601160045260246000fd5b634e487b7160e01b600052601260045260246000fd5b634e487b7160e01b600052604160045260246000fd5b6001600160e01b031981168114610be957600080fdfea26469706673582212203d6e700f8a0b10796db56246303859e2d579a99be49f8d1d81068a8040f00c0e64736f6c63430008040033a264697066735822122065d59ca45b6f4a8ed7d7a84951eae73c8ae623c27568389b80c1b68ad8a8876664736f6c63430008040033",
  "linkReferences": {},
  "deployedLinkReferences": {}
}