{
  "contractName": "TokenFactory",
  "abi": [
    {
      "anonymous": false,
      "inputs": [
        {
          "indexed": true,
          "internalType": "address",
          "name": "contract_address",
          "type": "address"
        },
        {
          "indexed": false,
          "internalType": "string",
          "name": "name",
          "type": "string"
        },
        {
          "indexed": false,
          "internalType": "string",
          "name": "symbol",
          "type": "string"
        },
        {
          "indexed": false,
          "internalType": "bool",
          "name": "is_fungible",
          "type": "bool"
        },
        {
          "indexed": false,
          "internalType": "bytes",
          "name": "data",
          "type": "bytes"
        }
      ],
      "name": "TokenCreate",
      "type": "event"
    },
    {
      "inputs": [
        {
          "internalType": "string",
          "name": "name",
          "type": "string"
        },
        {
          "internalType": "string",
          "name": "symbol",
          "type": "string"
        },
        {
          "internalType": "bool",
          "name": "is_fungible",
          "type": "bool"
        },
        {
          "internalType": "bytes",
          "name": "data",
          "type": "bytes"
        }
      ],
      "name": "create",
      "outputs": [],
      "stateMutability": "nonpayable",
      "type": "function"
    }
  ],
  "bytecode": "0x608060405234801561001057600080fd5b5061393a806100206000396000f3fe608060405234801561001057600080fd5b506004361061002b5760003560e01c8063fdd9b5d514610030575b600080fd5b61004361003e366004610388565b610045565b005b821561017d576000858560405161005b906102b2565b6100669291906104a8565b604051809103906000f080158015610082573d6000803e3d6000fd5b50905073ffffffffffffffffffffffffffffffffffffffff811663f2fde38b336040517fffffffff0000000000000000000000000000000000000000000000000000000060e084901b16815273ffffffffffffffffffffffffffffffffffffffff9091166004820152602401600060405180830381600087803b15801561010857600080fd5b505af115801561011c573d6000803e3d6000fd5b505050508073ffffffffffffffffffffffffffffffffffffffff167fdd036ff3de86f25bffbed1ff1e9aad96a4715d642b86266ad08f93035e2b70d887876001878760405161016f9594939291906104d6565b60405180910390a2506102ab565b6000858560405161018d906102bf565b6101989291906104a8565b604051809103906000f0801580156101b4573d6000803e3d6000fd5b50905073ffffffffffffffffffffffffffffffffffffffff811663f2fde38b336040517fffffffff0000000000000000000000000000000000000000000000000000000060e084901b16815273ffffffffffffffffffffffffffffffffffffffff9091166004820152602401600060405180830381600087803b15801561023a57600080fd5b505af115801561024e573d6000803e3d6000fd5b505050508073ffffffffffffffffffffffffffffffffffffffff167fdd036ff3de86f25bffbed1ff1e9aad96a4715d642b86266ad08f93035e2b70d88787600087876040516102a19594939291906104d6565b60405180910390a2505b5050505050565b6114188061053b83390190565b611fb28061195383390190565b7f4e487b7100000000000000000000000000000000000000000000000000000000600052604160045260246000fd5b600082601f83011261030c57600080fd5b813567ffffffffffffffff80821115610327576103276102cc565b604051601f8301601f19908116603f0116810190828211818310171561034f5761034f6102cc565b8160405283815286602085880101111561036857600080fd5b836020870160208301376000602085830101528094505050505092915050565b6000806000806000608086880312156103a057600080fd5b853567ffffffffffffffff808211156103b857600080fd5b6103c489838a016102fb565b965060208801359150808211156103da57600080fd5b6103e689838a016102fb565b95506040880135915081151582146103fd57600080fd5b9093506060870135908082111561041357600080fd5b818801915088601f83011261042757600080fd5b81358181111561043657600080fd5b89602082850101111561044857600080fd5b9699959850939650602001949392505050565b6000815180845260005b8181101561048157602081850181015186830182015201610465565b81811115610493576000602083870101525b50601f01601f19169290920160200192915050565b6040815260006104bb604083018561045b565b82810360208401526104cd818561045b565b95945050505050565b6080815260006104e9608083018861045b565b82810360208401526104fb818861045b565b905085151560408401528281036060840152838152838560208301376000602085830101526020601f19601f860116820101915050969550505050505056fe60806040523480156200001157600080fd5b506040516200141838038062001418833981016040819052620000349162000253565b8181620000413362000077565b815162000056906004906020850190620000c7565b5080516200006c906005906020840190620000c7565b505050505062000312565b600080546001600160a01b038381166001600160a01b0319831681178455604051919092169283917f8be0079c531659141344cd1fd0a4f28419497f9722a3daafe3b4186f6b6457e09190a35050565b828054620000d590620002bd565b90600052602060002090601f016020900481019282620000f9576000855562000144565b82601f106200011457805160ff191683800117855562000144565b8280016001018555821562000144579182015b828111156200014457825182559160200191906001019062000127565b506200015292915062000156565b5090565b5b8082111562000152576000815560010162000157565b7f4e487b7100000000000000000000000000000000000000000000000000000000600052604160045260246000fd5b600082601f830112620001ae57600080fd5b81516001600160401b0380821115620001cb57620001cb6200016d565b604051601f8301601f19908116603f01168101908282118183101715620001f657620001f66200016d565b816040528381526020925086838588010111156200021357600080fd5b600091505b8382101562000237578582018301518183018401529082019062000218565b83821115620002495760008385830101525b9695505050505050565b600080604083850312156200026757600080fd5b82516001600160401b03808211156200027f57600080fd5b6200028d868387016200019c565b93506020850151915080821115620002a457600080fd5b50620002b3858286016200019c565b9150509250929050565b600181811c90821680620002d257607f821691505b6020821081036200030c577f4e487b7100000000000000000000000000000000000000000000000000000000600052602260045260246000fd5b50919050565b6110f680620003226000396000f3fe608060405234801561001057600080fd5b50600436106101365760003560e01c806383e49c53116100b2578063a457c2d711610081578063c0ea7a7a11610066578063c0ea7a7a14610278578063dd62ed3e1461028b578063f2fde38b146102c457600080fd5b8063a457c2d714610252578063a9059cbb1461026557600080fd5b806383e49c53146102095780638da5cb5b1461021c57806395d89b411461023757806396adfe421461023f57600080fd5b8063313ce5671161010957806370a08231116100ee57806370a08231146101c3578063715018a6146101ec5780637b5eb564146101f657600080fd5b8063313ce567146101a157806339509351146101b057600080fd5b806306fdde031461013b578063095ea7b31461015957806318160ddd1461017c57806323b872dd1461018e575b600080fd5b6101436102d7565b6040516101509190610e03565b60405180910390f35b61016c610167366004610e74565b610369565b6040519015158152602001610150565b6003545b604051908152602001610150565b61016c61019c366004610e9e565b61037f565b60405160128152602001610150565b61016c6101be366004610e74565b610443565b6101806101d1366004610eda565b6001600160a01b031660009081526001602052604090205490565b6101f461047f565b005b61016c610204366004610f45565b6104e5565b6101f4610217366004610f45565b6104fa565b6000546040516001600160a01b039091168152602001610150565b610143610588565b6101f461024d366004610f45565b610597565b61016c610260366004610e74565b6105fb565b61016c610273366004610e74565b6106ac565b6101f4610286366004610f9f565b6106b9565b61018061029936600461100e565b6001600160a01b03918216600090815260026020908152604080832093909416825291909152205490565b6101f46102d2366004610eda565b6106ed565b6060600480546102e690611041565b80601f016020809104026020016040519081016040528092919081815260200182805461031290611041565b801561035f5780601f106103345761010080835404028352916020019161035f565b820191906000526020600020905b81548152906001019060200180831161034257829003601f168201915b5050505050905090565b60006103763384846107cf565b50600192915050565b600061038c848484610928565b6001600160a01b03841660009081526002602090815260408083203384529091529020548281101561042b5760405162461bcd60e51b815260206004820152602860248201527f45524332303a207472616e7366657220616d6f756e742065786365656473206160448201527f6c6c6f77616e636500000000000000000000000000000000000000000000000060648201526084015b60405180910390fd5b61043885338584036107cf565b506001949350505050565b3360008181526002602090815260408083206001600160a01b0387168452909152812054909161037691859061047a908690611091565b6107cf565b6000546001600160a01b031633146104d95760405162461bcd60e51b815260206004820181905260248201527f4f776e61626c653a2063616c6c6572206973206e6f7420746865206f776e65726044820152606401610422565b6104e36000610b3f565b565b60006104f18585610369565b95945050505050565b6001600160a01b03841633146105785760405162461bcd60e51b815260206004820152602260248201527f455243323057697468446174613a2063616c6c6572206973206e6f74206f776e60448201527f65720000000000000000000000000000000000000000000000000000000000006064820152608401610422565b6105828484610ba7565b50505050565b6060600580546102e690611041565b6000546001600160a01b031633146105f15760405162461bcd60e51b815260206004820181905260248201527f4f776e61626c653a2063616c6c6572206973206e6f7420746865206f776e65726044820152606401610422565b6105828484610d24565b3360009081526002602090815260408083206001600160a01b0386168452909152812054828110156106955760405162461bcd60e51b815260206004820152602560248201527f45524332303a2064656372656173656420616c6c6f77616e63652062656c6f7760448201527f207a65726f0000000000000000000000000000000000000000000000000000006064820152608401610422565b6106a233858584036107cf565b5060019392505050565b6000610376338484610928565b336001600160a01b038616036106d9576106d384846106ac565b506106e6565b6106e485858561037f565b505b5050505050565b6000546001600160a01b031633146107475760405162461bcd60e51b815260206004820181905260248201527f4f776e61626c653a2063616c6c6572206973206e6f7420746865206f776e65726044820152606401610422565b6001600160a01b0381166107c35760405162461bcd60e51b815260206004820152602660248201527f4f776e61626c653a206e6577206f776e657220697320746865207a65726f206160448201527f64647265737300000000000000000000000000000000000000000000000000006064820152608401610422565b6107cc81610b3f565b50565b6001600160a01b03831661084a5760405162461bcd60e51b8152602060048201526024808201527f45524332303a20617070726f76652066726f6d20746865207a65726f2061646460448201527f72657373000000000000000000000000000000000000000000000000000000006064820152608401610422565b6001600160a01b0382166108c65760405162461bcd60e51b815260206004820152602260248201527f45524332303a20617070726f766520746f20746865207a65726f20616464726560448201527f73730000000000000000000000000000000000000000000000000000000000006064820152608401610422565b6001600160a01b0383811660008181526002602090815260408083209487168084529482529182902085905590518481527f8c5be1e5ebec7d5bd14f71427d1e84f3dd0314c0f7b2291e5b200ac8c7c3b92591015b60405180910390a3505050565b6001600160a01b0383166109a45760405162461bcd60e51b815260206004820152602560248201527f45524332303a207472616e736665722066726f6d20746865207a65726f20616460448201527f64726573730000000000000000000000000000000000000000000000000000006064820152608401610422565b6001600160a01b038216610a205760405162461bcd60e51b815260206004820152602360248201527f45524332303a207472616e7366657220746f20746865207a65726f206164647260448201527f65737300000000000000000000000000000000000000000000000000000000006064820152608401610422565b6001600160a01b03831660009081526001602052604090205481811015610aaf5760405162461bcd60e51b815260206004820152602660248201527f45524332303a207472616e7366657220616d6f756e742065786365656473206260448201527f616c616e636500000000000000000000000000000000000000000000000000006064820152608401610422565b6001600160a01b03808516600090815260016020526040808220858503905591851681529081208054849290610ae6908490611091565b92505081905550826001600160a01b0316846001600160a01b03167fddf252ad1be2c89b69c2b068fc378daa952ba7f163c4a11628f55a4df523b3ef84604051610b3291815260200190565b60405180910390a3610582565b600080546001600160a01b038381167fffffffffffffffffffffffff0000000000000000000000000000000000000000831681178455604051919092169283917f8be0079c531659141344cd1fd0a4f28419497f9722a3daafe3b4186f6b6457e09190a35050565b6001600160a01b038216610c235760405162461bcd60e51b815260206004820152602160248201527f45524332303a206275726e2066726f6d20746865207a65726f2061646472657360448201527f73000000000000000000000000000000000000000000000000000000000000006064820152608401610422565b6001600160a01b03821660009081526001602052604090205481811015610cb25760405162461bcd60e51b815260206004820152602260248201527f45524332303a206275726e20616d6f756e7420657863656564732062616c616e60448201527f63650000000000000000000000000000000000000000000000000000000000006064820152608401610422565b6001600160a01b0383166000908152600160205260408120838303905560038054849290610ce19084906110a9565b90915550506040518281526000906001600160a01b038516907fddf252ad1be2c89b69c2b068fc378daa952ba7f163c4a11628f55a4df523b3ef9060200161091b565b6001600160a01b038216610d7a5760405162461bcd60e51b815260206004820152601f60248201527f45524332303a206d696e7420746f20746865207a65726f2061646472657373006044820152606401610422565b8060036000828254610d8c9190611091565b90915550506001600160a01b03821660009081526001602052604081208054839290610db9908490611091565b90915550506040518181526001600160a01b038316906000907fddf252ad1be2c89b69c2b068fc378daa952ba7f163c4a11628f55a4df523b3ef9060200160405180910390a35050565b600060208083528351808285015260005b81811015610e3057858101830151858201604001528201610e14565b81811115610e42576000604083870101525b50601f01601f1916929092016040019392505050565b80356001600160a01b0381168114610e6f57600080fd5b919050565b60008060408385031215610e8757600080fd5b610e9083610e58565b946020939093013593505050565b600080600060608486031215610eb357600080fd5b610ebc84610e58565b9250610eca60208501610e58565b9150604084013590509250925092565b600060208284031215610eec57600080fd5b610ef582610e58565b9392505050565b60008083601f840112610f0e57600080fd5b50813567ffffffffffffffff811115610f2657600080fd5b602083019150836020828501011115610f3e57600080fd5b9250929050565b60008060008060608587031215610f5b57600080fd5b610f6485610e58565b935060208501359250604085013567ffffffffffffffff811115610f8757600080fd5b610f9387828801610efc565b95989497509550505050565b600080600080600060808688031215610fb757600080fd5b610fc086610e58565b9450610fce60208701610e58565b935060408601359250606086013567ffffffffffffffff811115610ff157600080fd5b610ffd88828901610efc565b969995985093965092949392505050565b6000806040838503121561102157600080fd5b61102a83610e58565b915061103860208401610e58565b90509250929050565b600181811c9082168061105557607f821691505b60208210810361107557634e487b7160e01b600052602260045260246000fd5b50919050565b634e487b7160e01b600052601160045260246000fd5b600082198211156110a4576110a461107b565b500190565b6000828210156110bb576110bb61107b565b50039056fea2646970667358221220ed77ffae10dd03e2048ca100fbe8159c11193c7d56c3e2d9aee9fdb2d13eff6664736f6c634300080d003360806040523480156200001157600080fd5b5060405162001fb238038062001fb2833981016040819052620000349162000253565b8181620000413362000077565b815162000056906001906020850190620000c7565b5080516200006c906002906020840190620000c7565b505050505062000312565b600080546001600160a01b038381166001600160a01b0319831681178455604051919092169283917f8be0079c531659141344cd1fd0a4f28419497f9722a3daafe3b4186f6b6457e09190a35050565b828054620000d590620002bd565b90600052602060002090601f016020900481019282620000f9576000855562000144565b82601f106200011457805160ff191683800117855562000144565b8280016001018555821562000144579182015b828111156200014457825182559160200191906001019062000127565b506200015292915062000156565b5090565b5b8082111562000152576000815560010162000157565b7f4e487b7100000000000000000000000000000000000000000000000000000000600052604160045260246000fd5b600082601f830112620001ae57600080fd5b81516001600160401b0380821115620001cb57620001cb6200016d565b604051601f8301601f19908116603f01168101908282118183101715620001f657620001f66200016d565b816040528381526020925086838588010111156200021357600080fd5b600091505b8382101562000237578582018301518183018401529082019062000218565b83821115620002495760008385830101525b9695505050505050565b600080604083850312156200026757600080fd5b82516001600160401b03808211156200027f57600080fd5b6200028d868387016200019c565b93506020850151915080821115620002a457600080fd5b50620002b3858286016200019c565b9150509250929050565b600181811c90821680620002d257607f821691505b6020821081036200030c577f4e487b7100000000000000000000000000000000000000000000000000000000600052602260045260246000fd5b50919050565b611c9080620003226000396000f3fe608060405234801561001057600080fd5b50600436106101775760003560e01c80637b5eb564116100d8578063a22cb4651161008c578063c87b56dd11610066578063c87b56dd146102f9578063e985e9c51461030c578063f2fde38b1461034857600080fd5b8063a22cb465146102c0578063b88d4fde146102d3578063c0ea7a7a146102e657600080fd5b80638da5cb5b116100bd5780638da5cb5b1461029457806395d89b41146102a557806396adfe42146102ad57600080fd5b80637b5eb5641461026e57806383e49c531461028157600080fd5b806323b872dd1161012f5780636352211e116101145780636352211e1461023257806370a0823114610245578063715018a61461026657600080fd5b806323b872dd1461020c57806342842e0e1461021f57600080fd5b8063081812fc11610160578063081812fc146101b9578063095ea7b3146101e45780631cbf311d146101f957600080fd5b806301ffc9a71461017c57806306fdde03146101a4575b600080fd5b61018f61018a3660046116ee565b61035b565b60405190151581526020015b60405180910390f35b6101ac6103f8565b60405161019b9190611763565b6101cc6101c7366004611776565b61048a565b6040516001600160a01b03909116815260200161019b565b6101f76101f23660046117ab565b610535565b005b6101f761020736600461182e565b610666565b6101f761021a36600461188f565b610676565b6101f761022d36600461188f565b6106fd565b6101cc610240366004611776565b610718565b6102586102533660046118cb565b6107a3565b60405190815260200161019b565b6101f761083d565b6101f761027c3660046118e6565b6108a3565b6101f761028f3660046118e6565b6108ad565b6000546001600160a01b03166101cc565b6101ac610934565b6101f76102bb3660046118e6565b610943565b6101f76102ce366004611928565b6109de565b6101f76102e1366004611971565b6109ed565b6101f76102f4366004611a4d565b610a75565b6101ac610307366004611776565b610abe565b61018f61031a366004611abc565b6001600160a01b03918216600090815260066020908152604080832093909416825291909152205460ff1690565b6101f76103563660046118cb565b610bd9565b60006001600160e01b031982167f80ac58cd0000000000000000000000000000000000000000000000000000000014806103be57506001600160e01b031982167f5b5e139f00000000000000000000000000000000000000000000000000000000145b806103f257507f01ffc9a7000000000000000000000000000000000000000000000000000000006001600160e01b03198316145b92915050565b60606001805461040790611ae6565b80601f016020809104026020016040519081016040528092919081815260200182805461043390611ae6565b80156104805780601f1061045557610100808354040283529160200191610480565b820191906000526020600020905b81548152906001019060200180831161046357829003601f168201915b5050505050905090565b6000818152600360205260408120546001600160a01b03166105195760405162461bcd60e51b815260206004820152602c60248201527f4552433732313a20617070726f76656420717565727920666f72206e6f6e657860448201527f697374656e7420746f6b656e000000000000000000000000000000000000000060648201526084015b60405180910390fd5b506000908152600560205260409020546001600160a01b031690565b600061054082610718565b9050806001600160a01b0316836001600160a01b0316036105c95760405162461bcd60e51b815260206004820152602160248201527f4552433732313a20617070726f76616c20746f2063757272656e74206f776e6560448201527f72000000000000000000000000000000000000000000000000000000000000006064820152608401610510565b336001600160a01b03821614806105e557506105e5813361031a565b6106575760405162461bcd60e51b815260206004820152603860248201527f4552433732313a20617070726f76652063616c6c6572206973206e6f74206f7760448201527f6e6572206e6f7220617070726f76656420666f7220616c6c00000000000000006064820152608401610510565b6106618383610cbb565b505050565b61067084846109de565b50505050565b6106803382610d36565b6106f25760405162461bcd60e51b815260206004820152603160248201527f4552433732313a207472616e736665722063616c6c6572206973206e6f74206f60448201527f776e6572206e6f7220617070726f7665640000000000000000000000000000006064820152608401610510565b610661838383610e3e565b610661838383604051806020016040528060008152506109ed565b6000818152600360205260408120546001600160a01b0316806103f25760405162461bcd60e51b815260206004820152602960248201527f4552433732313a206f776e657220717565727920666f72206e6f6e657869737460448201527f656e7420746f6b656e00000000000000000000000000000000000000000000006064820152608401610510565b60006001600160a01b0382166108215760405162461bcd60e51b815260206004820152602a60248201527f4552433732313a2062616c616e636520717565727920666f7220746865207a6560448201527f726f2061646472657373000000000000000000000000000000000000000000006064820152608401610510565b506001600160a01b031660009081526004602052604090205490565b6000546001600160a01b031633146108975760405162461bcd60e51b815260206004820181905260248201527f4f776e61626c653a2063616c6c6572206973206e6f7420746865206f776e65726044820152606401610510565b6108a16000611018565b565b6106708484610535565b6001600160a01b038416331461092b5760405162461bcd60e51b815260206004820152602360248201527f45524337323157697468446174613a2063616c6c6572206973206e6f74206f7760448201527f6e657200000000000000000000000000000000000000000000000000000000006064820152608401610510565b61067083611075565b60606002805461040790611ae6565b6000546001600160a01b0316331461099d5760405162461bcd60e51b815260206004820181905260248201527f4f776e61626c653a2063616c6c6572206973206e6f7420746865206f776e65726044820152606401610510565b610670848484848080601f01602080910402602001604051908101604052809392919081815260200183838082843760009201919091525061111d92505050565b6109e93383836111a6565b5050565b6109f73383610d36565b610a695760405162461bcd60e51b815260206004820152603160248201527f4552433732313a207472616e736665722063616c6c6572206973206e6f74206f60448201527f776e6572206e6f7220617070726f7665640000000000000000000000000000006064820152608401610510565b61067084848484611274565b610ab785858585858080601f0160208091040260200160405190810160405280939291908181526020018383808284376000920191909152506109ed92505050565b5050505050565b6000818152600360205260409020546060906001600160a01b0316610b4b5760405162461bcd60e51b815260206004820152602f60248201527f4552433732314d657461646174613a2055524920717565727920666f72206e6f60448201527f6e6578697374656e7420746f6b656e00000000000000000000000000000000006064820152608401610510565b6000610b8760408051808201909152601081527f66697265666c793a2f2f746f6b656e2f00000000000000000000000000000000602082015290565b90506000815111610ba75760405180602001604052806000815250610bd2565b80610bb1846112fd565b604051602001610bc2929190611b20565b6040516020818303038152906040525b9392505050565b6000546001600160a01b03163314610c335760405162461bcd60e51b815260206004820181905260248201527f4f776e61626c653a2063616c6c6572206973206e6f7420746865206f776e65726044820152606401610510565b6001600160a01b038116610caf5760405162461bcd60e51b815260206004820152602660248201527f4f776e61626c653a206e6577206f776e657220697320746865207a65726f206160448201527f64647265737300000000000000000000000000000000000000000000000000006064820152608401610510565b610cb881611018565b50565b6000818152600560205260409020805473ffffffffffffffffffffffffffffffffffffffff19166001600160a01b0384169081179091558190610cfd82610718565b6001600160a01b03167f8c5be1e5ebec7d5bd14f71427d1e84f3dd0314c0f7b2291e5b200ac8c7c3b92560405160405180910390a45050565b6000818152600360205260408120546001600160a01b0316610dc05760405162461bcd60e51b815260206004820152602c60248201527f4552433732313a206f70657261746f7220717565727920666f72206e6f6e657860448201527f697374656e7420746f6b656e00000000000000000000000000000000000000006064820152608401610510565b6000610dcb83610718565b9050806001600160a01b0316846001600160a01b03161480610e065750836001600160a01b0316610dfb8461048a565b6001600160a01b0316145b80610e3657506001600160a01b0380821660009081526006602090815260408083209388168352929052205460ff165b949350505050565b826001600160a01b0316610e5182610718565b6001600160a01b031614610ecd5760405162461bcd60e51b815260206004820152602960248201527f4552433732313a207472616e73666572206f6620746f6b656e2074686174206960448201527f73206e6f74206f776e00000000000000000000000000000000000000000000006064820152608401610510565b6001600160a01b038216610f485760405162461bcd60e51b8152602060048201526024808201527f4552433732313a207472616e7366657220746f20746865207a65726f2061646460448201527f72657373000000000000000000000000000000000000000000000000000000006064820152608401610510565b610f53600082610cbb565b6001600160a01b0383166000908152600460205260408120805460019290610f7c908490611b65565b90915550506001600160a01b0382166000908152600460205260408120805460019290610faa908490611b7c565b9091555050600081815260036020526040808220805473ffffffffffffffffffffffffffffffffffffffff19166001600160a01b0386811691821790925591518493918716917fddf252ad1be2c89b69c2b068fc378daa952ba7f163c4a11628f55a4df523b3ef91a4505050565b600080546001600160a01b0383811673ffffffffffffffffffffffffffffffffffffffff19831681178455604051919092169283917f8be0079c531659141344cd1fd0a4f28419497f9722a3daafe3b4186f6b6457e09190a35050565b600061108082610718565b905061108d600083610cbb565b6001600160a01b03811660009081526004602052604081208054600192906110b6908490611b65565b9091555050600082815260036020526040808220805473ffffffffffffffffffffffffffffffffffffffff19169055518391906001600160a01b038416907fddf252ad1be2c89b69c2b068fc378daa952ba7f163c4a11628f55a4df523b3ef908390a45050565b6111278383611432565b6111346000848484611581565b6106615760405162461bcd60e51b815260206004820152603260248201527f4552433732313a207472616e7366657220746f206e6f6e20455243373231526560448201527f63656976657220696d706c656d656e74657200000000000000000000000000006064820152608401610510565b816001600160a01b0316836001600160a01b0316036112075760405162461bcd60e51b815260206004820152601960248201527f4552433732313a20617070726f766520746f2063616c6c6572000000000000006044820152606401610510565b6001600160a01b03838116600081815260066020908152604080832094871680845294825291829020805460ff191686151590811790915591519182527f17307eab39ab6107e8899845ad3d59bd9653f200f220920489ca2b5937696c31910160405180910390a3505050565b61127f848484610e3e565b61128b84848484611581565b6106705760405162461bcd60e51b815260206004820152603260248201527f4552433732313a207472616e7366657220746f206e6f6e20455243373231526560448201527f63656976657220696d706c656d656e74657200000000000000000000000000006064820152608401610510565b60608160000361134057505060408051808201909152600181527f3000000000000000000000000000000000000000000000000000000000000000602082015290565b8160005b811561136a578061135481611b94565b91506113639050600a83611bc3565b9150611344565b60008167ffffffffffffffff8111156113855761138561195b565b6040519080825280601f01601f1916602001820160405280156113af576020820181803683370190505b5090505b8415610e36576113c4600183611b65565b91506113d1600a86611bd7565b6113dc906030611b7c565b60f81b8183815181106113f1576113f1611beb565b60200101907effffffffffffffffffffffffffffffffffffffffffffffffffffffffffffff1916908160001a90535061142b600a86611bc3565b94506113b3565b6001600160a01b0382166114885760405162461bcd60e51b815260206004820181905260248201527f4552433732313a206d696e7420746f20746865207a65726f20616464726573736044820152606401610510565b6000818152600360205260409020546001600160a01b0316156114ed5760405162461bcd60e51b815260206004820152601c60248201527f4552433732313a20746f6b656e20616c7265616479206d696e746564000000006044820152606401610510565b6001600160a01b0382166000908152600460205260408120805460019290611516908490611b7c565b9091555050600081815260036020526040808220805473ffffffffffffffffffffffffffffffffffffffff19166001600160a01b03861690811790915590518392907fddf252ad1be2c89b69c2b068fc378daa952ba7f163c4a11628f55a4df523b3ef908290a45050565b60006001600160a01b0384163b156116cd57604051630a85bd0160e11b81526001600160a01b0385169063150b7a02906115c5903390899088908890600401611c01565b6020604051808303816000875af1925050508015611600575060408051601f3d908101601f191682019092526115fd91810190611c3d565b60015b6116b3573d80801561162e576040519150601f19603f3d011682016040523d82523d6000602084013e611633565b606091505b5080516000036116ab5760405162461bcd60e51b815260206004820152603260248201527f4552433732313a207472616e7366657220746f206e6f6e20455243373231526560448201527f63656976657220696d706c656d656e74657200000000000000000000000000006064820152608401610510565b805181602001fd5b6001600160e01b031916630a85bd0160e11b149050610e36565b506001949350505050565b6001600160e01b031981168114610cb857600080fd5b60006020828403121561170057600080fd5b8135610bd2816116d8565b60005b8381101561172657818101518382015260200161170e565b838111156106705750506000910152565b6000815180845261174f81602086016020860161170b565b601f01601f19169290920160200192915050565b602081526000610bd26020830184611737565b60006020828403121561178857600080fd5b5035919050565b80356001600160a01b03811681146117a657600080fd5b919050565b600080604083850312156117be57600080fd5b6117c78361178f565b946020939093013593505050565b803580151581146117a657600080fd5b60008083601f8401126117f757600080fd5b50813567ffffffffffffffff81111561180f57600080fd5b60208301915083602082850101111561182757600080fd5b9250929050565b6000806000806060858703121561184457600080fd5b61184d8561178f565b935061185b602086016117d5565b9250604085013567ffffffffffffffff81111561187757600080fd5b611883878288016117e5565b95989497509550505050565b6000806000606084860312156118a457600080fd5b6118ad8461178f565b92506118bb6020850161178f565b9150604084013590509250925092565b6000602082840312156118dd57600080fd5b610bd28261178f565b600080600080606085870312156118fc57600080fd5b6119058561178f565b935060208501359250604085013567ffffffffffffffff81111561187757600080fd5b6000806040838503121561193b57600080fd5b6119448361178f565b9150611952602084016117d5565b90509250929050565b634e487b7160e01b600052604160045260246000fd5b6000806000806080858703121561198757600080fd5b6119908561178f565b935061199e6020860161178f565b925060408501359150606085013567ffffffffffffffff808211156119c257600080fd5b818701915087601f8301126119d657600080fd5b8135818111156119e8576119e861195b565b604051601f8201601f19908116603f01168101908382118183101715611a1057611a1061195b565b816040528281528a6020848701011115611a2957600080fd5b82602086016020830137600060208483010152809550505050505092959194509250565b600080600080600060808688031215611a6557600080fd5b611a6e8661178f565b9450611a7c6020870161178f565b935060408601359250606086013567ffffffffffffffff811115611a9f57600080fd5b611aab888289016117e5565b969995985093965092949392505050565b60008060408385031215611acf57600080fd5b611ad88361178f565b91506119526020840161178f565b600181811c90821680611afa57607f821691505b602082108103611b1a57634e487b7160e01b600052602260045260246000fd5b50919050565b60008351611b3281846020880161170b565b835190830190611b4681836020880161170b565b01949350505050565b634e487b7160e01b600052601160045260246000fd5b600082821015611b7757611b77611b4f565b500390565b60008219821115611b8f57611b8f611b4f565b500190565b600060018201611ba657611ba6611b4f565b5060010190565b634e487b7160e01b600052601260045260246000fd5b600082611bd257611bd2611bad565b500490565b600082611be657611be6611bad565b500690565b634e487b7160e01b600052603260045260246000fd5b60006001600160a01b03808716835280861660208401525083604083015260806060830152611c336080830184611737565b9695505050505050565b600060208284031215611c4f57600080fd5b8151610bd2816116d856fea2646970667358221220a3de2d75f5a06e99d65de7194de4576231e00ac9af879c69245a0b9f3289839264736f6c634300080d0033a26469706673582212201d8c4a1072793d58eb4f0f2b6ff0114849118f363402e10fe6daf3d5e70998f164736f6c634300080d0033",
  "immutableReferences": {},
  "source": "//SPDX-License-Identifier: Unlicense\n\npragma solidity ^0.8.0;\n\nimport '@openzeppelin/contracts/utils/Context.sol';\nimport './ERC20WithData.sol';\nimport './ERC721WithData.sol';\n\ncontract TokenFactory is Context {\n    event TokenCreate(address indexed contract_address, string name, string symbol, bool is_fungible, bytes data);\n\n    function create(\n        string memory name,\n        string memory symbol,\n        bool is_fungible,\n        bytes calldata data\n    ) external virtual {\n        if (is_fungible) {\n            ERC20WithData erc20 = new ERC20WithData(name, symbol);\n            erc20.transferOwnership(_msgSender());\n            emit TokenCreate(address(erc20), name, symbol, true, data);\n        } else {\n            ERC721WithData erc721 = new ERC721WithData(name, symbol);\n            erc721.transferOwnership(_msgSender());\n            emit TokenCreate(address(erc721), name, symbol, false, data);\n        }\n    }\n}\n",
  "sourcePath": "/Users/andrew/workspace/firefly-tokens-erc20-erc721/solidity/contracts/TokenFactory.sol",
  "compiler": {
    "name": "solc",
    "version": "0.8.13+commit.abaa5c0e.Emscripten.clang"
  },
  "schemaVersion": "3.4.4",
  "updatedAt": "2022-04-19T12:23:13.886Z",
  "devdoc": {
    "kind": "dev",
    "methods": {},
    "version": 1
  },
  "userdoc": {
    "kind": "user",
    "methods": {},
    "version": 1
  }
}